{
	"data": {
		"bytecode": {
			"linkReferences": {},
			"object": "60e060405260405161586038038061586083398101604081905261002291610696565b60405180604001604052806007815260200166494e4645524e4f60c81b8152506040518060400160405280600381526020016224a72360e91b815250816003908161006d919061079e565b50600461007a828261079e565b50505061008e82848661017060201b60201c565b6001600160a01b031660c052604051859085908590859085906100b09061064e565b63ffffffff90951685526001600160a01b03938416602086015291831660408501528216606084015216608082015260a001604051809103905ff0801580156100fb573d5f803e3d5ffd5b506001600160a01b031660a08190526040518490889061011a9061065b565b6001600160a01b03938416815292909116602083015263ffffffff166040820152606001604051809103905ff080158015610157573d5f803e3d5ffd5b506001600160a01b031660805250610934945050505050565b5f803090505f80846001600160a01b0316630902f1ac6040518163ffffffff1660e01b8152600401606060405180830381865afa1580156101b3573d5f803e3d5ffd5b505050506040513d601f19601f820116820180604052508101906101d7919061086e565b50915091505f856001600160a01b0316630dfe16816040518163ffffffff1660e01b8152600401602060405180830381865afa158015610219573d5f803e3d5ffd5b505050506040513d601f19601f8201168201806040525081019061023d91906108ae565b90505f80886001600160a01b0316836001600160a01b031614610261578385610264565b84845b604051630153543560e21b81526ba18f07d736b90be55000000060048201526001600160701b0380841660248301528216604482015291935091505f90737a250d5630b4cf539739df2c5dacb4c659f2488d9063054d50d490606401602060405180830381865afa1580156102db573d5f803e3d5ffd5b505050506040513d601f19601f820116820180604052508101906102ff91906108c7565b90506ba18f07d736b90be5500000005f806001600160a01b03808b16908f161061032a57898e61032d565b8d8a5b915091505f808f6001600160a01b0316846001600160a01b031614610353578486610356565b85855b90925090505f633b9aca006103868461037785670de0b6b3a76400006108de565b6103819190610915565b6104ba565b61039d906c010000000000000000000000006108de565b6103a79190610915565b6040516309f56ab160e11b81526001600160a01b038088166004830152808716602483015261271060448301528216606482015290915073c36442b4a4522e871399cd717abdd847ab11fe889081906313ead562906084016020604051808303815f875af115801561041b573d5f803e3d5ffd5b505050506040513d601f19601f8201168201806040525081019061043f91906108ae565b9e508e6001600160a01b03166332148f6760646040518263ffffffff1660e01b8152600401610478919061ffff91909116815260200190565b5f604051808303815f87803b15801561048f575f80fd5b505af11580156104a1573d5f803e3d5ffd5b5050505050505050505050505050505050509392505050565b5f815f036104c957505f919050565b5f60016104d5846105a5565b901c6001901b905060018184816104ee576104ee610901565b048201901c9050600181848161050657610506610901565b048201901c9050600181848161051e5761051e610901565b048201901c9050600181848161053657610536610901565b048201901c9050600181848161054e5761054e610901565b048201901c9050600181848161056657610566610901565b048201901c9050600181848161057e5761057e610901565b048201901c905061059e8182858161059857610598610901565b04610639565b9392505050565b5f80608083901c156105b957608092831c92015b604083901c156105cb57604092831c92015b602083901c156105dd57602092831c92015b601083901c156105ef57601092831c92015b600883901c1561060157600892831c92015b600483901c1561061357600492831c92015b600283901c1561062557600292831c92015b600183901c15610633576001015b92915050565b5f818310610647578161059e565b5090919050565b6135128061131a83390190565b6110348061482c83390190565b805163ffffffff8116811461067b575f80fd5b919050565b80516001600160a01b038116811461067b575f80fd5b5f805f805f8060c087890312156106ab575f80fd5b6106b487610668565b95506106c260208801610668565b94506106d060408801610680565b93506106de60608801610680565b92506106ec60808801610680565b91506106fa60a08801610680565b90509295509295509295565b634e487b7160e01b5f52604160045260245ffd5b600181811c9082168061072e57607f821691505b60208210810361074c57634e487b7160e01b5f52602260045260245ffd5b50919050565b601f82111561079957805f5260205f20601f840160051c810160208510156107775750805b601f840160051c820191505b81811015610796575f8155600101610783565b50505b505050565b81516001600160401b038111156107b7576107b7610706565b6107cb816107c5845461071a565b84610752565b6020601f8211600181146107fd575f83156107e65750848201515b5f19600385901b1c1916600184901b178455610796565b5f84815260208120601f198516915b8281101561082c578785015182556020948501946001909201910161080c565b508482101561084957868401515f19600387901b60f8161c191681555b50505050600190811b01905550565b80516001600160701b038116811461067b575f80fd5b5f805f60608486031215610880575f80fd5b61088984610858565b925061089760208501610858565b91506108a560408501610668565b90509250925092565b5f602082840312156108be575f80fd5b61059e82610680565b5f602082840312156108d7575f80fd5b5051919050565b808202811582820484141761063357634e487b7160e01b5f52601160045260245ffd5b634e487b7160e01b5f52601260045260245ffd5b5f8261092f57634e487b7160e01b5f52601260045260245ffd5b500490565b60805160a05160c0516109a76109735f395f61026501525f818161023e015281816103df01526105ca01525f81816101dc015261051901526109a75ff3fe608060405234801561000f575f80fd5b50600436106100fb575f3560e01c806379cc679011610093578063a9059cbb11610063578063a9059cbb14610226578063aa6df29914610239578063dc48525d14610260578063dd62ed3e14610287575f80fd5b806379cc6790146101c45780637dc2268c146101d757806395d89b41146102165780639bed7b6c1461021e575f80fd5b8063313ce567116100ce578063313ce5671461016557806340c10f191461017457806342966c681461018957806370a082311461019c575f80fd5b806306fdde03146100ff578063095ea7b31461011d57806318160ddd1461014057806323b872dd14610152575b5f80fd5b6101076102bf565b6040516101149190610800565b60405180910390f35b61013061012b366004610850565b61034f565b6040519015158152602001610114565b6002545b604051908152602001610114565b610130610160366004610878565b610368565b60405160128152602001610114565b610187610182366004610850565b61038b565b005b6101876101973660046108b2565b6103a1565b6101446101aa3660046108c9565b6001600160a01b03165f9081526020819052604090205490565b6101876101d2366004610850565b6103ae565b6101fe7f000000000000000000000000000000000000000000000000000000000000000081565b6040516001600160a01b039091168152602001610114565b6101076103c3565b6101876103d2565b610130610234366004610850565b610412565b6101fe7f000000000000000000000000000000000000000000000000000000000000000081565b6101fe7f000000000000000000000000000000000000000000000000000000000000000081565b6101446102953660046108e9565b6001600160a01b039182165f90815260016020908152604080832093909416825291909152205490565b6060600380546102ce9061091a565b80601f01602080910402602001604051908101604052809291908181526020018280546102fa9061091a565b80156103455780601f1061031c57610100808354040283529160200191610345565b820191905f5260205f20905b81548152906001019060200180831161032857829003601f168201915b5050505050905090565b5f3361035c81858561041f565b60019150505b92915050565b5f33610375858285610431565b6103808585856104b1565b506001949350505050565b61039361050e565b61039d8282610557565b5050565b6103ab338261058b565b50565b6103b9823383610431565b61039d828261058b565b6060600480546102ce9061091a565b6103da6105bf565b6104107f00000000000000000000000000000000000000000000000000000000000000006ba18f07d736b90be550000000610557565b565b5f3361035c8185856104b1565b61042c8383836001610608565b505050565b6001600160a01b038381165f908152600160209081526040808320938616835292905220545f1981146104ab578181101561049d57604051637dc7a0d960e11b81526001600160a01b038416600482015260248101829052604481018390526064015b60405180910390fd5b6104ab84848484035f610608565b50505050565b6001600160a01b0383166104da57604051634b637e8f60e11b81525f6004820152602401610494565b6001600160a01b0382166105035760405163ec442f0560e01b81525f6004820152602401610494565b61042c8383836106da565b336001600160a01b037f000000000000000000000000000000000000000000000000000000000000000016146104105760405163c004a90b60e01b815260040160405180910390fd5b6001600160a01b0382166105805760405163ec442f0560e01b81525f6004820152602401610494565b61039d5f83836106da565b6001600160a01b0382166105b457604051634b637e8f60e11b81525f6004820152602401610494565b61039d825f836106da565b336001600160a01b037f0000000000000000000000000000000000000000000000000000000000000000161461041057604051633579266f60e11b815260040160405180910390fd5b6001600160a01b0384166106315760405163e602df0560e01b81525f6004820152602401610494565b6001600160a01b03831661065a57604051634a1406b160e11b81525f6004820152602401610494565b6001600160a01b038085165f90815260016020908152604080832093871683529290522082905580156104ab57826001600160a01b0316846001600160a01b03167f8c5be1e5ebec7d5bd14f71427d1e84f3dd0314c0f7b2291e5b200ac8c7c3b925846040516106cc91815260200190565b60405180910390a350505050565b6001600160a01b038316610704578060025f8282546106f99190610952565b909155506107749050565b6001600160a01b0383165f90815260208190526040902054818110156107565760405163391434e360e21b81526001600160a01b03851660048201526024810182905260448101839052606401610494565b6001600160a01b0384165f9081526020819052604090209082900390555b6001600160a01b038216610790576002805482900390556107ae565b6001600160a01b0382165f9081526020819052604090208054820190555b816001600160a01b0316836001600160a01b03167fddf252ad1be2c89b69c2b068fc378daa952ba7f163c4a11628f55a4df523b3ef836040516107f391815260200190565b60405180910390a3505050565b602081525f82518060208401528060208501604085015e5f604082850101526040601f19601f83011684010191505092915050565b80356001600160a01b038116811461084b575f80fd5b919050565b5f8060408385031215610861575f80fd5b61086a83610835565b946020939093013593505050565b5f805f6060848603121561088a575f80fd5b61089384610835565b92506108a160208501610835565b929592945050506040919091013590565b5f602082840312156108c2575f80fd5b5035919050565b5f602082840312156108d9575f80fd5b6108e282610835565b9392505050565b5f80604083850312156108fa575f80fd5b61090383610835565b915061091160208401610835565b90509250929050565b600181811c9082168061092e57607f821691505b60208210810361094c57634e487b7160e01b5f52602260045260245ffd5b50919050565b8082018082111561036257634e487b7160e01b5f52601160045260245ffdfea2646970667358221220b81b32b23d9d4c73fd86785ad7a9bbaebf320d4fe66e6923fcbd94a9dec9e17b64736f6c634300081a003361012060408190526009805460ff1916605a1790556135123881900390819083398101604081905261003091610122565b60015f55806001600160a01b03811661006257604051631e4fbdf760e01b81525f600482015260240160405180910390fd5b61006b8161009a565b505063ffffffff909316610100526001600160a01b0390811660c0523360e05291821660a0521660805261018d565b600280546001600160a01b03191690556100b3816100b6565b50565b600180546001600160a01b038381166001600160a01b0319831681179093556040519116919082907f8be0079c531659141344cd1fd0a4f28419497f9722a3daafe3b4186f6b6457e0905f90a35050565b80516001600160a01b038116811461011d575f80fd5b919050565b5f805f805f60a08688031215610136575f80fd5b855163ffffffff81168114610149575f80fd5b945061015760208701610107565b935061016560408701610107565b925061017360608701610107565b915061018160808701610107565b90509295509295909350565b60805160a05160c05160e051610100516132a06102725f395f81816104040152818161064201528181611247015281816112c8015261132c01525f81816102820152818161059101528181610b6901528181610c5201528181610cd001528181610d6a01528181610f4b01528181611848015261225e01525f81816106a0015281816106dc01528181610a7b01528181610e8c015281816111cb015281816115a8015261160401525f818161089401528181610c310152818161117e015281816116570152818161178a01528181611810015261223d01525f61048b01526132a05ff3fe608060405234801561000f575f80fd5b50600436106101a1575f3560e01c806374301fd5116100f3578063d944392311610093578063e61d08ac1161006e578063e61d08ac146103e4578063f2fde38b146103ec578063f38d00f0146103ff578063f460eec214610426575f80fd5b8063d9443923146103a3578063df49d315146103c0578063e30c3978146103d3575f80fd5b80638da5cb5b116100ce5780638da5cb5b146103195780639f0e94601461032a578063ad1b63f41461033d578063b681a68314610390575f80fd5b806374301fd5146102ee578063782ee1701461030157806379ba509714610311575f80fd5b806330dc71ac1161015e57806362913f581161013957806362913f58146102c15780636aadede7146102d45780636f6ccc0d146102dd578063715018a6146102e6575f80fd5b806330dc71ac146102685780633a6002ea1461027d57806340f6ac31146102a4575f80fd5b8063090f8ad4146101a5578063158a3b12146101d4578063186c1ccc146101e75780631bea83fe14610208578063225a46991461023b5780632ec9c3b414610255575b5f80fd5b6004546101ba90610100900463ffffffff1681565b60405163ffffffff90911681526020015b60405180910390f35b6101ba6101e2366004612783565b610439565b6101fa6101f536600461279e565b610487565b6040519081526020016101cb565b61022373c36442b4a4522e871399cd717abdd847ab11fe8881565b6040516001600160a01b0390911681526020016101cb565b61024361053c565b60405160ff90911681526020016101cb565b6101ba610263366004612783565b61054b565b61027b61027636600461279e565b61056f565b005b6102237f000000000000000000000000000000000000000000000000000000000000000081565b6102ac610753565b604080519283526020830191909152016101cb565b61027b6102cf3660046127c3565b610916565b6101fa60085481565b6101fa60055481565b61027b610967565b61027b6102fc3660046127de565b61097a565b6007546101ba9063ffffffff1681565b61027b610ae1565b6001546001600160a01b0316610223565b6101ba6103383660046127c3565b610b2a565b61037061034b366004612783565b60066020525f90815260409020546001600160801b0380821691600160801b90041682565b604080516001600160801b039384168152929091166020830152016101cb565b6101fa61039e36600461279e565b610b65565b6004546103b09060ff1681565b60405190151581526020016101cb565b6102436103ce366004612783565b610c81565b6002546001600160a01b0316610223565b61027b610cb9565b61027b6103fa366004612820565b610dcc565b6101ba7f000000000000000000000000000000000000000000000000000000000000000081565b61027b61043436600461283b565b610e3d565b5f8061044761c4e084612879565b90505f61045762015180836128a9565b90505f6104658260016128d0565b61047290620151806128ec565b61047e9061c4e06128d0565b95945050505050565b5f807f000000000000000000000000000000000000000000000000000000000000000090505f80826001600160a01b0316630902f1ac6040518163ffffffff1660e01b8152600401606060405180830381865afa1580156104ea573d5f803e3d5ffd5b505050506040513d601f19601f8201168201806040525081019061050e9190612928565b5091509150816001600160701b0316816001600160701b031686610532919061296c565b61047e9190612983565b5f61054642610c81565b905090565b5f8061055961c4e084612879565b905061056862015180826128a9565b9392505050565b805f0361058f5760405163b4fa3fb360e01b815260040160405180910390fd5b7f00000000000000000000000000000000000000000000000000000000000000006001600160a01b0316637dc2268c6040518163ffffffff1660e01b8152600401602060405180830381865afa1580156105eb573d5f803e3d5ffd5b505050506040513d601f19601f8201168201806040525081019061060f9190612996565b6001600160a01b0316336001600160a01b0316146106405760405163c004a90b60e01b815260040160405180910390fd5b7f000000000000000000000000000000000000000000000000000000000000000063ffffffff164211801561068e57506004546107089061068c90610100900463ffffffff16426129b1565b115b1561069b5761069b611245565b6106c77f0000000000000000000000000000000000000000000000000000000000000000333084611437565b6040516370a0823160e01b81523060048201527f00000000000000000000000000000000000000000000000000000000000000006001600160a01b0316906370a0823190602401602060405180830381865afa158015610729573d5f803e3d5ffd5b505050506040513d601f19601f8201168201806040525081019061074d91906129c4565b60085550565b6040805180820182526003546001600160f81b038082168352600160f81b90910460ff161515602080840191909152835160808101855283519092168252309082019081526001600160801b0382850181815260608401828152955163fc6f786560e01b81528451600482015292516001600160a01b031660248401525181166044830152935190931660648401525f928392919073c36442b4a4522e871399cd717abdd847ab11fe889063fc6f78659060840160408051808303815f875af1158015610822573d5f803e3d5ffd5b505050506040513d601f19601f8201168201806040525081019061084691906129db565b602084015191955093505f9061085d578385610860565b84845b5060405163a9059cbb60e01b81527384c17675a19be90788cbc7d455b2aeb7ebf650b46004820152602481018290529091507f00000000000000000000000000000000000000000000000000000000000000006001600160a01b03169063a9059cbb906044016020604051808303815f875af11580156108e2573d5f803e3d5ffd5b505050506040513d601f19601f820116820180604052508101906109069190612a0c565b5061090f610cb9565b5050509091565b61091e611534565b60648160ff161180610933575060028160ff16105b156109515760405163b4fa3fb360e01b815260040160405180910390fd5b6009805460ff191660ff92909216919091179055565b61096f611534565b6109785f611561565b565b61098261157a565b61098a611245565b60045460ff166109ad57604051631864d7ab60e21b815260040160405180910390fd5b60075463ffffffff165f9081526006602052604090208054600160801b90046001600160801b0316156109f3576040516331bbcb2160e11b815260040160405180910390fd5b80546001600160801b03908116600160801b810280821784555f9261271092610a2092609692161761296c565b610a2a9190612983565b82549091505f90610a459083906001600160801b03166129b1565b90505f610a5982878763ffffffff166115a2565b90505f610a6c828763ffffffff16611758565b9050610a76610cb9565b610aa17f0000000000000000000000000000000000000000000000000000000000000000338661195f565b6040513390829085907f1b3ed074dce570943c9d4e66776a060e8ac73af4f6b002482b09e561d90f038c905f90a45050505050610add60015f55565b5050565b60025433906001600160a01b03168114610b1e5760405163118cdaa760e01b81526001600160a01b03821660048201526024015b60405180910390fd5b610b2781611561565b50565b610190600560ff83161480610b4257508160ff166006145b15610b5057506105dc919050565b8160ff16600403610b6057506103e85b919050565b5f807f00000000000000000000000000000000000000000000000000000000000000006001600160a01b031663dc48525d6040518163ffffffff1660e01b8152600401602060405180830381865afa158015610bc3573d5f803e3d5ffd5b505050506040513d601f19601f82011682018060405250810190610be79190612996565b90506103845f610bf683611a53565b90508163ffffffff168163ffffffff161015610c10578091505b5f610c1b8484611c0b565b5090505f610c2882611e40565b9050610c7681887f00000000000000000000000000000000000000000000000000000000000000007f000000000000000000000000000000000000000000000000000000000000000061215b565b979650505050505050565b5f600762015180610c9461c4e085612879565b610c9e91906128a9565b610ca99060046128d0565b610cb39190612a25565b92915050565b6040516370a0823160e01b81523060048201525f907f00000000000000000000000000000000000000000000000000000000000000006001600160a01b0316906370a0823190602401602060405180830381865afa158015610d1d573d5f803e3d5ffd5b505050506040513d601f19601f82011682018060405250810190610d4191906129c4565b905080600554610d519190612a4c565b600555604051630852cd8d60e31b8152600481018290527f00000000000000000000000000000000000000000000000000000000000000006001600160a01b0316906342966c68906024015f604051808303815f87803b158015610db3575f80fd5b505af1158015610dc5573d5f803e3d5ffd5b5050505050565b610dd4611534565b600280546001600160a01b0383166001600160a01b03199091168117909155610e056001546001600160a01b031690565b6001600160a01b03167f38d16b8cac22d99fc7c124b9cd0de2d3fa1faef420bfe791d8c362d765e2270060405160405180910390a350565b610e45611534565b60045460ff1615610e6957604051630fd02b6d60e41b815260040160405180910390fd5b6040516370a0823160e01b81523060048201526ba18f07d736b90be550000000907f00000000000000000000000000000000000000000000000000000000000000006001600160a01b0316906370a0823190602401602060405180830381865afa158015610ed9573d5f803e3d5ffd5b505050506040513d601f19601f82011682018060405250810190610efd91906129c4565b1015610f1c57604051631bbc2d7d60e21b815260040160405180910390fd5b6004805460ff191660011790555f610f476ba18f07d736b90be5500000008363ffffffff86166115a2565b90507f00000000000000000000000000000000000000000000000000000000000000006001600160a01b0316639bed7b6c6040518163ffffffff1660e01b81526004015f604051808303815f87803b158015610fa1575f80fd5b505af1158015610fb3573d5f803e3d5ffd5b505050505f805f805f80610fd3876ba18f07d736b90be550000000612235565b955095509550955095509550610ffe8273c36442b4a4522e871399cd717abdd847ab11fe88886122e6565b61101d8173c36442b4a4522e871399cd717abdd847ab11fe88876122e6565b5f604051806101600160405280846001600160a01b03168152602001836001600160a01b0316815260200161271062ffffff16815260200160c880620d89e7196110679190612a5f565b6110719190612a97565b60020b815260200160c880611089620d89e719612ab6565b6110939190612a5f565b61109d9190612a97565b60020b8152602001888152602001878152602001868152602001858152602001306001600160a01b031681526020018b63ffffffff1681525090505f73c36442b4a4522e871399cd717abdd847ab11fe886001600160a01b03166388316456836040518263ffffffff1660e01b81526004016111199190612ad6565b6080604051808303815f875af1158015611135573d5f803e3d5ffd5b505050506040513d601f19601f820116820180604052508101906111599190612b9a565b50506040805180820182526001600160f81b0384168082526001600160a01b038981167f00000000000000000000000000000000000000000000000000000000000000008216146020909301839052600160f81b9092021760035590516370a0823160e01b81523060048201529293507f000000000000000000000000000000000000000000000000000000000000000016916370a082319150602401602060405180830381865afa158015611211573d5f803e3d5ffd5b505050506040513d601f19601f8201168201806040525081019061123591906129c4565b6008555050505050505050505050565b7f000000000000000000000000000000000000000000000000000000000000000063ffffffff1642101561128c57604051631864d7ab60e21b815260040160405180910390fd5b6004545f90610100900463ffffffff16156112be576004546112b990610100900463ffffffff16426129b1565b6112ee565b6112ee63ffffffff7f000000000000000000000000000000000000000000000000000000000000000016426129b1565b90505f805f805f600460019054906101000a900463ffffffff1663ffffffff165f03611356576113238663ffffffff166123da565b919650945092507f000000000000000000000000000000000000000000000000000000000000000091506001905061139f565b61070863ffffffff8716111561139f576113758663ffffffff166123da565b6004549297509095509350610100900463ffffffff169150600190508261139b81612be1565b9350505b801561142f576113b561070861ffff85166128ec565b6113bf90836128d0565b6004805463ffffffff9283166101000264ffffffff00199091161790556040805180820182526001600160801b0380881682525f6020808401828152958b168083526006909152939020915193518116600160801b029316929092179091556007805463ffffffff191690911790555b505050505050565b604080516001600160a01b0385811660248301528481166044830152606480830185905283518084039091018152608490920183526020820180516001600160e01b03166323b872dd60e01b17905291515f9283929088169161149a9190612c01565b5f604051808303815f865af19150503d805f81146114d3576040519150601f19603f3d011682016040523d82523d5f602084013e6114d8565b606091505b50915091508180156115025750805115806115025750808060200190518101906115029190612a0c565b61142f5760405162461bcd60e51b815260206004820152600360248201526229aa2360e91b6044820152606401610b15565b6001546001600160a01b031633146109785760405163118cdaa760e01b8152336004820152602401610b15565b600280546001600160a01b0319169055610b27816125e7565b60025f540361159c57604051633ee5aeb560e01b815260040160405180910390fd5b60025f55565b5f6115e27f0000000000000000000000000000000000000000000000000000000000000000737a250d5630b4cf539739df2c5dacb4c659f2488d866122e6565b6040805160028082526060820183525f926020830190803683370190505090507f0000000000000000000000000000000000000000000000000000000000000000815f8151811061163557611635612c2b565b60200260200101906001600160a01b031690816001600160a01b0316815250507f00000000000000000000000000000000000000000000000000000000000000008160018151811061168957611689612c2b565b6001600160a01b03909216602092830291909101909101526040516338ed173960e01b81525f90737a250d5630b4cf539739df2c5dacb4c659f2488d906338ed1739906116e29089908990879030908b90600401612c3f565b5f604051808303815f875af11580156116fd573d5f803e3d5ffd5b505050506040513d5f823e601f3d908101601f191682016040526117249190810190612d03565b9050806001825161173591906129b1565b8151811061174557611745612c2b565b6020026020010151925050509392505050565b60405163095ea7b360e01b815273e592427a0aece92de3edee1f18e0157c058615646004820152602481018390525f907f00000000000000000000000000000000000000000000000000000000000000006001600160a01b03169063095ea7b3906044016020604051808303815f875af11580156117d8573d5f803e3d5ffd5b505050506040513d601f19601f820116820180604052508101906117fc9190612a0c565b506040516bffffffffffffffffffffffff197f0000000000000000000000000000000000000000000000000000000000000000606090811b8216602084015261027160ec1b60348401527f0000000000000000000000000000000000000000000000000000000000000000901b1660378201525f90604b0160405160208183030381529060405290505f61188f85610b65565b6009549091505f906064906118a79060ff1682612d8f565b6118b49060ff168461296c565b6118be9190612983565b6040805160a0810182528581523060208201528082018890526060810189905260808101839052905163c04b8d5960e01b81529192509073e592427a0aece92de3edee1f18e0157c058615649063c04b8d599061191f908490600401612da8565b6020604051808303815f875af115801561193b573d5f803e3d5ffd5b505050506040513d601f19601f82011682018060405250810190610c7691906129c4565b604080516001600160a01b038481166024830152604480830185905283518084039091018152606490920183526020820180516001600160e01b031663a9059cbb60e01b17905291515f928392908716916119ba9190612c01565b5f604051808303815f865af19150503d805f81146119f3576040519150601f19603f3d011682016040523d82523d5f602084013e6119f8565b606091505b5091509150818015611a22575080511580611a22575080806020019051810190611a229190612a0c565b610dc55760405162461bcd60e51b815260206004820152600260248201526114d560f21b6044820152606401610b15565b5f805f836001600160a01b0316633850c7bd6040518163ffffffff1660e01b815260040160e060405180830381865afa158015611a92573d5f803e3d5ffd5b505050506040513d601f19601f82011682018060405250810190611ab69190612e28565b5050509350935050505f8161ffff1611611af75760405162461bcd60e51b81526020600482015260026024820152614e4960f01b6044820152606401610b15565b5f806001600160a01b03861663252c09d784611b14876001612eb6565b611b1e9190612ed0565b6040516001600160e01b031960e084901b16815261ffff9091166004820152602401608060405180830381865afa158015611b5b573d5f803e3d5ffd5b505050506040513d601f19601f82011682018060405250810190611b7f9190612f04565b93505050915080611bf75760405163252c09d760e01b81525f60048201526001600160a01b0387169063252c09d790602401608060405180830381865afa158015611bcc573d5f803e3d5ffd5b505050506040513d601f19601f82011682018060405250810190611bf09190612f04565b5091935050505b611c018242612879565b9695505050505050565b5f808263ffffffff165f03611c475760405162461bcd60e51b8152602060048201526002602482015261042560f41b6044820152606401610b15565b6040805160028082526060820183525f9260208301908036833701905050905083815f81518110611c7a57611c7a612c2b565b602002602001019063ffffffff16908163ffffffff16815250505f81600181518110611ca857611ca8612c2b565b602002602001019063ffffffff16908163ffffffff16815250505f80866001600160a01b031663883bdbfd846040518263ffffffff1660e01b8152600401611cf09190612f59565b5f60405180830381865afa158015611d0a573d5f803e3d5ffd5b505050506040513d5f823e601f3d908101601f19168201604052611d31919081019061300f565b915091505f825f81518110611d4857611d48612c2b565b602002602001015183600181518110611d6357611d63612c2b565b6020026020010151611d7591906130d4565b90505f825f81518110611d8a57611d8a612c2b565b602002602001015183600181518110611da557611da5612c2b565b6020026020010151611db79190613101565b905063ffffffff8816611dca8184613120565b97505f8360060b128015611de95750611de38184613153565b60060b15155b15611dfc5787611df881613174565b9850505b63ffffffff8916640100000000600160c01b03602084901b16611e266001600160a01b0383613195565b611e3091906131c6565b9750505050505050509250929050565b5f805f8360020b12611e55578260020b611e5c565b8260020b5f035b9050620d89e8811115611e82576040516315e4079d60e11b815260040160405180910390fd5b5f816001165f03611e9757600160801b611ea9565b6ffffcb933bd6fad37aa2d162d1a5940015b70ffffffffffffffffffffffffffffffffff1690506002821615611edd576ffff97272373d413259a46990580e213a0260801c5b6004821615611efc576ffff2e50f5f656932ef12357cf3c7fdcc0260801c5b6008821615611f1b576fffe5caca7e10e4e61c3624eaa0941cd00260801c5b6010821615611f3a576fffcb9843d60f6159c9db58835c9266440260801c5b6020821615611f59576fff973b41fa98c081472e6896dfb254c00260801c5b6040821615611f78576fff2ea16466c96a3843ec78b326b528610260801c5b6080821615611f97576ffe5dee046a99a2a811c461f1969c30530260801c5b610100821615611fb7576ffcbe86c7900a88aedcffc83b479aa3a40260801c5b610200821615611fd7576ff987a7253ac413176f2b074cf7815e540260801c5b610400821615611ff7576ff3392b0822b70005940c7a398e4b70f30260801c5b610800821615612017576fe7159475a2c29b7443b29c7fa6e889d90260801c5b611000821615612037576fd097f3bdfd2022b8845ad8f792aa58250260801c5b612000821615612057576fa9f746462d870fdf8a65dc1f90e061e50260801c5b614000821615612077576f70d869a156d2a1b890bb3df62baf32f70260801c5b618000821615612097576f31be135f97d08fd981231505542fcfa60260801c5b620100008216156120b8576f09aa508b5b7a84e1c677de54f3e99bc90260801c5b620200008216156120d8576e5d6af8dedb81196699c329225ee6040260801c5b620400008216156120f7576d2216e584f5fa1ea926041bedfe980260801c5b62080000821615612114576b048a170391f7dc42444e8fa20260801c5b5f8460020b131561213357805f198161212f5761212f612895565b0490505b640100000000810615612147576001612149565b5f5b60ff16602082901c0192505050919050565b5f6001600160801b036001600160a01b038616116121cd575f6121876001600160a01b0387168061296c565b9050826001600160a01b0316846001600160a01b0316106121b6576121b1600160c01b8683612638565b6121c5565b6121c58186600160c01b612638565b91505061222d565b5f6121eb6001600160a01b0387168068010000000000000000612638565b9050826001600160a01b0316846001600160a01b03161061221a57612215600160801b8683612638565b612229565b6122298186600160801b612638565b9150505b949350505050565b5f80808080807f00000000000000000000000000000000000000000000000000000000000000007f00000000000000000000000000000000000000000000000000000000000000006001600160a01b038082169083161061229757808261229a565b81815b90945092506001600160a01b03808516908316146122b957888a6122bc565b89895b90985096506122ca886126f7565b6122d3886126f7565b989b979a50985092959194509092505050565b604080516001600160a01b038481166024830152604480830185905283518084039091018152606490920183526020820180516001600160e01b031663095ea7b360e01b17905291515f928392908716916123419190612c01565b5f604051808303815f865af19150503d805f811461237a576040519150601f19603f3d011682016040523d82523d5f602084013e61237f565b606091505b50915091508180156123a95750805115806123a95750808060200190518101906123a99190612a0c565b610dc55760405162461bcd60e51b8152602060048201526002602482015261534160f01b6044820152606401610b15565b5f805f6123e684612711565b6007549091506124019061ffff83169063ffffffff166128d0565b61240c9060016128d0565b92505f6124184261054b565b6004549091505f90610100900463ffffffff161561244c5760045461244790610100900463ffffffff1661054b565b61244e565b815b90508063ffffffff168263ffffffff16036124c4575f61271061247261033861053c565b63ffffffff16600854612485919061296c565b61248f9190612983565b90505f61249d603083612983565b90505f6124ae61ffff8716836131f4565b90506124ba8183613216565b96505050506125c5565b600454610100900463ffffffff165f6124dc82610439565b90505b8263ffffffff168463ffffffff16106125c2575f8163ffffffff1642106125165761250b600183612879565b63ffffffff16612518565b425b90505f6107086125288584612879565b61253291906128a9565b90505f61271061254461033885610c81565b63ffffffff16600854612557919061296c565b6125619190612983565b90505f61256f603083612983565b905061258163ffffffff8416826131f4565b61258b908b613216565b995061259961070886612879565b95506125aa6101e2876107086128d0565b9450866125b681613235565b975050505050506124df565b50505b600854846001600160801b031611156125de5760085493505b50509193909250565b600180546001600160a01b038381166001600160a01b0319831681179093556040519116919082907f8be0079c531659141344cd1fd0a4f28419497f9722a3daafe3b4186f6b6457e0905f90a35050565b5f838302815f1985870982811083820303915050805f0361266c5783828161266257612662612895565b0492505050610568565b80841161268c5760405163227bc15360e01b815260040160405180910390fd5b5f848688095f868103871696879004966002600389028118808a02820302808a02820302808a02820302808a02820302808a02820302808a02909103029181900381900460010186841190950394909402919094039290920491909117919091029150509392505050565b5f6127106127078361232861296c565b610cb39190612983565b6004545f90610100900463ffffffff168103612749576107088211156127425761273d61070883612983565b610cb3565b5f92915050565b61070882111561276b57600161276161070884612983565b61273d9190613250565b505f919050565b63ffffffff81168114610b27575f80fd5b5f60208284031215612793575f80fd5b813561056881612772565b5f602082840312156127ae575f80fd5b5035919050565b60ff81168114610b27575f80fd5b5f602082840312156127d3575f80fd5b8135610568816127b5565b5f80604083850312156127ef575f80fd5b82359150602083013561280181612772565b809150509250929050565b6001600160a01b0381168114610b27575f80fd5b5f60208284031215612830575f80fd5b81356105688161280c565b5f806040838503121561284c575f80fd5b823561285781612772565b946020939093013593505050565b634e487b7160e01b5f52601160045260245ffd5b63ffffffff8281168282160390811115610cb357610cb3612865565b634e487b7160e01b5f52601260045260245ffd5b5f63ffffffff8316806128be576128be612895565b8063ffffffff84160491505092915050565b63ffffffff8181168382160190811115610cb357610cb3612865565b63ffffffff818116838216029081169081811461290b5761290b612865565b5092915050565b80516001600160701b0381168114610b60575f80fd5b5f805f6060848603121561293a575f80fd5b61294384612912565b925061295160208501612912565b9150604084015161296181612772565b809150509250925092565b8082028115828204841417610cb357610cb3612865565b5f8261299157612991612895565b500490565b5f602082840312156129a6575f80fd5b81516105688161280c565b81810381811115610cb357610cb3612865565b5f602082840312156129d4575f80fd5b5051919050565b5f80604083850312156129ec575f80fd5b505080516020909101519092909150565b80518015158114610b60575f80fd5b5f60208284031215612a1c575f80fd5b610568826129fd565b5f63ffffffff831680612a3a57612a3a612895565b8063ffffffff84160691505092915050565b80820180821115610cb357610cb3612865565b5f8160020b8360020b80612a7557612a75612895565b627fffff1982145f1982141615612a8e57612a8e612865565b90059392505050565b5f8260020b8260020b028060020b915080821461290b5761290b612865565b5f8160020b627fffff198103612ace57612ace612865565b5f0392915050565b81516001600160a01b0316815261016081016020830151612b0260208401826001600160a01b03169052565b506040830151612b19604084018262ffffff169052565b506060830151612b2e606084018260020b9052565b506080830151612b43608084018260020b9052565b5060a083015160a083015260c083015160c083015260e083015160e0830152610100830151610100830152610120830151612b8a6101208401826001600160a01b03169052565b5061014092830151919092015290565b5f805f8060808587031215612bad575f80fd5b845160208601519094506001600160801b0381168114612bcb575f80fd5b6040860151606090960151949790965092505050565b5f61ffff821661ffff8103612bf857612bf8612865565b60010192915050565b5f82518060208501845e5f920191825250919050565b634e487b7160e01b5f52604160045260245ffd5b634e487b7160e01b5f52603260045260245ffd5b5f60a0820187835286602084015260a0604084015280865180835260c0850191506020880192505f5b81811015612c8f5783516001600160a01b0316835260209384019390920191600101612c68565b50506001600160a01b039590951660608401525050608001529392505050565b604051601f8201601f1916810167ffffffffffffffff81118282101715612cd857612cd8612c17565b604052919050565b5f67ffffffffffffffff821115612cf957612cf9612c17565b5060051b60200190565b5f60208284031215612d13575f80fd5b815167ffffffffffffffff811115612d29575f80fd5b8201601f81018413612d39575f80fd5b8051612d4c612d4782612ce0565b612caf565b8082825260208201915060208360051b850101925086831115612d6d575f80fd5b6020840193505b82841015611c01578351825260209384019390910190612d74565b60ff8281168282160390811115610cb357610cb3612865565b602081525f825160a0602084015280518060c0850152806020830160e086015e5f60e0828601015260018060a01b0360208601511660408501526040850151606085015260608501516080850152608085015160a085015260e0601f19601f8301168501019250505092915050565b805161ffff81168114610b60575f80fd5b5f805f805f805f60e0888a031215612e3e575f80fd5b8751612e498161280c565b8097505060208801518060020b8114612e60575f80fd5b9550612e6e60408901612e17565b9450612e7c60608901612e17565b9350612e8a60808901612e17565b925060a0880151612e9a816127b5565b9150612ea860c089016129fd565b905092959891949750929550565b61ffff8181168382160190811115610cb357610cb3612865565b5f61ffff831680612ee357612ee3612895565b8061ffff84160691505092915050565b8051600681900b8114610b60575f80fd5b5f805f8060808587031215612f17575f80fd5b8451612f2281612772565b9350612f3060208601612ef3565b92506040850151612f408161280c565b9150612f4e606086016129fd565b905092959194509250565b602080825282518282018190525f918401906040840190835b81811015612f9657835163ffffffff16835260209384019390920191600101612f72565b509095945050505050565b5f82601f830112612fb0575f80fd5b8151612fbe612d4782612ce0565b8082825260208201915060208360051b860101925085831115612fdf575f80fd5b602085015b83811015613005578051612ff78161280c565b835260209283019201612fe4565b5095945050505050565b5f8060408385031215613020575f80fd5b825167ffffffffffffffff811115613036575f80fd5b8301601f81018513613046575f80fd5b8051613054612d4782612ce0565b8082825260208201915060208360051b850101925087831115613075575f80fd5b6020840193505b8284101561309e5761308d84612ef3565b82526020938401939091019061307c565b80955050505050602083015167ffffffffffffffff8111156130be575f80fd5b6130ca85828601612fa1565b9150509250929050565b600682810b9082900b03667fffffffffffff198112667fffffffffffff82131715610cb357610cb3612865565b6001600160a01b038281168282160390811115610cb357610cb3612865565b5f8160060b8360060b8061313657613136612895565b667fffffffffffff1982145f1982141615612a8e57612a8e612865565b5f8260060b8061316557613165612895565b808360060b0791505092915050565b5f8160020b627fffff19810361318c5761318c612865565b5f190192915050565b6001600160c01b038181168382168181029092169181830481148215176131be576131be612865565b505092915050565b5f6001600160c01b038316806131de576131de612895565b6001600160c01b03929092169190910492915050565b6001600160801b03818116838216029081169081811461290b5761290b612865565b6001600160801b038181168382160190811115610cb357610cb3612865565b5f63ffffffff821663ffffffff8103612bf857612bf8612865565b61ffff8281168282160390811115610cb357610cb361286556fea264697066735822122027b16e677f0eb0b82e0daf065b8fcb18021f11f91243cf5f4af308ac8aaa478364736f6c634300081a003360e060405260405161103438038061103483398101604081905261002291610096565b6001600160a01b0383166100495760405163b4fa3fb360e01b815260040160405180910390fd5b63ffffffff1660c052600380546001600160a01b031916331790556001600160a01b039081166080521660a0526100e2565b80516001600160a01b0381168114610091575f80fd5b919050565b5f805f606084860312156100a8575f80fd5b6100b18461007b565b92506100bf6020850161007b565b9150604084015163ffffffff811681146100d7575f80fd5b809150509250925092565b60805160a05160c051610edb6101595f395f8181610246015281816102e101528181610353015281816104e5015261065d01525f81816101db0152818161069a0152818161082201526108d201525f81816102760152818161075c01528181610793015281816107e301526108510152610edb5ff3fe608060405234801561000f575f80fd5b50600436106100f0575f3560e01c806395d4063f11610093578063d09d197711610063578063d09d197714610217578063e6fd48bc14610241578063eb071b6314610268578063f9119bbd14610271575f80fd5b806395d4063f146101ae578063a0712d68146101c3578063aa6df299146101d6578063c8581e2a146101fd575f80fd5b806377c18c73116100ce57806377c18c731461014e5780638041950b146101565780638d50a3d9146101755780638d9f98101461017f575f80fd5b8063488fc775146100f457806351f293261461011a578063754b603914610145575b5f80fd5b610107610102366004610c7e565b610298565b6040519081526020015b60405180910390f35b60035461012d906001600160a01b031681565b6040516001600160a01b039091168152602001610111565b61010760015481565b6101075f5481565b61016062093a8081565b60405163ffffffff9091168152602001610111565b6101606201518081565b6101876102d3565b6040805163ffffffff94851681529284166020840152921691810191909152606001610111565b6101c16101bc366004610c97565b61038e565b005b6101c16101d1366004610cb7565b6104c3565b61012d7f000000000000000000000000000000000000000000000000000000000000000081565b610205600881565b60405160ff9091168152602001610111565b610107610225366004610cce565b600460209081525f928352604080842090915290825290205481565b6101607f000000000000000000000000000000000000000000000000000000000000000081565b61010760025481565b61012d7f000000000000000000000000000000000000000000000000000000000000000081565b5f808263ffffffff166001146102c0576001830363ffffffff1666b1a2bc2ec50000026102c2565b5f5b670de0b6b3a7640000039392505050565b5f80808061030763ffffffff7f00000000000000000000000000000000000000000000000000000000000000001642610d20565b905061031662093a8082610d47565b610321906001610d6e565b60ff169350600884111561033457600893505b62093a80610343600186610d87565b61034d9190610da3565b610377907f0000000000000000000000000000000000000000000000000000000000000000610dc9565b92506103866201518084610dc9565b915050909192565b4261039882610639565b63ffffffff1611156103bd57604051632db8551b60e11b815260040160405180910390fd5b335f90815260046020908152604080832060ff85168452909152812054908190036103fb5760405163ca959f6560e01b815260040160405180910390fd5b335f81815260046020908152604080832060ff871680855290835281842093909355518481529192917fb3df9980c12f4f6cbd2921f5dbaa79e0cbd522a59e93a57baab92fd3a4ecc33f910160405180910390a38060015461045d9190610de5565b6001556003546040516340c10f1960e01b8152336004820152602481018390526001600160a01b03909116906340c10f19906044015f604051808303815f87803b1580156104a9575f80fd5b505af11580156104bb573d5f803e3d5ffd5b505050505050565b805f036104e35760405163b4fa3fb360e01b815260040160405180910390fd5b7f000000000000000000000000000000000000000000000000000000000000000063ffffffff1642101561052a57604051631864d7ab60e21b815260040160405180910390fd5b5f806105346102d3565b92505091508063ffffffff16421115610560576040516354913e1960e01b815260040160405180910390fd5b5f61056a84610697565b90505f670de0b6b3a764000061057f85610298565b6105899087610df8565b6105939190610e0f565b335f90815260046020908152604080832063ffffffff891684529091528120805492935083929091906105c7908490610de5565b909155505060405181815263ffffffff85169033907f35e338cd1c45f4d09abab571f5559403d556df8920b83a5e2710f6f6657d44019060200160405180910390a3806002546106179190610de5565b6002555f54610627908690610de5565b5f55610632826107d6565b5050505050565b5f8062093a8061064a600185610e22565b60ff166106579190610da3565b610681907f0000000000000000000000000000000000000000000000000000000000000000610dc9565b90506106906201518082610dc9565b9392505050565b5f7f00000000000000000000000000000000000000000000000000000000000000006001600160a01b031663d94439236040518163ffffffff1660e01b8152600401602060405180830381865afa1580156106f4573d5f803e3d5ffd5b505050506040513d601f19601f820116820180604052508101906107189190610e3b565b610720575090565b5f6107318360c8612710600161092d565b90505f61074584610320612710600161092d565b828503819003935090506107866001600160a01b037f0000000000000000000000000000000000000000000000000000000000000000163361dead8461097c565b6107cf6001600160a01b037f000000000000000000000000000000000000000000000000000000000000000016337384c17675a19be90788cbc7d455b2aeb7ebf650b48561097c565b5050919050565b61080b6001600160a01b037f00000000000000000000000000000000000000000000000000000000000000001633308461097c565b60405163095ea7b360e01b81526001600160a01b037f000000000000000000000000000000000000000000000000000000000000000081166004830152602482018390527f0000000000000000000000000000000000000000000000000000000000000000169063095ea7b3906044016020604051808303815f875af1158015610897573d5f803e3d5ffd5b505050506040513d601f19601f820116820180604052508101906108bb9190610e3b565b50604051630c371c6b60e21b8152600481018290527f00000000000000000000000000000000000000000000000000000000000000006001600160a01b0316906330dc71ac906024015f604051808303815f87803b15801561091b575f80fd5b505af1158015610632573d5f803e3d5ffd5b5f8061093a8686866109dc565b905061094583610a9b565b801561096057505f848061095b5761095b610d33565b868809115b1561097357610970600182610de5565b90505b95945050505050565b604080516001600160a01b0385811660248301528416604482015260648082018490528251808303909101815260849091019091526020810180516001600160e01b03166323b872dd60e01b1790526109d6908590610ac7565b50505050565b5f838302815f1985870982811083820303915050805f03610a1057838281610a0657610a06610d33565b0492505050610690565b808411610a305760405163227bc15360e01b815260040160405180910390fd5b5f848688095f868103871696879004966002600389028118808a02820302808a02820302808a02820302808a02820302808a02820302808a02909103029181900381900460010186841190950394909402919094039290920491909117919091029150509392505050565b5f6002826003811115610ab057610ab0610e5a565b610aba9190610e6e565b60ff166001149050919050565b5f610adb6001600160a01b03841683610b32565b905080515f14158015610aff575080806020019051810190610afd9190610e3b565b155b15610b2d57604051635274afe760e01b81526001600160a01b03841660048201526024015b60405180910390fd5b505050565b6060610b3f83835f610b48565b90505b92915050565b606081471015610b6d5760405163cd78605960e01b8152306004820152602401610b24565b5f80856001600160a01b03168486604051610b889190610e8f565b5f6040518083038185875af1925050503d805f8114610bc2576040519150601f19603f3d011682016040523d82523d5f602084013e610bc7565b606091505b5091509150610bd7868383610be1565b9695505050505050565b606082610bf657610bf182610c3d565b610690565b8151158015610c0d57506001600160a01b0384163b155b15610c3657604051639996b31560e01b81526001600160a01b0385166004820152602401610b24565b5080610690565b805115610c4d5780518082602001fd5b604051630a12f52160e11b815260040160405180910390fd5b803563ffffffff81168114610c79575f80fd5b919050565b5f60208284031215610c8e575f80fd5b610b3f82610c66565b5f60208284031215610ca7575f80fd5b813560ff81168114610690575f80fd5b5f60208284031215610cc7575f80fd5b5035919050565b5f8060408385031215610cdf575f80fd5b82356001600160a01b0381168114610cf5575f80fd5b9150610d0360208401610c66565b90509250929050565b634e487b7160e01b5f52601160045260245ffd5b81810381811115610b4257610b42610d0c565b634e487b7160e01b5f52601260045260245ffd5b5f63ffffffff831680610d5c57610d5c610d33565b8063ffffffff84160491505092915050565b60ff8181168382160190811115610b4257610b42610d0c565b63ffffffff8281168282160390811115610b4257610b42610d0c565b63ffffffff8181168382160290811690818114610dc257610dc2610d0c565b5092915050565b63ffffffff8181168382160190811115610b4257610b42610d0c565b80820180821115610b4257610b42610d0c565b8082028115828204841417610b4257610b42610d0c565b5f82610e1d57610e1d610d33565b500490565b60ff8281168282160390811115610b4257610b42610d0c565b5f60208284031215610e4b575f80fd5b81518015158114610690575f80fd5b634e487b7160e01b5f52602160045260245ffd5b5f60ff831680610e8057610e80610d33565b8060ff84160691505092915050565b5f82518060208501845e5f92019182525091905056fea2646970667358221220ddf6f8e54449ec18eedd6c327f4fa09bc27fb5dcff86d5df233b6ffbc9f2fb7564736f6c634300081a0033",
			"opcodes": "PUSH1 0xE0 PUSH1 0x40 MSTORE PUSH1 0x40 MLOAD PUSH2 0x5860 CODESIZE SUB DUP1 PUSH2 0x5860 DUP4 CODECOPY DUP2 ADD PUSH1 0x40 DUP2 SWAP1 MSTORE PUSH2 0x22 SWAP2 PUSH2 0x696 JUMP JUMPDEST PUSH1 0x40 MLOAD DUP1 PUSH1 0x40 ADD PUSH1 0x40 MSTORE DUP1 PUSH1 0x7 DUP2 MSTORE PUSH1 0x20 ADD PUSH7 0x494E4645524E4F PUSH1 0xC8 SHL DUP2 MSTORE POP PUSH1 0x40 MLOAD DUP1 PUSH1 0x40 ADD PUSH1 0x40 MSTORE DUP1 PUSH1 0x3 DUP2 MSTORE PUSH1 0x20 ADD PUSH3 0x24A723 PUSH1 0xE9 SHL DUP2 MSTORE POP DUP2 PUSH1 0x3 SWAP1 DUP2 PUSH2 0x6D SWAP2 SWAP1 PUSH2 0x79E JUMP JUMPDEST POP PUSH1 0x4 PUSH2 0x7A DUP3 DUP3 PUSH2 0x79E JUMP JUMPDEST POP POP POP PUSH2 0x8E DUP3 DUP5 DUP7 PUSH2 0x170 PUSH1 0x20 SHL PUSH1 0x20 SHR JUMP JUMPDEST PUSH1 0x1 PUSH1 0x1 PUSH1 0xA0 SHL SUB AND PUSH1 0xC0 MSTORE PUSH1 0x40 MLOAD DUP6 SWAP1 DUP6 SWAP1 DUP6 SWAP1 DUP6 SWAP1 DUP6 SWAP1 PUSH2 0xB0 SWAP1 PUSH2 0x64E JUMP JUMPDEST PUSH4 0xFFFFFFFF SWAP1 SWAP6 AND DUP6 MSTORE PUSH1 0x1 PUSH1 0x1 PUSH1 0xA0 SHL SUB SWAP4 DUP5 AND PUSH1 0x20 DUP7 ADD MSTORE SWAP2 DUP4 AND PUSH1 0x40 DUP6 ADD MSTORE DUP3 AND PUSH1 0x60 DUP5 ADD MSTORE AND PUSH1 0x80 DUP3 ADD MSTORE PUSH1 0xA0 ADD PUSH1 0x40 MLOAD DUP1 SWAP2 SUB SWAP1 PUSH0 CREATE DUP1 ISZERO DUP1 ISZERO PUSH2 0xFB JUMPI RETURNDATASIZE PUSH0 DUP1 RETURNDATACOPY RETURNDATASIZE PUSH0 REVERT JUMPDEST POP PUSH1 0x1 PUSH1 0x1 PUSH1 0xA0 SHL SUB AND PUSH1 0xA0 DUP2 SWAP1 MSTORE PUSH1 0x40 MLOAD DUP5 SWAP1 DUP9 SWAP1 PUSH2 0x11A SWAP1 PUSH2 0x65B JUMP JUMPDEST PUSH1 0x1 PUSH1 0x1 PUSH1 0xA0 SHL SUB SWAP4 DUP5 AND DUP2 MSTORE SWAP3 SWAP1 SWAP2 AND PUSH1 0x20 DUP4 ADD MSTORE PUSH4 0xFFFFFFFF AND PUSH1 0x40 DUP3 ADD MSTORE PUSH1 0x60 ADD PUSH1 0x40 MLOAD DUP1 SWAP2 SUB SWAP1 PUSH0 CREATE DUP1 ISZERO DUP1 ISZERO PUSH2 0x157 JUMPI RETURNDATASIZE PUSH0 DUP1 RETURNDATACOPY RETURNDATASIZE PUSH0 REVERT JUMPDEST POP PUSH1 0x1 PUSH1 0x1 PUSH1 0xA0 SHL SUB AND PUSH1 0x80 MSTORE POP PUSH2 0x934 SWAP5 POP POP POP POP POP JUMP JUMPDEST PUSH0 DUP1 ADDRESS SWAP1 POP PUSH0 DUP1 DUP5 PUSH1 0x1 PUSH1 0x1 PUSH1 0xA0 SHL SUB AND PUSH4 0x902F1AC PUSH1 0x40 MLOAD DUP2 PUSH4 0xFFFFFFFF AND PUSH1 0xE0 SHL DUP2 MSTORE PUSH1 0x4 ADD PUSH1 0x60 PUSH1 0x40 MLOAD DUP1 DUP4 SUB DUP2 DUP7 GAS STATICCALL ISZERO DUP1 ISZERO PUSH2 0x1B3 JUMPI RETURNDATASIZE PUSH0 DUP1 RETURNDATACOPY RETURNDATASIZE PUSH0 REVERT JUMPDEST POP POP POP POP PUSH1 0x40 MLOAD RETURNDATASIZE PUSH1 0x1F NOT PUSH1 0x1F DUP3 ADD AND DUP3 ADD DUP1 PUSH1 0x40 MSTORE POP DUP2 ADD SWAP1 PUSH2 0x1D7 SWAP2 SWAP1 PUSH2 0x86E JUMP JUMPDEST POP SWAP2 POP SWAP2 POP PUSH0 DUP6 PUSH1 0x1 PUSH1 0x1 PUSH1 0xA0 SHL SUB AND PUSH4 0xDFE1681 PUSH1 0x40 MLOAD DUP2 PUSH4 0xFFFFFFFF AND PUSH1 0xE0 SHL DUP2 MSTORE PUSH1 0x4 ADD PUSH1 0x20 PUSH1 0x40 MLOAD DUP1 DUP4 SUB DUP2 DUP7 GAS STATICCALL ISZERO DUP1 ISZERO PUSH2 0x219 JUMPI RETURNDATASIZE PUSH0 DUP1 RETURNDATACOPY RETURNDATASIZE PUSH0 REVERT JUMPDEST POP POP POP POP PUSH1 0x40 MLOAD RETURNDATASIZE PUSH1 0x1F NOT PUSH1 0x1F DUP3 ADD AND DUP3 ADD DUP1 PUSH1 0x40 MSTORE POP DUP2 ADD SWAP1 PUSH2 0x23D SWAP2 SWAP1 PUSH2 0x8AE JUMP JUMPDEST SWAP1 POP PUSH0 DUP1 DUP9 PUSH1 0x1 PUSH1 0x1 PUSH1 0xA0 SHL SUB AND DUP4 PUSH1 0x1 PUSH1 0x1 PUSH1 0xA0 SHL SUB AND EQ PUSH2 0x261 JUMPI DUP4 DUP6 PUSH2 0x264 JUMP JUMPDEST DUP5 DUP5 JUMPDEST PUSH1 0x40 MLOAD PUSH4 0x1535435 PUSH1 0xE2 SHL DUP2 MSTORE PUSH12 0xA18F07D736B90BE550000000 PUSH1 0x4 DUP3 ADD MSTORE PUSH1 0x1 PUSH1 0x1 PUSH1 0x70 SHL SUB DUP1 DUP5 AND PUSH1 0x24 DUP4 ADD MSTORE DUP3 AND PUSH1 0x44 DUP3 ADD MSTORE SWAP2 SWAP4 POP SWAP2 POP PUSH0 SWAP1 PUSH20 0x7A250D5630B4CF539739DF2C5DACB4C659F2488D SWAP1 PUSH4 0x54D50D4 SWAP1 PUSH1 0x64 ADD PUSH1 0x20 PUSH1 0x40 MLOAD DUP1 DUP4 SUB DUP2 DUP7 GAS STATICCALL ISZERO DUP1 ISZERO PUSH2 0x2DB JUMPI RETURNDATASIZE PUSH0 DUP1 RETURNDATACOPY RETURNDATASIZE PUSH0 REVERT JUMPDEST POP POP POP POP PUSH1 0x40 MLOAD RETURNDATASIZE PUSH1 0x1F NOT PUSH1 0x1F DUP3 ADD AND DUP3 ADD DUP1 PUSH1 0x40 MSTORE POP DUP2 ADD SWAP1 PUSH2 0x2FF SWAP2 SWAP1 PUSH2 0x8C7 JUMP JUMPDEST SWAP1 POP PUSH12 0xA18F07D736B90BE550000000 PUSH0 DUP1 PUSH1 0x1 PUSH1 0x1 PUSH1 0xA0 SHL SUB DUP1 DUP12 AND SWAP1 DUP16 AND LT PUSH2 0x32A JUMPI DUP10 DUP15 PUSH2 0x32D JUMP JUMPDEST DUP14 DUP11 JUMPDEST SWAP2 POP SWAP2 POP PUSH0 DUP1 DUP16 PUSH1 0x1 PUSH1 0x1 PUSH1 0xA0 SHL SUB AND DUP5 PUSH1 0x1 PUSH1 0x1 PUSH1 0xA0 SHL SUB AND EQ PUSH2 0x353 JUMPI DUP5 DUP7 PUSH2 0x356 JUMP JUMPDEST DUP6 DUP6 JUMPDEST SWAP1 SWAP3 POP SWAP1 POP PUSH0 PUSH4 0x3B9ACA00 PUSH2 0x386 DUP5 PUSH2 0x377 DUP6 PUSH8 0xDE0B6B3A7640000 PUSH2 0x8DE JUMP JUMPDEST PUSH2 0x381 SWAP2 SWAP1 PUSH2 0x915 JUMP JUMPDEST PUSH2 0x4BA JUMP JUMPDEST PUSH2 0x39D SWAP1 PUSH13 0x1000000000000000000000000 PUSH2 0x8DE JUMP JUMPDEST PUSH2 0x3A7 SWAP2 SWAP1 PUSH2 0x915 JUMP JUMPDEST PUSH1 0x40 MLOAD PUSH4 0x9F56AB1 PUSH1 0xE1 SHL DUP2 MSTORE PUSH1 0x1 PUSH1 0x1 PUSH1 0xA0 SHL SUB DUP1 DUP9 AND PUSH1 0x4 DUP4 ADD MSTORE DUP1 DUP8 AND PUSH1 0x24 DUP4 ADD MSTORE PUSH2 0x2710 PUSH1 0x44 DUP4 ADD MSTORE DUP3 AND PUSH1 0x64 DUP3 ADD MSTORE SWAP1 SWAP2 POP PUSH20 0xC36442B4A4522E871399CD717ABDD847AB11FE88 SWAP1 DUP2 SWAP1 PUSH4 0x13EAD562 SWAP1 PUSH1 0x84 ADD PUSH1 0x20 PUSH1 0x40 MLOAD DUP1 DUP4 SUB DUP2 PUSH0 DUP8 GAS CALL ISZERO DUP1 ISZERO PUSH2 0x41B JUMPI RETURNDATASIZE PUSH0 DUP1 RETURNDATACOPY RETURNDATASIZE PUSH0 REVERT JUMPDEST POP POP POP POP PUSH1 0x40 MLOAD RETURNDATASIZE PUSH1 0x1F NOT PUSH1 0x1F DUP3 ADD AND DUP3 ADD DUP1 PUSH1 0x40 MSTORE POP DUP2 ADD SWAP1 PUSH2 0x43F SWAP2 SWAP1 PUSH2 0x8AE JUMP JUMPDEST SWAP15 POP DUP15 PUSH1 0x1 PUSH1 0x1 PUSH1 0xA0 SHL SUB AND PUSH4 0x32148F67 PUSH1 0x64 PUSH1 0x40 MLOAD DUP3 PUSH4 0xFFFFFFFF AND PUSH1 0xE0 SHL DUP2 MSTORE PUSH1 0x4 ADD PUSH2 0x478 SWAP2 SWAP1 PUSH2 0xFFFF SWAP2 SWAP1 SWAP2 AND DUP2 MSTORE PUSH1 0x20 ADD SWAP1 JUMP JUMPDEST PUSH0 PUSH1 0x40 MLOAD DUP1 DUP4 SUB DUP2 PUSH0 DUP8 DUP1 EXTCODESIZE ISZERO DUP1 ISZERO PUSH2 0x48F JUMPI PUSH0 DUP1 REVERT JUMPDEST POP GAS CALL ISZERO DUP1 ISZERO PUSH2 0x4A1 JUMPI RETURNDATASIZE PUSH0 DUP1 RETURNDATACOPY RETURNDATASIZE PUSH0 REVERT JUMPDEST POP POP POP POP POP POP POP POP POP POP POP POP POP POP POP POP POP POP SWAP4 SWAP3 POP POP POP JUMP JUMPDEST PUSH0 DUP2 PUSH0 SUB PUSH2 0x4C9 JUMPI POP PUSH0 SWAP2 SWAP1 POP JUMP JUMPDEST PUSH0 PUSH1 0x1 PUSH2 0x4D5 DUP5 PUSH2 0x5A5 JUMP JUMPDEST SWAP1 SHR PUSH1 0x1 SWAP1 SHL SWAP1 POP PUSH1 0x1 DUP2 DUP5 DUP2 PUSH2 0x4EE JUMPI PUSH2 0x4EE PUSH2 0x901 JUMP JUMPDEST DIV DUP3 ADD SWAP1 SHR SWAP1 POP PUSH1 0x1 DUP2 DUP5 DUP2 PUSH2 0x506 JUMPI PUSH2 0x506 PUSH2 0x901 JUMP JUMPDEST DIV DUP3 ADD SWAP1 SHR SWAP1 POP PUSH1 0x1 DUP2 DUP5 DUP2 PUSH2 0x51E JUMPI PUSH2 0x51E PUSH2 0x901 JUMP JUMPDEST DIV DUP3 ADD SWAP1 SHR SWAP1 POP PUSH1 0x1 DUP2 DUP5 DUP2 PUSH2 0x536 JUMPI PUSH2 0x536 PUSH2 0x901 JUMP JUMPDEST DIV DUP3 ADD SWAP1 SHR SWAP1 POP PUSH1 0x1 DUP2 DUP5 DUP2 PUSH2 0x54E JUMPI PUSH2 0x54E PUSH2 0x901 JUMP JUMPDEST DIV DUP3 ADD SWAP1 SHR SWAP1 POP PUSH1 0x1 DUP2 DUP5 DUP2 PUSH2 0x566 JUMPI PUSH2 0x566 PUSH2 0x901 JUMP JUMPDEST DIV DUP3 ADD SWAP1 SHR SWAP1 POP PUSH1 0x1 DUP2 DUP5 DUP2 PUSH2 0x57E JUMPI PUSH2 0x57E PUSH2 0x901 JUMP JUMPDEST DIV DUP3 ADD SWAP1 SHR SWAP1 POP PUSH2 0x59E DUP2 DUP3 DUP6 DUP2 PUSH2 0x598 JUMPI PUSH2 0x598 PUSH2 0x901 JUMP JUMPDEST DIV PUSH2 0x639 JUMP JUMPDEST SWAP4 SWAP3 POP POP POP JUMP JUMPDEST PUSH0 DUP1 PUSH1 0x80 DUP4 SWAP1 SHR ISZERO PUSH2 0x5B9 JUMPI PUSH1 0x80 SWAP3 DUP4 SHR SWAP3 ADD JUMPDEST PUSH1 0x40 DUP4 SWAP1 SHR ISZERO PUSH2 0x5CB JUMPI PUSH1 0x40 SWAP3 DUP4 SHR SWAP3 ADD JUMPDEST PUSH1 0x20 DUP4 SWAP1 SHR ISZERO PUSH2 0x5DD JUMPI PUSH1 0x20 SWAP3 DUP4 SHR SWAP3 ADD JUMPDEST PUSH1 0x10 DUP4 SWAP1 SHR ISZERO PUSH2 0x5EF JUMPI PUSH1 0x10 SWAP3 DUP4 SHR SWAP3 ADD JUMPDEST PUSH1 0x8 DUP4 SWAP1 SHR ISZERO PUSH2 0x601 JUMPI PUSH1 0x8 SWAP3 DUP4 SHR SWAP3 ADD JUMPDEST PUSH1 0x4 DUP4 SWAP1 SHR ISZERO PUSH2 0x613 JUMPI PUSH1 0x4 SWAP3 DUP4 SHR SWAP3 ADD JUMPDEST PUSH1 0x2 DUP4 SWAP1 SHR ISZERO PUSH2 0x625 JUMPI PUSH1 0x2 SWAP3 DUP4 SHR SWAP3 ADD JUMPDEST PUSH1 0x1 DUP4 SWAP1 SHR ISZERO PUSH2 0x633 JUMPI PUSH1 0x1 ADD JUMPDEST SWAP3 SWAP2 POP POP JUMP JUMPDEST PUSH0 DUP2 DUP4 LT PUSH2 0x647 JUMPI DUP2 PUSH2 0x59E JUMP JUMPDEST POP SWAP1 SWAP2 SWAP1 POP JUMP JUMPDEST PUSH2 0x3512 DUP1 PUSH2 0x131A DUP4 CODECOPY ADD SWAP1 JUMP JUMPDEST PUSH2 0x1034 DUP1 PUSH2 0x482C DUP4 CODECOPY ADD SWAP1 JUMP JUMPDEST DUP1 MLOAD PUSH4 0xFFFFFFFF DUP2 AND DUP2 EQ PUSH2 0x67B JUMPI PUSH0 DUP1 REVERT JUMPDEST SWAP2 SWAP1 POP JUMP JUMPDEST DUP1 MLOAD PUSH1 0x1 PUSH1 0x1 PUSH1 0xA0 SHL SUB DUP2 AND DUP2 EQ PUSH2 0x67B JUMPI PUSH0 DUP1 REVERT JUMPDEST PUSH0 DUP1 PUSH0 DUP1 PUSH0 DUP1 PUSH1 0xC0 DUP8 DUP10 SUB SLT ISZERO PUSH2 0x6AB JUMPI PUSH0 DUP1 REVERT JUMPDEST PUSH2 0x6B4 DUP8 PUSH2 0x668 JUMP JUMPDEST SWAP6 POP PUSH2 0x6C2 PUSH1 0x20 DUP9 ADD PUSH2 0x668 JUMP JUMPDEST SWAP5 POP PUSH2 0x6D0 PUSH1 0x40 DUP9 ADD PUSH2 0x680 JUMP JUMPDEST SWAP4 POP PUSH2 0x6DE PUSH1 0x60 DUP9 ADD PUSH2 0x680 JUMP JUMPDEST SWAP3 POP PUSH2 0x6EC PUSH1 0x80 DUP9 ADD PUSH2 0x680 JUMP JUMPDEST SWAP2 POP PUSH2 0x6FA PUSH1 0xA0 DUP9 ADD PUSH2 0x680 JUMP JUMPDEST SWAP1 POP SWAP3 SWAP6 POP SWAP3 SWAP6 POP SWAP3 SWAP6 JUMP JUMPDEST PUSH4 0x4E487B71 PUSH1 0xE0 SHL PUSH0 MSTORE PUSH1 0x41 PUSH1 0x4 MSTORE PUSH1 0x24 PUSH0 REVERT JUMPDEST PUSH1 0x1 DUP2 DUP2 SHR SWAP1 DUP3 AND DUP1 PUSH2 0x72E JUMPI PUSH1 0x7F DUP3 AND SWAP2 POP JUMPDEST PUSH1 0x20 DUP3 LT DUP2 SUB PUSH2 0x74C JUMPI PUSH4 0x4E487B71 PUSH1 0xE0 SHL PUSH0 MSTORE PUSH1 0x22 PUSH1 0x4 MSTORE PUSH1 0x24 PUSH0 REVERT JUMPDEST POP SWAP2 SWAP1 POP JUMP JUMPDEST PUSH1 0x1F DUP3 GT ISZERO PUSH2 0x799 JUMPI DUP1 PUSH0 MSTORE PUSH1 0x20 PUSH0 KECCAK256 PUSH1 0x1F DUP5 ADD PUSH1 0x5 SHR DUP2 ADD PUSH1 0x20 DUP6 LT ISZERO PUSH2 0x777 JUMPI POP DUP1 JUMPDEST PUSH1 0x1F DUP5 ADD PUSH1 0x5 SHR DUP3 ADD SWAP2 POP JUMPDEST DUP2 DUP2 LT ISZERO PUSH2 0x796 JUMPI PUSH0 DUP2 SSTORE PUSH1 0x1 ADD PUSH2 0x783 JUMP JUMPDEST POP POP JUMPDEST POP POP POP JUMP JUMPDEST DUP2 MLOAD PUSH1 0x1 PUSH1 0x1 PUSH1 0x40 SHL SUB DUP2 GT ISZERO PUSH2 0x7B7 JUMPI PUSH2 0x7B7 PUSH2 0x706 JUMP JUMPDEST PUSH2 0x7CB DUP2 PUSH2 0x7C5 DUP5 SLOAD PUSH2 0x71A JUMP JUMPDEST DUP5 PUSH2 0x752 JUMP JUMPDEST PUSH1 0x20 PUSH1 0x1F DUP3 GT PUSH1 0x1 DUP2 EQ PUSH2 0x7FD JUMPI PUSH0 DUP4 ISZERO PUSH2 0x7E6 JUMPI POP DUP5 DUP3 ADD MLOAD JUMPDEST PUSH0 NOT PUSH1 0x3 DUP6 SWAP1 SHL SHR NOT AND PUSH1 0x1 DUP5 SWAP1 SHL OR DUP5 SSTORE PUSH2 0x796 JUMP JUMPDEST PUSH0 DUP5 DUP2 MSTORE PUSH1 0x20 DUP2 KECCAK256 PUSH1 0x1F NOT DUP6 AND SWAP2 JUMPDEST DUP3 DUP2 LT ISZERO PUSH2 0x82C JUMPI DUP8 DUP6 ADD MLOAD DUP3 SSTORE PUSH1 0x20 SWAP5 DUP6 ADD SWAP5 PUSH1 0x1 SWAP1 SWAP3 ADD SWAP2 ADD PUSH2 0x80C JUMP JUMPDEST POP DUP5 DUP3 LT ISZERO PUSH2 0x849 JUMPI DUP7 DUP5 ADD MLOAD PUSH0 NOT PUSH1 0x3 DUP8 SWAP1 SHL PUSH1 0xF8 AND SHR NOT AND DUP2 SSTORE JUMPDEST POP POP POP POP PUSH1 0x1 SWAP1 DUP2 SHL ADD SWAP1 SSTORE POP JUMP JUMPDEST DUP1 MLOAD PUSH1 0x1 PUSH1 0x1 PUSH1 0x70 SHL SUB DUP2 AND DUP2 EQ PUSH2 0x67B JUMPI PUSH0 DUP1 REVERT JUMPDEST PUSH0 DUP1 PUSH0 PUSH1 0x60 DUP5 DUP7 SUB SLT ISZERO PUSH2 0x880 JUMPI PUSH0 DUP1 REVERT JUMPDEST PUSH2 0x889 DUP5 PUSH2 0x858 JUMP JUMPDEST SWAP3 POP PUSH2 0x897 PUSH1 0x20 DUP6 ADD PUSH2 0x858 JUMP JUMPDEST SWAP2 POP PUSH2 0x8A5 PUSH1 0x40 DUP6 ADD PUSH2 0x668 JUMP JUMPDEST SWAP1 POP SWAP3 POP SWAP3 POP SWAP3 JUMP JUMPDEST PUSH0 PUSH1 0x20 DUP3 DUP5 SUB SLT ISZERO PUSH2 0x8BE JUMPI PUSH0 DUP1 REVERT JUMPDEST PUSH2 0x59E DUP3 PUSH2 0x680 JUMP JUMPDEST PUSH0 PUSH1 0x20 DUP3 DUP5 SUB SLT ISZERO PUSH2 0x8D7 JUMPI PUSH0 DUP1 REVERT JUMPDEST POP MLOAD SWAP2 SWAP1 POP JUMP JUMPDEST DUP1 DUP3 MUL DUP2 ISZERO DUP3 DUP3 DIV DUP5 EQ OR PUSH2 0x633 JUMPI PUSH4 0x4E487B71 PUSH1 0xE0 SHL PUSH0 MSTORE PUSH1 0x11 PUSH1 0x4 MSTORE PUSH1 0x24 PUSH0 REVERT JUMPDEST PUSH4 0x4E487B71 PUSH1 0xE0 SHL PUSH0 MSTORE PUSH1 0x12 PUSH1 0x4 MSTORE PUSH1 0x24 PUSH0 REVERT JUMPDEST PUSH0 DUP3 PUSH2 0x92F JUMPI PUSH4 0x4E487B71 PUSH1 0xE0 SHL PUSH0 MSTORE PUSH1 0x12 PUSH1 0x4 MSTORE PUSH1 0x24 PUSH0 REVERT JUMPDEST POP DIV SWAP1 JUMP JUMPDEST PUSH1 0x80 MLOAD PUSH1 0xA0 MLOAD PUSH1 0xC0 MLOAD PUSH2 0x9A7 PUSH2 0x973 PUSH0 CODECOPY PUSH0 PUSH2 0x265 ADD MSTORE PUSH0 DUP2 DUP2 PUSH2 0x23E ADD MSTORE DUP2 DUP2 PUSH2 0x3DF ADD MSTORE PUSH2 0x5CA ADD MSTORE PUSH0 DUP2 DUP2 PUSH2 0x1DC ADD MSTORE PUSH2 0x519 ADD MSTORE PUSH2 0x9A7 PUSH0 RETURN INVALID PUSH1 0x80 PUSH1 0x40 MSTORE CALLVALUE DUP1 ISZERO PUSH2 0xF JUMPI PUSH0 DUP1 REVERT JUMPDEST POP PUSH1 0x4 CALLDATASIZE LT PUSH2 0xFB JUMPI PUSH0 CALLDATALOAD PUSH1 0xE0 SHR DUP1 PUSH4 0x79CC6790 GT PUSH2 0x93 JUMPI DUP1 PUSH4 0xA9059CBB GT PUSH2 0x63 JUMPI DUP1 PUSH4 0xA9059CBB EQ PUSH2 0x226 JUMPI DUP1 PUSH4 0xAA6DF299 EQ PUSH2 0x239 JUMPI DUP1 PUSH4 0xDC48525D EQ PUSH2 0x260 JUMPI DUP1 PUSH4 0xDD62ED3E EQ PUSH2 0x287 JUMPI PUSH0 DUP1 REVERT JUMPDEST DUP1 PUSH4 0x79CC6790 EQ PUSH2 0x1C4 JUMPI DUP1 PUSH4 0x7DC2268C EQ PUSH2 0x1D7 JUMPI DUP1 PUSH4 0x95D89B41 EQ PUSH2 0x216 JUMPI DUP1 PUSH4 0x9BED7B6C EQ PUSH2 0x21E JUMPI PUSH0 DUP1 REVERT JUMPDEST DUP1 PUSH4 0x313CE567 GT PUSH2 0xCE JUMPI DUP1 PUSH4 0x313CE567 EQ PUSH2 0x165 JUMPI DUP1 PUSH4 0x40C10F19 EQ PUSH2 0x174 JUMPI DUP1 PUSH4 0x42966C68 EQ PUSH2 0x189 JUMPI DUP1 PUSH4 0x70A08231 EQ PUSH2 0x19C JUMPI PUSH0 DUP1 REVERT JUMPDEST DUP1 PUSH4 0x6FDDE03 EQ PUSH2 0xFF JUMPI DUP1 PUSH4 0x95EA7B3 EQ PUSH2 0x11D JUMPI DUP1 PUSH4 0x18160DDD EQ PUSH2 0x140 JUMPI DUP1 PUSH4 0x23B872DD EQ PUSH2 0x152 JUMPI JUMPDEST PUSH0 DUP1 REVERT JUMPDEST PUSH2 0x107 PUSH2 0x2BF JUMP JUMPDEST PUSH1 0x40 MLOAD PUSH2 0x114 SWAP2 SWAP1 PUSH2 0x800 JUMP JUMPDEST PUSH1 0x40 MLOAD DUP1 SWAP2 SUB SWAP1 RETURN JUMPDEST PUSH2 0x130 PUSH2 0x12B CALLDATASIZE PUSH1 0x4 PUSH2 0x850 JUMP JUMPDEST PUSH2 0x34F JUMP JUMPDEST PUSH1 0x40 MLOAD SWAP1 ISZERO ISZERO DUP2 MSTORE PUSH1 0x20 ADD PUSH2 0x114 JUMP JUMPDEST PUSH1 0x2 SLOAD JUMPDEST PUSH1 0x40 MLOAD SWAP1 DUP2 MSTORE PUSH1 0x20 ADD PUSH2 0x114 JUMP JUMPDEST PUSH2 0x130 PUSH2 0x160 CALLDATASIZE PUSH1 0x4 PUSH2 0x878 JUMP JUMPDEST PUSH2 0x368 JUMP JUMPDEST PUSH1 0x40 MLOAD PUSH1 0x12 DUP2 MSTORE PUSH1 0x20 ADD PUSH2 0x114 JUMP JUMPDEST PUSH2 0x187 PUSH2 0x182 CALLDATASIZE PUSH1 0x4 PUSH2 0x850 JUMP JUMPDEST PUSH2 0x38B JUMP JUMPDEST STOP JUMPDEST PUSH2 0x187 PUSH2 0x197 CALLDATASIZE PUSH1 0x4 PUSH2 0x8B2 JUMP JUMPDEST PUSH2 0x3A1 JUMP JUMPDEST PUSH2 0x144 PUSH2 0x1AA CALLDATASIZE PUSH1 0x4 PUSH2 0x8C9 JUMP JUMPDEST PUSH1 0x1 PUSH1 0x1 PUSH1 0xA0 SHL SUB AND PUSH0 SWAP1 DUP2 MSTORE PUSH1 0x20 DUP2 SWAP1 MSTORE PUSH1 0x40 SWAP1 KECCAK256 SLOAD SWAP1 JUMP JUMPDEST PUSH2 0x187 PUSH2 0x1D2 CALLDATASIZE PUSH1 0x4 PUSH2 0x850 JUMP JUMPDEST PUSH2 0x3AE JUMP JUMPDEST PUSH2 0x1FE PUSH32 0x0 DUP2 JUMP JUMPDEST PUSH1 0x40 MLOAD PUSH1 0x1 PUSH1 0x1 PUSH1 0xA0 SHL SUB SWAP1 SWAP2 AND DUP2 MSTORE PUSH1 0x20 ADD PUSH2 0x114 JUMP JUMPDEST PUSH2 0x107 PUSH2 0x3C3 JUMP JUMPDEST PUSH2 0x187 PUSH2 0x3D2 JUMP JUMPDEST PUSH2 0x130 PUSH2 0x234 CALLDATASIZE PUSH1 0x4 PUSH2 0x850 JUMP JUMPDEST PUSH2 0x412 JUMP JUMPDEST PUSH2 0x1FE PUSH32 0x0 DUP2 JUMP JUMPDEST PUSH2 0x1FE PUSH32 0x0 DUP2 JUMP JUMPDEST PUSH2 0x144 PUSH2 0x295 CALLDATASIZE PUSH1 0x4 PUSH2 0x8E9 JUMP JUMPDEST PUSH1 0x1 PUSH1 0x1 PUSH1 0xA0 SHL SUB SWAP2 DUP3 AND PUSH0 SWAP1 DUP2 MSTORE PUSH1 0x1 PUSH1 0x20 SWAP1 DUP2 MSTORE PUSH1 0x40 DUP1 DUP4 KECCAK256 SWAP4 SWAP1 SWAP5 AND DUP3 MSTORE SWAP2 SWAP1 SWAP2 MSTORE KECCAK256 SLOAD SWAP1 JUMP JUMPDEST PUSH1 0x60 PUSH1 0x3 DUP1 SLOAD PUSH2 0x2CE SWAP1 PUSH2 0x91A JUMP JUMPDEST DUP1 PUSH1 0x1F ADD PUSH1 0x20 DUP1 SWAP2 DIV MUL PUSH1 0x20 ADD PUSH1 0x40 MLOAD SWAP1 DUP2 ADD PUSH1 0x40 MSTORE DUP1 SWAP3 SWAP2 SWAP1 DUP2 DUP2 MSTORE PUSH1 0x20 ADD DUP3 DUP1 SLOAD PUSH2 0x2FA SWAP1 PUSH2 0x91A JUMP JUMPDEST DUP1 ISZERO PUSH2 0x345 JUMPI DUP1 PUSH1 0x1F LT PUSH2 0x31C JUMPI PUSH2 0x100 DUP1 DUP4 SLOAD DIV MUL DUP4 MSTORE SWAP2 PUSH1 0x20 ADD SWAP2 PUSH2 0x345 JUMP JUMPDEST DUP3 ADD SWAP2 SWAP1 PUSH0 MSTORE PUSH1 0x20 PUSH0 KECCAK256 SWAP1 JUMPDEST DUP2 SLOAD DUP2 MSTORE SWAP1 PUSH1 0x1 ADD SWAP1 PUSH1 0x20 ADD DUP1 DUP4 GT PUSH2 0x328 JUMPI DUP3 SWAP1 SUB PUSH1 0x1F AND DUP3 ADD SWAP2 JUMPDEST POP POP POP POP POP SWAP1 POP SWAP1 JUMP JUMPDEST PUSH0 CALLER PUSH2 0x35C DUP2 DUP6 DUP6 PUSH2 0x41F JUMP JUMPDEST PUSH1 0x1 SWAP2 POP POP JUMPDEST SWAP3 SWAP2 POP POP JUMP JUMPDEST PUSH0 CALLER PUSH2 0x375 DUP6 DUP3 DUP6 PUSH2 0x431 JUMP JUMPDEST PUSH2 0x380 DUP6 DUP6 DUP6 PUSH2 0x4B1 JUMP JUMPDEST POP PUSH1 0x1 SWAP5 SWAP4 POP POP POP POP JUMP JUMPDEST PUSH2 0x393 PUSH2 0x50E JUMP JUMPDEST PUSH2 0x39D DUP3 DUP3 PUSH2 0x557 JUMP JUMPDEST POP POP JUMP JUMPDEST PUSH2 0x3AB CALLER DUP3 PUSH2 0x58B JUMP JUMPDEST POP JUMP JUMPDEST PUSH2 0x3B9 DUP3 CALLER DUP4 PUSH2 0x431 JUMP JUMPDEST PUSH2 0x39D DUP3 DUP3 PUSH2 0x58B JUMP JUMPDEST PUSH1 0x60 PUSH1 0x4 DUP1 SLOAD PUSH2 0x2CE SWAP1 PUSH2 0x91A JUMP JUMPDEST PUSH2 0x3DA PUSH2 0x5BF JUMP JUMPDEST PUSH2 0x410 PUSH32 0x0 PUSH12 0xA18F07D736B90BE550000000 PUSH2 0x557 JUMP JUMPDEST JUMP JUMPDEST PUSH0 CALLER PUSH2 0x35C DUP2 DUP6 DUP6 PUSH2 0x4B1 JUMP JUMPDEST PUSH2 0x42C DUP4 DUP4 DUP4 PUSH1 0x1 PUSH2 0x608 JUMP JUMPDEST POP POP POP JUMP JUMPDEST PUSH1 0x1 PUSH1 0x1 PUSH1 0xA0 SHL SUB DUP4 DUP2 AND PUSH0 SWAP1 DUP2 MSTORE PUSH1 0x1 PUSH1 0x20 SWAP1 DUP2 MSTORE PUSH1 0x40 DUP1 DUP4 KECCAK256 SWAP4 DUP7 AND DUP4 MSTORE SWAP3 SWAP1 MSTORE KECCAK256 SLOAD PUSH0 NOT DUP2 EQ PUSH2 0x4AB JUMPI DUP2 DUP2 LT ISZERO PUSH2 0x49D JUMPI PUSH1 0x40 MLOAD PUSH4 0x7DC7A0D9 PUSH1 0xE1 SHL DUP2 MSTORE PUSH1 0x1 PUSH1 0x1 PUSH1 0xA0 SHL SUB DUP5 AND PUSH1 0x4 DUP3 ADD MSTORE PUSH1 0x24 DUP2 ADD DUP3 SWAP1 MSTORE PUSH1 0x44 DUP2 ADD DUP4 SWAP1 MSTORE PUSH1 0x64 ADD JUMPDEST PUSH1 0x40 MLOAD DUP1 SWAP2 SUB SWAP1 REVERT JUMPDEST PUSH2 0x4AB DUP5 DUP5 DUP5 DUP5 SUB PUSH0 PUSH2 0x608 JUMP JUMPDEST POP POP POP POP JUMP JUMPDEST PUSH1 0x1 PUSH1 0x1 PUSH1 0xA0 SHL SUB DUP4 AND PUSH2 0x4DA JUMPI PUSH1 0x40 MLOAD PUSH4 0x4B637E8F PUSH1 0xE1 SHL DUP2 MSTORE PUSH0 PUSH1 0x4 DUP3 ADD MSTORE PUSH1 0x24 ADD PUSH2 0x494 JUMP JUMPDEST PUSH1 0x1 PUSH1 0x1 PUSH1 0xA0 SHL SUB DUP3 AND PUSH2 0x503 JUMPI PUSH1 0x40 MLOAD PUSH4 0xEC442F05 PUSH1 0xE0 SHL DUP2 MSTORE PUSH0 PUSH1 0x4 DUP3 ADD MSTORE PUSH1 0x24 ADD PUSH2 0x494 JUMP JUMPDEST PUSH2 0x42C DUP4 DUP4 DUP4 PUSH2 0x6DA JUMP JUMPDEST CALLER PUSH1 0x1 PUSH1 0x1 PUSH1 0xA0 SHL SUB PUSH32 0x0 AND EQ PUSH2 0x410 JUMPI PUSH1 0x40 MLOAD PUSH4 0xC004A90B PUSH1 0xE0 SHL DUP2 MSTORE PUSH1 0x4 ADD PUSH1 0x40 MLOAD DUP1 SWAP2 SUB SWAP1 REVERT JUMPDEST PUSH1 0x1 PUSH1 0x1 PUSH1 0xA0 SHL SUB DUP3 AND PUSH2 0x580 JUMPI PUSH1 0x40 MLOAD PUSH4 0xEC442F05 PUSH1 0xE0 SHL DUP2 MSTORE PUSH0 PUSH1 0x4 DUP3 ADD MSTORE PUSH1 0x24 ADD PUSH2 0x494 JUMP JUMPDEST PUSH2 0x39D PUSH0 DUP4 DUP4 PUSH2 0x6DA JUMP JUMPDEST PUSH1 0x1 PUSH1 0x1 PUSH1 0xA0 SHL SUB DUP3 AND PUSH2 0x5B4 JUMPI PUSH1 0x40 MLOAD PUSH4 0x4B637E8F PUSH1 0xE1 SHL DUP2 MSTORE PUSH0 PUSH1 0x4 DUP3 ADD MSTORE PUSH1 0x24 ADD PUSH2 0x494 JUMP JUMPDEST PUSH2 0x39D DUP3 PUSH0 DUP4 PUSH2 0x6DA JUMP JUMPDEST CALLER PUSH1 0x1 PUSH1 0x1 PUSH1 0xA0 SHL SUB PUSH32 0x0 AND EQ PUSH2 0x410 JUMPI PUSH1 0x40 MLOAD PUSH4 0x3579266F PUSH1 0xE1 SHL DUP2 MSTORE PUSH1 0x4 ADD PUSH1 0x40 MLOAD DUP1 SWAP2 SUB SWAP1 REVERT JUMPDEST PUSH1 0x1 PUSH1 0x1 PUSH1 0xA0 SHL SUB DUP5 AND PUSH2 0x631 JUMPI PUSH1 0x40 MLOAD PUSH4 0xE602DF05 PUSH1 0xE0 SHL DUP2 MSTORE PUSH0 PUSH1 0x4 DUP3 ADD MSTORE PUSH1 0x24 ADD PUSH2 0x494 JUMP JUMPDEST PUSH1 0x1 PUSH1 0x1 PUSH1 0xA0 SHL SUB DUP4 AND PUSH2 0x65A JUMPI PUSH1 0x40 MLOAD PUSH4 0x4A1406B1 PUSH1 0xE1 SHL DUP2 MSTORE PUSH0 PUSH1 0x4 DUP3 ADD MSTORE PUSH1 0x24 ADD PUSH2 0x494 JUMP JUMPDEST PUSH1 0x1 PUSH1 0x1 PUSH1 0xA0 SHL SUB DUP1 DUP6 AND PUSH0 SWAP1 DUP2 MSTORE PUSH1 0x1 PUSH1 0x20 SWAP1 DUP2 MSTORE PUSH1 0x40 DUP1 DUP4 KECCAK256 SWAP4 DUP8 AND DUP4 MSTORE SWAP3 SWAP1 MSTORE KECCAK256 DUP3 SWAP1 SSTORE DUP1 ISZERO PUSH2 0x4AB JUMPI DUP3 PUSH1 0x1 PUSH1 0x1 PUSH1 0xA0 SHL SUB AND DUP5 PUSH1 0x1 PUSH1 0x1 PUSH1 0xA0 SHL SUB AND PUSH32 0x8C5BE1E5EBEC7D5BD14F71427D1E84F3DD0314C0F7B2291E5B200AC8C7C3B925 DUP5 PUSH1 0x40 MLOAD PUSH2 0x6CC SWAP2 DUP2 MSTORE PUSH1 0x20 ADD SWAP1 JUMP JUMPDEST PUSH1 0x40 MLOAD DUP1 SWAP2 SUB SWAP1 LOG3 POP POP POP POP JUMP JUMPDEST PUSH1 0x1 PUSH1 0x1 PUSH1 0xA0 SHL SUB DUP4 AND PUSH2 0x704 JUMPI DUP1 PUSH1 0x2 PUSH0 DUP3 DUP3 SLOAD PUSH2 0x6F9 SWAP2 SWAP1 PUSH2 0x952 JUMP JUMPDEST SWAP1 SWAP2 SSTORE POP PUSH2 0x774 SWAP1 POP JUMP JUMPDEST PUSH1 0x1 PUSH1 0x1 PUSH1 0xA0 SHL SUB DUP4 AND PUSH0 SWAP1 DUP2 MSTORE PUSH1 0x20 DUP2 SWAP1 MSTORE PUSH1 0x40 SWAP1 KECCAK256 SLOAD DUP2 DUP2 LT ISZERO PUSH2 0x756 JUMPI PUSH1 0x40 MLOAD PUSH4 0x391434E3 PUSH1 0xE2 SHL DUP2 MSTORE PUSH1 0x1 PUSH1 0x1 PUSH1 0xA0 SHL SUB DUP6 AND PUSH1 0x4 DUP3 ADD MSTORE PUSH1 0x24 DUP2 ADD DUP3 SWAP1 MSTORE PUSH1 0x44 DUP2 ADD DUP4 SWAP1 MSTORE PUSH1 0x64 ADD PUSH2 0x494 JUMP JUMPDEST PUSH1 0x1 PUSH1 0x1 PUSH1 0xA0 SHL SUB DUP5 AND PUSH0 SWAP1 DUP2 MSTORE PUSH1 0x20 DUP2 SWAP1 MSTORE PUSH1 0x40 SWAP1 KECCAK256 SWAP1 DUP3 SWAP1 SUB SWAP1 SSTORE JUMPDEST PUSH1 0x1 PUSH1 0x1 PUSH1 0xA0 SHL SUB DUP3 AND PUSH2 0x790 JUMPI PUSH1 0x2 DUP1 SLOAD DUP3 SWAP1 SUB SWAP1 SSTORE PUSH2 0x7AE JUMP JUMPDEST PUSH1 0x1 PUSH1 0x1 PUSH1 0xA0 SHL SUB DUP3 AND PUSH0 SWAP1 DUP2 MSTORE PUSH1 0x20 DUP2 SWAP1 MSTORE PUSH1 0x40 SWAP1 KECCAK256 DUP1 SLOAD DUP3 ADD SWAP1 SSTORE JUMPDEST DUP2 PUSH1 0x1 PUSH1 0x1 PUSH1 0xA0 SHL SUB AND DUP4 PUSH1 0x1 PUSH1 0x1 PUSH1 0xA0 SHL SUB AND PUSH32 0xDDF252AD1BE2C89B69C2B068FC378DAA952BA7F163C4A11628F55A4DF523B3EF DUP4 PUSH1 0x40 MLOAD PUSH2 0x7F3 SWAP2 DUP2 MSTORE PUSH1 0x20 ADD SWAP1 JUMP JUMPDEST PUSH1 0x40 MLOAD DUP1 SWAP2 SUB SWAP1 LOG3 POP POP POP JUMP JUMPDEST PUSH1 0x20 DUP2 MSTORE PUSH0 DUP3 MLOAD DUP1 PUSH1 0x20 DUP5 ADD MSTORE DUP1 PUSH1 0x20 DUP6 ADD PUSH1 0x40 DUP6 ADD MCOPY PUSH0 PUSH1 0x40 DUP3 DUP6 ADD ADD MSTORE PUSH1 0x40 PUSH1 0x1F NOT PUSH1 0x1F DUP4 ADD AND DUP5 ADD ADD SWAP2 POP POP SWAP3 SWAP2 POP POP JUMP JUMPDEST DUP1 CALLDATALOAD PUSH1 0x1 PUSH1 0x1 PUSH1 0xA0 SHL SUB DUP2 AND DUP2 EQ PUSH2 0x84B JUMPI PUSH0 DUP1 REVERT JUMPDEST SWAP2 SWAP1 POP JUMP JUMPDEST PUSH0 DUP1 PUSH1 0x40 DUP4 DUP6 SUB SLT ISZERO PUSH2 0x861 JUMPI PUSH0 DUP1 REVERT JUMPDEST PUSH2 0x86A DUP4 PUSH2 0x835 JUMP JUMPDEST SWAP5 PUSH1 0x20 SWAP4 SWAP1 SWAP4 ADD CALLDATALOAD SWAP4 POP POP POP JUMP JUMPDEST PUSH0 DUP1 PUSH0 PUSH1 0x60 DUP5 DUP7 SUB SLT ISZERO PUSH2 0x88A JUMPI PUSH0 DUP1 REVERT JUMPDEST PUSH2 0x893 DUP5 PUSH2 0x835 JUMP JUMPDEST SWAP3 POP PUSH2 0x8A1 PUSH1 0x20 DUP6 ADD PUSH2 0x835 JUMP JUMPDEST SWAP3 SWAP6 SWAP3 SWAP5 POP POP POP PUSH1 0x40 SWAP2 SWAP1 SWAP2 ADD CALLDATALOAD SWAP1 JUMP JUMPDEST PUSH0 PUSH1 0x20 DUP3 DUP5 SUB SLT ISZERO PUSH2 0x8C2 JUMPI PUSH0 DUP1 REVERT JUMPDEST POP CALLDATALOAD SWAP2 SWAP1 POP JUMP JUMPDEST PUSH0 PUSH1 0x20 DUP3 DUP5 SUB SLT ISZERO PUSH2 0x8D9 JUMPI PUSH0 DUP1 REVERT JUMPDEST PUSH2 0x8E2 DUP3 PUSH2 0x835 JUMP JUMPDEST SWAP4 SWAP3 POP POP POP JUMP JUMPDEST PUSH0 DUP1 PUSH1 0x40 DUP4 DUP6 SUB SLT ISZERO PUSH2 0x8FA JUMPI PUSH0 DUP1 REVERT JUMPDEST PUSH2 0x903 DUP4 PUSH2 0x835 JUMP JUMPDEST SWAP2 POP PUSH2 0x911 PUSH1 0x20 DUP5 ADD PUSH2 0x835 JUMP JUMPDEST SWAP1 POP SWAP3 POP SWAP3 SWAP1 POP JUMP JUMPDEST PUSH1 0x1 DUP2 DUP2 SHR SWAP1 DUP3 AND DUP1 PUSH2 0x92E JUMPI PUSH1 0x7F DUP3 AND SWAP2 POP JUMPDEST PUSH1 0x20 DUP3 LT DUP2 SUB PUSH2 0x94C JUMPI PUSH4 0x4E487B71 PUSH1 0xE0 SHL PUSH0 MSTORE PUSH1 0x22 PUSH1 0x4 MSTORE PUSH1 0x24 PUSH0 REVERT JUMPDEST POP SWAP2 SWAP1 POP JUMP JUMPDEST DUP1 DUP3 ADD DUP1 DUP3 GT ISZERO PUSH2 0x362 JUMPI PUSH4 0x4E487B71 PUSH1 0xE0 SHL PUSH0 MSTORE PUSH1 0x11 PUSH1 0x4 MSTORE PUSH1 0x24 PUSH0 REVERT INVALID LOG2 PUSH5 0x6970667358 0x22 SLT KECCAK256 0xB8 SHL ORIGIN 0xB2 RETURNDATASIZE SWAP14 0x4C PUSH20 0xFD86785AD7A9BBAEBF320D4FE66E6923FCBD94A9 0xDE 0xC9 0xE1 PUSH28 0x64736F6C634300081A003361012060408190526009805460FF191660 GAS OR SWAP1 SSTORE PUSH2 0x3512 CODESIZE DUP2 SWAP1 SUB SWAP1 DUP2 SWAP1 DUP4 CODECOPY DUP2 ADD PUSH1 0x40 DUP2 SWAP1 MSTORE PUSH2 0x30 SWAP2 PUSH2 0x122 JUMP JUMPDEST PUSH1 0x1 PUSH0 SSTORE DUP1 PUSH1 0x1 PUSH1 0x1 PUSH1 0xA0 SHL SUB DUP2 AND PUSH2 0x62 JUMPI PUSH1 0x40 MLOAD PUSH4 0x1E4FBDF7 PUSH1 0xE0 SHL DUP2 MSTORE PUSH0 PUSH1 0x4 DUP3 ADD MSTORE PUSH1 0x24 ADD PUSH1 0x40 MLOAD DUP1 SWAP2 SUB SWAP1 REVERT JUMPDEST PUSH2 0x6B DUP2 PUSH2 0x9A JUMP JUMPDEST POP POP PUSH4 0xFFFFFFFF SWAP1 SWAP4 AND PUSH2 0x100 MSTORE PUSH1 0x1 PUSH1 0x1 PUSH1 0xA0 SHL SUB SWAP1 DUP2 AND PUSH1 0xC0 MSTORE CALLER PUSH1 0xE0 MSTORE SWAP2 DUP3 AND PUSH1 0xA0 MSTORE AND PUSH1 0x80 MSTORE PUSH2 0x18D JUMP JUMPDEST PUSH1 0x2 DUP1 SLOAD PUSH1 0x1 PUSH1 0x1 PUSH1 0xA0 SHL SUB NOT AND SWAP1 SSTORE PUSH2 0xB3 DUP2 PUSH2 0xB6 JUMP JUMPDEST POP JUMP JUMPDEST PUSH1 0x1 DUP1 SLOAD PUSH1 0x1 PUSH1 0x1 PUSH1 0xA0 SHL SUB DUP4 DUP2 AND PUSH1 0x1 PUSH1 0x1 PUSH1 0xA0 SHL SUB NOT DUP4 AND DUP2 OR SWAP1 SWAP4 SSTORE PUSH1 0x40 MLOAD SWAP2 AND SWAP2 SWAP1 DUP3 SWAP1 PUSH32 0x8BE0079C531659141344CD1FD0A4F28419497F9722A3DAAFE3B4186F6B6457E0 SWAP1 PUSH0 SWAP1 LOG3 POP POP JUMP JUMPDEST DUP1 MLOAD PUSH1 0x1 PUSH1 0x1 PUSH1 0xA0 SHL SUB DUP2 AND DUP2 EQ PUSH2 0x11D JUMPI PUSH0 DUP1 REVERT JUMPDEST SWAP2 SWAP1 POP JUMP JUMPDEST PUSH0 DUP1 PUSH0 DUP1 PUSH0 PUSH1 0xA0 DUP7 DUP9 SUB SLT ISZERO PUSH2 0x136 JUMPI PUSH0 DUP1 REVERT JUMPDEST DUP6 MLOAD PUSH4 0xFFFFFFFF DUP2 AND DUP2 EQ PUSH2 0x149 JUMPI PUSH0 DUP1 REVERT JUMPDEST SWAP5 POP PUSH2 0x157 PUSH1 0x20 DUP8 ADD PUSH2 0x107 JUMP JUMPDEST SWAP4 POP PUSH2 0x165 PUSH1 0x40 DUP8 ADD PUSH2 0x107 JUMP JUMPDEST SWAP3 POP PUSH2 0x173 PUSH1 0x60 DUP8 ADD PUSH2 0x107 JUMP JUMPDEST SWAP2 POP PUSH2 0x181 PUSH1 0x80 DUP8 ADD PUSH2 0x107 JUMP JUMPDEST SWAP1 POP SWAP3 SWAP6 POP SWAP3 SWAP6 SWAP1 SWAP4 POP JUMP JUMPDEST PUSH1 0x80 MLOAD PUSH1 0xA0 MLOAD PUSH1 0xC0 MLOAD PUSH1 0xE0 MLOAD PUSH2 0x100 MLOAD PUSH2 0x32A0 PUSH2 0x272 PUSH0 CODECOPY PUSH0 DUP2 DUP2 PUSH2 0x404 ADD MSTORE DUP2 DUP2 PUSH2 0x642 ADD MSTORE DUP2 DUP2 PUSH2 0x1247 ADD MSTORE DUP2 DUP2 PUSH2 0x12C8 ADD MSTORE PUSH2 0x132C ADD MSTORE PUSH0 DUP2 DUP2 PUSH2 0x282 ADD MSTORE DUP2 DUP2 PUSH2 0x591 ADD MSTORE DUP2 DUP2 PUSH2 0xB69 ADD MSTORE DUP2 DUP2 PUSH2 0xC52 ADD MSTORE DUP2 DUP2 PUSH2 0xCD0 ADD MSTORE DUP2 DUP2 PUSH2 0xD6A ADD MSTORE DUP2 DUP2 PUSH2 0xF4B ADD MSTORE DUP2 DUP2 PUSH2 0x1848 ADD MSTORE PUSH2 0x225E ADD MSTORE PUSH0 DUP2 DUP2 PUSH2 0x6A0 ADD MSTORE DUP2 DUP2 PUSH2 0x6DC ADD MSTORE DUP2 DUP2 PUSH2 0xA7B ADD MSTORE DUP2 DUP2 PUSH2 0xE8C ADD MSTORE DUP2 DUP2 PUSH2 0x11CB ADD MSTORE DUP2 DUP2 PUSH2 0x15A8 ADD MSTORE PUSH2 0x1604 ADD MSTORE PUSH0 DUP2 DUP2 PUSH2 0x894 ADD MSTORE DUP2 DUP2 PUSH2 0xC31 ADD MSTORE DUP2 DUP2 PUSH2 0x117E ADD MSTORE DUP2 DUP2 PUSH2 0x1657 ADD MSTORE DUP2 DUP2 PUSH2 0x178A ADD MSTORE DUP2 DUP2 PUSH2 0x1810 ADD MSTORE PUSH2 0x223D ADD MSTORE PUSH0 PUSH2 0x48B ADD MSTORE PUSH2 0x32A0 PUSH0 RETURN INVALID PUSH1 0x80 PUSH1 0x40 MSTORE CALLVALUE DUP1 ISZERO PUSH2 0xF JUMPI PUSH0 DUP1 REVERT JUMPDEST POP PUSH1 0x4 CALLDATASIZE LT PUSH2 0x1A1 JUMPI PUSH0 CALLDATALOAD PUSH1 0xE0 SHR DUP1 PUSH4 0x74301FD5 GT PUSH2 0xF3 JUMPI DUP1 PUSH4 0xD9443923 GT PUSH2 0x93 JUMPI DUP1 PUSH4 0xE61D08AC GT PUSH2 0x6E JUMPI DUP1 PUSH4 0xE61D08AC EQ PUSH2 0x3E4 JUMPI DUP1 PUSH4 0xF2FDE38B EQ PUSH2 0x3EC JUMPI DUP1 PUSH4 0xF38D00F0 EQ PUSH2 0x3FF JUMPI DUP1 PUSH4 0xF460EEC2 EQ PUSH2 0x426 JUMPI PUSH0 DUP1 REVERT JUMPDEST DUP1 PUSH4 0xD9443923 EQ PUSH2 0x3A3 JUMPI DUP1 PUSH4 0xDF49D315 EQ PUSH2 0x3C0 JUMPI DUP1 PUSH4 0xE30C3978 EQ PUSH2 0x3D3 JUMPI PUSH0 DUP1 REVERT JUMPDEST DUP1 PUSH4 0x8DA5CB5B GT PUSH2 0xCE JUMPI DUP1 PUSH4 0x8DA5CB5B EQ PUSH2 0x319 JUMPI DUP1 PUSH4 0x9F0E9460 EQ PUSH2 0x32A JUMPI DUP1 PUSH4 0xAD1B63F4 EQ PUSH2 0x33D JUMPI DUP1 PUSH4 0xB681A683 EQ PUSH2 0x390 JUMPI PUSH0 DUP1 REVERT JUMPDEST DUP1 PUSH4 0x74301FD5 EQ PUSH2 0x2EE JUMPI DUP1 PUSH4 0x782EE170 EQ PUSH2 0x301 JUMPI DUP1 PUSH4 0x79BA5097 EQ PUSH2 0x311 JUMPI PUSH0 DUP1 REVERT JUMPDEST DUP1 PUSH4 0x30DC71AC GT PUSH2 0x15E JUMPI DUP1 PUSH4 0x62913F58 GT PUSH2 0x139 JUMPI DUP1 PUSH4 0x62913F58 EQ PUSH2 0x2C1 JUMPI DUP1 PUSH4 0x6AADEDE7 EQ PUSH2 0x2D4 JUMPI DUP1 PUSH4 0x6F6CCC0D EQ PUSH2 0x2DD JUMPI DUP1 PUSH4 0x715018A6 EQ PUSH2 0x2E6 JUMPI PUSH0 DUP1 REVERT JUMPDEST DUP1 PUSH4 0x30DC71AC EQ PUSH2 0x268 JUMPI DUP1 PUSH4 0x3A6002EA EQ PUSH2 0x27D JUMPI DUP1 PUSH4 0x40F6AC31 EQ PUSH2 0x2A4 JUMPI PUSH0 DUP1 REVERT JUMPDEST DUP1 PUSH4 0x90F8AD4 EQ PUSH2 0x1A5 JUMPI DUP1 PUSH4 0x158A3B12 EQ PUSH2 0x1D4 JUMPI DUP1 PUSH4 0x186C1CCC EQ PUSH2 0x1E7 JUMPI DUP1 PUSH4 0x1BEA83FE EQ PUSH2 0x208 JUMPI DUP1 PUSH4 0x225A4699 EQ PUSH2 0x23B JUMPI DUP1 PUSH4 0x2EC9C3B4 EQ PUSH2 0x255 JUMPI JUMPDEST PUSH0 DUP1 REVERT JUMPDEST PUSH1 0x4 SLOAD PUSH2 0x1BA SWAP1 PUSH2 0x100 SWAP1 DIV PUSH4 0xFFFFFFFF AND DUP2 JUMP JUMPDEST PUSH1 0x40 MLOAD PUSH4 0xFFFFFFFF SWAP1 SWAP2 AND DUP2 MSTORE PUSH1 0x20 ADD JUMPDEST PUSH1 0x40 MLOAD DUP1 SWAP2 SUB SWAP1 RETURN JUMPDEST PUSH2 0x1BA PUSH2 0x1E2 CALLDATASIZE PUSH1 0x4 PUSH2 0x2783 JUMP JUMPDEST PUSH2 0x439 JUMP JUMPDEST PUSH2 0x1FA PUSH2 0x1F5 CALLDATASIZE PUSH1 0x4 PUSH2 0x279E JUMP JUMPDEST PUSH2 0x487 JUMP JUMPDEST PUSH1 0x40 MLOAD SWAP1 DUP2 MSTORE PUSH1 0x20 ADD PUSH2 0x1CB JUMP JUMPDEST PUSH2 0x223 PUSH20 0xC36442B4A4522E871399CD717ABDD847AB11FE88 DUP2 JUMP JUMPDEST PUSH1 0x40 MLOAD PUSH1 0x1 PUSH1 0x1 PUSH1 0xA0 SHL SUB SWAP1 SWAP2 AND DUP2 MSTORE PUSH1 0x20 ADD PUSH2 0x1CB JUMP JUMPDEST PUSH2 0x243 PUSH2 0x53C JUMP JUMPDEST PUSH1 0x40 MLOAD PUSH1 0xFF SWAP1 SWAP2 AND DUP2 MSTORE PUSH1 0x20 ADD PUSH2 0x1CB JUMP JUMPDEST PUSH2 0x1BA PUSH2 0x263 CALLDATASIZE PUSH1 0x4 PUSH2 0x2783 JUMP JUMPDEST PUSH2 0x54B JUMP JUMPDEST PUSH2 0x27B PUSH2 0x276 CALLDATASIZE PUSH1 0x4 PUSH2 0x279E JUMP JUMPDEST PUSH2 0x56F JUMP JUMPDEST STOP JUMPDEST PUSH2 0x223 PUSH32 0x0 DUP2 JUMP JUMPDEST PUSH2 0x2AC PUSH2 0x753 JUMP JUMPDEST PUSH1 0x40 DUP1 MLOAD SWAP3 DUP4 MSTORE PUSH1 0x20 DUP4 ADD SWAP2 SWAP1 SWAP2 MSTORE ADD PUSH2 0x1CB JUMP JUMPDEST PUSH2 0x27B PUSH2 0x2CF CALLDATASIZE PUSH1 0x4 PUSH2 0x27C3 JUMP JUMPDEST PUSH2 0x916 JUMP JUMPDEST PUSH2 0x1FA PUSH1 0x8 SLOAD DUP2 JUMP JUMPDEST PUSH2 0x1FA PUSH1 0x5 SLOAD DUP2 JUMP JUMPDEST PUSH2 0x27B PUSH2 0x967 JUMP JUMPDEST PUSH2 0x27B PUSH2 0x2FC CALLDATASIZE PUSH1 0x4 PUSH2 0x27DE JUMP JUMPDEST PUSH2 0x97A JUMP JUMPDEST PUSH1 0x7 SLOAD PUSH2 0x1BA SWAP1 PUSH4 0xFFFFFFFF AND DUP2 JUMP JUMPDEST PUSH2 0x27B PUSH2 0xAE1 JUMP JUMPDEST PUSH1 0x1 SLOAD PUSH1 0x1 PUSH1 0x1 PUSH1 0xA0 SHL SUB AND PUSH2 0x223 JUMP JUMPDEST PUSH2 0x1BA PUSH2 0x338 CALLDATASIZE PUSH1 0x4 PUSH2 0x27C3 JUMP JUMPDEST PUSH2 0xB2A JUMP JUMPDEST PUSH2 0x370 PUSH2 0x34B CALLDATASIZE PUSH1 0x4 PUSH2 0x2783 JUMP JUMPDEST PUSH1 0x6 PUSH1 0x20 MSTORE PUSH0 SWAP1 DUP2 MSTORE PUSH1 0x40 SWAP1 KECCAK256 SLOAD PUSH1 0x1 PUSH1 0x1 PUSH1 0x80 SHL SUB DUP1 DUP3 AND SWAP2 PUSH1 0x1 PUSH1 0x80 SHL SWAP1 DIV AND DUP3 JUMP JUMPDEST PUSH1 0x40 DUP1 MLOAD PUSH1 0x1 PUSH1 0x1 PUSH1 0x80 SHL SUB SWAP4 DUP5 AND DUP2 MSTORE SWAP3 SWAP1 SWAP2 AND PUSH1 0x20 DUP4 ADD MSTORE ADD PUSH2 0x1CB JUMP JUMPDEST PUSH2 0x1FA PUSH2 0x39E CALLDATASIZE PUSH1 0x4 PUSH2 0x279E JUMP JUMPDEST PUSH2 0xB65 JUMP JUMPDEST PUSH1 0x4 SLOAD PUSH2 0x3B0 SWAP1 PUSH1 0xFF AND DUP2 JUMP JUMPDEST PUSH1 0x40 MLOAD SWAP1 ISZERO ISZERO DUP2 MSTORE PUSH1 0x20 ADD PUSH2 0x1CB JUMP JUMPDEST PUSH2 0x243 PUSH2 0x3CE CALLDATASIZE PUSH1 0x4 PUSH2 0x2783 JUMP JUMPDEST PUSH2 0xC81 JUMP JUMPDEST PUSH1 0x2 SLOAD PUSH1 0x1 PUSH1 0x1 PUSH1 0xA0 SHL SUB AND PUSH2 0x223 JUMP JUMPDEST PUSH2 0x27B PUSH2 0xCB9 JUMP JUMPDEST PUSH2 0x27B PUSH2 0x3FA CALLDATASIZE PUSH1 0x4 PUSH2 0x2820 JUMP JUMPDEST PUSH2 0xDCC JUMP JUMPDEST PUSH2 0x1BA PUSH32 0x0 DUP2 JUMP JUMPDEST PUSH2 0x27B PUSH2 0x434 CALLDATASIZE PUSH1 0x4 PUSH2 0x283B JUMP JUMPDEST PUSH2 0xE3D JUMP JUMPDEST PUSH0 DUP1 PUSH2 0x447 PUSH2 0xC4E0 DUP5 PUSH2 0x2879 JUMP JUMPDEST SWAP1 POP PUSH0 PUSH2 0x457 PUSH3 0x15180 DUP4 PUSH2 0x28A9 JUMP JUMPDEST SWAP1 POP PUSH0 PUSH2 0x465 DUP3 PUSH1 0x1 PUSH2 0x28D0 JUMP JUMPDEST PUSH2 0x472 SWAP1 PUSH3 0x15180 PUSH2 0x28EC JUMP JUMPDEST PUSH2 0x47E SWAP1 PUSH2 0xC4E0 PUSH2 0x28D0 JUMP JUMPDEST SWAP6 SWAP5 POP POP POP POP POP JUMP JUMPDEST PUSH0 DUP1 PUSH32 0x0 SWAP1 POP PUSH0 DUP1 DUP3 PUSH1 0x1 PUSH1 0x1 PUSH1 0xA0 SHL SUB AND PUSH4 0x902F1AC PUSH1 0x40 MLOAD DUP2 PUSH4 0xFFFFFFFF AND PUSH1 0xE0 SHL DUP2 MSTORE PUSH1 0x4 ADD PUSH1 0x60 PUSH1 0x40 MLOAD DUP1 DUP4 SUB DUP2 DUP7 GAS STATICCALL ISZERO DUP1 ISZERO PUSH2 0x4EA JUMPI RETURNDATASIZE PUSH0 DUP1 RETURNDATACOPY RETURNDATASIZE PUSH0 REVERT JUMPDEST POP POP POP POP PUSH1 0x40 MLOAD RETURNDATASIZE PUSH1 0x1F NOT PUSH1 0x1F DUP3 ADD AND DUP3 ADD DUP1 PUSH1 0x40 MSTORE POP DUP2 ADD SWAP1 PUSH2 0x50E SWAP2 SWAP1 PUSH2 0x2928 JUMP JUMPDEST POP SWAP2 POP SWAP2 POP DUP2 PUSH1 0x1 PUSH1 0x1 PUSH1 0x70 SHL SUB AND DUP2 PUSH1 0x1 PUSH1 0x1 PUSH1 0x70 SHL SUB AND DUP7 PUSH2 0x532 SWAP2 SWAP1 PUSH2 0x296C JUMP JUMPDEST PUSH2 0x47E SWAP2 SWAP1 PUSH2 0x2983 JUMP JUMPDEST PUSH0 PUSH2 0x546 TIMESTAMP PUSH2 0xC81 JUMP JUMPDEST SWAP1 POP SWAP1 JUMP JUMPDEST PUSH0 DUP1 PUSH2 0x559 PUSH2 0xC4E0 DUP5 PUSH2 0x2879 JUMP JUMPDEST SWAP1 POP PUSH2 0x568 PUSH3 0x15180 DUP3 PUSH2 0x28A9 JUMP JUMPDEST SWAP4 SWAP3 POP POP POP JUMP JUMPDEST DUP1 PUSH0 SUB PUSH2 0x58F JUMPI PUSH1 0x40 MLOAD PUSH4 0xB4FA3FB3 PUSH1 0xE0 SHL DUP2 MSTORE PUSH1 0x4 ADD PUSH1 0x40 MLOAD DUP1 SWAP2 SUB SWAP1 REVERT JUMPDEST PUSH32 0x0 PUSH1 0x1 PUSH1 0x1 PUSH1 0xA0 SHL SUB AND PUSH4 0x7DC2268C PUSH1 0x40 MLOAD DUP2 PUSH4 0xFFFFFFFF AND PUSH1 0xE0 SHL DUP2 MSTORE PUSH1 0x4 ADD PUSH1 0x20 PUSH1 0x40 MLOAD DUP1 DUP4 SUB DUP2 DUP7 GAS STATICCALL ISZERO DUP1 ISZERO PUSH2 0x5EB JUMPI RETURNDATASIZE PUSH0 DUP1 RETURNDATACOPY RETURNDATASIZE PUSH0 REVERT JUMPDEST POP POP POP POP PUSH1 0x40 MLOAD RETURNDATASIZE PUSH1 0x1F NOT PUSH1 0x1F DUP3 ADD AND DUP3 ADD DUP1 PUSH1 0x40 MSTORE POP DUP2 ADD SWAP1 PUSH2 0x60F SWAP2 SWAP1 PUSH2 0x2996 JUMP JUMPDEST PUSH1 0x1 PUSH1 0x1 PUSH1 0xA0 SHL SUB AND CALLER PUSH1 0x1 PUSH1 0x1 PUSH1 0xA0 SHL SUB AND EQ PUSH2 0x640 JUMPI PUSH1 0x40 MLOAD PUSH4 0xC004A90B PUSH1 0xE0 SHL DUP2 MSTORE PUSH1 0x4 ADD PUSH1 0x40 MLOAD DUP1 SWAP2 SUB SWAP1 REVERT JUMPDEST PUSH32 0x0 PUSH4 0xFFFFFFFF AND TIMESTAMP GT DUP1 ISZERO PUSH2 0x68E JUMPI POP PUSH1 0x4 SLOAD PUSH2 0x708 SWAP1 PUSH2 0x68C SWAP1 PUSH2 0x100 SWAP1 DIV PUSH4 0xFFFFFFFF AND TIMESTAMP PUSH2 0x29B1 JUMP JUMPDEST GT JUMPDEST ISZERO PUSH2 0x69B JUMPI PUSH2 0x69B PUSH2 0x1245 JUMP JUMPDEST PUSH2 0x6C7 PUSH32 0x0 CALLER ADDRESS DUP5 PUSH2 0x1437 JUMP JUMPDEST PUSH1 0x40 MLOAD PUSH4 0x70A08231 PUSH1 0xE0 SHL DUP2 MSTORE ADDRESS PUSH1 0x4 DUP3 ADD MSTORE PUSH32 0x0 PUSH1 0x1 PUSH1 0x1 PUSH1 0xA0 SHL SUB AND SWAP1 PUSH4 0x70A08231 SWAP1 PUSH1 0x24 ADD PUSH1 0x20 PUSH1 0x40 MLOAD DUP1 DUP4 SUB DUP2 DUP7 GAS STATICCALL ISZERO DUP1 ISZERO PUSH2 0x729 JUMPI RETURNDATASIZE PUSH0 DUP1 RETURNDATACOPY RETURNDATASIZE PUSH0 REVERT JUMPDEST POP POP POP POP PUSH1 0x40 MLOAD RETURNDATASIZE PUSH1 0x1F NOT PUSH1 0x1F DUP3 ADD AND DUP3 ADD DUP1 PUSH1 0x40 MSTORE POP DUP2 ADD SWAP1 PUSH2 0x74D SWAP2 SWAP1 PUSH2 0x29C4 JUMP JUMPDEST PUSH1 0x8 SSTORE POP JUMP JUMPDEST PUSH1 0x40 DUP1 MLOAD DUP1 DUP3 ADD DUP3 MSTORE PUSH1 0x3 SLOAD PUSH1 0x1 PUSH1 0x1 PUSH1 0xF8 SHL SUB DUP1 DUP3 AND DUP4 MSTORE PUSH1 0x1 PUSH1 0xF8 SHL SWAP1 SWAP2 DIV PUSH1 0xFF AND ISZERO ISZERO PUSH1 0x20 DUP1 DUP5 ADD SWAP2 SWAP1 SWAP2 MSTORE DUP4 MLOAD PUSH1 0x80 DUP2 ADD DUP6 MSTORE DUP4 MLOAD SWAP1 SWAP3 AND DUP3 MSTORE ADDRESS SWAP1 DUP3 ADD SWAP1 DUP2 MSTORE PUSH1 0x1 PUSH1 0x1 PUSH1 0x80 SHL SUB DUP3 DUP6 ADD DUP2 DUP2 MSTORE PUSH1 0x60 DUP5 ADD DUP3 DUP2 MSTORE SWAP6 MLOAD PUSH4 0xFC6F7865 PUSH1 0xE0 SHL DUP2 MSTORE DUP5 MLOAD PUSH1 0x4 DUP3 ADD MSTORE SWAP3 MLOAD PUSH1 0x1 PUSH1 0x1 PUSH1 0xA0 SHL SUB AND PUSH1 0x24 DUP5 ADD MSTORE MLOAD DUP2 AND PUSH1 0x44 DUP4 ADD MSTORE SWAP4 MLOAD SWAP1 SWAP4 AND PUSH1 0x64 DUP5 ADD MSTORE PUSH0 SWAP3 DUP4 SWAP3 SWAP2 SWAP1 PUSH20 0xC36442B4A4522E871399CD717ABDD847AB11FE88 SWAP1 PUSH4 0xFC6F7865 SWAP1 PUSH1 0x84 ADD PUSH1 0x40 DUP1 MLOAD DUP1 DUP4 SUB DUP2 PUSH0 DUP8 GAS CALL ISZERO DUP1 ISZERO PUSH2 0x822 JUMPI RETURNDATASIZE PUSH0 DUP1 RETURNDATACOPY RETURNDATASIZE PUSH0 REVERT JUMPDEST POP POP POP POP PUSH1 0x40 MLOAD RETURNDATASIZE PUSH1 0x1F NOT PUSH1 0x1F DUP3 ADD AND DUP3 ADD DUP1 PUSH1 0x40 MSTORE POP DUP2 ADD SWAP1 PUSH2 0x846 SWAP2 SWAP1 PUSH2 0x29DB JUMP JUMPDEST PUSH1 0x20 DUP5 ADD MLOAD SWAP2 SWAP6 POP SWAP4 POP PUSH0 SWAP1 PUSH2 0x85D JUMPI DUP4 DUP6 PUSH2 0x860 JUMP JUMPDEST DUP5 DUP5 JUMPDEST POP PUSH1 0x40 MLOAD PUSH4 0xA9059CBB PUSH1 0xE0 SHL DUP2 MSTORE PUSH20 0x84C17675A19BE90788CBC7D455B2AEB7EBF650B4 PUSH1 0x4 DUP3 ADD MSTORE PUSH1 0x24 DUP2 ADD DUP3 SWAP1 MSTORE SWAP1 SWAP2 POP PUSH32 0x0 PUSH1 0x1 PUSH1 0x1 PUSH1 0xA0 SHL SUB AND SWAP1 PUSH4 0xA9059CBB SWAP1 PUSH1 0x44 ADD PUSH1 0x20 PUSH1 0x40 MLOAD DUP1 DUP4 SUB DUP2 PUSH0 DUP8 GAS CALL ISZERO DUP1 ISZERO PUSH2 0x8E2 JUMPI RETURNDATASIZE PUSH0 DUP1 RETURNDATACOPY RETURNDATASIZE PUSH0 REVERT JUMPDEST POP POP POP POP PUSH1 0x40 MLOAD RETURNDATASIZE PUSH1 0x1F NOT PUSH1 0x1F DUP3 ADD AND DUP3 ADD DUP1 PUSH1 0x40 MSTORE POP DUP2 ADD SWAP1 PUSH2 0x906 SWAP2 SWAP1 PUSH2 0x2A0C JUMP JUMPDEST POP PUSH2 0x90F PUSH2 0xCB9 JUMP JUMPDEST POP POP POP SWAP1 SWAP2 JUMP JUMPDEST PUSH2 0x91E PUSH2 0x1534 JUMP JUMPDEST PUSH1 0x64 DUP2 PUSH1 0xFF AND GT DUP1 PUSH2 0x933 JUMPI POP PUSH1 0x2 DUP2 PUSH1 0xFF AND LT JUMPDEST ISZERO PUSH2 0x951 JUMPI PUSH1 0x40 MLOAD PUSH4 0xB4FA3FB3 PUSH1 0xE0 SHL DUP2 MSTORE PUSH1 0x4 ADD PUSH1 0x40 MLOAD DUP1 SWAP2 SUB SWAP1 REVERT JUMPDEST PUSH1 0x9 DUP1 SLOAD PUSH1 0xFF NOT AND PUSH1 0xFF SWAP3 SWAP1 SWAP3 AND SWAP2 SWAP1 SWAP2 OR SWAP1 SSTORE JUMP JUMPDEST PUSH2 0x96F PUSH2 0x1534 JUMP JUMPDEST PUSH2 0x978 PUSH0 PUSH2 0x1561 JUMP JUMPDEST JUMP JUMPDEST PUSH2 0x982 PUSH2 0x157A JUMP JUMPDEST PUSH2 0x98A PUSH2 0x1245 JUMP JUMPDEST PUSH1 0x4 SLOAD PUSH1 0xFF AND PUSH2 0x9AD JUMPI PUSH1 0x40 MLOAD PUSH4 0x1864D7AB PUSH1 0xE2 SHL DUP2 MSTORE PUSH1 0x4 ADD PUSH1 0x40 MLOAD DUP1 SWAP2 SUB SWAP1 REVERT JUMPDEST PUSH1 0x7 SLOAD PUSH4 0xFFFFFFFF AND PUSH0 SWAP1 DUP2 MSTORE PUSH1 0x6 PUSH1 0x20 MSTORE PUSH1 0x40 SWAP1 KECCAK256 DUP1 SLOAD PUSH1 0x1 PUSH1 0x80 SHL SWAP1 DIV PUSH1 0x1 PUSH1 0x1 PUSH1 0x80 SHL SUB AND ISZERO PUSH2 0x9F3 JUMPI PUSH1 0x40 MLOAD PUSH4 0x31BBCB21 PUSH1 0xE1 SHL DUP2 MSTORE PUSH1 0x4 ADD PUSH1 0x40 MLOAD DUP1 SWAP2 SUB SWAP1 REVERT JUMPDEST DUP1 SLOAD PUSH1 0x1 PUSH1 0x1 PUSH1 0x80 SHL SUB SWAP1 DUP2 AND PUSH1 0x1 PUSH1 0x80 SHL DUP2 MUL DUP1 DUP3 OR DUP5 SSTORE PUSH0 SWAP3 PUSH2 0x2710 SWAP3 PUSH2 0xA20 SWAP3 PUSH1 0x96 SWAP3 AND OR PUSH2 0x296C JUMP JUMPDEST PUSH2 0xA2A SWAP2 SWAP1 PUSH2 0x2983 JUMP JUMPDEST DUP3 SLOAD SWAP1 SWAP2 POP PUSH0 SWAP1 PUSH2 0xA45 SWAP1 DUP4 SWAP1 PUSH1 0x1 PUSH1 0x1 PUSH1 0x80 SHL SUB AND PUSH2 0x29B1 JUMP JUMPDEST SWAP1 POP PUSH0 PUSH2 0xA59 DUP3 DUP8 DUP8 PUSH4 0xFFFFFFFF AND PUSH2 0x15A2 JUMP JUMPDEST SWAP1 POP PUSH0 PUSH2 0xA6C DUP3 DUP8 PUSH4 0xFFFFFFFF AND PUSH2 0x1758 JUMP JUMPDEST SWAP1 POP PUSH2 0xA76 PUSH2 0xCB9 JUMP JUMPDEST PUSH2 0xAA1 PUSH32 0x0 CALLER DUP7 PUSH2 0x195F JUMP JUMPDEST PUSH1 0x40 MLOAD CALLER SWAP1 DUP3 SWAP1 DUP6 SWAP1 PUSH32 0x1B3ED074DCE570943C9D4E66776A060E8AC73AF4F6B002482B09E561D90F038C SWAP1 PUSH0 SWAP1 LOG4 POP POP POP POP POP PUSH2 0xADD PUSH1 0x1 PUSH0 SSTORE JUMP JUMPDEST POP POP JUMP JUMPDEST PUSH1 0x2 SLOAD CALLER SWAP1 PUSH1 0x1 PUSH1 0x1 PUSH1 0xA0 SHL SUB AND DUP2 EQ PUSH2 0xB1E JUMPI PUSH1 0x40 MLOAD PUSH4 0x118CDAA7 PUSH1 0xE0 SHL DUP2 MSTORE PUSH1 0x1 PUSH1 0x1 PUSH1 0xA0 SHL SUB DUP3 AND PUSH1 0x4 DUP3 ADD MSTORE PUSH1 0x24 ADD JUMPDEST PUSH1 0x40 MLOAD DUP1 SWAP2 SUB SWAP1 REVERT JUMPDEST PUSH2 0xB27 DUP2 PUSH2 0x1561 JUMP JUMPDEST POP JUMP JUMPDEST PUSH2 0x190 PUSH1 0x5 PUSH1 0xFF DUP4 AND EQ DUP1 PUSH2 0xB42 JUMPI POP DUP2 PUSH1 0xFF AND PUSH1 0x6 EQ JUMPDEST ISZERO PUSH2 0xB50 JUMPI POP PUSH2 0x5DC SWAP2 SWAP1 POP JUMP JUMPDEST DUP2 PUSH1 0xFF AND PUSH1 0x4 SUB PUSH2 0xB60 JUMPI POP PUSH2 0x3E8 JUMPDEST SWAP2 SWAP1 POP JUMP JUMPDEST PUSH0 DUP1 PUSH32 0x0 PUSH1 0x1 PUSH1 0x1 PUSH1 0xA0 SHL SUB AND PUSH4 0xDC48525D PUSH1 0x40 MLOAD DUP2 PUSH4 0xFFFFFFFF AND PUSH1 0xE0 SHL DUP2 MSTORE PUSH1 0x4 ADD PUSH1 0x20 PUSH1 0x40 MLOAD DUP1 DUP4 SUB DUP2 DUP7 GAS STATICCALL ISZERO DUP1 ISZERO PUSH2 0xBC3 JUMPI RETURNDATASIZE PUSH0 DUP1 RETURNDATACOPY RETURNDATASIZE PUSH0 REVERT JUMPDEST POP POP POP POP PUSH1 0x40 MLOAD RETURNDATASIZE PUSH1 0x1F NOT PUSH1 0x1F DUP3 ADD AND DUP3 ADD DUP1 PUSH1 0x40 MSTORE POP DUP2 ADD SWAP1 PUSH2 0xBE7 SWAP2 SWAP1 PUSH2 0x2996 JUMP JUMPDEST SWAP1 POP PUSH2 0x384 PUSH0 PUSH2 0xBF6 DUP4 PUSH2 0x1A53 JUMP JUMPDEST SWAP1 POP DUP2 PUSH4 0xFFFFFFFF AND DUP2 PUSH4 0xFFFFFFFF AND LT ISZERO PUSH2 0xC10 JUMPI DUP1 SWAP2 POP JUMPDEST PUSH0 PUSH2 0xC1B DUP5 DUP5 PUSH2 0x1C0B JUMP JUMPDEST POP SWAP1 POP PUSH0 PUSH2 0xC28 DUP3 PUSH2 0x1E40 JUMP JUMPDEST SWAP1 POP PUSH2 0xC76 DUP2 DUP9 PUSH32 0x0 PUSH32 0x0 PUSH2 0x215B JUMP JUMPDEST SWAP8 SWAP7 POP POP POP POP POP POP POP JUMP JUMPDEST PUSH0 PUSH1 0x7 PUSH3 0x15180 PUSH2 0xC94 PUSH2 0xC4E0 DUP6 PUSH2 0x2879 JUMP JUMPDEST PUSH2 0xC9E SWAP2 SWAP1 PUSH2 0x28A9 JUMP JUMPDEST PUSH2 0xCA9 SWAP1 PUSH1 0x4 PUSH2 0x28D0 JUMP JUMPDEST PUSH2 0xCB3 SWAP2 SWAP1 PUSH2 0x2A25 JUMP JUMPDEST SWAP3 SWAP2 POP POP JUMP JUMPDEST PUSH1 0x40 MLOAD PUSH4 0x70A08231 PUSH1 0xE0 SHL DUP2 MSTORE ADDRESS PUSH1 0x4 DUP3 ADD MSTORE PUSH0 SWAP1 PUSH32 0x0 PUSH1 0x1 PUSH1 0x1 PUSH1 0xA0 SHL SUB AND SWAP1 PUSH4 0x70A08231 SWAP1 PUSH1 0x24 ADD PUSH1 0x20 PUSH1 0x40 MLOAD DUP1 DUP4 SUB DUP2 DUP7 GAS STATICCALL ISZERO DUP1 ISZERO PUSH2 0xD1D JUMPI RETURNDATASIZE PUSH0 DUP1 RETURNDATACOPY RETURNDATASIZE PUSH0 REVERT JUMPDEST POP POP POP POP PUSH1 0x40 MLOAD RETURNDATASIZE PUSH1 0x1F NOT PUSH1 0x1F DUP3 ADD AND DUP3 ADD DUP1 PUSH1 0x40 MSTORE POP DUP2 ADD SWAP1 PUSH2 0xD41 SWAP2 SWAP1 PUSH2 0x29C4 JUMP JUMPDEST SWAP1 POP DUP1 PUSH1 0x5 SLOAD PUSH2 0xD51 SWAP2 SWAP1 PUSH2 0x2A4C JUMP JUMPDEST PUSH1 0x5 SSTORE PUSH1 0x40 MLOAD PUSH4 0x852CD8D PUSH1 0xE3 SHL DUP2 MSTORE PUSH1 0x4 DUP2 ADD DUP3 SWAP1 MSTORE PUSH32 0x0 PUSH1 0x1 PUSH1 0x1 PUSH1 0xA0 SHL SUB AND SWAP1 PUSH4 0x42966C68 SWAP1 PUSH1 0x24 ADD PUSH0 PUSH1 0x40 MLOAD DUP1 DUP4 SUB DUP2 PUSH0 DUP8 DUP1 EXTCODESIZE ISZERO DUP1 ISZERO PUSH2 0xDB3 JUMPI PUSH0 DUP1 REVERT JUMPDEST POP GAS CALL ISZERO DUP1 ISZERO PUSH2 0xDC5 JUMPI RETURNDATASIZE PUSH0 DUP1 RETURNDATACOPY RETURNDATASIZE PUSH0 REVERT JUMPDEST POP POP POP POP POP JUMP JUMPDEST PUSH2 0xDD4 PUSH2 0x1534 JUMP JUMPDEST PUSH1 0x2 DUP1 SLOAD PUSH1 0x1 PUSH1 0x1 PUSH1 0xA0 SHL SUB DUP4 AND PUSH1 0x1 PUSH1 0x1 PUSH1 0xA0 SHL SUB NOT SWAP1 SWAP2 AND DUP2 OR SWAP1 SWAP2 SSTORE PUSH2 0xE05 PUSH1 0x1 SLOAD PUSH1 0x1 PUSH1 0x1 PUSH1 0xA0 SHL SUB AND SWAP1 JUMP JUMPDEST PUSH1 0x1 PUSH1 0x1 PUSH1 0xA0 SHL SUB AND PUSH32 0x38D16B8CAC22D99FC7C124B9CD0DE2D3FA1FAEF420BFE791D8C362D765E22700 PUSH1 0x40 MLOAD PUSH1 0x40 MLOAD DUP1 SWAP2 SUB SWAP1 LOG3 POP JUMP JUMPDEST PUSH2 0xE45 PUSH2 0x1534 JUMP JUMPDEST PUSH1 0x4 SLOAD PUSH1 0xFF AND ISZERO PUSH2 0xE69 JUMPI PUSH1 0x40 MLOAD PUSH4 0xFD02B6D PUSH1 0xE4 SHL DUP2 MSTORE PUSH1 0x4 ADD PUSH1 0x40 MLOAD DUP1 SWAP2 SUB SWAP1 REVERT JUMPDEST PUSH1 0x40 MLOAD PUSH4 0x70A08231 PUSH1 0xE0 SHL DUP2 MSTORE ADDRESS PUSH1 0x4 DUP3 ADD MSTORE PUSH12 0xA18F07D736B90BE550000000 SWAP1 PUSH32 0x0 PUSH1 0x1 PUSH1 0x1 PUSH1 0xA0 SHL SUB AND SWAP1 PUSH4 0x70A08231 SWAP1 PUSH1 0x24 ADD PUSH1 0x20 PUSH1 0x40 MLOAD DUP1 DUP4 SUB DUP2 DUP7 GAS STATICCALL ISZERO DUP1 ISZERO PUSH2 0xED9 JUMPI RETURNDATASIZE PUSH0 DUP1 RETURNDATACOPY RETURNDATASIZE PUSH0 REVERT JUMPDEST POP POP POP POP PUSH1 0x40 MLOAD RETURNDATASIZE PUSH1 0x1F NOT PUSH1 0x1F DUP3 ADD AND DUP3 ADD DUP1 PUSH1 0x40 MSTORE POP DUP2 ADD SWAP1 PUSH2 0xEFD SWAP2 SWAP1 PUSH2 0x29C4 JUMP JUMPDEST LT ISZERO PUSH2 0xF1C JUMPI PUSH1 0x40 MLOAD PUSH4 0x1BBC2D7D PUSH1 0xE2 SHL DUP2 MSTORE PUSH1 0x4 ADD PUSH1 0x40 MLOAD DUP1 SWAP2 SUB SWAP1 REVERT JUMPDEST PUSH1 0x4 DUP1 SLOAD PUSH1 0xFF NOT AND PUSH1 0x1 OR SWAP1 SSTORE PUSH0 PUSH2 0xF47 PUSH12 0xA18F07D736B90BE550000000 DUP4 PUSH4 0xFFFFFFFF DUP7 AND PUSH2 0x15A2 JUMP JUMPDEST SWAP1 POP PUSH32 0x0 PUSH1 0x1 PUSH1 0x1 PUSH1 0xA0 SHL SUB AND PUSH4 0x9BED7B6C PUSH1 0x40 MLOAD DUP2 PUSH4 0xFFFFFFFF AND PUSH1 0xE0 SHL DUP2 MSTORE PUSH1 0x4 ADD PUSH0 PUSH1 0x40 MLOAD DUP1 DUP4 SUB DUP2 PUSH0 DUP8 DUP1 EXTCODESIZE ISZERO DUP1 ISZERO PUSH2 0xFA1 JUMPI PUSH0 DUP1 REVERT JUMPDEST POP GAS CALL ISZERO DUP1 ISZERO PUSH2 0xFB3 JUMPI RETURNDATASIZE PUSH0 DUP1 RETURNDATACOPY RETURNDATASIZE PUSH0 REVERT JUMPDEST POP POP POP POP PUSH0 DUP1 PUSH0 DUP1 PUSH0 DUP1 PUSH2 0xFD3 DUP8 PUSH12 0xA18F07D736B90BE550000000 PUSH2 0x2235 JUMP JUMPDEST SWAP6 POP SWAP6 POP SWAP6 POP SWAP6 POP SWAP6 POP SWAP6 POP PUSH2 0xFFE DUP3 PUSH20 0xC36442B4A4522E871399CD717ABDD847AB11FE88 DUP9 PUSH2 0x22E6 JUMP JUMPDEST PUSH2 0x101D DUP2 PUSH20 0xC36442B4A4522E871399CD717ABDD847AB11FE88 DUP8 PUSH2 0x22E6 JUMP JUMPDEST PUSH0 PUSH1 0x40 MLOAD DUP1 PUSH2 0x160 ADD PUSH1 0x40 MSTORE DUP1 DUP5 PUSH1 0x1 PUSH1 0x1 PUSH1 0xA0 SHL SUB AND DUP2 MSTORE PUSH1 0x20 ADD DUP4 PUSH1 0x1 PUSH1 0x1 PUSH1 0xA0 SHL SUB AND DUP2 MSTORE PUSH1 0x20 ADD PUSH2 0x2710 PUSH3 0xFFFFFF AND DUP2 MSTORE PUSH1 0x20 ADD PUSH1 0xC8 DUP1 PUSH3 0xD89E7 NOT PUSH2 0x1067 SWAP2 SWAP1 PUSH2 0x2A5F JUMP JUMPDEST PUSH2 0x1071 SWAP2 SWAP1 PUSH2 0x2A97 JUMP JUMPDEST PUSH1 0x2 SIGNEXTEND DUP2 MSTORE PUSH1 0x20 ADD PUSH1 0xC8 DUP1 PUSH2 0x1089 PUSH3 0xD89E7 NOT PUSH2 0x2AB6 JUMP JUMPDEST PUSH2 0x1093 SWAP2 SWAP1 PUSH2 0x2A5F JUMP JUMPDEST PUSH2 0x109D SWAP2 SWAP1 PUSH2 0x2A97 JUMP JUMPDEST PUSH1 0x2 SIGNEXTEND DUP2 MSTORE PUSH1 0x20 ADD DUP9 DUP2 MSTORE PUSH1 0x20 ADD DUP8 DUP2 MSTORE PUSH1 0x20 ADD DUP7 DUP2 MSTORE PUSH1 0x20 ADD DUP6 DUP2 MSTORE PUSH1 0x20 ADD ADDRESS PUSH1 0x1 PUSH1 0x1 PUSH1 0xA0 SHL SUB AND DUP2 MSTORE PUSH1 0x20 ADD DUP12 PUSH4 0xFFFFFFFF AND DUP2 MSTORE POP SWAP1 POP PUSH0 PUSH20 0xC36442B4A4522E871399CD717ABDD847AB11FE88 PUSH1 0x1 PUSH1 0x1 PUSH1 0xA0 SHL SUB AND PUSH4 0x88316456 DUP4 PUSH1 0x40 MLOAD DUP3 PUSH4 0xFFFFFFFF AND PUSH1 0xE0 SHL DUP2 MSTORE PUSH1 0x4 ADD PUSH2 0x1119 SWAP2 SWAP1 PUSH2 0x2AD6 JUMP JUMPDEST PUSH1 0x80 PUSH1 0x40 MLOAD DUP1 DUP4 SUB DUP2 PUSH0 DUP8 GAS CALL ISZERO DUP1 ISZERO PUSH2 0x1135 JUMPI RETURNDATASIZE PUSH0 DUP1 RETURNDATACOPY RETURNDATASIZE PUSH0 REVERT JUMPDEST POP POP POP POP PUSH1 0x40 MLOAD RETURNDATASIZE PUSH1 0x1F NOT PUSH1 0x1F DUP3 ADD AND DUP3 ADD DUP1 PUSH1 0x40 MSTORE POP DUP2 ADD SWAP1 PUSH2 0x1159 SWAP2 SWAP1 PUSH2 0x2B9A JUMP JUMPDEST POP POP PUSH1 0x40 DUP1 MLOAD DUP1 DUP3 ADD DUP3 MSTORE PUSH1 0x1 PUSH1 0x1 PUSH1 0xF8 SHL SUB DUP5 AND DUP1 DUP3 MSTORE PUSH1 0x1 PUSH1 0x1 PUSH1 0xA0 SHL SUB DUP10 DUP2 AND PUSH32 0x0 DUP3 AND EQ PUSH1 0x20 SWAP1 SWAP4 ADD DUP4 SWAP1 MSTORE PUSH1 0x1 PUSH1 0xF8 SHL SWAP1 SWAP3 MUL OR PUSH1 0x3 SSTORE SWAP1 MLOAD PUSH4 0x70A08231 PUSH1 0xE0 SHL DUP2 MSTORE ADDRESS PUSH1 0x4 DUP3 ADD MSTORE SWAP3 SWAP4 POP PUSH32 0x0 AND SWAP2 PUSH4 0x70A08231 SWAP2 POP PUSH1 0x24 ADD PUSH1 0x20 PUSH1 0x40 MLOAD DUP1 DUP4 SUB DUP2 DUP7 GAS STATICCALL ISZERO DUP1 ISZERO PUSH2 0x1211 JUMPI RETURNDATASIZE PUSH0 DUP1 RETURNDATACOPY RETURNDATASIZE PUSH0 REVERT JUMPDEST POP POP POP POP PUSH1 0x40 MLOAD RETURNDATASIZE PUSH1 0x1F NOT PUSH1 0x1F DUP3 ADD AND DUP3 ADD DUP1 PUSH1 0x40 MSTORE POP DUP2 ADD SWAP1 PUSH2 0x1235 SWAP2 SWAP1 PUSH2 0x29C4 JUMP JUMPDEST PUSH1 0x8 SSTORE POP POP POP POP POP POP POP POP POP POP POP JUMP JUMPDEST PUSH32 0x0 PUSH4 0xFFFFFFFF AND TIMESTAMP LT ISZERO PUSH2 0x128C JUMPI PUSH1 0x40 MLOAD PUSH4 0x1864D7AB PUSH1 0xE2 SHL DUP2 MSTORE PUSH1 0x4 ADD PUSH1 0x40 MLOAD DUP1 SWAP2 SUB SWAP1 REVERT JUMPDEST PUSH1 0x4 SLOAD PUSH0 SWAP1 PUSH2 0x100 SWAP1 DIV PUSH4 0xFFFFFFFF AND ISZERO PUSH2 0x12BE JUMPI PUSH1 0x4 SLOAD PUSH2 0x12B9 SWAP1 PUSH2 0x100 SWAP1 DIV PUSH4 0xFFFFFFFF AND TIMESTAMP PUSH2 0x29B1 JUMP JUMPDEST PUSH2 0x12EE JUMP JUMPDEST PUSH2 0x12EE PUSH4 0xFFFFFFFF PUSH32 0x0 AND TIMESTAMP PUSH2 0x29B1 JUMP JUMPDEST SWAP1 POP PUSH0 DUP1 PUSH0 DUP1 PUSH0 PUSH1 0x4 PUSH1 0x1 SWAP1 SLOAD SWAP1 PUSH2 0x100 EXP SWAP1 DIV PUSH4 0xFFFFFFFF AND PUSH4 0xFFFFFFFF AND PUSH0 SUB PUSH2 0x1356 JUMPI PUSH2 0x1323 DUP7 PUSH4 0xFFFFFFFF AND PUSH2 0x23DA JUMP JUMPDEST SWAP2 SWAP7 POP SWAP5 POP SWAP3 POP PUSH32 0x0 SWAP2 POP PUSH1 0x1 SWAP1 POP PUSH2 0x139F JUMP JUMPDEST PUSH2 0x708 PUSH4 0xFFFFFFFF DUP8 AND GT ISZERO PUSH2 0x139F JUMPI PUSH2 0x1375 DUP7 PUSH4 0xFFFFFFFF AND PUSH2 0x23DA JUMP JUMPDEST PUSH1 0x4 SLOAD SWAP3 SWAP8 POP SWAP1 SWAP6 POP SWAP4 POP PUSH2 0x100 SWAP1 DIV PUSH4 0xFFFFFFFF AND SWAP2 POP PUSH1 0x1 SWAP1 POP DUP3 PUSH2 0x139B DUP2 PUSH2 0x2BE1 JUMP JUMPDEST SWAP4 POP POP JUMPDEST DUP1 ISZERO PUSH2 0x142F JUMPI PUSH2 0x13B5 PUSH2 0x708 PUSH2 0xFFFF DUP6 AND PUSH2 0x28EC JUMP JUMPDEST PUSH2 0x13BF SWAP1 DUP4 PUSH2 0x28D0 JUMP JUMPDEST PUSH1 0x4 DUP1 SLOAD PUSH4 0xFFFFFFFF SWAP3 DUP4 AND PUSH2 0x100 MUL PUSH5 0xFFFFFFFF00 NOT SWAP1 SWAP2 AND OR SWAP1 SSTORE PUSH1 0x40 DUP1 MLOAD DUP1 DUP3 ADD DUP3 MSTORE PUSH1 0x1 PUSH1 0x1 PUSH1 0x80 SHL SUB DUP1 DUP9 AND DUP3 MSTORE PUSH0 PUSH1 0x20 DUP1 DUP5 ADD DUP3 DUP2 MSTORE SWAP6 DUP12 AND DUP1 DUP4 MSTORE PUSH1 0x6 SWAP1 SWAP2 MSTORE SWAP4 SWAP1 KECCAK256 SWAP2 MLOAD SWAP4 MLOAD DUP2 AND PUSH1 0x1 PUSH1 0x80 SHL MUL SWAP4 AND SWAP3 SWAP1 SWAP3 OR SWAP1 SWAP2 SSTORE PUSH1 0x7 DUP1 SLOAD PUSH4 0xFFFFFFFF NOT AND SWAP1 SWAP2 OR SWAP1 SSTORE JUMPDEST POP POP POP POP POP POP JUMP JUMPDEST PUSH1 0x40 DUP1 MLOAD PUSH1 0x1 PUSH1 0x1 PUSH1 0xA0 SHL SUB DUP6 DUP2 AND PUSH1 0x24 DUP4 ADD MSTORE DUP5 DUP2 AND PUSH1 0x44 DUP4 ADD MSTORE PUSH1 0x64 DUP1 DUP4 ADD DUP6 SWAP1 MSTORE DUP4 MLOAD DUP1 DUP5 SUB SWAP1 SWAP2 ADD DUP2 MSTORE PUSH1 0x84 SWAP1 SWAP3 ADD DUP4 MSTORE PUSH1 0x20 DUP3 ADD DUP1 MLOAD PUSH1 0x1 PUSH1 0x1 PUSH1 0xE0 SHL SUB AND PUSH4 0x23B872DD PUSH1 0xE0 SHL OR SWAP1 MSTORE SWAP2 MLOAD PUSH0 SWAP3 DUP4 SWAP3 SWAP1 DUP9 AND SWAP2 PUSH2 0x149A SWAP2 SWAP1 PUSH2 0x2C01 JUMP JUMPDEST PUSH0 PUSH1 0x40 MLOAD DUP1 DUP4 SUB DUP2 PUSH0 DUP7 GAS CALL SWAP2 POP POP RETURNDATASIZE DUP1 PUSH0 DUP2 EQ PUSH2 0x14D3 JUMPI PUSH1 0x40 MLOAD SWAP2 POP PUSH1 0x1F NOT PUSH1 0x3F RETURNDATASIZE ADD AND DUP3 ADD PUSH1 0x40 MSTORE RETURNDATASIZE DUP3 MSTORE RETURNDATASIZE PUSH0 PUSH1 0x20 DUP5 ADD RETURNDATACOPY PUSH2 0x14D8 JUMP JUMPDEST PUSH1 0x60 SWAP2 POP JUMPDEST POP SWAP2 POP SWAP2 POP DUP2 DUP1 ISZERO PUSH2 0x1502 JUMPI POP DUP1 MLOAD ISZERO DUP1 PUSH2 0x1502 JUMPI POP DUP1 DUP1 PUSH1 0x20 ADD SWAP1 MLOAD DUP2 ADD SWAP1 PUSH2 0x1502 SWAP2 SWAP1 PUSH2 0x2A0C JUMP JUMPDEST PUSH2 0x142F JUMPI PUSH1 0x40 MLOAD PUSH3 0x461BCD PUSH1 0xE5 SHL DUP2 MSTORE PUSH1 0x20 PUSH1 0x4 DUP3 ADD MSTORE PUSH1 0x3 PUSH1 0x24 DUP3 ADD MSTORE PUSH3 0x29AA23 PUSH1 0xE9 SHL PUSH1 0x44 DUP3 ADD MSTORE PUSH1 0x64 ADD PUSH2 0xB15 JUMP JUMPDEST PUSH1 0x1 SLOAD PUSH1 0x1 PUSH1 0x1 PUSH1 0xA0 SHL SUB AND CALLER EQ PUSH2 0x978 JUMPI PUSH1 0x40 MLOAD PUSH4 0x118CDAA7 PUSH1 0xE0 SHL DUP2 MSTORE CALLER PUSH1 0x4 DUP3 ADD MSTORE PUSH1 0x24 ADD PUSH2 0xB15 JUMP JUMPDEST PUSH1 0x2 DUP1 SLOAD PUSH1 0x1 PUSH1 0x1 PUSH1 0xA0 SHL SUB NOT AND SWAP1 SSTORE PUSH2 0xB27 DUP2 PUSH2 0x25E7 JUMP JUMPDEST PUSH1 0x2 PUSH0 SLOAD SUB PUSH2 0x159C JUMPI PUSH1 0x40 MLOAD PUSH4 0x3EE5AEB5 PUSH1 0xE0 SHL DUP2 MSTORE PUSH1 0x4 ADD PUSH1 0x40 MLOAD DUP1 SWAP2 SUB SWAP1 REVERT JUMPDEST PUSH1 0x2 PUSH0 SSTORE JUMP JUMPDEST PUSH0 PUSH2 0x15E2 PUSH32 0x0 PUSH20 0x7A250D5630B4CF539739DF2C5DACB4C659F2488D DUP7 PUSH2 0x22E6 JUMP JUMPDEST PUSH1 0x40 DUP1 MLOAD PUSH1 0x2 DUP1 DUP3 MSTORE PUSH1 0x60 DUP3 ADD DUP4 MSTORE PUSH0 SWAP3 PUSH1 0x20 DUP4 ADD SWAP1 DUP1 CALLDATASIZE DUP4 CALLDATACOPY ADD SWAP1 POP POP SWAP1 POP PUSH32 0x0 DUP2 PUSH0 DUP2 MLOAD DUP2 LT PUSH2 0x1635 JUMPI PUSH2 0x1635 PUSH2 0x2C2B JUMP JUMPDEST PUSH1 0x20 MUL PUSH1 0x20 ADD ADD SWAP1 PUSH1 0x1 PUSH1 0x1 PUSH1 0xA0 SHL SUB AND SWAP1 DUP2 PUSH1 0x1 PUSH1 0x1 PUSH1 0xA0 SHL SUB AND DUP2 MSTORE POP POP PUSH32 0x0 DUP2 PUSH1 0x1 DUP2 MLOAD DUP2 LT PUSH2 0x1689 JUMPI PUSH2 0x1689 PUSH2 0x2C2B JUMP JUMPDEST PUSH1 0x1 PUSH1 0x1 PUSH1 0xA0 SHL SUB SWAP1 SWAP3 AND PUSH1 0x20 SWAP3 DUP4 MUL SWAP2 SWAP1 SWAP2 ADD SWAP1 SWAP2 ADD MSTORE PUSH1 0x40 MLOAD PUSH4 0x38ED1739 PUSH1 0xE0 SHL DUP2 MSTORE PUSH0 SWAP1 PUSH20 0x7A250D5630B4CF539739DF2C5DACB4C659F2488D SWAP1 PUSH4 0x38ED1739 SWAP1 PUSH2 0x16E2 SWAP1 DUP10 SWAP1 DUP10 SWAP1 DUP8 SWAP1 ADDRESS SWAP1 DUP12 SWAP1 PUSH1 0x4 ADD PUSH2 0x2C3F JUMP JUMPDEST PUSH0 PUSH1 0x40 MLOAD DUP1 DUP4 SUB DUP2 PUSH0 DUP8 GAS CALL ISZERO DUP1 ISZERO PUSH2 0x16FD JUMPI RETURNDATASIZE PUSH0 DUP1 RETURNDATACOPY RETURNDATASIZE PUSH0 REVERT JUMPDEST POP POP POP POP PUSH1 0x40 MLOAD RETURNDATASIZE PUSH0 DUP3 RETURNDATACOPY PUSH1 0x1F RETURNDATASIZE SWAP1 DUP2 ADD PUSH1 0x1F NOT AND DUP3 ADD PUSH1 0x40 MSTORE PUSH2 0x1724 SWAP2 SWAP1 DUP2 ADD SWAP1 PUSH2 0x2D03 JUMP JUMPDEST SWAP1 POP DUP1 PUSH1 0x1 DUP3 MLOAD PUSH2 0x1735 SWAP2 SWAP1 PUSH2 0x29B1 JUMP JUMPDEST DUP2 MLOAD DUP2 LT PUSH2 0x1745 JUMPI PUSH2 0x1745 PUSH2 0x2C2B JUMP JUMPDEST PUSH1 0x20 MUL PUSH1 0x20 ADD ADD MLOAD SWAP3 POP POP POP SWAP4 SWAP3 POP POP POP JUMP JUMPDEST PUSH1 0x40 MLOAD PUSH4 0x95EA7B3 PUSH1 0xE0 SHL DUP2 MSTORE PUSH20 0xE592427A0AECE92DE3EDEE1F18E0157C05861564 PUSH1 0x4 DUP3 ADD MSTORE PUSH1 0x24 DUP2 ADD DUP4 SWAP1 MSTORE PUSH0 SWAP1 PUSH32 0x0 PUSH1 0x1 PUSH1 0x1 PUSH1 0xA0 SHL SUB AND SWAP1 PUSH4 0x95EA7B3 SWAP1 PUSH1 0x44 ADD PUSH1 0x20 PUSH1 0x40 MLOAD DUP1 DUP4 SUB DUP2 PUSH0 DUP8 GAS CALL ISZERO DUP1 ISZERO PUSH2 0x17D8 JUMPI RETURNDATASIZE PUSH0 DUP1 RETURNDATACOPY RETURNDATASIZE PUSH0 REVERT JUMPDEST POP POP POP POP PUSH1 0x40 MLOAD RETURNDATASIZE PUSH1 0x1F NOT PUSH1 0x1F DUP3 ADD AND DUP3 ADD DUP1 PUSH1 0x40 MSTORE POP DUP2 ADD SWAP1 PUSH2 0x17FC SWAP2 SWAP1 PUSH2 0x2A0C JUMP JUMPDEST POP PUSH1 0x40 MLOAD PUSH12 0xFFFFFFFFFFFFFFFFFFFFFFFF NOT PUSH32 0x0 PUSH1 0x60 SWAP1 DUP2 SHL DUP3 AND PUSH1 0x20 DUP5 ADD MSTORE PUSH2 0x271 PUSH1 0xEC SHL PUSH1 0x34 DUP5 ADD MSTORE PUSH32 0x0 SWAP1 SHL AND PUSH1 0x37 DUP3 ADD MSTORE PUSH0 SWAP1 PUSH1 0x4B ADD PUSH1 0x40 MLOAD PUSH1 0x20 DUP2 DUP4 SUB SUB DUP2 MSTORE SWAP1 PUSH1 0x40 MSTORE SWAP1 POP PUSH0 PUSH2 0x188F DUP6 PUSH2 0xB65 JUMP JUMPDEST PUSH1 0x9 SLOAD SWAP1 SWAP2 POP PUSH0 SWAP1 PUSH1 0x64 SWAP1 PUSH2 0x18A7 SWAP1 PUSH1 0xFF AND DUP3 PUSH2 0x2D8F JUMP JUMPDEST PUSH2 0x18B4 SWAP1 PUSH1 0xFF AND DUP5 PUSH2 0x296C JUMP JUMPDEST PUSH2 0x18BE SWAP2 SWAP1 PUSH2 0x2983 JUMP JUMPDEST PUSH1 0x40 DUP1 MLOAD PUSH1 0xA0 DUP2 ADD DUP3 MSTORE DUP6 DUP2 MSTORE ADDRESS PUSH1 0x20 DUP3 ADD MSTORE DUP1 DUP3 ADD DUP9 SWAP1 MSTORE PUSH1 0x60 DUP2 ADD DUP10 SWAP1 MSTORE PUSH1 0x80 DUP2 ADD DUP4 SWAP1 MSTORE SWAP1 MLOAD PUSH4 0xC04B8D59 PUSH1 0xE0 SHL DUP2 MSTORE SWAP2 SWAP3 POP SWAP1 PUSH20 0xE592427A0AECE92DE3EDEE1F18E0157C05861564 SWAP1 PUSH4 0xC04B8D59 SWAP1 PUSH2 0x191F SWAP1 DUP5 SWAP1 PUSH1 0x4 ADD PUSH2 0x2DA8 JUMP JUMPDEST PUSH1 0x20 PUSH1 0x40 MLOAD DUP1 DUP4 SUB DUP2 PUSH0 DUP8 GAS CALL ISZERO DUP1 ISZERO PUSH2 0x193B JUMPI RETURNDATASIZE PUSH0 DUP1 RETURNDATACOPY RETURNDATASIZE PUSH0 REVERT JUMPDEST POP POP POP POP PUSH1 0x40 MLOAD RETURNDATASIZE PUSH1 0x1F NOT PUSH1 0x1F DUP3 ADD AND DUP3 ADD DUP1 PUSH1 0x40 MSTORE POP DUP2 ADD SWAP1 PUSH2 0xC76 SWAP2 SWAP1 PUSH2 0x29C4 JUMP JUMPDEST PUSH1 0x40 DUP1 MLOAD PUSH1 0x1 PUSH1 0x1 PUSH1 0xA0 SHL SUB DUP5 DUP2 AND PUSH1 0x24 DUP4 ADD MSTORE PUSH1 0x44 DUP1 DUP4 ADD DUP6 SWAP1 MSTORE DUP4 MLOAD DUP1 DUP5 SUB SWAP1 SWAP2 ADD DUP2 MSTORE PUSH1 0x64 SWAP1 SWAP3 ADD DUP4 MSTORE PUSH1 0x20 DUP3 ADD DUP1 MLOAD PUSH1 0x1 PUSH1 0x1 PUSH1 0xE0 SHL SUB AND PUSH4 0xA9059CBB PUSH1 0xE0 SHL OR SWAP1 MSTORE SWAP2 MLOAD PUSH0 SWAP3 DUP4 SWAP3 SWAP1 DUP8 AND SWAP2 PUSH2 0x19BA SWAP2 SWAP1 PUSH2 0x2C01 JUMP JUMPDEST PUSH0 PUSH1 0x40 MLOAD DUP1 DUP4 SUB DUP2 PUSH0 DUP7 GAS CALL SWAP2 POP POP RETURNDATASIZE DUP1 PUSH0 DUP2 EQ PUSH2 0x19F3 JUMPI PUSH1 0x40 MLOAD SWAP2 POP PUSH1 0x1F NOT PUSH1 0x3F RETURNDATASIZE ADD AND DUP3 ADD PUSH1 0x40 MSTORE RETURNDATASIZE DUP3 MSTORE RETURNDATASIZE PUSH0 PUSH1 0x20 DUP5 ADD RETURNDATACOPY PUSH2 0x19F8 JUMP JUMPDEST PUSH1 0x60 SWAP2 POP JUMPDEST POP SWAP2 POP SWAP2 POP DUP2 DUP1 ISZERO PUSH2 0x1A22 JUMPI POP DUP1 MLOAD ISZERO DUP1 PUSH2 0x1A22 JUMPI POP DUP1 DUP1 PUSH1 0x20 ADD SWAP1 MLOAD DUP2 ADD SWAP1 PUSH2 0x1A22 SWAP2 SWAP1 PUSH2 0x2A0C JUMP JUMPDEST PUSH2 0xDC5 JUMPI PUSH1 0x40 MLOAD PUSH3 0x461BCD PUSH1 0xE5 SHL DUP2 MSTORE PUSH1 0x20 PUSH1 0x4 DUP3 ADD MSTORE PUSH1 0x2 PUSH1 0x24 DUP3 ADD MSTORE PUSH2 0x14D5 PUSH1 0xF2 SHL PUSH1 0x44 DUP3 ADD MSTORE PUSH1 0x64 ADD PUSH2 0xB15 JUMP JUMPDEST PUSH0 DUP1 PUSH0 DUP4 PUSH1 0x1 PUSH1 0x1 PUSH1 0xA0 SHL SUB AND PUSH4 0x3850C7BD PUSH1 0x40 MLOAD DUP2 PUSH4 0xFFFFFFFF AND PUSH1 0xE0 SHL DUP2 MSTORE PUSH1 0x4 ADD PUSH1 0xE0 PUSH1 0x40 MLOAD DUP1 DUP4 SUB DUP2 DUP7 GAS STATICCALL ISZERO DUP1 ISZERO PUSH2 0x1A92 JUMPI RETURNDATASIZE PUSH0 DUP1 RETURNDATACOPY RETURNDATASIZE PUSH0 REVERT JUMPDEST POP POP POP POP PUSH1 0x40 MLOAD RETURNDATASIZE PUSH1 0x1F NOT PUSH1 0x1F DUP3 ADD AND DUP3 ADD DUP1 PUSH1 0x40 MSTORE POP DUP2 ADD SWAP1 PUSH2 0x1AB6 SWAP2 SWAP1 PUSH2 0x2E28 JUMP JUMPDEST POP POP POP SWAP4 POP SWAP4 POP POP POP PUSH0 DUP2 PUSH2 0xFFFF AND GT PUSH2 0x1AF7 JUMPI PUSH1 0x40 MLOAD PUSH3 0x461BCD PUSH1 0xE5 SHL DUP2 MSTORE PUSH1 0x20 PUSH1 0x4 DUP3 ADD MSTORE PUSH1 0x2 PUSH1 0x24 DUP3 ADD MSTORE PUSH2 0x4E49 PUSH1 0xF0 SHL PUSH1 0x44 DUP3 ADD MSTORE PUSH1 0x64 ADD PUSH2 0xB15 JUMP JUMPDEST PUSH0 DUP1 PUSH1 0x1 PUSH1 0x1 PUSH1 0xA0 SHL SUB DUP7 AND PUSH4 0x252C09D7 DUP5 PUSH2 0x1B14 DUP8 PUSH1 0x1 PUSH2 0x2EB6 JUMP JUMPDEST PUSH2 0x1B1E SWAP2 SWAP1 PUSH2 0x2ED0 JUMP JUMPDEST PUSH1 0x40 MLOAD PUSH1 0x1 PUSH1 0x1 PUSH1 0xE0 SHL SUB NOT PUSH1 0xE0 DUP5 SWAP1 SHL AND DUP2 MSTORE PUSH2 0xFFFF SWAP1 SWAP2 AND PUSH1 0x4 DUP3 ADD MSTORE PUSH1 0x24 ADD PUSH1 0x80 PUSH1 0x40 MLOAD DUP1 DUP4 SUB DUP2 DUP7 GAS STATICCALL ISZERO DUP1 ISZERO PUSH2 0x1B5B JUMPI RETURNDATASIZE PUSH0 DUP1 RETURNDATACOPY RETURNDATASIZE PUSH0 REVERT JUMPDEST POP POP POP POP PUSH1 0x40 MLOAD RETURNDATASIZE PUSH1 0x1F NOT PUSH1 0x1F DUP3 ADD AND DUP3 ADD DUP1 PUSH1 0x40 MSTORE POP DUP2 ADD SWAP1 PUSH2 0x1B7F SWAP2 SWAP1 PUSH2 0x2F04 JUMP JUMPDEST SWAP4 POP POP POP SWAP2 POP DUP1 PUSH2 0x1BF7 JUMPI PUSH1 0x40 MLOAD PUSH4 0x252C09D7 PUSH1 0xE0 SHL DUP2 MSTORE PUSH0 PUSH1 0x4 DUP3 ADD MSTORE PUSH1 0x1 PUSH1 0x1 PUSH1 0xA0 SHL SUB DUP8 AND SWAP1 PUSH4 0x252C09D7 SWAP1 PUSH1 0x24 ADD PUSH1 0x80 PUSH1 0x40 MLOAD DUP1 DUP4 SUB DUP2 DUP7 GAS STATICCALL ISZERO DUP1 ISZERO PUSH2 0x1BCC JUMPI RETURNDATASIZE PUSH0 DUP1 RETURNDATACOPY RETURNDATASIZE PUSH0 REVERT JUMPDEST POP POP POP POP PUSH1 0x40 MLOAD RETURNDATASIZE PUSH1 0x1F NOT PUSH1 0x1F DUP3 ADD AND DUP3 ADD DUP1 PUSH1 0x40 MSTORE POP DUP2 ADD SWAP1 PUSH2 0x1BF0 SWAP2 SWAP1 PUSH2 0x2F04 JUMP JUMPDEST POP SWAP2 SWAP4 POP POP POP JUMPDEST PUSH2 0x1C01 DUP3 TIMESTAMP PUSH2 0x2879 JUMP JUMPDEST SWAP7 SWAP6 POP POP POP POP POP POP JUMP JUMPDEST PUSH0 DUP1 DUP3 PUSH4 0xFFFFFFFF AND PUSH0 SUB PUSH2 0x1C47 JUMPI PUSH1 0x40 MLOAD PUSH3 0x461BCD PUSH1 0xE5 SHL DUP2 MSTORE PUSH1 0x20 PUSH1 0x4 DUP3 ADD MSTORE PUSH1 0x2 PUSH1 0x24 DUP3 ADD MSTORE PUSH2 0x425 PUSH1 0xF4 SHL PUSH1 0x44 DUP3 ADD MSTORE PUSH1 0x64 ADD PUSH2 0xB15 JUMP JUMPDEST PUSH1 0x40 DUP1 MLOAD PUSH1 0x2 DUP1 DUP3 MSTORE PUSH1 0x60 DUP3 ADD DUP4 MSTORE PUSH0 SWAP3 PUSH1 0x20 DUP4 ADD SWAP1 DUP1 CALLDATASIZE DUP4 CALLDATACOPY ADD SWAP1 POP POP SWAP1 POP DUP4 DUP2 PUSH0 DUP2 MLOAD DUP2 LT PUSH2 0x1C7A JUMPI PUSH2 0x1C7A PUSH2 0x2C2B JUMP JUMPDEST PUSH1 0x20 MUL PUSH1 0x20 ADD ADD SWAP1 PUSH4 0xFFFFFFFF AND SWAP1 DUP2 PUSH4 0xFFFFFFFF AND DUP2 MSTORE POP POP PUSH0 DUP2 PUSH1 0x1 DUP2 MLOAD DUP2 LT PUSH2 0x1CA8 JUMPI PUSH2 0x1CA8 PUSH2 0x2C2B JUMP JUMPDEST PUSH1 0x20 MUL PUSH1 0x20 ADD ADD SWAP1 PUSH4 0xFFFFFFFF AND SWAP1 DUP2 PUSH4 0xFFFFFFFF AND DUP2 MSTORE POP POP PUSH0 DUP1 DUP7 PUSH1 0x1 PUSH1 0x1 PUSH1 0xA0 SHL SUB AND PUSH4 0x883BDBFD DUP5 PUSH1 0x40 MLOAD DUP3 PUSH4 0xFFFFFFFF AND PUSH1 0xE0 SHL DUP2 MSTORE PUSH1 0x4 ADD PUSH2 0x1CF0 SWAP2 SWAP1 PUSH2 0x2F59 JUMP JUMPDEST PUSH0 PUSH1 0x40 MLOAD DUP1 DUP4 SUB DUP2 DUP7 GAS STATICCALL ISZERO DUP1 ISZERO PUSH2 0x1D0A JUMPI RETURNDATASIZE PUSH0 DUP1 RETURNDATACOPY RETURNDATASIZE PUSH0 REVERT JUMPDEST POP POP POP POP PUSH1 0x40 MLOAD RETURNDATASIZE PUSH0 DUP3 RETURNDATACOPY PUSH1 0x1F RETURNDATASIZE SWAP1 DUP2 ADD PUSH1 0x1F NOT AND DUP3 ADD PUSH1 0x40 MSTORE PUSH2 0x1D31 SWAP2 SWAP1 DUP2 ADD SWAP1 PUSH2 0x300F JUMP JUMPDEST SWAP2 POP SWAP2 POP PUSH0 DUP3 PUSH0 DUP2 MLOAD DUP2 LT PUSH2 0x1D48 JUMPI PUSH2 0x1D48 PUSH2 0x2C2B JUMP JUMPDEST PUSH1 0x20 MUL PUSH1 0x20 ADD ADD MLOAD DUP4 PUSH1 0x1 DUP2 MLOAD DUP2 LT PUSH2 0x1D63 JUMPI PUSH2 0x1D63 PUSH2 0x2C2B JUMP JUMPDEST PUSH1 0x20 MUL PUSH1 0x20 ADD ADD MLOAD PUSH2 0x1D75 SWAP2 SWAP1 PUSH2 0x30D4 JUMP JUMPDEST SWAP1 POP PUSH0 DUP3 PUSH0 DUP2 MLOAD DUP2 LT PUSH2 0x1D8A JUMPI PUSH2 0x1D8A PUSH2 0x2C2B JUMP JUMPDEST PUSH1 0x20 MUL PUSH1 0x20 ADD ADD MLOAD DUP4 PUSH1 0x1 DUP2 MLOAD DUP2 LT PUSH2 0x1DA5 JUMPI PUSH2 0x1DA5 PUSH2 0x2C2B JUMP JUMPDEST PUSH1 0x20 MUL PUSH1 0x20 ADD ADD MLOAD PUSH2 0x1DB7 SWAP2 SWAP1 PUSH2 0x3101 JUMP JUMPDEST SWAP1 POP PUSH4 0xFFFFFFFF DUP9 AND PUSH2 0x1DCA DUP2 DUP5 PUSH2 0x3120 JUMP JUMPDEST SWAP8 POP PUSH0 DUP4 PUSH1 0x6 SIGNEXTEND SLT DUP1 ISZERO PUSH2 0x1DE9 JUMPI POP PUSH2 0x1DE3 DUP2 DUP5 PUSH2 0x3153 JUMP JUMPDEST PUSH1 0x6 SIGNEXTEND ISZERO ISZERO JUMPDEST ISZERO PUSH2 0x1DFC JUMPI DUP8 PUSH2 0x1DF8 DUP2 PUSH2 0x3174 JUMP JUMPDEST SWAP9 POP POP JUMPDEST PUSH4 0xFFFFFFFF DUP10 AND PUSH5 0x100000000 PUSH1 0x1 PUSH1 0xC0 SHL SUB PUSH1 0x20 DUP5 SWAP1 SHL AND PUSH2 0x1E26 PUSH1 0x1 PUSH1 0x1 PUSH1 0xA0 SHL SUB DUP4 PUSH2 0x3195 JUMP JUMPDEST PUSH2 0x1E30 SWAP2 SWAP1 PUSH2 0x31C6 JUMP JUMPDEST SWAP8 POP POP POP POP POP POP POP POP SWAP3 POP SWAP3 SWAP1 POP JUMP JUMPDEST PUSH0 DUP1 PUSH0 DUP4 PUSH1 0x2 SIGNEXTEND SLT PUSH2 0x1E55 JUMPI DUP3 PUSH1 0x2 SIGNEXTEND PUSH2 0x1E5C JUMP JUMPDEST DUP3 PUSH1 0x2 SIGNEXTEND PUSH0 SUB JUMPDEST SWAP1 POP PUSH3 0xD89E8 DUP2 GT ISZERO PUSH2 0x1E82 JUMPI PUSH1 0x40 MLOAD PUSH4 0x15E4079D PUSH1 0xE1 SHL DUP2 MSTORE PUSH1 0x4 ADD PUSH1 0x40 MLOAD DUP1 SWAP2 SUB SWAP1 REVERT JUMPDEST PUSH0 DUP2 PUSH1 0x1 AND PUSH0 SUB PUSH2 0x1E97 JUMPI PUSH1 0x1 PUSH1 0x80 SHL PUSH2 0x1EA9 JUMP JUMPDEST PUSH16 0xFFFCB933BD6FAD37AA2D162D1A594001 JUMPDEST PUSH17 0xFFFFFFFFFFFFFFFFFFFFFFFFFFFFFFFFFF AND SWAP1 POP PUSH1 0x2 DUP3 AND ISZERO PUSH2 0x1EDD JUMPI PUSH16 0xFFF97272373D413259A46990580E213A MUL PUSH1 0x80 SHR JUMPDEST PUSH1 0x4 DUP3 AND ISZERO PUSH2 0x1EFC JUMPI PUSH16 0xFFF2E50F5F656932EF12357CF3C7FDCC MUL PUSH1 0x80 SHR JUMPDEST PUSH1 0x8 DUP3 AND ISZERO PUSH2 0x1F1B JUMPI PUSH16 0xFFE5CACA7E10E4E61C3624EAA0941CD0 MUL PUSH1 0x80 SHR JUMPDEST PUSH1 0x10 DUP3 AND ISZERO PUSH2 0x1F3A JUMPI PUSH16 0xFFCB9843D60F6159C9DB58835C926644 MUL PUSH1 0x80 SHR JUMPDEST PUSH1 0x20 DUP3 AND ISZERO PUSH2 0x1F59 JUMPI PUSH16 0xFF973B41FA98C081472E6896DFB254C0 MUL PUSH1 0x80 SHR JUMPDEST PUSH1 0x40 DUP3 AND ISZERO PUSH2 0x1F78 JUMPI PUSH16 0xFF2EA16466C96A3843EC78B326B52861 MUL PUSH1 0x80 SHR JUMPDEST PUSH1 0x80 DUP3 AND ISZERO PUSH2 0x1F97 JUMPI PUSH16 0xFE5DEE046A99A2A811C461F1969C3053 MUL PUSH1 0x80 SHR JUMPDEST PUSH2 0x100 DUP3 AND ISZERO PUSH2 0x1FB7 JUMPI PUSH16 0xFCBE86C7900A88AEDCFFC83B479AA3A4 MUL PUSH1 0x80 SHR JUMPDEST PUSH2 0x200 DUP3 AND ISZERO PUSH2 0x1FD7 JUMPI PUSH16 0xF987A7253AC413176F2B074CF7815E54 MUL PUSH1 0x80 SHR JUMPDEST PUSH2 0x400 DUP3 AND ISZERO PUSH2 0x1FF7 JUMPI PUSH16 0xF3392B0822B70005940C7A398E4B70F3 MUL PUSH1 0x80 SHR JUMPDEST PUSH2 0x800 DUP3 AND ISZERO PUSH2 0x2017 JUMPI PUSH16 0xE7159475A2C29B7443B29C7FA6E889D9 MUL PUSH1 0x80 SHR JUMPDEST PUSH2 0x1000 DUP3 AND ISZERO PUSH2 0x2037 JUMPI PUSH16 0xD097F3BDFD2022B8845AD8F792AA5825 MUL PUSH1 0x80 SHR JUMPDEST PUSH2 0x2000 DUP3 AND ISZERO PUSH2 0x2057 JUMPI PUSH16 0xA9F746462D870FDF8A65DC1F90E061E5 MUL PUSH1 0x80 SHR JUMPDEST PUSH2 0x4000 DUP3 AND ISZERO PUSH2 0x2077 JUMPI PUSH16 0x70D869A156D2A1B890BB3DF62BAF32F7 MUL PUSH1 0x80 SHR JUMPDEST PUSH2 0x8000 DUP3 AND ISZERO PUSH2 0x2097 JUMPI PUSH16 0x31BE135F97D08FD981231505542FCFA6 MUL PUSH1 0x80 SHR JUMPDEST PUSH3 0x10000 DUP3 AND ISZERO PUSH2 0x20B8 JUMPI PUSH16 0x9AA508B5B7A84E1C677DE54F3E99BC9 MUL PUSH1 0x80 SHR JUMPDEST PUSH3 0x20000 DUP3 AND ISZERO PUSH2 0x20D8 JUMPI PUSH15 0x5D6AF8DEDB81196699C329225EE604 MUL PUSH1 0x80 SHR JUMPDEST PUSH3 0x40000 DUP3 AND ISZERO PUSH2 0x20F7 JUMPI PUSH14 0x2216E584F5FA1EA926041BEDFE98 MUL PUSH1 0x80 SHR JUMPDEST PUSH3 0x80000 DUP3 AND ISZERO PUSH2 0x2114 JUMPI PUSH12 0x48A170391F7DC42444E8FA2 MUL PUSH1 0x80 SHR JUMPDEST PUSH0 DUP5 PUSH1 0x2 SIGNEXTEND SGT ISZERO PUSH2 0x2133 JUMPI DUP1 PUSH0 NOT DUP2 PUSH2 0x212F JUMPI PUSH2 0x212F PUSH2 0x2895 JUMP JUMPDEST DIV SWAP1 POP JUMPDEST PUSH5 0x100000000 DUP2 MOD ISZERO PUSH2 0x2147 JUMPI PUSH1 0x1 PUSH2 0x2149 JUMP JUMPDEST PUSH0 JUMPDEST PUSH1 0xFF AND PUSH1 0x20 DUP3 SWAP1 SHR ADD SWAP3 POP POP POP SWAP2 SWAP1 POP JUMP JUMPDEST PUSH0 PUSH1 0x1 PUSH1 0x1 PUSH1 0x80 SHL SUB PUSH1 0x1 PUSH1 0x1 PUSH1 0xA0 SHL SUB DUP7 AND GT PUSH2 0x21CD JUMPI PUSH0 PUSH2 0x2187 PUSH1 0x1 PUSH1 0x1 PUSH1 0xA0 SHL SUB DUP8 AND DUP1 PUSH2 0x296C JUMP JUMPDEST SWAP1 POP DUP3 PUSH1 0x1 PUSH1 0x1 PUSH1 0xA0 SHL SUB AND DUP5 PUSH1 0x1 PUSH1 0x1 PUSH1 0xA0 SHL SUB AND LT PUSH2 0x21B6 JUMPI PUSH2 0x21B1 PUSH1 0x1 PUSH1 0xC0 SHL DUP7 DUP4 PUSH2 0x2638 JUMP JUMPDEST PUSH2 0x21C5 JUMP JUMPDEST PUSH2 0x21C5 DUP2 DUP7 PUSH1 0x1 PUSH1 0xC0 SHL PUSH2 0x2638 JUMP JUMPDEST SWAP2 POP POP PUSH2 0x222D JUMP JUMPDEST PUSH0 PUSH2 0x21EB PUSH1 0x1 PUSH1 0x1 PUSH1 0xA0 SHL SUB DUP8 AND DUP1 PUSH9 0x10000000000000000 PUSH2 0x2638 JUMP JUMPDEST SWAP1 POP DUP3 PUSH1 0x1 PUSH1 0x1 PUSH1 0xA0 SHL SUB AND DUP5 PUSH1 0x1 PUSH1 0x1 PUSH1 0xA0 SHL SUB AND LT PUSH2 0x221A JUMPI PUSH2 0x2215 PUSH1 0x1 PUSH1 0x80 SHL DUP7 DUP4 PUSH2 0x2638 JUMP JUMPDEST PUSH2 0x2229 JUMP JUMPDEST PUSH2 0x2229 DUP2 DUP7 PUSH1 0x1 PUSH1 0x80 SHL PUSH2 0x2638 JUMP JUMPDEST SWAP2 POP POP JUMPDEST SWAP5 SWAP4 POP POP POP POP JUMP JUMPDEST PUSH0 DUP1 DUP1 DUP1 DUP1 DUP1 PUSH32 0x0 PUSH32 0x0 PUSH1 0x1 PUSH1 0x1 PUSH1 0xA0 SHL SUB DUP1 DUP3 AND SWAP1 DUP4 AND LT PUSH2 0x2297 JUMPI DUP1 DUP3 PUSH2 0x229A JUMP JUMPDEST DUP2 DUP2 JUMPDEST SWAP1 SWAP5 POP SWAP3 POP PUSH1 0x1 PUSH1 0x1 PUSH1 0xA0 SHL SUB DUP1 DUP6 AND SWAP1 DUP4 AND EQ PUSH2 0x22B9 JUMPI DUP9 DUP11 PUSH2 0x22BC JUMP JUMPDEST DUP10 DUP10 JUMPDEST SWAP1 SWAP9 POP SWAP7 POP PUSH2 0x22CA DUP9 PUSH2 0x26F7 JUMP JUMPDEST PUSH2 0x22D3 DUP9 PUSH2 0x26F7 JUMP JUMPDEST SWAP9 SWAP12 SWAP8 SWAP11 POP SWAP9 POP SWAP3 SWAP6 SWAP2 SWAP5 POP SWAP1 SWAP3 POP POP POP JUMP JUMPDEST PUSH1 0x40 DUP1 MLOAD PUSH1 0x1 PUSH1 0x1 PUSH1 0xA0 SHL SUB DUP5 DUP2 AND PUSH1 0x24 DUP4 ADD MSTORE PUSH1 0x44 DUP1 DUP4 ADD DUP6 SWAP1 MSTORE DUP4 MLOAD DUP1 DUP5 SUB SWAP1 SWAP2 ADD DUP2 MSTORE PUSH1 0x64 SWAP1 SWAP3 ADD DUP4 MSTORE PUSH1 0x20 DUP3 ADD DUP1 MLOAD PUSH1 0x1 PUSH1 0x1 PUSH1 0xE0 SHL SUB AND PUSH4 0x95EA7B3 PUSH1 0xE0 SHL OR SWAP1 MSTORE SWAP2 MLOAD PUSH0 SWAP3 DUP4 SWAP3 SWAP1 DUP8 AND SWAP2 PUSH2 0x2341 SWAP2 SWAP1 PUSH2 0x2C01 JUMP JUMPDEST PUSH0 PUSH1 0x40 MLOAD DUP1 DUP4 SUB DUP2 PUSH0 DUP7 GAS CALL SWAP2 POP POP RETURNDATASIZE DUP1 PUSH0 DUP2 EQ PUSH2 0x237A JUMPI PUSH1 0x40 MLOAD SWAP2 POP PUSH1 0x1F NOT PUSH1 0x3F RETURNDATASIZE ADD AND DUP3 ADD PUSH1 0x40 MSTORE RETURNDATASIZE DUP3 MSTORE RETURNDATASIZE PUSH0 PUSH1 0x20 DUP5 ADD RETURNDATACOPY PUSH2 0x237F JUMP JUMPDEST PUSH1 0x60 SWAP2 POP JUMPDEST POP SWAP2 POP SWAP2 POP DUP2 DUP1 ISZERO PUSH2 0x23A9 JUMPI POP DUP1 MLOAD ISZERO DUP1 PUSH2 0x23A9 JUMPI POP DUP1 DUP1 PUSH1 0x20 ADD SWAP1 MLOAD DUP2 ADD SWAP1 PUSH2 0x23A9 SWAP2 SWAP1 PUSH2 0x2A0C JUMP JUMPDEST PUSH2 0xDC5 JUMPI PUSH1 0x40 MLOAD PUSH3 0x461BCD PUSH1 0xE5 SHL DUP2 MSTORE PUSH1 0x20 PUSH1 0x4 DUP3 ADD MSTORE PUSH1 0x2 PUSH1 0x24 DUP3 ADD MSTORE PUSH2 0x5341 PUSH1 0xF0 SHL PUSH1 0x44 DUP3 ADD MSTORE PUSH1 0x64 ADD PUSH2 0xB15 JUMP JUMPDEST PUSH0 DUP1 PUSH0 PUSH2 0x23E6 DUP5 PUSH2 0x2711 JUMP JUMPDEST PUSH1 0x7 SLOAD SWAP1 SWAP2 POP PUSH2 0x2401 SWAP1 PUSH2 0xFFFF DUP4 AND SWAP1 PUSH4 0xFFFFFFFF AND PUSH2 0x28D0 JUMP JUMPDEST PUSH2 0x240C SWAP1 PUSH1 0x1 PUSH2 0x28D0 JUMP JUMPDEST SWAP3 POP PUSH0 PUSH2 0x2418 TIMESTAMP PUSH2 0x54B JUMP JUMPDEST PUSH1 0x4 SLOAD SWAP1 SWAP2 POP PUSH0 SWAP1 PUSH2 0x100 SWAP1 DIV PUSH4 0xFFFFFFFF AND ISZERO PUSH2 0x244C JUMPI PUSH1 0x4 SLOAD PUSH2 0x2447 SWAP1 PUSH2 0x100 SWAP1 DIV PUSH4 0xFFFFFFFF AND PUSH2 0x54B JUMP JUMPDEST PUSH2 0x244E JUMP JUMPDEST DUP2 JUMPDEST SWAP1 POP DUP1 PUSH4 0xFFFFFFFF AND DUP3 PUSH4 0xFFFFFFFF AND SUB PUSH2 0x24C4 JUMPI PUSH0 PUSH2 0x2710 PUSH2 0x2472 PUSH2 0x338 PUSH2 0x53C JUMP JUMPDEST PUSH4 0xFFFFFFFF AND PUSH1 0x8 SLOAD PUSH2 0x2485 SWAP2 SWAP1 PUSH2 0x296C JUMP JUMPDEST PUSH2 0x248F SWAP2 SWAP1 PUSH2 0x2983 JUMP JUMPDEST SWAP1 POP PUSH0 PUSH2 0x249D PUSH1 0x30 DUP4 PUSH2 0x2983 JUMP JUMPDEST SWAP1 POP PUSH0 PUSH2 0x24AE PUSH2 0xFFFF DUP8 AND DUP4 PUSH2 0x31F4 JUMP JUMPDEST SWAP1 POP PUSH2 0x24BA DUP2 DUP4 PUSH2 0x3216 JUMP JUMPDEST SWAP7 POP POP POP POP PUSH2 0x25C5 JUMP JUMPDEST PUSH1 0x4 SLOAD PUSH2 0x100 SWAP1 DIV PUSH4 0xFFFFFFFF AND PUSH0 PUSH2 0x24DC DUP3 PUSH2 0x439 JUMP JUMPDEST SWAP1 POP JUMPDEST DUP3 PUSH4 0xFFFFFFFF AND DUP5 PUSH4 0xFFFFFFFF AND LT PUSH2 0x25C2 JUMPI PUSH0 DUP2 PUSH4 0xFFFFFFFF AND TIMESTAMP LT PUSH2 0x2516 JUMPI PUSH2 0x250B PUSH1 0x1 DUP4 PUSH2 0x2879 JUMP JUMPDEST PUSH4 0xFFFFFFFF AND PUSH2 0x2518 JUMP JUMPDEST TIMESTAMP JUMPDEST SWAP1 POP PUSH0 PUSH2 0x708 PUSH2 0x2528 DUP6 DUP5 PUSH2 0x2879 JUMP JUMPDEST PUSH2 0x2532 SWAP2 SWAP1 PUSH2 0x28A9 JUMP JUMPDEST SWAP1 POP PUSH0 PUSH2 0x2710 PUSH2 0x2544 PUSH2 0x338 DUP6 PUSH2 0xC81 JUMP JUMPDEST PUSH4 0xFFFFFFFF AND PUSH1 0x8 SLOAD PUSH2 0x2557 SWAP2 SWAP1 PUSH2 0x296C JUMP JUMPDEST PUSH2 0x2561 SWAP2 SWAP1 PUSH2 0x2983 JUMP JUMPDEST SWAP1 POP PUSH0 PUSH2 0x256F PUSH1 0x30 DUP4 PUSH2 0x2983 JUMP JUMPDEST SWAP1 POP PUSH2 0x2581 PUSH4 0xFFFFFFFF DUP5 AND DUP3 PUSH2 0x31F4 JUMP JUMPDEST PUSH2 0x258B SWAP1 DUP12 PUSH2 0x3216 JUMP JUMPDEST SWAP10 POP PUSH2 0x2599 PUSH2 0x708 DUP7 PUSH2 0x2879 JUMP JUMPDEST SWAP6 POP PUSH2 0x25AA PUSH2 0x1E2 DUP8 PUSH2 0x708 PUSH2 0x28D0 JUMP JUMPDEST SWAP5 POP DUP7 PUSH2 0x25B6 DUP2 PUSH2 0x3235 JUMP JUMPDEST SWAP8 POP POP POP POP POP POP PUSH2 0x24DF JUMP JUMPDEST POP POP JUMPDEST PUSH1 0x8 SLOAD DUP5 PUSH1 0x1 PUSH1 0x1 PUSH1 0x80 SHL SUB AND GT ISZERO PUSH2 0x25DE JUMPI PUSH1 0x8 SLOAD SWAP4 POP JUMPDEST POP POP SWAP2 SWAP4 SWAP1 SWAP3 POP JUMP JUMPDEST PUSH1 0x1 DUP1 SLOAD PUSH1 0x1 PUSH1 0x1 PUSH1 0xA0 SHL SUB DUP4 DUP2 AND PUSH1 0x1 PUSH1 0x1 PUSH1 0xA0 SHL SUB NOT DUP4 AND DUP2 OR SWAP1 SWAP4 SSTORE PUSH1 0x40 MLOAD SWAP2 AND SWAP2 SWAP1 DUP3 SWAP1 PUSH32 0x8BE0079C531659141344CD1FD0A4F28419497F9722A3DAAFE3B4186F6B6457E0 SWAP1 PUSH0 SWAP1 LOG3 POP POP JUMP JUMPDEST PUSH0 DUP4 DUP4 MUL DUP2 PUSH0 NOT DUP6 DUP8 MULMOD DUP3 DUP2 LT DUP4 DUP3 SUB SUB SWAP2 POP POP DUP1 PUSH0 SUB PUSH2 0x266C JUMPI DUP4 DUP3 DUP2 PUSH2 0x2662 JUMPI PUSH2 0x2662 PUSH2 0x2895 JUMP JUMPDEST DIV SWAP3 POP POP POP PUSH2 0x568 JUMP JUMPDEST DUP1 DUP5 GT PUSH2 0x268C JUMPI PUSH1 0x40 MLOAD PUSH4 0x227BC153 PUSH1 0xE0 SHL DUP2 MSTORE PUSH1 0x4 ADD PUSH1 0x40 MLOAD DUP1 SWAP2 SUB SWAP1 REVERT JUMPDEST PUSH0 DUP5 DUP7 DUP9 MULMOD PUSH0 DUP7 DUP2 SUB DUP8 AND SWAP7 DUP8 SWAP1 DIV SWAP7 PUSH1 0x2 PUSH1 0x3 DUP10 MUL DUP2 XOR DUP1 DUP11 MUL DUP3 SUB MUL DUP1 DUP11 MUL DUP3 SUB MUL DUP1 DUP11 MUL DUP3 SUB MUL DUP1 DUP11 MUL DUP3 SUB MUL DUP1 DUP11 MUL DUP3 SUB MUL DUP1 DUP11 MUL SWAP1 SWAP2 SUB MUL SWAP2 DUP2 SWAP1 SUB DUP2 SWAP1 DIV PUSH1 0x1 ADD DUP7 DUP5 GT SWAP1 SWAP6 SUB SWAP5 SWAP1 SWAP5 MUL SWAP2 SWAP1 SWAP5 SUB SWAP3 SWAP1 SWAP3 DIV SWAP2 SWAP1 SWAP2 OR SWAP2 SWAP1 SWAP2 MUL SWAP2 POP POP SWAP4 SWAP3 POP POP POP JUMP JUMPDEST PUSH0 PUSH2 0x2710 PUSH2 0x2707 DUP4 PUSH2 0x2328 PUSH2 0x296C JUMP JUMPDEST PUSH2 0xCB3 SWAP2 SWAP1 PUSH2 0x2983 JUMP JUMPDEST PUSH1 0x4 SLOAD PUSH0 SWAP1 PUSH2 0x100 SWAP1 DIV PUSH4 0xFFFFFFFF AND DUP2 SUB PUSH2 0x2749 JUMPI PUSH2 0x708 DUP3 GT ISZERO PUSH2 0x2742 JUMPI PUSH2 0x273D PUSH2 0x708 DUP4 PUSH2 0x2983 JUMP JUMPDEST PUSH2 0xCB3 JUMP JUMPDEST PUSH0 SWAP3 SWAP2 POP POP JUMP JUMPDEST PUSH2 0x708 DUP3 GT ISZERO PUSH2 0x276B JUMPI PUSH1 0x1 PUSH2 0x2761 PUSH2 0x708 DUP5 PUSH2 0x2983 JUMP JUMPDEST PUSH2 0x273D SWAP2 SWAP1 PUSH2 0x3250 JUMP JUMPDEST POP PUSH0 SWAP2 SWAP1 POP JUMP JUMPDEST PUSH4 0xFFFFFFFF DUP2 AND DUP2 EQ PUSH2 0xB27 JUMPI PUSH0 DUP1 REVERT JUMPDEST PUSH0 PUSH1 0x20 DUP3 DUP5 SUB SLT ISZERO PUSH2 0x2793 JUMPI PUSH0 DUP1 REVERT JUMPDEST DUP2 CALLDATALOAD PUSH2 0x568 DUP2 PUSH2 0x2772 JUMP JUMPDEST PUSH0 PUSH1 0x20 DUP3 DUP5 SUB SLT ISZERO PUSH2 0x27AE JUMPI PUSH0 DUP1 REVERT JUMPDEST POP CALLDATALOAD SWAP2 SWAP1 POP JUMP JUMPDEST PUSH1 0xFF DUP2 AND DUP2 EQ PUSH2 0xB27 JUMPI PUSH0 DUP1 REVERT JUMPDEST PUSH0 PUSH1 0x20 DUP3 DUP5 SUB SLT ISZERO PUSH2 0x27D3 JUMPI PUSH0 DUP1 REVERT JUMPDEST DUP2 CALLDATALOAD PUSH2 0x568 DUP2 PUSH2 0x27B5 JUMP JUMPDEST PUSH0 DUP1 PUSH1 0x40 DUP4 DUP6 SUB SLT ISZERO PUSH2 0x27EF JUMPI PUSH0 DUP1 REVERT JUMPDEST DUP3 CALLDATALOAD SWAP2 POP PUSH1 0x20 DUP4 ADD CALLDATALOAD PUSH2 0x2801 DUP2 PUSH2 0x2772 JUMP JUMPDEST DUP1 SWAP2 POP POP SWAP3 POP SWAP3 SWAP1 POP JUMP JUMPDEST PUSH1 0x1 PUSH1 0x1 PUSH1 0xA0 SHL SUB DUP2 AND DUP2 EQ PUSH2 0xB27 JUMPI PUSH0 DUP1 REVERT JUMPDEST PUSH0 PUSH1 0x20 DUP3 DUP5 SUB SLT ISZERO PUSH2 0x2830 JUMPI PUSH0 DUP1 REVERT JUMPDEST DUP2 CALLDATALOAD PUSH2 0x568 DUP2 PUSH2 0x280C JUMP JUMPDEST PUSH0 DUP1 PUSH1 0x40 DUP4 DUP6 SUB SLT ISZERO PUSH2 0x284C JUMPI PUSH0 DUP1 REVERT JUMPDEST DUP3 CALLDATALOAD PUSH2 0x2857 DUP2 PUSH2 0x2772 JUMP JUMPDEST SWAP5 PUSH1 0x20 SWAP4 SWAP1 SWAP4 ADD CALLDATALOAD SWAP4 POP POP POP JUMP JUMPDEST PUSH4 0x4E487B71 PUSH1 0xE0 SHL PUSH0 MSTORE PUSH1 0x11 PUSH1 0x4 MSTORE PUSH1 0x24 PUSH0 REVERT JUMPDEST PUSH4 0xFFFFFFFF DUP3 DUP2 AND DUP3 DUP3 AND SUB SWAP1 DUP2 GT ISZERO PUSH2 0xCB3 JUMPI PUSH2 0xCB3 PUSH2 0x2865 JUMP JUMPDEST PUSH4 0x4E487B71 PUSH1 0xE0 SHL PUSH0 MSTORE PUSH1 0x12 PUSH1 0x4 MSTORE PUSH1 0x24 PUSH0 REVERT JUMPDEST PUSH0 PUSH4 0xFFFFFFFF DUP4 AND DUP1 PUSH2 0x28BE JUMPI PUSH2 0x28BE PUSH2 0x2895 JUMP JUMPDEST DUP1 PUSH4 0xFFFFFFFF DUP5 AND DIV SWAP2 POP POP SWAP3 SWAP2 POP POP JUMP JUMPDEST PUSH4 0xFFFFFFFF DUP2 DUP2 AND DUP4 DUP3 AND ADD SWAP1 DUP2 GT ISZERO PUSH2 0xCB3 JUMPI PUSH2 0xCB3 PUSH2 0x2865 JUMP JUMPDEST PUSH4 0xFFFFFFFF DUP2 DUP2 AND DUP4 DUP3 AND MUL SWAP1 DUP2 AND SWAP1 DUP2 DUP2 EQ PUSH2 0x290B JUMPI PUSH2 0x290B PUSH2 0x2865 JUMP JUMPDEST POP SWAP3 SWAP2 POP POP JUMP JUMPDEST DUP1 MLOAD PUSH1 0x1 PUSH1 0x1 PUSH1 0x70 SHL SUB DUP2 AND DUP2 EQ PUSH2 0xB60 JUMPI PUSH0 DUP1 REVERT JUMPDEST PUSH0 DUP1 PUSH0 PUSH1 0x60 DUP5 DUP7 SUB SLT ISZERO PUSH2 0x293A JUMPI PUSH0 DUP1 REVERT JUMPDEST PUSH2 0x2943 DUP5 PUSH2 0x2912 JUMP JUMPDEST SWAP3 POP PUSH2 0x2951 PUSH1 0x20 DUP6 ADD PUSH2 0x2912 JUMP JUMPDEST SWAP2 POP PUSH1 0x40 DUP5 ADD MLOAD PUSH2 0x2961 DUP2 PUSH2 0x2772 JUMP JUMPDEST DUP1 SWAP2 POP POP SWAP3 POP SWAP3 POP SWAP3 JUMP JUMPDEST DUP1 DUP3 MUL DUP2 ISZERO DUP3 DUP3 DIV DUP5 EQ OR PUSH2 0xCB3 JUMPI PUSH2 0xCB3 PUSH2 0x2865 JUMP JUMPDEST PUSH0 DUP3 PUSH2 0x2991 JUMPI PUSH2 0x2991 PUSH2 0x2895 JUMP JUMPDEST POP DIV SWAP1 JUMP JUMPDEST PUSH0 PUSH1 0x20 DUP3 DUP5 SUB SLT ISZERO PUSH2 0x29A6 JUMPI PUSH0 DUP1 REVERT JUMPDEST DUP2 MLOAD PUSH2 0x568 DUP2 PUSH2 0x280C JUMP JUMPDEST DUP2 DUP2 SUB DUP2 DUP2 GT ISZERO PUSH2 0xCB3 JUMPI PUSH2 0xCB3 PUSH2 0x2865 JUMP JUMPDEST PUSH0 PUSH1 0x20 DUP3 DUP5 SUB SLT ISZERO PUSH2 0x29D4 JUMPI PUSH0 DUP1 REVERT JUMPDEST POP MLOAD SWAP2 SWAP1 POP JUMP JUMPDEST PUSH0 DUP1 PUSH1 0x40 DUP4 DUP6 SUB SLT ISZERO PUSH2 0x29EC JUMPI PUSH0 DUP1 REVERT JUMPDEST POP POP DUP1 MLOAD PUSH1 0x20 SWAP1 SWAP2 ADD MLOAD SWAP1 SWAP3 SWAP1 SWAP2 POP JUMP JUMPDEST DUP1 MLOAD DUP1 ISZERO ISZERO DUP2 EQ PUSH2 0xB60 JUMPI PUSH0 DUP1 REVERT JUMPDEST PUSH0 PUSH1 0x20 DUP3 DUP5 SUB SLT ISZERO PUSH2 0x2A1C JUMPI PUSH0 DUP1 REVERT JUMPDEST PUSH2 0x568 DUP3 PUSH2 0x29FD JUMP JUMPDEST PUSH0 PUSH4 0xFFFFFFFF DUP4 AND DUP1 PUSH2 0x2A3A JUMPI PUSH2 0x2A3A PUSH2 0x2895 JUMP JUMPDEST DUP1 PUSH4 0xFFFFFFFF DUP5 AND MOD SWAP2 POP POP SWAP3 SWAP2 POP POP JUMP JUMPDEST DUP1 DUP3 ADD DUP1 DUP3 GT ISZERO PUSH2 0xCB3 JUMPI PUSH2 0xCB3 PUSH2 0x2865 JUMP JUMPDEST PUSH0 DUP2 PUSH1 0x2 SIGNEXTEND DUP4 PUSH1 0x2 SIGNEXTEND DUP1 PUSH2 0x2A75 JUMPI PUSH2 0x2A75 PUSH2 0x2895 JUMP JUMPDEST PUSH3 0x7FFFFF NOT DUP3 EQ PUSH0 NOT DUP3 EQ AND ISZERO PUSH2 0x2A8E JUMPI PUSH2 0x2A8E PUSH2 0x2865 JUMP JUMPDEST SWAP1 SDIV SWAP4 SWAP3 POP POP POP JUMP JUMPDEST PUSH0 DUP3 PUSH1 0x2 SIGNEXTEND DUP3 PUSH1 0x2 SIGNEXTEND MUL DUP1 PUSH1 0x2 SIGNEXTEND SWAP2 POP DUP1 DUP3 EQ PUSH2 0x290B JUMPI PUSH2 0x290B PUSH2 0x2865 JUMP JUMPDEST PUSH0 DUP2 PUSH1 0x2 SIGNEXTEND PUSH3 0x7FFFFF NOT DUP2 SUB PUSH2 0x2ACE JUMPI PUSH2 0x2ACE PUSH2 0x2865 JUMP JUMPDEST PUSH0 SUB SWAP3 SWAP2 POP POP JUMP JUMPDEST DUP2 MLOAD PUSH1 0x1 PUSH1 0x1 PUSH1 0xA0 SHL SUB AND DUP2 MSTORE PUSH2 0x160 DUP2 ADD PUSH1 0x20 DUP4 ADD MLOAD PUSH2 0x2B02 PUSH1 0x20 DUP5 ADD DUP3 PUSH1 0x1 PUSH1 0x1 PUSH1 0xA0 SHL SUB AND SWAP1 MSTORE JUMP JUMPDEST POP PUSH1 0x40 DUP4 ADD MLOAD PUSH2 0x2B19 PUSH1 0x40 DUP5 ADD DUP3 PUSH3 0xFFFFFF AND SWAP1 MSTORE JUMP JUMPDEST POP PUSH1 0x60 DUP4 ADD MLOAD PUSH2 0x2B2E PUSH1 0x60 DUP5 ADD DUP3 PUSH1 0x2 SIGNEXTEND SWAP1 MSTORE JUMP JUMPDEST POP PUSH1 0x80 DUP4 ADD MLOAD PUSH2 0x2B43 PUSH1 0x80 DUP5 ADD DUP3 PUSH1 0x2 SIGNEXTEND SWAP1 MSTORE JUMP JUMPDEST POP PUSH1 0xA0 DUP4 ADD MLOAD PUSH1 0xA0 DUP4 ADD MSTORE PUSH1 0xC0 DUP4 ADD MLOAD PUSH1 0xC0 DUP4 ADD MSTORE PUSH1 0xE0 DUP4 ADD MLOAD PUSH1 0xE0 DUP4 ADD MSTORE PUSH2 0x100 DUP4 ADD MLOAD PUSH2 0x100 DUP4 ADD MSTORE PUSH2 0x120 DUP4 ADD MLOAD PUSH2 0x2B8A PUSH2 0x120 DUP5 ADD DUP3 PUSH1 0x1 PUSH1 0x1 PUSH1 0xA0 SHL SUB AND SWAP1 MSTORE JUMP JUMPDEST POP PUSH2 0x140 SWAP3 DUP4 ADD MLOAD SWAP2 SWAP1 SWAP3 ADD MSTORE SWAP1 JUMP JUMPDEST PUSH0 DUP1 PUSH0 DUP1 PUSH1 0x80 DUP6 DUP8 SUB SLT ISZERO PUSH2 0x2BAD JUMPI PUSH0 DUP1 REVERT JUMPDEST DUP5 MLOAD PUSH1 0x20 DUP7 ADD MLOAD SWAP1 SWAP5 POP PUSH1 0x1 PUSH1 0x1 PUSH1 0x80 SHL SUB DUP2 AND DUP2 EQ PUSH2 0x2BCB JUMPI PUSH0 DUP1 REVERT JUMPDEST PUSH1 0x40 DUP7 ADD MLOAD PUSH1 0x60 SWAP1 SWAP7 ADD MLOAD SWAP5 SWAP8 SWAP1 SWAP7 POP SWAP3 POP POP POP JUMP JUMPDEST PUSH0 PUSH2 0xFFFF DUP3 AND PUSH2 0xFFFF DUP2 SUB PUSH2 0x2BF8 JUMPI PUSH2 0x2BF8 PUSH2 0x2865 JUMP JUMPDEST PUSH1 0x1 ADD SWAP3 SWAP2 POP POP JUMP JUMPDEST PUSH0 DUP3 MLOAD DUP1 PUSH1 0x20 DUP6 ADD DUP5 MCOPY PUSH0 SWAP3 ADD SWAP2 DUP3 MSTORE POP SWAP2 SWAP1 POP JUMP JUMPDEST PUSH4 0x4E487B71 PUSH1 0xE0 SHL PUSH0 MSTORE PUSH1 0x41 PUSH1 0x4 MSTORE PUSH1 0x24 PUSH0 REVERT JUMPDEST PUSH4 0x4E487B71 PUSH1 0xE0 SHL PUSH0 MSTORE PUSH1 0x32 PUSH1 0x4 MSTORE PUSH1 0x24 PUSH0 REVERT JUMPDEST PUSH0 PUSH1 0xA0 DUP3 ADD DUP8 DUP4 MSTORE DUP7 PUSH1 0x20 DUP5 ADD MSTORE PUSH1 0xA0 PUSH1 0x40 DUP5 ADD MSTORE DUP1 DUP7 MLOAD DUP1 DUP4 MSTORE PUSH1 0xC0 DUP6 ADD SWAP2 POP PUSH1 0x20 DUP9 ADD SWAP3 POP PUSH0 JUMPDEST DUP2 DUP2 LT ISZERO PUSH2 0x2C8F JUMPI DUP4 MLOAD PUSH1 0x1 PUSH1 0x1 PUSH1 0xA0 SHL SUB AND DUP4 MSTORE PUSH1 0x20 SWAP4 DUP5 ADD SWAP4 SWAP1 SWAP3 ADD SWAP2 PUSH1 0x1 ADD PUSH2 0x2C68 JUMP JUMPDEST POP POP PUSH1 0x1 PUSH1 0x1 PUSH1 0xA0 SHL SUB SWAP6 SWAP1 SWAP6 AND PUSH1 0x60 DUP5 ADD MSTORE POP POP PUSH1 0x80 ADD MSTORE SWAP4 SWAP3 POP POP POP JUMP JUMPDEST PUSH1 0x40 MLOAD PUSH1 0x1F DUP3 ADD PUSH1 0x1F NOT AND DUP2 ADD PUSH8 0xFFFFFFFFFFFFFFFF DUP2 GT DUP3 DUP3 LT OR ISZERO PUSH2 0x2CD8 JUMPI PUSH2 0x2CD8 PUSH2 0x2C17 JUMP JUMPDEST PUSH1 0x40 MSTORE SWAP2 SWAP1 POP JUMP JUMPDEST PUSH0 PUSH8 0xFFFFFFFFFFFFFFFF DUP3 GT ISZERO PUSH2 0x2CF9 JUMPI PUSH2 0x2CF9 PUSH2 0x2C17 JUMP JUMPDEST POP PUSH1 0x5 SHL PUSH1 0x20 ADD SWAP1 JUMP JUMPDEST PUSH0 PUSH1 0x20 DUP3 DUP5 SUB SLT ISZERO PUSH2 0x2D13 JUMPI PUSH0 DUP1 REVERT JUMPDEST DUP2 MLOAD PUSH8 0xFFFFFFFFFFFFFFFF DUP2 GT ISZERO PUSH2 0x2D29 JUMPI PUSH0 DUP1 REVERT JUMPDEST DUP3 ADD PUSH1 0x1F DUP2 ADD DUP5 SGT PUSH2 0x2D39 JUMPI PUSH0 DUP1 REVERT JUMPDEST DUP1 MLOAD PUSH2 0x2D4C PUSH2 0x2D47 DUP3 PUSH2 0x2CE0 JUMP JUMPDEST PUSH2 0x2CAF JUMP JUMPDEST DUP1 DUP3 DUP3 MSTORE PUSH1 0x20 DUP3 ADD SWAP2 POP PUSH1 0x20 DUP4 PUSH1 0x5 SHL DUP6 ADD ADD SWAP3 POP DUP7 DUP4 GT ISZERO PUSH2 0x2D6D JUMPI PUSH0 DUP1 REVERT JUMPDEST PUSH1 0x20 DUP5 ADD SWAP4 POP JUMPDEST DUP3 DUP5 LT ISZERO PUSH2 0x1C01 JUMPI DUP4 MLOAD DUP3 MSTORE PUSH1 0x20 SWAP4 DUP5 ADD SWAP4 SWAP1 SWAP2 ADD SWAP1 PUSH2 0x2D74 JUMP JUMPDEST PUSH1 0xFF DUP3 DUP2 AND DUP3 DUP3 AND SUB SWAP1 DUP2 GT ISZERO PUSH2 0xCB3 JUMPI PUSH2 0xCB3 PUSH2 0x2865 JUMP JUMPDEST PUSH1 0x20 DUP2 MSTORE PUSH0 DUP3 MLOAD PUSH1 0xA0 PUSH1 0x20 DUP5 ADD MSTORE DUP1 MLOAD DUP1 PUSH1 0xC0 DUP6 ADD MSTORE DUP1 PUSH1 0x20 DUP4 ADD PUSH1 0xE0 DUP7 ADD MCOPY PUSH0 PUSH1 0xE0 DUP3 DUP7 ADD ADD MSTORE PUSH1 0x1 DUP1 PUSH1 0xA0 SHL SUB PUSH1 0x20 DUP7 ADD MLOAD AND PUSH1 0x40 DUP6 ADD MSTORE PUSH1 0x40 DUP6 ADD MLOAD PUSH1 0x60 DUP6 ADD MSTORE PUSH1 0x60 DUP6 ADD MLOAD PUSH1 0x80 DUP6 ADD MSTORE PUSH1 0x80 DUP6 ADD MLOAD PUSH1 0xA0 DUP6 ADD MSTORE PUSH1 0xE0 PUSH1 0x1F NOT PUSH1 0x1F DUP4 ADD AND DUP6 ADD ADD SWAP3 POP POP POP SWAP3 SWAP2 POP POP JUMP JUMPDEST DUP1 MLOAD PUSH2 0xFFFF DUP2 AND DUP2 EQ PUSH2 0xB60 JUMPI PUSH0 DUP1 REVERT JUMPDEST PUSH0 DUP1 PUSH0 DUP1 PUSH0 DUP1 PUSH0 PUSH1 0xE0 DUP9 DUP11 SUB SLT ISZERO PUSH2 0x2E3E JUMPI PUSH0 DUP1 REVERT JUMPDEST DUP8 MLOAD PUSH2 0x2E49 DUP2 PUSH2 0x280C JUMP JUMPDEST DUP1 SWAP8 POP POP PUSH1 0x20 DUP9 ADD MLOAD DUP1 PUSH1 0x2 SIGNEXTEND DUP2 EQ PUSH2 0x2E60 JUMPI PUSH0 DUP1 REVERT JUMPDEST SWAP6 POP PUSH2 0x2E6E PUSH1 0x40 DUP10 ADD PUSH2 0x2E17 JUMP JUMPDEST SWAP5 POP PUSH2 0x2E7C PUSH1 0x60 DUP10 ADD PUSH2 0x2E17 JUMP JUMPDEST SWAP4 POP PUSH2 0x2E8A PUSH1 0x80 DUP10 ADD PUSH2 0x2E17 JUMP JUMPDEST SWAP3 POP PUSH1 0xA0 DUP9 ADD MLOAD PUSH2 0x2E9A DUP2 PUSH2 0x27B5 JUMP JUMPDEST SWAP2 POP PUSH2 0x2EA8 PUSH1 0xC0 DUP10 ADD PUSH2 0x29FD JUMP JUMPDEST SWAP1 POP SWAP3 SWAP6 SWAP9 SWAP2 SWAP5 SWAP8 POP SWAP3 SWAP6 POP JUMP JUMPDEST PUSH2 0xFFFF DUP2 DUP2 AND DUP4 DUP3 AND ADD SWAP1 DUP2 GT ISZERO PUSH2 0xCB3 JUMPI PUSH2 0xCB3 PUSH2 0x2865 JUMP JUMPDEST PUSH0 PUSH2 0xFFFF DUP4 AND DUP1 PUSH2 0x2EE3 JUMPI PUSH2 0x2EE3 PUSH2 0x2895 JUMP JUMPDEST DUP1 PUSH2 0xFFFF DUP5 AND MOD SWAP2 POP POP SWAP3 SWAP2 POP POP JUMP JUMPDEST DUP1 MLOAD PUSH1 0x6 DUP2 SWAP1 SIGNEXTEND DUP2 EQ PUSH2 0xB60 JUMPI PUSH0 DUP1 REVERT JUMPDEST PUSH0 DUP1 PUSH0 DUP1 PUSH1 0x80 DUP6 DUP8 SUB SLT ISZERO PUSH2 0x2F17 JUMPI PUSH0 DUP1 REVERT JUMPDEST DUP5 MLOAD PUSH2 0x2F22 DUP2 PUSH2 0x2772 JUMP JUMPDEST SWAP4 POP PUSH2 0x2F30 PUSH1 0x20 DUP7 ADD PUSH2 0x2EF3 JUMP JUMPDEST SWAP3 POP PUSH1 0x40 DUP6 ADD MLOAD PUSH2 0x2F40 DUP2 PUSH2 0x280C JUMP JUMPDEST SWAP2 POP PUSH2 0x2F4E PUSH1 0x60 DUP7 ADD PUSH2 0x29FD JUMP JUMPDEST SWAP1 POP SWAP3 SWAP6 SWAP2 SWAP5 POP SWAP3 POP JUMP JUMPDEST PUSH1 0x20 DUP1 DUP3 MSTORE DUP3 MLOAD DUP3 DUP3 ADD DUP2 SWAP1 MSTORE PUSH0 SWAP2 DUP5 ADD SWAP1 PUSH1 0x40 DUP5 ADD SWAP1 DUP4 JUMPDEST DUP2 DUP2 LT ISZERO PUSH2 0x2F96 JUMPI DUP4 MLOAD PUSH4 0xFFFFFFFF AND DUP4 MSTORE PUSH1 0x20 SWAP4 DUP5 ADD SWAP4 SWAP1 SWAP3 ADD SWAP2 PUSH1 0x1 ADD PUSH2 0x2F72 JUMP JUMPDEST POP SWAP1 SWAP6 SWAP5 POP POP POP POP POP JUMP JUMPDEST PUSH0 DUP3 PUSH1 0x1F DUP4 ADD SLT PUSH2 0x2FB0 JUMPI PUSH0 DUP1 REVERT JUMPDEST DUP2 MLOAD PUSH2 0x2FBE PUSH2 0x2D47 DUP3 PUSH2 0x2CE0 JUMP JUMPDEST DUP1 DUP3 DUP3 MSTORE PUSH1 0x20 DUP3 ADD SWAP2 POP PUSH1 0x20 DUP4 PUSH1 0x5 SHL DUP7 ADD ADD SWAP3 POP DUP6 DUP4 GT ISZERO PUSH2 0x2FDF JUMPI PUSH0 DUP1 REVERT JUMPDEST PUSH1 0x20 DUP6 ADD JUMPDEST DUP4 DUP2 LT ISZERO PUSH2 0x3005 JUMPI DUP1 MLOAD PUSH2 0x2FF7 DUP2 PUSH2 0x280C JUMP JUMPDEST DUP4 MSTORE PUSH1 0x20 SWAP3 DUP4 ADD SWAP3 ADD PUSH2 0x2FE4 JUMP JUMPDEST POP SWAP6 SWAP5 POP POP POP POP POP JUMP JUMPDEST PUSH0 DUP1 PUSH1 0x40 DUP4 DUP6 SUB SLT ISZERO PUSH2 0x3020 JUMPI PUSH0 DUP1 REVERT JUMPDEST DUP3 MLOAD PUSH8 0xFFFFFFFFFFFFFFFF DUP2 GT ISZERO PUSH2 0x3036 JUMPI PUSH0 DUP1 REVERT JUMPDEST DUP4 ADD PUSH1 0x1F DUP2 ADD DUP6 SGT PUSH2 0x3046 JUMPI PUSH0 DUP1 REVERT JUMPDEST DUP1 MLOAD PUSH2 0x3054 PUSH2 0x2D47 DUP3 PUSH2 0x2CE0 JUMP JUMPDEST DUP1 DUP3 DUP3 MSTORE PUSH1 0x20 DUP3 ADD SWAP2 POP PUSH1 0x20 DUP4 PUSH1 0x5 SHL DUP6 ADD ADD SWAP3 POP DUP8 DUP4 GT ISZERO PUSH2 0x3075 JUMPI PUSH0 DUP1 REVERT JUMPDEST PUSH1 0x20 DUP5 ADD SWAP4 POP JUMPDEST DUP3 DUP5 LT ISZERO PUSH2 0x309E JUMPI PUSH2 0x308D DUP5 PUSH2 0x2EF3 JUMP JUMPDEST DUP3 MSTORE PUSH1 0x20 SWAP4 DUP5 ADD SWAP4 SWAP1 SWAP2 ADD SWAP1 PUSH2 0x307C JUMP JUMPDEST DUP1 SWAP6 POP POP POP POP POP PUSH1 0x20 DUP4 ADD MLOAD PUSH8 0xFFFFFFFFFFFFFFFF DUP2 GT ISZERO PUSH2 0x30BE JUMPI PUSH0 DUP1 REVERT JUMPDEST PUSH2 0x30CA DUP6 DUP3 DUP7 ADD PUSH2 0x2FA1 JUMP JUMPDEST SWAP2 POP POP SWAP3 POP SWAP3 SWAP1 POP JUMP JUMPDEST PUSH1 0x6 DUP3 DUP2 SIGNEXTEND SWAP1 DUP3 SWAP1 SIGNEXTEND SUB PUSH7 0x7FFFFFFFFFFFFF NOT DUP2 SLT PUSH7 0x7FFFFFFFFFFFFF DUP3 SGT OR ISZERO PUSH2 0xCB3 JUMPI PUSH2 0xCB3 PUSH2 0x2865 JUMP JUMPDEST PUSH1 0x1 PUSH1 0x1 PUSH1 0xA0 SHL SUB DUP3 DUP2 AND DUP3 DUP3 AND SUB SWAP1 DUP2 GT ISZERO PUSH2 0xCB3 JUMPI PUSH2 0xCB3 PUSH2 0x2865 JUMP JUMPDEST PUSH0 DUP2 PUSH1 0x6 SIGNEXTEND DUP4 PUSH1 0x6 SIGNEXTEND DUP1 PUSH2 0x3136 JUMPI PUSH2 0x3136 PUSH2 0x2895 JUMP JUMPDEST PUSH7 0x7FFFFFFFFFFFFF NOT DUP3 EQ PUSH0 NOT DUP3 EQ AND ISZERO PUSH2 0x2A8E JUMPI PUSH2 0x2A8E PUSH2 0x2865 JUMP JUMPDEST PUSH0 DUP3 PUSH1 0x6 SIGNEXTEND DUP1 PUSH2 0x3165 JUMPI PUSH2 0x3165 PUSH2 0x2895 JUMP JUMPDEST DUP1 DUP4 PUSH1 0x6 SIGNEXTEND SMOD SWAP2 POP POP SWAP3 SWAP2 POP POP JUMP JUMPDEST PUSH0 DUP2 PUSH1 0x2 SIGNEXTEND PUSH3 0x7FFFFF NOT DUP2 SUB PUSH2 0x318C JUMPI PUSH2 0x318C PUSH2 0x2865 JUMP JUMPDEST PUSH0 NOT ADD SWAP3 SWAP2 POP POP JUMP JUMPDEST PUSH1 0x1 PUSH1 0x1 PUSH1 0xC0 SHL SUB DUP2 DUP2 AND DUP4 DUP3 AND DUP2 DUP2 MUL SWAP1 SWAP3 AND SWAP2 DUP2 DUP4 DIV DUP2 EQ DUP3 ISZERO OR PUSH2 0x31BE JUMPI PUSH2 0x31BE PUSH2 0x2865 JUMP JUMPDEST POP POP SWAP3 SWAP2 POP POP JUMP JUMPDEST PUSH0 PUSH1 0x1 PUSH1 0x1 PUSH1 0xC0 SHL SUB DUP4 AND DUP1 PUSH2 0x31DE JUMPI PUSH2 0x31DE PUSH2 0x2895 JUMP JUMPDEST PUSH1 0x1 PUSH1 0x1 PUSH1 0xC0 SHL SUB SWAP3 SWAP1 SWAP3 AND SWAP2 SWAP1 SWAP2 DIV SWAP3 SWAP2 POP POP JUMP JUMPDEST PUSH1 0x1 PUSH1 0x1 PUSH1 0x80 SHL SUB DUP2 DUP2 AND DUP4 DUP3 AND MUL SWAP1 DUP2 AND SWAP1 DUP2 DUP2 EQ PUSH2 0x290B JUMPI PUSH2 0x290B PUSH2 0x2865 JUMP JUMPDEST PUSH1 0x1 PUSH1 0x1 PUSH1 0x80 SHL SUB DUP2 DUP2 AND DUP4 DUP3 AND ADD SWAP1 DUP2 GT ISZERO PUSH2 0xCB3 JUMPI PUSH2 0xCB3 PUSH2 0x2865 JUMP JUMPDEST PUSH0 PUSH4 0xFFFFFFFF DUP3 AND PUSH4 0xFFFFFFFF DUP2 SUB PUSH2 0x2BF8 JUMPI PUSH2 0x2BF8 PUSH2 0x2865 JUMP JUMPDEST PUSH2 0xFFFF DUP3 DUP2 AND DUP3 DUP3 AND SUB SWAP1 DUP2 GT ISZERO PUSH2 0xCB3 JUMPI PUSH2 0xCB3 PUSH2 0x2865 JUMP INVALID LOG2 PUSH5 0x6970667358 0x22 SLT KECCAK256 0x27 0xB1 PUSH15 0x677F0EB0B82E0DAF065B8FCB18021F GT 0xF9 SLT NUMBER 0xCF PUSH0 BLOBBASEFEE RETURN ADDMOD 0xAC DUP11 0xAA SELFBALANCE DUP4 PUSH5 0x736F6C6343 STOP ADDMOD BYTE STOP CALLER PUSH1 0xE0 PUSH1 0x40 MSTORE PUSH1 0x40 MLOAD PUSH2 0x1034 CODESIZE SUB DUP1 PUSH2 0x1034 DUP4 CODECOPY DUP2 ADD PUSH1 0x40 DUP2 SWAP1 MSTORE PUSH2 0x22 SWAP2 PUSH2 0x96 JUMP JUMPDEST PUSH1 0x1 PUSH1 0x1 PUSH1 0xA0 SHL SUB DUP4 AND PUSH2 0x49 JUMPI PUSH1 0x40 MLOAD PUSH4 0xB4FA3FB3 PUSH1 0xE0 SHL DUP2 MSTORE PUSH1 0x4 ADD PUSH1 0x40 MLOAD DUP1 SWAP2 SUB SWAP1 REVERT JUMPDEST PUSH4 0xFFFFFFFF AND PUSH1 0xC0 MSTORE PUSH1 0x3 DUP1 SLOAD PUSH1 0x1 PUSH1 0x1 PUSH1 0xA0 SHL SUB NOT AND CALLER OR SWAP1 SSTORE PUSH1 0x1 PUSH1 0x1 PUSH1 0xA0 SHL SUB SWAP1 DUP2 AND PUSH1 0x80 MSTORE AND PUSH1 0xA0 MSTORE PUSH2 0xE2 JUMP JUMPDEST DUP1 MLOAD PUSH1 0x1 PUSH1 0x1 PUSH1 0xA0 SHL SUB DUP2 AND DUP2 EQ PUSH2 0x91 JUMPI PUSH0 DUP1 REVERT JUMPDEST SWAP2 SWAP1 POP JUMP JUMPDEST PUSH0 DUP1 PUSH0 PUSH1 0x60 DUP5 DUP7 SUB SLT ISZERO PUSH2 0xA8 JUMPI PUSH0 DUP1 REVERT JUMPDEST PUSH2 0xB1 DUP5 PUSH2 0x7B JUMP JUMPDEST SWAP3 POP PUSH2 0xBF PUSH1 0x20 DUP6 ADD PUSH2 0x7B JUMP JUMPDEST SWAP2 POP PUSH1 0x40 DUP5 ADD MLOAD PUSH4 0xFFFFFFFF DUP2 AND DUP2 EQ PUSH2 0xD7 JUMPI PUSH0 DUP1 REVERT JUMPDEST DUP1 SWAP2 POP POP SWAP3 POP SWAP3 POP SWAP3 JUMP JUMPDEST PUSH1 0x80 MLOAD PUSH1 0xA0 MLOAD PUSH1 0xC0 MLOAD PUSH2 0xEDB PUSH2 0x159 PUSH0 CODECOPY PUSH0 DUP2 DUP2 PUSH2 0x246 ADD MSTORE DUP2 DUP2 PUSH2 0x2E1 ADD MSTORE DUP2 DUP2 PUSH2 0x353 ADD MSTORE DUP2 DUP2 PUSH2 0x4E5 ADD MSTORE PUSH2 0x65D ADD MSTORE PUSH0 DUP2 DUP2 PUSH2 0x1DB ADD MSTORE DUP2 DUP2 PUSH2 0x69A ADD MSTORE DUP2 DUP2 PUSH2 0x822 ADD MSTORE PUSH2 0x8D2 ADD MSTORE PUSH0 DUP2 DUP2 PUSH2 0x276 ADD MSTORE DUP2 DUP2 PUSH2 0x75C ADD MSTORE DUP2 DUP2 PUSH2 0x793 ADD MSTORE DUP2 DUP2 PUSH2 0x7E3 ADD MSTORE PUSH2 0x851 ADD MSTORE PUSH2 0xEDB PUSH0 RETURN INVALID PUSH1 0x80 PUSH1 0x40 MSTORE CALLVALUE DUP1 ISZERO PUSH2 0xF JUMPI PUSH0 DUP1 REVERT JUMPDEST POP PUSH1 0x4 CALLDATASIZE LT PUSH2 0xF0 JUMPI PUSH0 CALLDATALOAD PUSH1 0xE0 SHR DUP1 PUSH4 0x95D4063F GT PUSH2 0x93 JUMPI DUP1 PUSH4 0xD09D1977 GT PUSH2 0x63 JUMPI DUP1 PUSH4 0xD09D1977 EQ PUSH2 0x217 JUMPI DUP1 PUSH4 0xE6FD48BC EQ PUSH2 0x241 JUMPI DUP1 PUSH4 0xEB071B63 EQ PUSH2 0x268 JUMPI DUP1 PUSH4 0xF9119BBD EQ PUSH2 0x271 JUMPI PUSH0 DUP1 REVERT JUMPDEST DUP1 PUSH4 0x95D4063F EQ PUSH2 0x1AE JUMPI DUP1 PUSH4 0xA0712D68 EQ PUSH2 0x1C3 JUMPI DUP1 PUSH4 0xAA6DF299 EQ PUSH2 0x1D6 JUMPI DUP1 PUSH4 0xC8581E2A EQ PUSH2 0x1FD JUMPI PUSH0 DUP1 REVERT JUMPDEST DUP1 PUSH4 0x77C18C73 GT PUSH2 0xCE JUMPI DUP1 PUSH4 0x77C18C73 EQ PUSH2 0x14E JUMPI DUP1 PUSH4 0x8041950B EQ PUSH2 0x156 JUMPI DUP1 PUSH4 0x8D50A3D9 EQ PUSH2 0x175 JUMPI DUP1 PUSH4 0x8D9F9810 EQ PUSH2 0x17F JUMPI PUSH0 DUP1 REVERT JUMPDEST DUP1 PUSH4 0x488FC775 EQ PUSH2 0xF4 JUMPI DUP1 PUSH4 0x51F29326 EQ PUSH2 0x11A JUMPI DUP1 PUSH4 0x754B6039 EQ PUSH2 0x145 JUMPI JUMPDEST PUSH0 DUP1 REVERT JUMPDEST PUSH2 0x107 PUSH2 0x102 CALLDATASIZE PUSH1 0x4 PUSH2 0xC7E JUMP JUMPDEST PUSH2 0x298 JUMP JUMPDEST PUSH1 0x40 MLOAD SWAP1 DUP2 MSTORE PUSH1 0x20 ADD JUMPDEST PUSH1 0x40 MLOAD DUP1 SWAP2 SUB SWAP1 RETURN JUMPDEST PUSH1 0x3 SLOAD PUSH2 0x12D SWAP1 PUSH1 0x1 PUSH1 0x1 PUSH1 0xA0 SHL SUB AND DUP2 JUMP JUMPDEST PUSH1 0x40 MLOAD PUSH1 0x1 PUSH1 0x1 PUSH1 0xA0 SHL SUB SWAP1 SWAP2 AND DUP2 MSTORE PUSH1 0x20 ADD PUSH2 0x111 JUMP JUMPDEST PUSH2 0x107 PUSH1 0x1 SLOAD DUP2 JUMP JUMPDEST PUSH2 0x107 PUSH0 SLOAD DUP2 JUMP JUMPDEST PUSH2 0x160 PUSH3 0x93A80 DUP2 JUMP JUMPDEST PUSH1 0x40 MLOAD PUSH4 0xFFFFFFFF SWAP1 SWAP2 AND DUP2 MSTORE PUSH1 0x20 ADD PUSH2 0x111 JUMP JUMPDEST PUSH2 0x160 PUSH3 0x15180 DUP2 JUMP JUMPDEST PUSH2 0x187 PUSH2 0x2D3 JUMP JUMPDEST PUSH1 0x40 DUP1 MLOAD PUSH4 0xFFFFFFFF SWAP5 DUP6 AND DUP2 MSTORE SWAP3 DUP5 AND PUSH1 0x20 DUP5 ADD MSTORE SWAP3 AND SWAP2 DUP2 ADD SWAP2 SWAP1 SWAP2 MSTORE PUSH1 0x60 ADD PUSH2 0x111 JUMP JUMPDEST PUSH2 0x1C1 PUSH2 0x1BC CALLDATASIZE PUSH1 0x4 PUSH2 0xC97 JUMP JUMPDEST PUSH2 0x38E JUMP JUMPDEST STOP JUMPDEST PUSH2 0x1C1 PUSH2 0x1D1 CALLDATASIZE PUSH1 0x4 PUSH2 0xCB7 JUMP JUMPDEST PUSH2 0x4C3 JUMP JUMPDEST PUSH2 0x12D PUSH32 0x0 DUP2 JUMP JUMPDEST PUSH2 0x205 PUSH1 0x8 DUP2 JUMP JUMPDEST PUSH1 0x40 MLOAD PUSH1 0xFF SWAP1 SWAP2 AND DUP2 MSTORE PUSH1 0x20 ADD PUSH2 0x111 JUMP JUMPDEST PUSH2 0x107 PUSH2 0x225 CALLDATASIZE PUSH1 0x4 PUSH2 0xCCE JUMP JUMPDEST PUSH1 0x4 PUSH1 0x20 SWAP1 DUP2 MSTORE PUSH0 SWAP3 DUP4 MSTORE PUSH1 0x40 DUP1 DUP5 KECCAK256 SWAP1 SWAP2 MSTORE SWAP1 DUP3 MSTORE SWAP1 KECCAK256 SLOAD DUP2 JUMP JUMPDEST PUSH2 0x160 PUSH32 0x0 DUP2 JUMP JUMPDEST PUSH2 0x107 PUSH1 0x2 SLOAD DUP2 JUMP JUMPDEST PUSH2 0x12D PUSH32 0x0 DUP2 JUMP JUMPDEST PUSH0 DUP1 DUP3 PUSH4 0xFFFFFFFF AND PUSH1 0x1 EQ PUSH2 0x2C0 JUMPI PUSH1 0x1 DUP4 SUB PUSH4 0xFFFFFFFF AND PUSH7 0xB1A2BC2EC50000 MUL PUSH2 0x2C2 JUMP JUMPDEST PUSH0 JUMPDEST PUSH8 0xDE0B6B3A7640000 SUB SWAP4 SWAP3 POP POP POP JUMP JUMPDEST PUSH0 DUP1 DUP1 DUP1 PUSH2 0x307 PUSH4 0xFFFFFFFF PUSH32 0x0 AND TIMESTAMP PUSH2 0xD20 JUMP JUMPDEST SWAP1 POP PUSH2 0x316 PUSH3 0x93A80 DUP3 PUSH2 0xD47 JUMP JUMPDEST PUSH2 0x321 SWAP1 PUSH1 0x1 PUSH2 0xD6E JUMP JUMPDEST PUSH1 0xFF AND SWAP4 POP PUSH1 0x8 DUP5 GT ISZERO PUSH2 0x334 JUMPI PUSH1 0x8 SWAP4 POP JUMPDEST PUSH3 0x93A80 PUSH2 0x343 PUSH1 0x1 DUP7 PUSH2 0xD87 JUMP JUMPDEST PUSH2 0x34D SWAP2 SWAP1 PUSH2 0xDA3 JUMP JUMPDEST PUSH2 0x377 SWAP1 PUSH32 0x0 PUSH2 0xDC9 JUMP JUMPDEST SWAP3 POP PUSH2 0x386 PUSH3 0x15180 DUP5 PUSH2 0xDC9 JUMP JUMPDEST SWAP2 POP POP SWAP1 SWAP2 SWAP3 JUMP JUMPDEST TIMESTAMP PUSH2 0x398 DUP3 PUSH2 0x639 JUMP JUMPDEST PUSH4 0xFFFFFFFF AND GT ISZERO PUSH2 0x3BD JUMPI PUSH1 0x40 MLOAD PUSH4 0x2DB8551B PUSH1 0xE1 SHL DUP2 MSTORE PUSH1 0x4 ADD PUSH1 0x40 MLOAD DUP1 SWAP2 SUB SWAP1 REVERT JUMPDEST CALLER PUSH0 SWAP1 DUP2 MSTORE PUSH1 0x4 PUSH1 0x20 SWAP1 DUP2 MSTORE PUSH1 0x40 DUP1 DUP4 KECCAK256 PUSH1 0xFF DUP6 AND DUP5 MSTORE SWAP1 SWAP2 MSTORE DUP2 KECCAK256 SLOAD SWAP1 DUP2 SWAP1 SUB PUSH2 0x3FB JUMPI PUSH1 0x40 MLOAD PUSH4 0xCA959F65 PUSH1 0xE0 SHL DUP2 MSTORE PUSH1 0x4 ADD PUSH1 0x40 MLOAD DUP1 SWAP2 SUB SWAP1 REVERT JUMPDEST CALLER PUSH0 DUP2 DUP2 MSTORE PUSH1 0x4 PUSH1 0x20 SWAP1 DUP2 MSTORE PUSH1 0x40 DUP1 DUP4 KECCAK256 PUSH1 0xFF DUP8 AND DUP1 DUP6 MSTORE SWAP1 DUP4 MSTORE DUP2 DUP5 KECCAK256 SWAP4 SWAP1 SWAP4 SSTORE MLOAD DUP5 DUP2 MSTORE SWAP2 SWAP3 SWAP2 PUSH32 0xB3DF9980C12F4F6CBD2921F5DBAA79E0CBD522A59E93A57BAAB92FD3A4ECC33F SWAP2 ADD PUSH1 0x40 MLOAD DUP1 SWAP2 SUB SWAP1 LOG3 DUP1 PUSH1 0x1 SLOAD PUSH2 0x45D SWAP2 SWAP1 PUSH2 0xDE5 JUMP JUMPDEST PUSH1 0x1 SSTORE PUSH1 0x3 SLOAD PUSH1 0x40 MLOAD PUSH4 0x40C10F19 PUSH1 0xE0 SHL DUP2 MSTORE CALLER PUSH1 0x4 DUP3 ADD MSTORE PUSH1 0x24 DUP2 ADD DUP4 SWAP1 MSTORE PUSH1 0x1 PUSH1 0x1 PUSH1 0xA0 SHL SUB SWAP1 SWAP2 AND SWAP1 PUSH4 0x40C10F19 SWAP1 PUSH1 0x44 ADD PUSH0 PUSH1 0x40 MLOAD DUP1 DUP4 SUB DUP2 PUSH0 DUP8 DUP1 EXTCODESIZE ISZERO DUP1 ISZERO PUSH2 0x4A9 JUMPI PUSH0 DUP1 REVERT JUMPDEST POP GAS CALL ISZERO DUP1 ISZERO PUSH2 0x4BB JUMPI RETURNDATASIZE PUSH0 DUP1 RETURNDATACOPY RETURNDATASIZE PUSH0 REVERT JUMPDEST POP POP POP POP POP POP JUMP JUMPDEST DUP1 PUSH0 SUB PUSH2 0x4E3 JUMPI PUSH1 0x40 MLOAD PUSH4 0xB4FA3FB3 PUSH1 0xE0 SHL DUP2 MSTORE PUSH1 0x4 ADD PUSH1 0x40 MLOAD DUP1 SWAP2 SUB SWAP1 REVERT JUMPDEST PUSH32 0x0 PUSH4 0xFFFFFFFF AND TIMESTAMP LT ISZERO PUSH2 0x52A JUMPI PUSH1 0x40 MLOAD PUSH4 0x1864D7AB PUSH1 0xE2 SHL DUP2 MSTORE PUSH1 0x4 ADD PUSH1 0x40 MLOAD DUP1 SWAP2 SUB SWAP1 REVERT JUMPDEST PUSH0 DUP1 PUSH2 0x534 PUSH2 0x2D3 JUMP JUMPDEST SWAP3 POP POP SWAP2 POP DUP1 PUSH4 0xFFFFFFFF AND TIMESTAMP GT ISZERO PUSH2 0x560 JUMPI PUSH1 0x40 MLOAD PUSH4 0x54913E19 PUSH1 0xE0 SHL DUP2 MSTORE PUSH1 0x4 ADD PUSH1 0x40 MLOAD DUP1 SWAP2 SUB SWAP1 REVERT JUMPDEST PUSH0 PUSH2 0x56A DUP5 PUSH2 0x697 JUMP JUMPDEST SWAP1 POP PUSH0 PUSH8 0xDE0B6B3A7640000 PUSH2 0x57F DUP6 PUSH2 0x298 JUMP JUMPDEST PUSH2 0x589 SWAP1 DUP8 PUSH2 0xDF8 JUMP JUMPDEST PUSH2 0x593 SWAP2 SWAP1 PUSH2 0xE0F JUMP JUMPDEST CALLER PUSH0 SWAP1 DUP2 MSTORE PUSH1 0x4 PUSH1 0x20 SWAP1 DUP2 MSTORE PUSH1 0x40 DUP1 DUP4 KECCAK256 PUSH4 0xFFFFFFFF DUP10 AND DUP5 MSTORE SWAP1 SWAP2 MSTORE DUP2 KECCAK256 DUP1 SLOAD SWAP3 SWAP4 POP DUP4 SWAP3 SWAP1 SWAP2 SWAP1 PUSH2 0x5C7 SWAP1 DUP5 SWAP1 PUSH2 0xDE5 JUMP JUMPDEST SWAP1 SWAP2 SSTORE POP POP PUSH1 0x40 MLOAD DUP2 DUP2 MSTORE PUSH4 0xFFFFFFFF DUP6 AND SWAP1 CALLER SWAP1 PUSH32 0x35E338CD1C45F4D09ABAB571F5559403D556DF8920B83A5E2710F6F6657D4401 SWAP1 PUSH1 0x20 ADD PUSH1 0x40 MLOAD DUP1 SWAP2 SUB SWAP1 LOG3 DUP1 PUSH1 0x2 SLOAD PUSH2 0x617 SWAP2 SWAP1 PUSH2 0xDE5 JUMP JUMPDEST PUSH1 0x2 SSTORE PUSH0 SLOAD PUSH2 0x627 SWAP1 DUP7 SWAP1 PUSH2 0xDE5 JUMP JUMPDEST PUSH0 SSTORE PUSH2 0x632 DUP3 PUSH2 0x7D6 JUMP JUMPDEST POP POP POP POP POP JUMP JUMPDEST PUSH0 DUP1 PUSH3 0x93A80 PUSH2 0x64A PUSH1 0x1 DUP6 PUSH2 0xE22 JUMP JUMPDEST PUSH1 0xFF AND PUSH2 0x657 SWAP2 SWAP1 PUSH2 0xDA3 JUMP JUMPDEST PUSH2 0x681 SWAP1 PUSH32 0x0 PUSH2 0xDC9 JUMP JUMPDEST SWAP1 POP PUSH2 0x690 PUSH3 0x15180 DUP3 PUSH2 0xDC9 JUMP JUMPDEST SWAP4 SWAP3 POP POP POP JUMP JUMPDEST PUSH0 PUSH32 0x0 PUSH1 0x1 PUSH1 0x1 PUSH1 0xA0 SHL SUB AND PUSH4 0xD9443923 PUSH1 0x40 MLOAD DUP2 PUSH4 0xFFFFFFFF AND PUSH1 0xE0 SHL DUP2 MSTORE PUSH1 0x4 ADD PUSH1 0x20 PUSH1 0x40 MLOAD DUP1 DUP4 SUB DUP2 DUP7 GAS STATICCALL ISZERO DUP1 ISZERO PUSH2 0x6F4 JUMPI RETURNDATASIZE PUSH0 DUP1 RETURNDATACOPY RETURNDATASIZE PUSH0 REVERT JUMPDEST POP POP POP POP PUSH1 0x40 MLOAD RETURNDATASIZE PUSH1 0x1F NOT PUSH1 0x1F DUP3 ADD AND DUP3 ADD DUP1 PUSH1 0x40 MSTORE POP DUP2 ADD SWAP1 PUSH2 0x718 SWAP2 SWAP1 PUSH2 0xE3B JUMP JUMPDEST PUSH2 0x720 JUMPI POP SWAP1 JUMP JUMPDEST PUSH0 PUSH2 0x731 DUP4 PUSH1 0xC8 PUSH2 0x2710 PUSH1 0x1 PUSH2 0x92D JUMP JUMPDEST SWAP1 POP PUSH0 PUSH2 0x745 DUP5 PUSH2 0x320 PUSH2 0x2710 PUSH1 0x1 PUSH2 0x92D JUMP JUMPDEST DUP3 DUP6 SUB DUP2 SWAP1 SUB SWAP4 POP SWAP1 POP PUSH2 0x786 PUSH1 0x1 PUSH1 0x1 PUSH1 0xA0 SHL SUB PUSH32 0x0 AND CALLER PUSH2 0xDEAD DUP5 PUSH2 0x97C JUMP JUMPDEST PUSH2 0x7CF PUSH1 0x1 PUSH1 0x1 PUSH1 0xA0 SHL SUB PUSH32 0x0 AND CALLER PUSH20 0x84C17675A19BE90788CBC7D455B2AEB7EBF650B4 DUP6 PUSH2 0x97C JUMP JUMPDEST POP POP SWAP2 SWAP1 POP JUMP JUMPDEST PUSH2 0x80B PUSH1 0x1 PUSH1 0x1 PUSH1 0xA0 SHL SUB PUSH32 0x0 AND CALLER ADDRESS DUP5 PUSH2 0x97C JUMP JUMPDEST PUSH1 0x40 MLOAD PUSH4 0x95EA7B3 PUSH1 0xE0 SHL DUP2 MSTORE PUSH1 0x1 PUSH1 0x1 PUSH1 0xA0 SHL SUB PUSH32 0x0 DUP2 AND PUSH1 0x4 DUP4 ADD MSTORE PUSH1 0x24 DUP3 ADD DUP4 SWAP1 MSTORE PUSH32 0x0 AND SWAP1 PUSH4 0x95EA7B3 SWAP1 PUSH1 0x44 ADD PUSH1 0x20 PUSH1 0x40 MLOAD DUP1 DUP4 SUB DUP2 PUSH0 DUP8 GAS CALL ISZERO DUP1 ISZERO PUSH2 0x897 JUMPI RETURNDATASIZE PUSH0 DUP1 RETURNDATACOPY RETURNDATASIZE PUSH0 REVERT JUMPDEST POP POP POP POP PUSH1 0x40 MLOAD RETURNDATASIZE PUSH1 0x1F NOT PUSH1 0x1F DUP3 ADD AND DUP3 ADD DUP1 PUSH1 0x40 MSTORE POP DUP2 ADD SWAP1 PUSH2 0x8BB SWAP2 SWAP1 PUSH2 0xE3B JUMP JUMPDEST POP PUSH1 0x40 MLOAD PUSH4 0xC371C6B PUSH1 0xE2 SHL DUP2 MSTORE PUSH1 0x4 DUP2 ADD DUP3 SWAP1 MSTORE PUSH32 0x0 PUSH1 0x1 PUSH1 0x1 PUSH1 0xA0 SHL SUB AND SWAP1 PUSH4 0x30DC71AC SWAP1 PUSH1 0x24 ADD PUSH0 PUSH1 0x40 MLOAD DUP1 DUP4 SUB DUP2 PUSH0 DUP8 DUP1 EXTCODESIZE ISZERO DUP1 ISZERO PUSH2 0x91B JUMPI PUSH0 DUP1 REVERT JUMPDEST POP GAS CALL ISZERO DUP1 ISZERO PUSH2 0x632 JUMPI RETURNDATASIZE PUSH0 DUP1 RETURNDATACOPY RETURNDATASIZE PUSH0 REVERT JUMPDEST PUSH0 DUP1 PUSH2 0x93A DUP7 DUP7 DUP7 PUSH2 0x9DC JUMP JUMPDEST SWAP1 POP PUSH2 0x945 DUP4 PUSH2 0xA9B JUMP JUMPDEST DUP1 ISZERO PUSH2 0x960 JUMPI POP PUSH0 DUP5 DUP1 PUSH2 0x95B JUMPI PUSH2 0x95B PUSH2 0xD33 JUMP JUMPDEST DUP7 DUP9 MULMOD GT JUMPDEST ISZERO PUSH2 0x973 JUMPI PUSH2 0x970 PUSH1 0x1 DUP3 PUSH2 0xDE5 JUMP JUMPDEST SWAP1 POP JUMPDEST SWAP6 SWAP5 POP POP POP POP POP JUMP JUMPDEST PUSH1 0x40 DUP1 MLOAD PUSH1 0x1 PUSH1 0x1 PUSH1 0xA0 SHL SUB DUP6 DUP2 AND PUSH1 0x24 DUP4 ADD MSTORE DUP5 AND PUSH1 0x44 DUP3 ADD MSTORE PUSH1 0x64 DUP1 DUP3 ADD DUP5 SWAP1 MSTORE DUP3 MLOAD DUP1 DUP4 SUB SWAP1 SWAP2 ADD DUP2 MSTORE PUSH1 0x84 SWAP1 SWAP2 ADD SWAP1 SWAP2 MSTORE PUSH1 0x20 DUP2 ADD DUP1 MLOAD PUSH1 0x1 PUSH1 0x1 PUSH1 0xE0 SHL SUB AND PUSH4 0x23B872DD PUSH1 0xE0 SHL OR SWAP1 MSTORE PUSH2 0x9D6 SWAP1 DUP6 SWAP1 PUSH2 0xAC7 JUMP JUMPDEST POP POP POP POP JUMP JUMPDEST PUSH0 DUP4 DUP4 MUL DUP2 PUSH0 NOT DUP6 DUP8 MULMOD DUP3 DUP2 LT DUP4 DUP3 SUB SUB SWAP2 POP POP DUP1 PUSH0 SUB PUSH2 0xA10 JUMPI DUP4 DUP3 DUP2 PUSH2 0xA06 JUMPI PUSH2 0xA06 PUSH2 0xD33 JUMP JUMPDEST DIV SWAP3 POP POP POP PUSH2 0x690 JUMP JUMPDEST DUP1 DUP5 GT PUSH2 0xA30 JUMPI PUSH1 0x40 MLOAD PUSH4 0x227BC153 PUSH1 0xE0 SHL DUP2 MSTORE PUSH1 0x4 ADD PUSH1 0x40 MLOAD DUP1 SWAP2 SUB SWAP1 REVERT JUMPDEST PUSH0 DUP5 DUP7 DUP9 MULMOD PUSH0 DUP7 DUP2 SUB DUP8 AND SWAP7 DUP8 SWAP1 DIV SWAP7 PUSH1 0x2 PUSH1 0x3 DUP10 MUL DUP2 XOR DUP1 DUP11 MUL DUP3 SUB MUL DUP1 DUP11 MUL DUP3 SUB MUL DUP1 DUP11 MUL DUP3 SUB MUL DUP1 DUP11 MUL DUP3 SUB MUL DUP1 DUP11 MUL DUP3 SUB MUL DUP1 DUP11 MUL SWAP1 SWAP2 SUB MUL SWAP2 DUP2 SWAP1 SUB DUP2 SWAP1 DIV PUSH1 0x1 ADD DUP7 DUP5 GT SWAP1 SWAP6 SUB SWAP5 SWAP1 SWAP5 MUL SWAP2 SWAP1 SWAP5 SUB SWAP3 SWAP1 SWAP3 DIV SWAP2 SWAP1 SWAP2 OR SWAP2 SWAP1 SWAP2 MUL SWAP2 POP POP SWAP4 SWAP3 POP POP POP JUMP JUMPDEST PUSH0 PUSH1 0x2 DUP3 PUSH1 0x3 DUP2 GT ISZERO PUSH2 0xAB0 JUMPI PUSH2 0xAB0 PUSH2 0xE5A JUMP JUMPDEST PUSH2 0xABA SWAP2 SWAP1 PUSH2 0xE6E JUMP JUMPDEST PUSH1 0xFF AND PUSH1 0x1 EQ SWAP1 POP SWAP2 SWAP1 POP JUMP JUMPDEST PUSH0 PUSH2 0xADB PUSH1 0x1 PUSH1 0x1 PUSH1 0xA0 SHL SUB DUP5 AND DUP4 PUSH2 0xB32 JUMP JUMPDEST SWAP1 POP DUP1 MLOAD PUSH0 EQ ISZERO DUP1 ISZERO PUSH2 0xAFF JUMPI POP DUP1 DUP1 PUSH1 0x20 ADD SWAP1 MLOAD DUP2 ADD SWAP1 PUSH2 0xAFD SWAP2 SWAP1 PUSH2 0xE3B JUMP JUMPDEST ISZERO JUMPDEST ISZERO PUSH2 0xB2D JUMPI PUSH1 0x40 MLOAD PUSH4 0x5274AFE7 PUSH1 0xE0 SHL DUP2 MSTORE PUSH1 0x1 PUSH1 0x1 PUSH1 0xA0 SHL SUB DUP5 AND PUSH1 0x4 DUP3 ADD MSTORE PUSH1 0x24 ADD JUMPDEST PUSH1 0x40 MLOAD DUP1 SWAP2 SUB SWAP1 REVERT JUMPDEST POP POP POP JUMP JUMPDEST PUSH1 0x60 PUSH2 0xB3F DUP4 DUP4 PUSH0 PUSH2 0xB48 JUMP JUMPDEST SWAP1 POP JUMPDEST SWAP3 SWAP2 POP POP JUMP JUMPDEST PUSH1 0x60 DUP2 SELFBALANCE LT ISZERO PUSH2 0xB6D JUMPI PUSH1 0x40 MLOAD PUSH4 0xCD786059 PUSH1 0xE0 SHL DUP2 MSTORE ADDRESS PUSH1 0x4 DUP3 ADD MSTORE PUSH1 0x24 ADD PUSH2 0xB24 JUMP JUMPDEST PUSH0 DUP1 DUP6 PUSH1 0x1 PUSH1 0x1 PUSH1 0xA0 SHL SUB AND DUP5 DUP7 PUSH1 0x40 MLOAD PUSH2 0xB88 SWAP2 SWAP1 PUSH2 0xE8F JUMP JUMPDEST PUSH0 PUSH1 0x40 MLOAD DUP1 DUP4 SUB DUP2 DUP6 DUP8 GAS CALL SWAP3 POP POP POP RETURNDATASIZE DUP1 PUSH0 DUP2 EQ PUSH2 0xBC2 JUMPI PUSH1 0x40 MLOAD SWAP2 POP PUSH1 0x1F NOT PUSH1 0x3F RETURNDATASIZE ADD AND DUP3 ADD PUSH1 0x40 MSTORE RETURNDATASIZE DUP3 MSTORE RETURNDATASIZE PUSH0 PUSH1 0x20 DUP5 ADD RETURNDATACOPY PUSH2 0xBC7 JUMP JUMPDEST PUSH1 0x60 SWAP2 POP JUMPDEST POP SWAP2 POP SWAP2 POP PUSH2 0xBD7 DUP7 DUP4 DUP4 PUSH2 0xBE1 JUMP JUMPDEST SWAP7 SWAP6 POP POP POP POP POP POP JUMP JUMPDEST PUSH1 0x60 DUP3 PUSH2 0xBF6 JUMPI PUSH2 0xBF1 DUP3 PUSH2 0xC3D JUMP JUMPDEST PUSH2 0x690 JUMP JUMPDEST DUP2 MLOAD ISZERO DUP1 ISZERO PUSH2 0xC0D JUMPI POP PUSH1 0x1 PUSH1 0x1 PUSH1 0xA0 SHL SUB DUP5 AND EXTCODESIZE ISZERO JUMPDEST ISZERO PUSH2 0xC36 JUMPI PUSH1 0x40 MLOAD PUSH4 0x9996B315 PUSH1 0xE0 SHL DUP2 MSTORE PUSH1 0x1 PUSH1 0x1 PUSH1 0xA0 SHL SUB DUP6 AND PUSH1 0x4 DUP3 ADD MSTORE PUSH1 0x24 ADD PUSH2 0xB24 JUMP JUMPDEST POP DUP1 PUSH2 0x690 JUMP JUMPDEST DUP1 MLOAD ISZERO PUSH2 0xC4D JUMPI DUP1 MLOAD DUP1 DUP3 PUSH1 0x20 ADD REVERT JUMPDEST PUSH1 0x40 MLOAD PUSH4 0xA12F521 PUSH1 0xE1 SHL DUP2 MSTORE PUSH1 0x4 ADD PUSH1 0x40 MLOAD DUP1 SWAP2 SUB SWAP1 REVERT JUMPDEST DUP1 CALLDATALOAD PUSH4 0xFFFFFFFF DUP2 AND DUP2 EQ PUSH2 0xC79 JUMPI PUSH0 DUP1 REVERT JUMPDEST SWAP2 SWAP1 POP JUMP JUMPDEST PUSH0 PUSH1 0x20 DUP3 DUP5 SUB SLT ISZERO PUSH2 0xC8E JUMPI PUSH0 DUP1 REVERT JUMPDEST PUSH2 0xB3F DUP3 PUSH2 0xC66 JUMP JUMPDEST PUSH0 PUSH1 0x20 DUP3 DUP5 SUB SLT ISZERO PUSH2 0xCA7 JUMPI PUSH0 DUP1 REVERT JUMPDEST DUP2 CALLDATALOAD PUSH1 0xFF DUP2 AND DUP2 EQ PUSH2 0x690 JUMPI PUSH0 DUP1 REVERT JUMPDEST PUSH0 PUSH1 0x20 DUP3 DUP5 SUB SLT ISZERO PUSH2 0xCC7 JUMPI PUSH0 DUP1 REVERT JUMPDEST POP CALLDATALOAD SWAP2 SWAP1 POP JUMP JUMPDEST PUSH0 DUP1 PUSH1 0x40 DUP4 DUP6 SUB SLT ISZERO PUSH2 0xCDF JUMPI PUSH0 DUP1 REVERT JUMPDEST DUP3 CALLDATALOAD PUSH1 0x1 PUSH1 0x1 PUSH1 0xA0 SHL SUB DUP2 AND DUP2 EQ PUSH2 0xCF5 JUMPI PUSH0 DUP1 REVERT JUMPDEST SWAP2 POP PUSH2 0xD03 PUSH1 0x20 DUP5 ADD PUSH2 0xC66 JUMP JUMPDEST SWAP1 POP SWAP3 POP SWAP3 SWAP1 POP JUMP JUMPDEST PUSH4 0x4E487B71 PUSH1 0xE0 SHL PUSH0 MSTORE PUSH1 0x11 PUSH1 0x4 MSTORE PUSH1 0x24 PUSH0 REVERT JUMPDEST DUP2 DUP2 SUB DUP2 DUP2 GT ISZERO PUSH2 0xB42 JUMPI PUSH2 0xB42 PUSH2 0xD0C JUMP JUMPDEST PUSH4 0x4E487B71 PUSH1 0xE0 SHL PUSH0 MSTORE PUSH1 0x12 PUSH1 0x4 MSTORE PUSH1 0x24 PUSH0 REVERT JUMPDEST PUSH0 PUSH4 0xFFFFFFFF DUP4 AND DUP1 PUSH2 0xD5C JUMPI PUSH2 0xD5C PUSH2 0xD33 JUMP JUMPDEST DUP1 PUSH4 0xFFFFFFFF DUP5 AND DIV SWAP2 POP POP SWAP3 SWAP2 POP POP JUMP JUMPDEST PUSH1 0xFF DUP2 DUP2 AND DUP4 DUP3 AND ADD SWAP1 DUP2 GT ISZERO PUSH2 0xB42 JUMPI PUSH2 0xB42 PUSH2 0xD0C JUMP JUMPDEST PUSH4 0xFFFFFFFF DUP3 DUP2 AND DUP3 DUP3 AND SUB SWAP1 DUP2 GT ISZERO PUSH2 0xB42 JUMPI PUSH2 0xB42 PUSH2 0xD0C JUMP JUMPDEST PUSH4 0xFFFFFFFF DUP2 DUP2 AND DUP4 DUP3 AND MUL SWAP1 DUP2 AND SWAP1 DUP2 DUP2 EQ PUSH2 0xDC2 JUMPI PUSH2 0xDC2 PUSH2 0xD0C JUMP JUMPDEST POP SWAP3 SWAP2 POP POP JUMP JUMPDEST PUSH4 0xFFFFFFFF DUP2 DUP2 AND DUP4 DUP3 AND ADD SWAP1 DUP2 GT ISZERO PUSH2 0xB42 JUMPI PUSH2 0xB42 PUSH2 0xD0C JUMP JUMPDEST DUP1 DUP3 ADD DUP1 DUP3 GT ISZERO PUSH2 0xB42 JUMPI PUSH2 0xB42 PUSH2 0xD0C JUMP JUMPDEST DUP1 DUP3 MUL DUP2 ISZERO DUP3 DUP3 DIV DUP5 EQ OR PUSH2 0xB42 JUMPI PUSH2 0xB42 PUSH2 0xD0C JUMP JUMPDEST PUSH0 DUP3 PUSH2 0xE1D JUMPI PUSH2 0xE1D PUSH2 0xD33 JUMP JUMPDEST POP DIV SWAP1 JUMP JUMPDEST PUSH1 0xFF DUP3 DUP2 AND DUP3 DUP3 AND SUB SWAP1 DUP2 GT ISZERO PUSH2 0xB42 JUMPI PUSH2 0xB42 PUSH2 0xD0C JUMP JUMPDEST PUSH0 PUSH1 0x20 DUP3 DUP5 SUB SLT ISZERO PUSH2 0xE4B JUMPI PUSH0 DUP1 REVERT JUMPDEST DUP2 MLOAD DUP1 ISZERO ISZERO DUP2 EQ PUSH2 0x690 JUMPI PUSH0 DUP1 REVERT JUMPDEST PUSH4 0x4E487B71 PUSH1 0xE0 SHL PUSH0 MSTORE PUSH1 0x21 PUSH1 0x4 MSTORE PUSH1 0x24 PUSH0 REVERT JUMPDEST PUSH0 PUSH1 0xFF DUP4 AND DUP1 PUSH2 0xE80 JUMPI PUSH2 0xE80 PUSH2 0xD33 JUMP JUMPDEST DUP1 PUSH1 0xFF DUP5 AND MOD SWAP2 POP POP SWAP3 SWAP2 POP POP JUMP JUMPDEST PUSH0 DUP3 MLOAD DUP1 PUSH1 0x20 DUP6 ADD DUP5 MCOPY PUSH0 SWAP3 ADD SWAP2 DUP3 MSTORE POP SWAP2 SWAP1 POP JUMP INVALID LOG2 PUSH5 0x6970667358 0x22 SLT KECCAK256 0xDD 0xF6 0xF8 0xE5 PREVRANDAO BLOBHASH 0xEC XOR 0xEE 0xDD PUSH13 0x327F4FA09BC27FB5DCFF86D5DF 0x23 EXTCODESIZE PUSH16 0xFBC9F2FB7564736F6C634300081A0033 "
		},
		"gasEstimates": {
			"creation": {
				"codeDepositCost": "494200",
				"executionCost": "infinite",
				"totalCost": "infinite"
			},
			"external": {
				"allowance(address,address)": "infinite",
				"approve(address,uint256)": "24758",
				"balanceOf(address)": "2626",
				"blazeInfernoPool()": "infinite",
				"burn(uint256)": "50983",
				"burnFrom(address,uint256)": "infinite",
				"buyAndBurn()": "infinite",
				"decimals()": "199",
				"mint(address,uint256)": "infinite",
				"mintTokensForLP()": "infinite",
				"minting()": "infinite",
				"name()": "infinite",
				"symbol()": "infinite",
				"totalSupply()": "2348",
				"transfer(address,uint256)": "51238",
				"transferFrom(address,address,uint256)": "infinite"
			},
			"internal": {
				"_createBlazeInfernoPool(address,address,address)": "infinite",
				"_onlyBuyAndBurn()": "infinite",
				"_onlyMinting()": "infinite"
			}
		},
		"methodIdentifiers": {
			"allowance(address,address)": "dd62ed3e",
			"approve(address,uint256)": "095ea7b3",
			"balanceOf(address)": "70a08231",
			"blazeInfernoPool()": "dc48525d",
			"burn(uint256)": "42966c68",
			"burnFrom(address,uint256)": "79cc6790",
			"buyAndBurn()": "aa6df299",
			"decimals()": "313ce567",
			"mint(address,uint256)": "40c10f19",
			"mintTokensForLP()": "9bed7b6c",
			"minting()": "7dc2268c",
			"name()": "06fdde03",
			"symbol()": "95d89b41",
			"totalSupply()": "18160ddd",
			"transfer(address,uint256)": "a9059cbb",
			"transferFrom(address,address,uint256)": "23b872dd"
		}
	},
	"abi": [
		{
			"inputs": [
				{
					"internalType": "uint32",
					"name": "_infernoMintingStartTimestamp",
					"type": "uint32"
				},
				{
					"internalType": "uint32",
					"name": "_infernoBuyAndBurnStartTimestamp",
					"type": "uint32"
				},
				{
					"internalType": "address",
					"name": "_blazeTitanXPool",
					"type": "address"
				},
				{
					"internalType": "address",
					"name": "_titanX",
					"type": "address"
				},
				{
					"internalType": "address",
					"name": "_blaze",
					"type": "address"
				},
				{
					"internalType": "address",
					"name": "_owner",
					"type": "address"
				}
			],
			"stateMutability": "payable",
			"type": "constructor"
		},
		{
			"inputs": [
				{
					"internalType": "address",
					"name": "spender",
					"type": "address"
				},
				{
					"internalType": "uint256",
					"name": "allowance",
					"type": "uint256"
				},
				{
					"internalType": "uint256",
					"name": "needed",
					"type": "uint256"
				}
			],
			"name": "ERC20InsufficientAllowance",
			"type": "error"
		},
		{
			"inputs": [
				{
					"internalType": "address",
					"name": "sender",
					"type": "address"
				},
				{
					"internalType": "uint256",
					"name": "balance",
					"type": "uint256"
				},
				{
					"internalType": "uint256",
					"name": "needed",
					"type": "uint256"
				}
			],
			"name": "ERC20InsufficientBalance",
			"type": "error"
		},
		{
			"inputs": [
				{
					"internalType": "address",
					"name": "approver",
					"type": "address"
				}
			],
			"name": "ERC20InvalidApprover",
			"type": "error"
		},
		{
			"inputs": [
				{
					"internalType": "address",
					"name": "receiver",
					"type": "address"
				}
			],
			"name": "ERC20InvalidReceiver",
			"type": "error"
		},
		{
			"inputs": [
				{
					"internalType": "address",
					"name": "sender",
					"type": "address"
				}
			],
			"name": "ERC20InvalidSender",
			"type": "error"
		},
		{
			"inputs": [
				{
					"internalType": "address",
					"name": "spender",
					"type": "address"
				}
			],
			"name": "ERC20InvalidSpender",
			"type": "error"
		},
		{
			"inputs": [],
			"name": "InvalidInput",
			"type": "error"
		},
		{
			"inputs": [],
			"name": "OnlyBuyAndBurn",
			"type": "error"
		},
		{
			"inputs": [],
			"name": "OnlyMinting",
			"type": "error"
		},
		{
			"anonymous": false,
			"inputs": [
				{
					"indexed": true,
					"internalType": "address",
					"name": "owner",
					"type": "address"
				},
				{
					"indexed": true,
					"internalType": "address",
					"name": "spender",
					"type": "address"
				},
				{
					"indexed": false,
					"internalType": "uint256",
					"name": "value",
					"type": "uint256"
				}
			],
			"name": "Approval",
			"type": "event"
		},
		{
			"anonymous": false,
			"inputs": [
				{
					"indexed": true,
					"internalType": "address",
					"name": "from",
					"type": "address"
				},
				{
					"indexed": true,
					"internalType": "address",
					"name": "to",
					"type": "address"
				},
				{
					"indexed": false,
					"internalType": "uint256",
					"name": "value",
					"type": "uint256"
				}
			],
			"name": "Transfer",
			"type": "event"
		},
		{
			"inputs": [
				{
					"internalType": "address",
					"name": "owner",
					"type": "address"
				},
				{
					"internalType": "address",
					"name": "spender",
					"type": "address"
				}
			],
			"name": "allowance",
			"outputs": [
				{
					"internalType": "uint256",
					"name": "",
					"type": "uint256"
				}
			],
			"stateMutability": "view",
			"type": "function"
		},
		{
			"inputs": [
				{
					"internalType": "address",
					"name": "spender",
					"type": "address"
				},
				{
					"internalType": "uint256",
					"name": "value",
					"type": "uint256"
				}
			],
			"name": "approve",
			"outputs": [
				{
					"internalType": "bool",
					"name": "",
					"type": "bool"
				}
			],
			"stateMutability": "nonpayable",
			"type": "function"
		},
		{
			"inputs": [
				{
					"internalType": "address",
					"name": "account",
					"type": "address"
				}
			],
			"name": "balanceOf",
			"outputs": [
				{
					"internalType": "uint256",
					"name": "",
					"type": "uint256"
				}
			],
			"stateMutability": "view",
			"type": "function"
		},
		{
			"inputs": [],
			"name": "blazeInfernoPool",
			"outputs": [
				{
					"internalType": "address",
					"name": "",
					"type": "address"
				}
			],
			"stateMutability": "view",
			"type": "function"
		},
		{
			"inputs": [
				{
					"internalType": "uint256",
					"name": "value",
					"type": "uint256"
				}
			],
			"name": "burn",
			"outputs": [],
			"stateMutability": "nonpayable",
			"type": "function"
		},
		{
			"inputs": [
				{
					"internalType": "address",
					"name": "account",
					"type": "address"
				},
				{
					"internalType": "uint256",
					"name": "value",
					"type": "uint256"
				}
			],
			"name": "burnFrom",
			"outputs": [],
			"stateMutability": "nonpayable",
			"type": "function"
		},
		{
			"inputs": [],
			"name": "buyAndBurn",
			"outputs": [
				{
					"internalType": "contract InfernoBuyAndBurn",
					"name": "",
					"type": "address"
				}
			],
			"stateMutability": "view",
			"type": "function"
		},
		{
			"inputs": [],
			"name": "decimals",
			"outputs": [
				{
					"internalType": "uint8",
					"name": "",
					"type": "uint8"
				}
			],
			"stateMutability": "view",
			"type": "function"
		},
		{
			"inputs": [
				{
					"internalType": "address",
					"name": "_to",
					"type": "address"
				},
				{
					"internalType": "uint256",
					"name": "_amount",
					"type": "uint256"
				}
			],
			"name": "mint",
			"outputs": [],
			"stateMutability": "nonpayable",
			"type": "function"
		},
		{
			"inputs": [],
			"name": "mintTokensForLP",
			"outputs": [],
			"stateMutability": "nonpayable",
			"type": "function"
		},
		{
			"inputs": [],
			"name": "minting",
			"outputs": [
				{
					"internalType": "contract InfernoMinting",
					"name": "",
					"type": "address"
				}
			],
			"stateMutability": "view",
			"type": "function"
		},
		{
			"inputs": [],
			"name": "name",
			"outputs": [
				{
					"internalType": "string",
					"name": "",
					"type": "string"
				}
			],
			"stateMutability": "view",
			"type": "function"
		},
		{
			"inputs": [],
			"name": "symbol",
			"outputs": [
				{
					"internalType": "string",
					"name": "",
					"type": "string"
				}
			],
			"stateMutability": "view",
			"type": "function"
		},
		{
			"inputs": [],
			"name": "totalSupply",
			"outputs": [
				{
					"internalType": "uint256",
					"name": "",
					"type": "uint256"
				}
			],
			"stateMutability": "view",
			"type": "function"
		},
		{
			"inputs": [
				{
					"internalType": "address",
					"name": "to",
					"type": "address"
				},
				{
					"internalType": "uint256",
					"name": "value",
					"type": "uint256"
				}
			],
			"name": "transfer",
			"outputs": [
				{
					"internalType": "bool",
					"name": "",
					"type": "bool"
				}
			],
			"stateMutability": "nonpayable",
			"type": "function"
		},
		{
			"inputs": [
				{
					"internalType": "address",
					"name": "from",
					"type": "address"
				},
				{
					"internalType": "address",
					"name": "to",
					"type": "address"
				},
				{
					"internalType": "uint256",
					"name": "value",
					"type": "uint256"
				}
			],
			"name": "transferFrom",
			"outputs": [
				{
					"internalType": "bool",
					"name": "",
					"type": "bool"
				}
			],
			"stateMutability": "nonpayable",
			"type": "function"
		}
	]
}