{
	"data": {
		"bytecode": {
			"linkReferences": {},
			"object": "60e060405260405161103438038061103483398101604081905261002291610096565b6001600160a01b0383166100495760405163b4fa3fb360e01b815260040160405180910390fd5b63ffffffff1660c052600380546001600160a01b031916331790556001600160a01b039081166080521660a0526100e2565b80516001600160a01b0381168114610091575f80fd5b919050565b5f805f606084860312156100a8575f80fd5b6100b18461007b565b92506100bf6020850161007b565b9150604084015163ffffffff811681146100d7575f80fd5b809150509250925092565b60805160a05160c051610edb6101595f395f8181610246015281816102e101528181610353015281816104e5015261065d01525f81816101db0152818161069a0152818161082201526108d201525f81816102760152818161075c01528181610793015281816107e301526108510152610edb5ff3fe608060405234801561000f575f80fd5b50600436106100f0575f3560e01c806395d4063f11610093578063d09d197711610063578063d09d197714610217578063e6fd48bc14610241578063eb071b6314610268578063f9119bbd14610271575f80fd5b806395d4063f146101ae578063a0712d68146101c3578063aa6df299146101d6578063c8581e2a146101fd575f80fd5b806377c18c73116100ce57806377c18c731461014e5780638041950b146101565780638d50a3d9146101755780638d9f98101461017f575f80fd5b8063488fc775146100f457806351f293261461011a578063754b603914610145575b5f80fd5b610107610102366004610c7e565b610298565b6040519081526020015b60405180910390f35b60035461012d906001600160a01b031681565b6040516001600160a01b039091168152602001610111565b61010760015481565b6101075f5481565b61016062093a8081565b60405163ffffffff9091168152602001610111565b6101606201518081565b6101876102d3565b6040805163ffffffff94851681529284166020840152921691810191909152606001610111565b6101c16101bc366004610c97565b61038e565b005b6101c16101d1366004610cb7565b6104c3565b61012d7f000000000000000000000000000000000000000000000000000000000000000081565b610205600881565b60405160ff9091168152602001610111565b610107610225366004610cce565b600460209081525f928352604080842090915290825290205481565b6101607f000000000000000000000000000000000000000000000000000000000000000081565b61010760025481565b61012d7f000000000000000000000000000000000000000000000000000000000000000081565b5f808263ffffffff166001146102c0576001830363ffffffff1666b1a2bc2ec50000026102c2565b5f5b670de0b6b3a7640000039392505050565b5f80808061030763ffffffff7f00000000000000000000000000000000000000000000000000000000000000001642610d20565b905061031662093a8082610d47565b610321906001610d6e565b60ff169350600884111561033457600893505b62093a80610343600186610d87565b61034d9190610da3565b610377907f0000000000000000000000000000000000000000000000000000000000000000610dc9565b92506103866201518084610dc9565b915050909192565b4261039882610639565b63ffffffff1611156103bd57604051632db8551b60e11b815260040160405180910390fd5b335f90815260046020908152604080832060ff85168452909152812054908190036103fb5760405163ca959f6560e01b815260040160405180910390fd5b335f81815260046020908152604080832060ff871680855290835281842093909355518481529192917fb3df9980c12f4f6cbd2921f5dbaa79e0cbd522a59e93a57baab92fd3a4ecc33f910160405180910390a38060015461045d9190610de5565b6001556003546040516340c10f1960e01b8152336004820152602481018390526001600160a01b03909116906340c10f19906044015f604051808303815f87803b1580156104a9575f80fd5b505af11580156104bb573d5f803e3d5ffd5b505050505050565b805f036104e35760405163b4fa3fb360e01b815260040160405180910390fd5b7f000000000000000000000000000000000000000000000000000000000000000063ffffffff1642101561052a57604051631864d7ab60e21b815260040160405180910390fd5b5f806105346102d3565b92505091508063ffffffff16421115610560576040516354913e1960e01b815260040160405180910390fd5b5f61056a84610697565b90505f670de0b6b3a764000061057f85610298565b6105899087610df8565b6105939190610e0f565b335f90815260046020908152604080832063ffffffff891684529091528120805492935083929091906105c7908490610de5565b909155505060405181815263ffffffff85169033907f35e338cd1c45f4d09abab571f5559403d556df8920b83a5e2710f6f6657d44019060200160405180910390a3806002546106179190610de5565b6002555f54610627908690610de5565b5f55610632826107d6565b5050505050565b5f8062093a8061064a600185610e22565b60ff166106579190610da3565b610681907f0000000000000000000000000000000000000000000000000000000000000000610dc9565b90506106906201518082610dc9565b9392505050565b5f7f00000000000000000000000000000000000000000000000000000000000000006001600160a01b031663d94439236040518163ffffffff1660e01b8152600401602060405180830381865afa1580156106f4573d5f803e3d5ffd5b505050506040513d601f19601f820116820180604052508101906107189190610e3b565b610720575090565b5f6107318360c8612710600161092d565b90505f61074584610320612710600161092d565b828503819003935090506107866001600160a01b037f0000000000000000000000000000000000000000000000000000000000000000163361dead8461097c565b6107cf6001600160a01b037f000000000000000000000000000000000000000000000000000000000000000016337384c17675a19be90788cbc7d455b2aeb7ebf650b48561097c565b5050919050565b61080b6001600160a01b037f00000000000000000000000000000000000000000000000000000000000000001633308461097c565b60405163095ea7b360e01b81526001600160a01b037f000000000000000000000000000000000000000000000000000000000000000081166004830152602482018390527f0000000000000000000000000000000000000000000000000000000000000000169063095ea7b3906044016020604051808303815f875af1158015610897573d5f803e3d5ffd5b505050506040513d601f19601f820116820180604052508101906108bb9190610e3b565b50604051630c371c6b60e21b8152600481018290527f00000000000000000000000000000000000000000000000000000000000000006001600160a01b0316906330dc71ac906024015f604051808303815f87803b15801561091b575f80fd5b505af1158015610632573d5f803e3d5ffd5b5f8061093a8686866109dc565b905061094583610a9b565b801561096057505f848061095b5761095b610d33565b868809115b1561097357610970600182610de5565b90505b95945050505050565b604080516001600160a01b0385811660248301528416604482015260648082018490528251808303909101815260849091019091526020810180516001600160e01b03166323b872dd60e01b1790526109d6908590610ac7565b50505050565b5f838302815f1985870982811083820303915050805f03610a1057838281610a0657610a06610d33565b0492505050610690565b808411610a305760405163227bc15360e01b815260040160405180910390fd5b5f848688095f868103871696879004966002600389028118808a02820302808a02820302808a02820302808a02820302808a02820302808a02909103029181900381900460010186841190950394909402919094039290920491909117919091029150509392505050565b5f6002826003811115610ab057610ab0610e5a565b610aba9190610e6e565b60ff166001149050919050565b5f610adb6001600160a01b03841683610b32565b905080515f14158015610aff575080806020019051810190610afd9190610e3b565b155b15610b2d57604051635274afe760e01b81526001600160a01b03841660048201526024015b60405180910390fd5b505050565b6060610b3f83835f610b48565b90505b92915050565b606081471015610b6d5760405163cd78605960e01b8152306004820152602401610b24565b5f80856001600160a01b03168486604051610b889190610e8f565b5f6040518083038185875af1925050503d805f8114610bc2576040519150601f19603f3d011682016040523d82523d5f602084013e610bc7565b606091505b5091509150610bd7868383610be1565b9695505050505050565b606082610bf657610bf182610c3d565b610690565b8151158015610c0d57506001600160a01b0384163b155b15610c3657604051639996b31560e01b81526001600160a01b0385166004820152602401610b24565b5080610690565b805115610c4d5780518082602001fd5b604051630a12f52160e11b815260040160405180910390fd5b803563ffffffff81168114610c79575f80fd5b919050565b5f60208284031215610c8e575f80fd5b610b3f82610c66565b5f60208284031215610ca7575f80fd5b813560ff81168114610690575f80fd5b5f60208284031215610cc7575f80fd5b5035919050565b5f8060408385031215610cdf575f80fd5b82356001600160a01b0381168114610cf5575f80fd5b9150610d0360208401610c66565b90509250929050565b634e487b7160e01b5f52601160045260245ffd5b81810381811115610b4257610b42610d0c565b634e487b7160e01b5f52601260045260245ffd5b5f63ffffffff831680610d5c57610d5c610d33565b8063ffffffff84160491505092915050565b60ff8181168382160190811115610b4257610b42610d0c565b63ffffffff8281168282160390811115610b4257610b42610d0c565b63ffffffff8181168382160290811690818114610dc257610dc2610d0c565b5092915050565b63ffffffff8181168382160190811115610b4257610b42610d0c565b80820180821115610b4257610b42610d0c565b8082028115828204841417610b4257610b42610d0c565b5f82610e1d57610e1d610d33565b500490565b60ff8281168282160390811115610b4257610b42610d0c565b5f60208284031215610e4b575f80fd5b81518015158114610690575f80fd5b634e487b7160e01b5f52602160045260245ffd5b5f60ff831680610e8057610e80610d33565b8060ff84160691505092915050565b5f82518060208501845e5f92019182525091905056fea2646970667358221220ddf6f8e54449ec18eedd6c327f4fa09bc27fb5dcff86d5df233b6ffbc9f2fb7564736f6c634300081a0033",
			"opcodes": "PUSH1 0xE0 PUSH1 0x40 MSTORE PUSH1 0x40 MLOAD PUSH2 0x1034 CODESIZE SUB DUP1 PUSH2 0x1034 DUP4 CODECOPY DUP2 ADD PUSH1 0x40 DUP2 SWAP1 MSTORE PUSH2 0x22 SWAP2 PUSH2 0x96 JUMP JUMPDEST PUSH1 0x1 PUSH1 0x1 PUSH1 0xA0 SHL SUB DUP4 AND PUSH2 0x49 JUMPI PUSH1 0x40 MLOAD PUSH4 0xB4FA3FB3 PUSH1 0xE0 SHL DUP2 MSTORE PUSH1 0x4 ADD PUSH1 0x40 MLOAD DUP1 SWAP2 SUB SWAP1 REVERT JUMPDEST PUSH4 0xFFFFFFFF AND PUSH1 0xC0 MSTORE PUSH1 0x3 DUP1 SLOAD PUSH1 0x1 PUSH1 0x1 PUSH1 0xA0 SHL SUB NOT AND CALLER OR SWAP1 SSTORE PUSH1 0x1 PUSH1 0x1 PUSH1 0xA0 SHL SUB SWAP1 DUP2 AND PUSH1 0x80 MSTORE AND PUSH1 0xA0 MSTORE PUSH2 0xE2 JUMP JUMPDEST DUP1 MLOAD PUSH1 0x1 PUSH1 0x1 PUSH1 0xA0 SHL SUB DUP2 AND DUP2 EQ PUSH2 0x91 JUMPI PUSH0 DUP1 REVERT JUMPDEST SWAP2 SWAP1 POP JUMP JUMPDEST PUSH0 DUP1 PUSH0 PUSH1 0x60 DUP5 DUP7 SUB SLT ISZERO PUSH2 0xA8 JUMPI PUSH0 DUP1 REVERT JUMPDEST PUSH2 0xB1 DUP5 PUSH2 0x7B JUMP JUMPDEST SWAP3 POP PUSH2 0xBF PUSH1 0x20 DUP6 ADD PUSH2 0x7B JUMP JUMPDEST SWAP2 POP PUSH1 0x40 DUP5 ADD MLOAD PUSH4 0xFFFFFFFF DUP2 AND DUP2 EQ PUSH2 0xD7 JUMPI PUSH0 DUP1 REVERT JUMPDEST DUP1 SWAP2 POP POP SWAP3 POP SWAP3 POP SWAP3 JUMP JUMPDEST PUSH1 0x80 MLOAD PUSH1 0xA0 MLOAD PUSH1 0xC0 MLOAD PUSH2 0xEDB PUSH2 0x159 PUSH0 CODECOPY PUSH0 DUP2 DUP2 PUSH2 0x246 ADD MSTORE DUP2 DUP2 PUSH2 0x2E1 ADD MSTORE DUP2 DUP2 PUSH2 0x353 ADD MSTORE DUP2 DUP2 PUSH2 0x4E5 ADD MSTORE PUSH2 0x65D ADD MSTORE PUSH0 DUP2 DUP2 PUSH2 0x1DB ADD MSTORE DUP2 DUP2 PUSH2 0x69A ADD MSTORE DUP2 DUP2 PUSH2 0x822 ADD MSTORE PUSH2 0x8D2 ADD MSTORE PUSH0 DUP2 DUP2 PUSH2 0x276 ADD MSTORE DUP2 DUP2 PUSH2 0x75C ADD MSTORE DUP2 DUP2 PUSH2 0x793 ADD MSTORE DUP2 DUP2 PUSH2 0x7E3 ADD MSTORE PUSH2 0x851 ADD MSTORE PUSH2 0xEDB PUSH0 RETURN INVALID PUSH1 0x80 PUSH1 0x40 MSTORE CALLVALUE DUP1 ISZERO PUSH2 0xF JUMPI PUSH0 DUP1 REVERT JUMPDEST POP PUSH1 0x4 CALLDATASIZE LT PUSH2 0xF0 JUMPI PUSH0 CALLDATALOAD PUSH1 0xE0 SHR DUP1 PUSH4 0x95D4063F GT PUSH2 0x93 JUMPI DUP1 PUSH4 0xD09D1977 GT PUSH2 0x63 JUMPI DUP1 PUSH4 0xD09D1977 EQ PUSH2 0x217 JUMPI DUP1 PUSH4 0xE6FD48BC EQ PUSH2 0x241 JUMPI DUP1 PUSH4 0xEB071B63 EQ PUSH2 0x268 JUMPI DUP1 PUSH4 0xF9119BBD EQ PUSH2 0x271 JUMPI PUSH0 DUP1 REVERT JUMPDEST DUP1 PUSH4 0x95D4063F EQ PUSH2 0x1AE JUMPI DUP1 PUSH4 0xA0712D68 EQ PUSH2 0x1C3 JUMPI DUP1 PUSH4 0xAA6DF299 EQ PUSH2 0x1D6 JUMPI DUP1 PUSH4 0xC8581E2A EQ PUSH2 0x1FD JUMPI PUSH0 DUP1 REVERT JUMPDEST DUP1 PUSH4 0x77C18C73 GT PUSH2 0xCE JUMPI DUP1 PUSH4 0x77C18C73 EQ PUSH2 0x14E JUMPI DUP1 PUSH4 0x8041950B EQ PUSH2 0x156 JUMPI DUP1 PUSH4 0x8D50A3D9 EQ PUSH2 0x175 JUMPI DUP1 PUSH4 0x8D9F9810 EQ PUSH2 0x17F JUMPI PUSH0 DUP1 REVERT JUMPDEST DUP1 PUSH4 0x488FC775 EQ PUSH2 0xF4 JUMPI DUP1 PUSH4 0x51F29326 EQ PUSH2 0x11A JUMPI DUP1 PUSH4 0x754B6039 EQ PUSH2 0x145 JUMPI JUMPDEST PUSH0 DUP1 REVERT JUMPDEST PUSH2 0x107 PUSH2 0x102 CALLDATASIZE PUSH1 0x4 PUSH2 0xC7E JUMP JUMPDEST PUSH2 0x298 JUMP JUMPDEST PUSH1 0x40 MLOAD SWAP1 DUP2 MSTORE PUSH1 0x20 ADD JUMPDEST PUSH1 0x40 MLOAD DUP1 SWAP2 SUB SWAP1 RETURN JUMPDEST PUSH1 0x3 SLOAD PUSH2 0x12D SWAP1 PUSH1 0x1 PUSH1 0x1 PUSH1 0xA0 SHL SUB AND DUP2 JUMP JUMPDEST PUSH1 0x40 MLOAD PUSH1 0x1 PUSH1 0x1 PUSH1 0xA0 SHL SUB SWAP1 SWAP2 AND DUP2 MSTORE PUSH1 0x20 ADD PUSH2 0x111 JUMP JUMPDEST PUSH2 0x107 PUSH1 0x1 SLOAD DUP2 JUMP JUMPDEST PUSH2 0x107 PUSH0 SLOAD DUP2 JUMP JUMPDEST PUSH2 0x160 PUSH3 0x93A80 DUP2 JUMP JUMPDEST PUSH1 0x40 MLOAD PUSH4 0xFFFFFFFF SWAP1 SWAP2 AND DUP2 MSTORE PUSH1 0x20 ADD PUSH2 0x111 JUMP JUMPDEST PUSH2 0x160 PUSH3 0x15180 DUP2 JUMP JUMPDEST PUSH2 0x187 PUSH2 0x2D3 JUMP JUMPDEST PUSH1 0x40 DUP1 MLOAD PUSH4 0xFFFFFFFF SWAP5 DUP6 AND DUP2 MSTORE SWAP3 DUP5 AND PUSH1 0x20 DUP5 ADD MSTORE SWAP3 AND SWAP2 DUP2 ADD SWAP2 SWAP1 SWAP2 MSTORE PUSH1 0x60 ADD PUSH2 0x111 JUMP JUMPDEST PUSH2 0x1C1 PUSH2 0x1BC CALLDATASIZE PUSH1 0x4 PUSH2 0xC97 JUMP JUMPDEST PUSH2 0x38E JUMP JUMPDEST STOP JUMPDEST PUSH2 0x1C1 PUSH2 0x1D1 CALLDATASIZE PUSH1 0x4 PUSH2 0xCB7 JUMP JUMPDEST PUSH2 0x4C3 JUMP JUMPDEST PUSH2 0x12D PUSH32 0x0 DUP2 JUMP JUMPDEST PUSH2 0x205 PUSH1 0x8 DUP2 JUMP JUMPDEST PUSH1 0x40 MLOAD PUSH1 0xFF SWAP1 SWAP2 AND DUP2 MSTORE PUSH1 0x20 ADD PUSH2 0x111 JUMP JUMPDEST PUSH2 0x107 PUSH2 0x225 CALLDATASIZE PUSH1 0x4 PUSH2 0xCCE JUMP JUMPDEST PUSH1 0x4 PUSH1 0x20 SWAP1 DUP2 MSTORE PUSH0 SWAP3 DUP4 MSTORE PUSH1 0x40 DUP1 DUP5 KECCAK256 SWAP1 SWAP2 MSTORE SWAP1 DUP3 MSTORE SWAP1 KECCAK256 SLOAD DUP2 JUMP JUMPDEST PUSH2 0x160 PUSH32 0x0 DUP2 JUMP JUMPDEST PUSH2 0x107 PUSH1 0x2 SLOAD DUP2 JUMP JUMPDEST PUSH2 0x12D PUSH32 0x0 DUP2 JUMP JUMPDEST PUSH0 DUP1 DUP3 PUSH4 0xFFFFFFFF AND PUSH1 0x1 EQ PUSH2 0x2C0 JUMPI PUSH1 0x1 DUP4 SUB PUSH4 0xFFFFFFFF AND PUSH7 0xB1A2BC2EC50000 MUL PUSH2 0x2C2 JUMP JUMPDEST PUSH0 JUMPDEST PUSH8 0xDE0B6B3A7640000 SUB SWAP4 SWAP3 POP POP POP JUMP JUMPDEST PUSH0 DUP1 DUP1 DUP1 PUSH2 0x307 PUSH4 0xFFFFFFFF PUSH32 0x0 AND TIMESTAMP PUSH2 0xD20 JUMP JUMPDEST SWAP1 POP PUSH2 0x316 PUSH3 0x93A80 DUP3 PUSH2 0xD47 JUMP JUMPDEST PUSH2 0x321 SWAP1 PUSH1 0x1 PUSH2 0xD6E JUMP JUMPDEST PUSH1 0xFF AND SWAP4 POP PUSH1 0x8 DUP5 GT ISZERO PUSH2 0x334 JUMPI PUSH1 0x8 SWAP4 POP JUMPDEST PUSH3 0x93A80 PUSH2 0x343 PUSH1 0x1 DUP7 PUSH2 0xD87 JUMP JUMPDEST PUSH2 0x34D SWAP2 SWAP1 PUSH2 0xDA3 JUMP JUMPDEST PUSH2 0x377 SWAP1 PUSH32 0x0 PUSH2 0xDC9 JUMP JUMPDEST SWAP3 POP PUSH2 0x386 PUSH3 0x15180 DUP5 PUSH2 0xDC9 JUMP JUMPDEST SWAP2 POP POP SWAP1 SWAP2 SWAP3 JUMP JUMPDEST TIMESTAMP PUSH2 0x398 DUP3 PUSH2 0x639 JUMP JUMPDEST PUSH4 0xFFFFFFFF AND GT ISZERO PUSH2 0x3BD JUMPI PUSH1 0x40 MLOAD PUSH4 0x2DB8551B PUSH1 0xE1 SHL DUP2 MSTORE PUSH1 0x4 ADD PUSH1 0x40 MLOAD DUP1 SWAP2 SUB SWAP1 REVERT JUMPDEST CALLER PUSH0 SWAP1 DUP2 MSTORE PUSH1 0x4 PUSH1 0x20 SWAP1 DUP2 MSTORE PUSH1 0x40 DUP1 DUP4 KECCAK256 PUSH1 0xFF DUP6 AND DUP5 MSTORE SWAP1 SWAP2 MSTORE DUP2 KECCAK256 SLOAD SWAP1 DUP2 SWAP1 SUB PUSH2 0x3FB JUMPI PUSH1 0x40 MLOAD PUSH4 0xCA959F65 PUSH1 0xE0 SHL DUP2 MSTORE PUSH1 0x4 ADD PUSH1 0x40 MLOAD DUP1 SWAP2 SUB SWAP1 REVERT JUMPDEST CALLER PUSH0 DUP2 DUP2 MSTORE PUSH1 0x4 PUSH1 0x20 SWAP1 DUP2 MSTORE PUSH1 0x40 DUP1 DUP4 KECCAK256 PUSH1 0xFF DUP8 AND DUP1 DUP6 MSTORE SWAP1 DUP4 MSTORE DUP2 DUP5 KECCAK256 SWAP4 SWAP1 SWAP4 SSTORE MLOAD DUP5 DUP2 MSTORE SWAP2 SWAP3 SWAP2 PUSH32 0xB3DF9980C12F4F6CBD2921F5DBAA79E0CBD522A59E93A57BAAB92FD3A4ECC33F SWAP2 ADD PUSH1 0x40 MLOAD DUP1 SWAP2 SUB SWAP1 LOG3 DUP1 PUSH1 0x1 SLOAD PUSH2 0x45D SWAP2 SWAP1 PUSH2 0xDE5 JUMP JUMPDEST PUSH1 0x1 SSTORE PUSH1 0x3 SLOAD PUSH1 0x40 MLOAD PUSH4 0x40C10F19 PUSH1 0xE0 SHL DUP2 MSTORE CALLER PUSH1 0x4 DUP3 ADD MSTORE PUSH1 0x24 DUP2 ADD DUP4 SWAP1 MSTORE PUSH1 0x1 PUSH1 0x1 PUSH1 0xA0 SHL SUB SWAP1 SWAP2 AND SWAP1 PUSH4 0x40C10F19 SWAP1 PUSH1 0x44 ADD PUSH0 PUSH1 0x40 MLOAD DUP1 DUP4 SUB DUP2 PUSH0 DUP8 DUP1 EXTCODESIZE ISZERO DUP1 ISZERO PUSH2 0x4A9 JUMPI PUSH0 DUP1 REVERT JUMPDEST POP GAS CALL ISZERO DUP1 ISZERO PUSH2 0x4BB JUMPI RETURNDATASIZE PUSH0 DUP1 RETURNDATACOPY RETURNDATASIZE PUSH0 REVERT JUMPDEST POP POP POP POP POP POP JUMP JUMPDEST DUP1 PUSH0 SUB PUSH2 0x4E3 JUMPI PUSH1 0x40 MLOAD PUSH4 0xB4FA3FB3 PUSH1 0xE0 SHL DUP2 MSTORE PUSH1 0x4 ADD PUSH1 0x40 MLOAD DUP1 SWAP2 SUB SWAP1 REVERT JUMPDEST PUSH32 0x0 PUSH4 0xFFFFFFFF AND TIMESTAMP LT ISZERO PUSH2 0x52A JUMPI PUSH1 0x40 MLOAD PUSH4 0x1864D7AB PUSH1 0xE2 SHL DUP2 MSTORE PUSH1 0x4 ADD PUSH1 0x40 MLOAD DUP1 SWAP2 SUB SWAP1 REVERT JUMPDEST PUSH0 DUP1 PUSH2 0x534 PUSH2 0x2D3 JUMP JUMPDEST SWAP3 POP POP SWAP2 POP DUP1 PUSH4 0xFFFFFFFF AND TIMESTAMP GT ISZERO PUSH2 0x560 JUMPI PUSH1 0x40 MLOAD PUSH4 0x54913E19 PUSH1 0xE0 SHL DUP2 MSTORE PUSH1 0x4 ADD PUSH1 0x40 MLOAD DUP1 SWAP2 SUB SWAP1 REVERT JUMPDEST PUSH0 PUSH2 0x56A DUP5 PUSH2 0x697 JUMP JUMPDEST SWAP1 POP PUSH0 PUSH8 0xDE0B6B3A7640000 PUSH2 0x57F DUP6 PUSH2 0x298 JUMP JUMPDEST PUSH2 0x589 SWAP1 DUP8 PUSH2 0xDF8 JUMP JUMPDEST PUSH2 0x593 SWAP2 SWAP1 PUSH2 0xE0F JUMP JUMPDEST CALLER PUSH0 SWAP1 DUP2 MSTORE PUSH1 0x4 PUSH1 0x20 SWAP1 DUP2 MSTORE PUSH1 0x40 DUP1 DUP4 KECCAK256 PUSH4 0xFFFFFFFF DUP10 AND DUP5 MSTORE SWAP1 SWAP2 MSTORE DUP2 KECCAK256 DUP1 SLOAD SWAP3 SWAP4 POP DUP4 SWAP3 SWAP1 SWAP2 SWAP1 PUSH2 0x5C7 SWAP1 DUP5 SWAP1 PUSH2 0xDE5 JUMP JUMPDEST SWAP1 SWAP2 SSTORE POP POP PUSH1 0x40 MLOAD DUP2 DUP2 MSTORE PUSH4 0xFFFFFFFF DUP6 AND SWAP1 CALLER SWAP1 PUSH32 0x35E338CD1C45F4D09ABAB571F5559403D556DF8920B83A5E2710F6F6657D4401 SWAP1 PUSH1 0x20 ADD PUSH1 0x40 MLOAD DUP1 SWAP2 SUB SWAP1 LOG3 DUP1 PUSH1 0x2 SLOAD PUSH2 0x617 SWAP2 SWAP1 PUSH2 0xDE5 JUMP JUMPDEST PUSH1 0x2 SSTORE PUSH0 SLOAD PUSH2 0x627 SWAP1 DUP7 SWAP1 PUSH2 0xDE5 JUMP JUMPDEST PUSH0 SSTORE PUSH2 0x632 DUP3 PUSH2 0x7D6 JUMP JUMPDEST POP POP POP POP POP JUMP JUMPDEST PUSH0 DUP1 PUSH3 0x93A80 PUSH2 0x64A PUSH1 0x1 DUP6 PUSH2 0xE22 JUMP JUMPDEST PUSH1 0xFF AND PUSH2 0x657 SWAP2 SWAP1 PUSH2 0xDA3 JUMP JUMPDEST PUSH2 0x681 SWAP1 PUSH32 0x0 PUSH2 0xDC9 JUMP JUMPDEST SWAP1 POP PUSH2 0x690 PUSH3 0x15180 DUP3 PUSH2 0xDC9 JUMP JUMPDEST SWAP4 SWAP3 POP POP POP JUMP JUMPDEST PUSH0 PUSH32 0x0 PUSH1 0x1 PUSH1 0x1 PUSH1 0xA0 SHL SUB AND PUSH4 0xD9443923 PUSH1 0x40 MLOAD DUP2 PUSH4 0xFFFFFFFF AND PUSH1 0xE0 SHL DUP2 MSTORE PUSH1 0x4 ADD PUSH1 0x20 PUSH1 0x40 MLOAD DUP1 DUP4 SUB DUP2 DUP7 GAS STATICCALL ISZERO DUP1 ISZERO PUSH2 0x6F4 JUMPI RETURNDATASIZE PUSH0 DUP1 RETURNDATACOPY RETURNDATASIZE PUSH0 REVERT JUMPDEST POP POP POP POP PUSH1 0x40 MLOAD RETURNDATASIZE PUSH1 0x1F NOT PUSH1 0x1F DUP3 ADD AND DUP3 ADD DUP1 PUSH1 0x40 MSTORE POP DUP2 ADD SWAP1 PUSH2 0x718 SWAP2 SWAP1 PUSH2 0xE3B JUMP JUMPDEST PUSH2 0x720 JUMPI POP SWAP1 JUMP JUMPDEST PUSH0 PUSH2 0x731 DUP4 PUSH1 0xC8 PUSH2 0x2710 PUSH1 0x1 PUSH2 0x92D JUMP JUMPDEST SWAP1 POP PUSH0 PUSH2 0x745 DUP5 PUSH2 0x320 PUSH2 0x2710 PUSH1 0x1 PUSH2 0x92D JUMP JUMPDEST DUP3 DUP6 SUB DUP2 SWAP1 SUB SWAP4 POP SWAP1 POP PUSH2 0x786 PUSH1 0x1 PUSH1 0x1 PUSH1 0xA0 SHL SUB PUSH32 0x0 AND CALLER PUSH2 0xDEAD DUP5 PUSH2 0x97C JUMP JUMPDEST PUSH2 0x7CF PUSH1 0x1 PUSH1 0x1 PUSH1 0xA0 SHL SUB PUSH32 0x0 AND CALLER PUSH20 0x84C17675A19BE90788CBC7D455B2AEB7EBF650B4 DUP6 PUSH2 0x97C JUMP JUMPDEST POP POP SWAP2 SWAP1 POP JUMP JUMPDEST PUSH2 0x80B PUSH1 0x1 PUSH1 0x1 PUSH1 0xA0 SHL SUB PUSH32 0x0 AND CALLER ADDRESS DUP5 PUSH2 0x97C JUMP JUMPDEST PUSH1 0x40 MLOAD PUSH4 0x95EA7B3 PUSH1 0xE0 SHL DUP2 MSTORE PUSH1 0x1 PUSH1 0x1 PUSH1 0xA0 SHL SUB PUSH32 0x0 DUP2 AND PUSH1 0x4 DUP4 ADD MSTORE PUSH1 0x24 DUP3 ADD DUP4 SWAP1 MSTORE PUSH32 0x0 AND SWAP1 PUSH4 0x95EA7B3 SWAP1 PUSH1 0x44 ADD PUSH1 0x20 PUSH1 0x40 MLOAD DUP1 DUP4 SUB DUP2 PUSH0 DUP8 GAS CALL ISZERO DUP1 ISZERO PUSH2 0x897 JUMPI RETURNDATASIZE PUSH0 DUP1 RETURNDATACOPY RETURNDATASIZE PUSH0 REVERT JUMPDEST POP POP POP POP PUSH1 0x40 MLOAD RETURNDATASIZE PUSH1 0x1F NOT PUSH1 0x1F DUP3 ADD AND DUP3 ADD DUP1 PUSH1 0x40 MSTORE POP DUP2 ADD SWAP1 PUSH2 0x8BB SWAP2 SWAP1 PUSH2 0xE3B JUMP JUMPDEST POP PUSH1 0x40 MLOAD PUSH4 0xC371C6B PUSH1 0xE2 SHL DUP2 MSTORE PUSH1 0x4 DUP2 ADD DUP3 SWAP1 MSTORE PUSH32 0x0 PUSH1 0x1 PUSH1 0x1 PUSH1 0xA0 SHL SUB AND SWAP1 PUSH4 0x30DC71AC SWAP1 PUSH1 0x24 ADD PUSH0 PUSH1 0x40 MLOAD DUP1 DUP4 SUB DUP2 PUSH0 DUP8 DUP1 EXTCODESIZE ISZERO DUP1 ISZERO PUSH2 0x91B JUMPI PUSH0 DUP1 REVERT JUMPDEST POP GAS CALL ISZERO DUP1 ISZERO PUSH2 0x632 JUMPI RETURNDATASIZE PUSH0 DUP1 RETURNDATACOPY RETURNDATASIZE PUSH0 REVERT JUMPDEST PUSH0 DUP1 PUSH2 0x93A DUP7 DUP7 DUP7 PUSH2 0x9DC JUMP JUMPDEST SWAP1 POP PUSH2 0x945 DUP4 PUSH2 0xA9B JUMP JUMPDEST DUP1 ISZERO PUSH2 0x960 JUMPI POP PUSH0 DUP5 DUP1 PUSH2 0x95B JUMPI PUSH2 0x95B PUSH2 0xD33 JUMP JUMPDEST DUP7 DUP9 MULMOD GT JUMPDEST ISZERO PUSH2 0x973 JUMPI PUSH2 0x970 PUSH1 0x1 DUP3 PUSH2 0xDE5 JUMP JUMPDEST SWAP1 POP JUMPDEST SWAP6 SWAP5 POP POP POP POP POP JUMP JUMPDEST PUSH1 0x40 DUP1 MLOAD PUSH1 0x1 PUSH1 0x1 PUSH1 0xA0 SHL SUB DUP6 DUP2 AND PUSH1 0x24 DUP4 ADD MSTORE DUP5 AND PUSH1 0x44 DUP3 ADD MSTORE PUSH1 0x64 DUP1 DUP3 ADD DUP5 SWAP1 MSTORE DUP3 MLOAD DUP1 DUP4 SUB SWAP1 SWAP2 ADD DUP2 MSTORE PUSH1 0x84 SWAP1 SWAP2 ADD SWAP1 SWAP2 MSTORE PUSH1 0x20 DUP2 ADD DUP1 MLOAD PUSH1 0x1 PUSH1 0x1 PUSH1 0xE0 SHL SUB AND PUSH4 0x23B872DD PUSH1 0xE0 SHL OR SWAP1 MSTORE PUSH2 0x9D6 SWAP1 DUP6 SWAP1 PUSH2 0xAC7 JUMP JUMPDEST POP POP POP POP JUMP JUMPDEST PUSH0 DUP4 DUP4 MUL DUP2 PUSH0 NOT DUP6 DUP8 MULMOD DUP3 DUP2 LT DUP4 DUP3 SUB SUB SWAP2 POP POP DUP1 PUSH0 SUB PUSH2 0xA10 JUMPI DUP4 DUP3 DUP2 PUSH2 0xA06 JUMPI PUSH2 0xA06 PUSH2 0xD33 JUMP JUMPDEST DIV SWAP3 POP POP POP PUSH2 0x690 JUMP JUMPDEST DUP1 DUP5 GT PUSH2 0xA30 JUMPI PUSH1 0x40 MLOAD PUSH4 0x227BC153 PUSH1 0xE0 SHL DUP2 MSTORE PUSH1 0x4 ADD PUSH1 0x40 MLOAD DUP1 SWAP2 SUB SWAP1 REVERT JUMPDEST PUSH0 DUP5 DUP7 DUP9 MULMOD PUSH0 DUP7 DUP2 SUB DUP8 AND SWAP7 DUP8 SWAP1 DIV SWAP7 PUSH1 0x2 PUSH1 0x3 DUP10 MUL DUP2 XOR DUP1 DUP11 MUL DUP3 SUB MUL DUP1 DUP11 MUL DUP3 SUB MUL DUP1 DUP11 MUL DUP3 SUB MUL DUP1 DUP11 MUL DUP3 SUB MUL DUP1 DUP11 MUL DUP3 SUB MUL DUP1 DUP11 MUL SWAP1 SWAP2 SUB MUL SWAP2 DUP2 SWAP1 SUB DUP2 SWAP1 DIV PUSH1 0x1 ADD DUP7 DUP5 GT SWAP1 SWAP6 SUB SWAP5 SWAP1 SWAP5 MUL SWAP2 SWAP1 SWAP5 SUB SWAP3 SWAP1 SWAP3 DIV SWAP2 SWAP1 SWAP2 OR SWAP2 SWAP1 SWAP2 MUL SWAP2 POP POP SWAP4 SWAP3 POP POP POP JUMP JUMPDEST PUSH0 PUSH1 0x2 DUP3 PUSH1 0x3 DUP2 GT ISZERO PUSH2 0xAB0 JUMPI PUSH2 0xAB0 PUSH2 0xE5A JUMP JUMPDEST PUSH2 0xABA SWAP2 SWAP1 PUSH2 0xE6E JUMP JUMPDEST PUSH1 0xFF AND PUSH1 0x1 EQ SWAP1 POP SWAP2 SWAP1 POP JUMP JUMPDEST PUSH0 PUSH2 0xADB PUSH1 0x1 PUSH1 0x1 PUSH1 0xA0 SHL SUB DUP5 AND DUP4 PUSH2 0xB32 JUMP JUMPDEST SWAP1 POP DUP1 MLOAD PUSH0 EQ ISZERO DUP1 ISZERO PUSH2 0xAFF JUMPI POP DUP1 DUP1 PUSH1 0x20 ADD SWAP1 MLOAD DUP2 ADD SWAP1 PUSH2 0xAFD SWAP2 SWAP1 PUSH2 0xE3B JUMP JUMPDEST ISZERO JUMPDEST ISZERO PUSH2 0xB2D JUMPI PUSH1 0x40 MLOAD PUSH4 0x5274AFE7 PUSH1 0xE0 SHL DUP2 MSTORE PUSH1 0x1 PUSH1 0x1 PUSH1 0xA0 SHL SUB DUP5 AND PUSH1 0x4 DUP3 ADD MSTORE PUSH1 0x24 ADD JUMPDEST PUSH1 0x40 MLOAD DUP1 SWAP2 SUB SWAP1 REVERT JUMPDEST POP POP POP JUMP JUMPDEST PUSH1 0x60 PUSH2 0xB3F DUP4 DUP4 PUSH0 PUSH2 0xB48 JUMP JUMPDEST SWAP1 POP JUMPDEST SWAP3 SWAP2 POP POP JUMP JUMPDEST PUSH1 0x60 DUP2 SELFBALANCE LT ISZERO PUSH2 0xB6D JUMPI PUSH1 0x40 MLOAD PUSH4 0xCD786059 PUSH1 0xE0 SHL DUP2 MSTORE ADDRESS PUSH1 0x4 DUP3 ADD MSTORE PUSH1 0x24 ADD PUSH2 0xB24 JUMP JUMPDEST PUSH0 DUP1 DUP6 PUSH1 0x1 PUSH1 0x1 PUSH1 0xA0 SHL SUB AND DUP5 DUP7 PUSH1 0x40 MLOAD PUSH2 0xB88 SWAP2 SWAP1 PUSH2 0xE8F JUMP JUMPDEST PUSH0 PUSH1 0x40 MLOAD DUP1 DUP4 SUB DUP2 DUP6 DUP8 GAS CALL SWAP3 POP POP POP RETURNDATASIZE DUP1 PUSH0 DUP2 EQ PUSH2 0xBC2 JUMPI PUSH1 0x40 MLOAD SWAP2 POP PUSH1 0x1F NOT PUSH1 0x3F RETURNDATASIZE ADD AND DUP3 ADD PUSH1 0x40 MSTORE RETURNDATASIZE DUP3 MSTORE RETURNDATASIZE PUSH0 PUSH1 0x20 DUP5 ADD RETURNDATACOPY PUSH2 0xBC7 JUMP JUMPDEST PUSH1 0x60 SWAP2 POP JUMPDEST POP SWAP2 POP SWAP2 POP PUSH2 0xBD7 DUP7 DUP4 DUP4 PUSH2 0xBE1 JUMP JUMPDEST SWAP7 SWAP6 POP POP POP POP POP POP JUMP JUMPDEST PUSH1 0x60 DUP3 PUSH2 0xBF6 JUMPI PUSH2 0xBF1 DUP3 PUSH2 0xC3D JUMP JUMPDEST PUSH2 0x690 JUMP JUMPDEST DUP2 MLOAD ISZERO DUP1 ISZERO PUSH2 0xC0D JUMPI POP PUSH1 0x1 PUSH1 0x1 PUSH1 0xA0 SHL SUB DUP5 AND EXTCODESIZE ISZERO JUMPDEST ISZERO PUSH2 0xC36 JUMPI PUSH1 0x40 MLOAD PUSH4 0x9996B315 PUSH1 0xE0 SHL DUP2 MSTORE PUSH1 0x1 PUSH1 0x1 PUSH1 0xA0 SHL SUB DUP6 AND PUSH1 0x4 DUP3 ADD MSTORE PUSH1 0x24 ADD PUSH2 0xB24 JUMP JUMPDEST POP DUP1 PUSH2 0x690 JUMP JUMPDEST DUP1 MLOAD ISZERO PUSH2 0xC4D JUMPI DUP1 MLOAD DUP1 DUP3 PUSH1 0x20 ADD REVERT JUMPDEST PUSH1 0x40 MLOAD PUSH4 0xA12F521 PUSH1 0xE1 SHL DUP2 MSTORE PUSH1 0x4 ADD PUSH1 0x40 MLOAD DUP1 SWAP2 SUB SWAP1 REVERT JUMPDEST DUP1 CALLDATALOAD PUSH4 0xFFFFFFFF DUP2 AND DUP2 EQ PUSH2 0xC79 JUMPI PUSH0 DUP1 REVERT JUMPDEST SWAP2 SWAP1 POP JUMP JUMPDEST PUSH0 PUSH1 0x20 DUP3 DUP5 SUB SLT ISZERO PUSH2 0xC8E JUMPI PUSH0 DUP1 REVERT JUMPDEST PUSH2 0xB3F DUP3 PUSH2 0xC66 JUMP JUMPDEST PUSH0 PUSH1 0x20 DUP3 DUP5 SUB SLT ISZERO PUSH2 0xCA7 JUMPI PUSH0 DUP1 REVERT JUMPDEST DUP2 CALLDATALOAD PUSH1 0xFF DUP2 AND DUP2 EQ PUSH2 0x690 JUMPI PUSH0 DUP1 REVERT JUMPDEST PUSH0 PUSH1 0x20 DUP3 DUP5 SUB SLT ISZERO PUSH2 0xCC7 JUMPI PUSH0 DUP1 REVERT JUMPDEST POP CALLDATALOAD SWAP2 SWAP1 POP JUMP JUMPDEST PUSH0 DUP1 PUSH1 0x40 DUP4 DUP6 SUB SLT ISZERO PUSH2 0xCDF JUMPI PUSH0 DUP1 REVERT JUMPDEST DUP3 CALLDATALOAD PUSH1 0x1 PUSH1 0x1 PUSH1 0xA0 SHL SUB DUP2 AND DUP2 EQ PUSH2 0xCF5 JUMPI PUSH0 DUP1 REVERT JUMPDEST SWAP2 POP PUSH2 0xD03 PUSH1 0x20 DUP5 ADD PUSH2 0xC66 JUMP JUMPDEST SWAP1 POP SWAP3 POP SWAP3 SWAP1 POP JUMP JUMPDEST PUSH4 0x4E487B71 PUSH1 0xE0 SHL PUSH0 MSTORE PUSH1 0x11 PUSH1 0x4 MSTORE PUSH1 0x24 PUSH0 REVERT JUMPDEST DUP2 DUP2 SUB DUP2 DUP2 GT ISZERO PUSH2 0xB42 JUMPI PUSH2 0xB42 PUSH2 0xD0C JUMP JUMPDEST PUSH4 0x4E487B71 PUSH1 0xE0 SHL PUSH0 MSTORE PUSH1 0x12 PUSH1 0x4 MSTORE PUSH1 0x24 PUSH0 REVERT JUMPDEST PUSH0 PUSH4 0xFFFFFFFF DUP4 AND DUP1 PUSH2 0xD5C JUMPI PUSH2 0xD5C PUSH2 0xD33 JUMP JUMPDEST DUP1 PUSH4 0xFFFFFFFF DUP5 AND DIV SWAP2 POP POP SWAP3 SWAP2 POP POP JUMP JUMPDEST PUSH1 0xFF DUP2 DUP2 AND DUP4 DUP3 AND ADD SWAP1 DUP2 GT ISZERO PUSH2 0xB42 JUMPI PUSH2 0xB42 PUSH2 0xD0C JUMP JUMPDEST PUSH4 0xFFFFFFFF DUP3 DUP2 AND DUP3 DUP3 AND SUB SWAP1 DUP2 GT ISZERO PUSH2 0xB42 JUMPI PUSH2 0xB42 PUSH2 0xD0C JUMP JUMPDEST PUSH4 0xFFFFFFFF DUP2 DUP2 AND DUP4 DUP3 AND MUL SWAP1 DUP2 AND SWAP1 DUP2 DUP2 EQ PUSH2 0xDC2 JUMPI PUSH2 0xDC2 PUSH2 0xD0C JUMP JUMPDEST POP SWAP3 SWAP2 POP POP JUMP JUMPDEST PUSH4 0xFFFFFFFF DUP2 DUP2 AND DUP4 DUP3 AND ADD SWAP1 DUP2 GT ISZERO PUSH2 0xB42 JUMPI PUSH2 0xB42 PUSH2 0xD0C JUMP JUMPDEST DUP1 DUP3 ADD DUP1 DUP3 GT ISZERO PUSH2 0xB42 JUMPI PUSH2 0xB42 PUSH2 0xD0C JUMP JUMPDEST DUP1 DUP3 MUL DUP2 ISZERO DUP3 DUP3 DIV DUP5 EQ OR PUSH2 0xB42 JUMPI PUSH2 0xB42 PUSH2 0xD0C JUMP JUMPDEST PUSH0 DUP3 PUSH2 0xE1D JUMPI PUSH2 0xE1D PUSH2 0xD33 JUMP JUMPDEST POP DIV SWAP1 JUMP JUMPDEST PUSH1 0xFF DUP3 DUP2 AND DUP3 DUP3 AND SUB SWAP1 DUP2 GT ISZERO PUSH2 0xB42 JUMPI PUSH2 0xB42 PUSH2 0xD0C JUMP JUMPDEST PUSH0 PUSH1 0x20 DUP3 DUP5 SUB SLT ISZERO PUSH2 0xE4B JUMPI PUSH0 DUP1 REVERT JUMPDEST DUP2 MLOAD DUP1 ISZERO ISZERO DUP2 EQ PUSH2 0x690 JUMPI PUSH0 DUP1 REVERT JUMPDEST PUSH4 0x4E487B71 PUSH1 0xE0 SHL PUSH0 MSTORE PUSH1 0x21 PUSH1 0x4 MSTORE PUSH1 0x24 PUSH0 REVERT JUMPDEST PUSH0 PUSH1 0xFF DUP4 AND DUP1 PUSH2 0xE80 JUMPI PUSH2 0xE80 PUSH2 0xD33 JUMP JUMPDEST DUP1 PUSH1 0xFF DUP5 AND MOD SWAP2 POP POP SWAP3 SWAP2 POP POP JUMP JUMPDEST PUSH0 DUP3 MLOAD DUP1 PUSH1 0x20 DUP6 ADD DUP5 MCOPY PUSH0 SWAP3 ADD SWAP2 DUP3 MSTORE POP SWAP2 SWAP1 POP JUMP INVALID LOG2 PUSH5 0x6970667358 0x22 SLT KECCAK256 0xDD 0xF6 0xF8 0xE5 PREVRANDAO BLOBHASH 0xEC XOR 0xEE 0xDD PUSH13 0x327F4FA09BC27FB5DCFF86D5DF 0x23 EXTCODESIZE PUSH16 0xFBC9F2FB7564736F6C634300081A0033 "
		},
		"gasEstimates": {
			"creation": {
				"codeDepositCost": "760600",
				"executionCost": "infinite",
				"totalCost": "infinite"
			},
			"external": {
				"GAP_BETWEEN_CYCLE()": "248",
				"MAX_MINT_CYCLE()": "292",
				"MINT_CYCLE_DURATION()": "270",
				"amountToClaim(address,uint32)": "2654",
				"buyAndBurn()": "infinite",
				"claim(uint8)": "infinite",
				"getCurrentMintCycle()": "infinite",
				"getRatioForCycle(uint32)": "448",
				"inferno()": "2382",
				"mint(uint256)": "infinite",
				"startTimestamp()": "infinite",
				"titanX()": "infinite",
				"totalInfernoClaimed()": "2351",
				"totalInfernoMinted()": "2349",
				"totalTitanXDeposited()": "2305"
			},
			"internal": {
				"_burnAndSendToGenesis(uint256)": "infinite",
				"_distributeToBuyAndBurn(uint256)": "infinite",
				"_getCycleEndTime(uint8)": "infinite"
			}
		},
		"methodIdentifiers": {
			"GAP_BETWEEN_CYCLE()": "8041950b",
			"MAX_MINT_CYCLE()": "c8581e2a",
			"MINT_CYCLE_DURATION()": "8d50a3d9",
			"amountToClaim(address,uint32)": "d09d1977",
			"buyAndBurn()": "aa6df299",
			"claim(uint8)": "95d4063f",
			"getCurrentMintCycle()": "8d9f9810",
			"getRatioForCycle(uint32)": "488fc775",
			"inferno()": "51f29326",
			"mint(uint256)": "a0712d68",
			"startTimestamp()": "e6fd48bc",
			"titanX()": "f9119bbd",
			"totalInfernoClaimed()": "754b6039",
			"totalInfernoMinted()": "eb071b63",
			"totalTitanXDeposited()": "77c18c73"
		}
	},
	"abi": [
		{
			"inputs": [
				{
					"internalType": "address",
					"name": "_buyAndBurn",
					"type": "address"
				},
				{
					"internalType": "address",
					"name": "_titanX",
					"type": "address"
				},
				{
					"internalType": "uint32",
					"name": "_startTimestamp",
					"type": "uint32"
				}
			],
			"stateMutability": "payable",
			"type": "constructor"
		},
		{
			"inputs": [
				{
					"internalType": "address",
					"name": "target",
					"type": "address"
				}
			],
			"name": "AddressEmptyCode",
			"type": "error"
		},
		{
			"inputs": [
				{
					"internalType": "address",
					"name": "account",
					"type": "address"
				}
			],
			"name": "AddressInsufficientBalance",
			"type": "error"
		},
		{
			"inputs": [],
			"name": "CycleIsOver",
			"type": "error"
		},
		{
			"inputs": [],
			"name": "CycleStillOngoing",
			"type": "error"
		},
		{
			"inputs": [],
			"name": "FailedInnerCall",
			"type": "error"
		},
		{
			"inputs": [],
			"name": "InvalidInput",
			"type": "error"
		},
		{
			"inputs": [],
			"name": "InvalidStartTime",
			"type": "error"
		},
		{
			"inputs": [],
			"name": "MathOverflowedMulDiv",
			"type": "error"
		},
		{
			"inputs": [],
			"name": "NoInfernoToClaim",
			"type": "error"
		},
		{
			"inputs": [],
			"name": "NotStartedYet",
			"type": "error"
		},
		{
			"inputs": [
				{
					"internalType": "address",
					"name": "token",
					"type": "address"
				}
			],
			"name": "SafeERC20FailedOperation",
			"type": "error"
		},
		{
			"anonymous": false,
			"inputs": [
				{
					"indexed": true,
					"internalType": "address",
					"name": "user",
					"type": "address"
				},
				{
					"indexed": false,
					"internalType": "uint256",
					"name": "infernoAmount",
					"type": "uint256"
				},
				{
					"indexed": true,
					"internalType": "uint8",
					"name": "mintCycleId",
					"type": "uint8"
				}
			],
			"name": "ClaimExecuted",
			"type": "event"
		},
		{
			"anonymous": false,
			"inputs": [
				{
					"indexed": true,
					"internalType": "address",
					"name": "user",
					"type": "address"
				},
				{
					"indexed": false,
					"internalType": "uint256",
					"name": "infernoAmount",
					"type": "uint256"
				},
				{
					"indexed": true,
					"internalType": "uint32",
					"name": "mintCycleId",
					"type": "uint32"
				}
			],
			"name": "MintExecuted",
			"type": "event"
		},
		{
			"inputs": [],
			"name": "GAP_BETWEEN_CYCLE",
			"outputs": [
				{
					"internalType": "uint32",
					"name": "",
					"type": "uint32"
				}
			],
			"stateMutability": "view",
			"type": "function"
		},
		{
			"inputs": [],
			"name": "MAX_MINT_CYCLE",
			"outputs": [
				{
					"internalType": "uint8",
					"name": "",
					"type": "uint8"
				}
			],
			"stateMutability": "view",
			"type": "function"
		},
		{
			"inputs": [],
			"name": "MINT_CYCLE_DURATION",
			"outputs": [
				{
					"internalType": "uint32",
					"name": "",
					"type": "uint32"
				}
			],
			"stateMutability": "view",
			"type": "function"
		},
		{
			"inputs": [
				{
					"internalType": "address",
					"name": "user",
					"type": "address"
				},
				{
					"internalType": "uint32",
					"name": "cycleId",
					"type": "uint32"
				}
			],
			"name": "amountToClaim",
			"outputs": [
				{
					"internalType": "uint256",
					"name": "amount",
					"type": "uint256"
				}
			],
			"stateMutability": "view",
			"type": "function"
		},
		{
			"inputs": [],
			"name": "buyAndBurn",
			"outputs": [
				{
					"internalType": "contract InfernoBuyAndBurn",
					"name": "",
					"type": "address"
				}
			],
			"stateMutability": "view",
			"type": "function"
		},
		{
			"inputs": [
				{
					"internalType": "uint8",
					"name": "_cycleId",
					"type": "uint8"
				}
			],
			"name": "claim",
			"outputs": [],
			"stateMutability": "nonpayable",
			"type": "function"
		},
		{
			"inputs": [],
			"name": "getCurrentMintCycle",
			"outputs": [
				{
					"internalType": "uint32",
					"name": "currentCycle",
					"type": "uint32"
				},
				{
					"internalType": "uint32",
					"name": "startsAt",
					"type": "uint32"
				},
				{
					"internalType": "uint32",
					"name": "endsAt",
					"type": "uint32"
				}
			],
			"stateMutability": "view",
			"type": "function"
		},
		{
			"inputs": [
				{
					"internalType": "uint32",
					"name": "cycleId",
					"type": "uint32"
				}
			],
			"name": "getRatioForCycle",
			"outputs": [
				{
					"internalType": "uint256",
					"name": "ratio",
					"type": "uint256"
				}
			],
			"stateMutability": "pure",
			"type": "function"
		},
		{
			"inputs": [],
			"name": "inferno",
			"outputs": [
				{
					"internalType": "contract Inferno",
					"name": "",
					"type": "address"
				}
			],
			"stateMutability": "view",
			"type": "function"
		},
		{
			"inputs": [
				{
					"internalType": "uint256",
					"name": "_amount",
					"type": "uint256"
				}
			],
			"name": "mint",
			"outputs": [],
			"stateMutability": "nonpayable",
			"type": "function"
		},
		{
			"inputs": [],
			"name": "startTimestamp",
			"outputs": [
				{
					"internalType": "uint32",
					"name": "",
					"type": "uint32"
				}
			],
			"stateMutability": "view",
			"type": "function"
		},
		{
			"inputs": [],
			"name": "titanX",
			"outputs": [
				{
					"internalType": "contract IERC20",
					"name": "",
					"type": "address"
				}
			],
			"stateMutability": "view",
			"type": "function"
		},
		{
			"inputs": [],
			"name": "totalInfernoClaimed",
			"outputs": [
				{
					"internalType": "uint256",
					"name": "",
					"type": "uint256"
				}
			],
			"stateMutability": "view",
			"type": "function"
		},
		{
			"inputs": [],
			"name": "totalInfernoMinted",
			"outputs": [
				{
					"internalType": "uint256",
					"name": "",
					"type": "uint256"
				}
			],
			"stateMutability": "view",
			"type": "function"
		},
		{
			"inputs": [],
			"name": "totalTitanXDeposited",
			"outputs": [
				{
					"internalType": "uint256",
					"name": "",
					"type": "uint256"
				}
			],
			"stateMutability": "view",
			"type": "function"
		}
	]
}