{
	"data": {
		"bytecode": {
			"linkReferences": {},
			"object": "61012060408190526009805460ff1916605a1790556135123881900390819083398101604081905261003091610122565b60015f55806001600160a01b03811661006257604051631e4fbdf760e01b81525f600482015260240160405180910390fd5b61006b8161009a565b505063ffffffff909316610100526001600160a01b0390811660c0523360e05291821660a0521660805261018d565b600280546001600160a01b03191690556100b3816100b6565b50565b600180546001600160a01b038381166001600160a01b0319831681179093556040519116919082907f8be0079c531659141344cd1fd0a4f28419497f9722a3daafe3b4186f6b6457e0905f90a35050565b80516001600160a01b038116811461011d575f80fd5b919050565b5f805f805f60a08688031215610136575f80fd5b855163ffffffff81168114610149575f80fd5b945061015760208701610107565b935061016560408701610107565b925061017360608701610107565b915061018160808701610107565b90509295509295909350565b60805160a05160c05160e051610100516132a06102725f395f818161041701528181610aa8015281816115cf0152818161165001526116b401525f8181610299015281816104ad01528181610547015281816106b7015281816109f701528181610e6801528181610f510152818161145101526121cf01525f81816105f80152818161093701528181610b0601528181610b42015281816111360152818161127801526112d401525f81816108ea01528181610cfa01528181610f30015281816113270152818161143001528181612111015261219701525f610f8401526132a05ff3fe608060405234801561000f575f80fd5b50600436106101a1575f3560e01c8063782ee170116100f3578063c2dd37e211610093578063df49d3151161006e578063df49d315146103db578063e30c3978146103ee578063f2fde38b146103ff578063f38d00f014610412575f80fd5b8063c2dd37e2146103a2578063c8a507f0146103ab578063d9443923146103be575f80fd5b80639f0e9460116100ce5780639f0e946014610316578063aba0587014610329578063ad1b63f41461033c578063c1b309ec1461038f575f80fd5b8063782ee170146102ed57806379ba5097146102fd5780638da5cb5b14610305575f80fd5b80632ec9c3b41161015e57806348cd53151161013957806348cd5315146102945780635dee31a7146102bb5780636aadede7146102ce578063715018a6146102e5575f80fd5b80632ec9c3b41461025157806330dc71ac1461026457806340f6ac3114610277575f80fd5b8063090f8ad4146101a5578063158a3b12146101d45780631bea83fe146101e7578063225a46991461021a57806327ab48eb146102345780632d8a19fe1461023e575b5f80fd5b6004546101ba90610100900463ffffffff1681565b60405163ffffffff90911681526020015b60405180910390f35b6101ba6101e2366004612783565b610439565b61020273c36442b4a4522e871399cd717abdd847ab11fe8881565b6040516001600160a01b0390911681526020016101cb565b610222610487565b60405160ff90911681526020016101cb565b61023c610496565b005b61023c61024c36600461279e565b6105a9565b6101ba61025f366004612783565b6109b1565b61023c6102723660046127c8565b6109d5565b61027f610bb9565b604080519283526020830191909152016101cb565b6102027f000000000000000000000000000000000000000000000000000000000000000081565b61023c6102c93660046127ed565b610d7c565b6102d760085481565b6040519081526020016101cb565b61023c610dcd565b6007546101ba9063ffffffff1681565b61023c610de0565b6001546001600160a01b0316610202565b6101ba6103243660046127ed565b610e29565b6102d76103373660046127c8565b610e64565b61036f61034a366004612783565b60066020525f90815260409020546001600160801b0380821691600160801b90041682565b604080516001600160801b039384168152929091166020830152016101cb565b6102d761039d3660046127c8565b610f80565b6102d760055481565b61023c6103b9366004612808565b611035565b6004546103cb9060ff1681565b60405190151581526020016101cb565b6102226103e9366004612783565b61119c565b6002546001600160a01b0316610202565b61023c61040d36600461284a565b6111d4565b6101ba7f000000000000000000000000000000000000000000000000000000000000000081565b5f8061044761c4e084612879565b90505f61045762015180836128a9565b90505f6104658260016128d0565b61047290620151806128ec565b61047e9061c4e06128d0565b95945050505050565b5f6104914261119c565b905090565b6040516370a0823160e01b81523060048201525f907f00000000000000000000000000000000000000000000000000000000000000006001600160a01b0316906370a0823190602401602060405180830381865afa1580156104fa573d5f803e3d5ffd5b505050506040513d601f19601f8201168201806040525081019061051e9190612912565b90508060055461052e9190612929565b600555604051630852cd8d60e31b8152600481018290527f00000000000000000000000000000000000000000000000000000000000000006001600160a01b0316906342966c68906024015f604051808303815f87803b158015610590575f80fd5b505af11580156105a2573d5f803e3d5ffd5b5050505050565b6105b1611245565b60045460ff16156105d557604051630fd02b6d60e41b815260040160405180910390fd5b6040516370a0823160e01b81523060048201526ba18f07d736b90be550000000907f00000000000000000000000000000000000000000000000000000000000000006001600160a01b0316906370a0823190602401602060405180830381865afa158015610645573d5f803e3d5ffd5b505050506040513d601f19601f820116820180604052508101906106699190612912565b101561068857604051631bbc2d7d60e21b815260040160405180910390fd5b6004805460ff191660011790555f6106b36ba18f07d736b90be5500000008363ffffffff8616611272565b90507f00000000000000000000000000000000000000000000000000000000000000006001600160a01b0316639bed7b6c6040518163ffffffff1660e01b81526004015f604051808303815f87803b15801561070d575f80fd5b505af115801561071f573d5f803e3d5ffd5b505050505f805f805f8061073f876ba18f07d736b90be550000000611428565b95509550955095509550955061076a8273c36442b4a4522e871399cd717abdd847ab11fe88886114d9565b6107898173c36442b4a4522e871399cd717abdd847ab11fe88876114d9565b5f604051806101600160405280846001600160a01b03168152602001836001600160a01b0316815260200161271062ffffff16815260200160c880620d89e7196107d3919061293c565b6107dd9190612974565b60020b815260200160c8806107f5620d89e719612993565b6107ff919061293c565b6108099190612974565b60020b8152602001888152602001878152602001868152602001858152602001306001600160a01b031681526020018b63ffffffff1681525090505f73c36442b4a4522e871399cd717abdd847ab11fe886001600160a01b03166388316456836040518263ffffffff1660e01b815260040161088591906129b3565b6080604051808303815f875af11580156108a1573d5f803e3d5ffd5b505050506040513d601f19601f820116820180604052508101906108c59190612a77565b50506040805180820182526001600160f81b0384168082526001600160a01b038981167f00000000000000000000000000000000000000000000000000000000000000008216146020909301839052600160f81b9092021760035590516370a0823160e01b81523060048201529293507f000000000000000000000000000000000000000000000000000000000000000016916370a082319150602401602060405180830381865afa15801561097d573d5f803e3d5ffd5b505050506040513d601f19601f820116820180604052508101906109a19190612912565b6008555050505050505050505050565b5f806109bf61c4e084612879565b90506109ce62015180826128a9565b9392505050565b805f036109f55760405163b4fa3fb360e01b815260040160405180910390fd5b7f00000000000000000000000000000000000000000000000000000000000000006001600160a01b0316637dc2268c6040518163ffffffff1660e01b8152600401602060405180830381865afa158015610a51573d5f803e3d5ffd5b505050506040513d601f19601f82011682018060405250810190610a759190612abe565b6001600160a01b0316336001600160a01b031614610aa65760405163c004a90b60e01b815260040160405180910390fd5b7f000000000000000000000000000000000000000000000000000000000000000063ffffffff1642118015610af4575060045461070890610af290610100900463ffffffff1642612ad9565b115b15610b0157610b016115cd565b610b2d7f00000000000000000000000000000000000000000000000000000000000000003330846117bf565b6040516370a0823160e01b81523060048201527f00000000000000000000000000000000000000000000000000000000000000006001600160a01b0316906370a0823190602401602060405180830381865afa158015610b8f573d5f803e3d5ffd5b505050506040513d601f19601f82011682018060405250810190610bb39190612912565b60085550565b6040805180820182526003546001600160f81b038082168352600160f81b90910460ff161515602080840191909152835160808101855283519092168252309082019081526001600160801b0382850181815260608401828152955163fc6f786560e01b81528451600482015292516001600160a01b031660248401525181166044830152935190931660648401525f928392919073c36442b4a4522e871399cd717abdd847ab11fe889063fc6f78659060840160408051808303815f875af1158015610c88573d5f803e3d5ffd5b505050506040513d601f19601f82011682018060405250810190610cac9190612aec565b602084015191955093505f90610cc3578385610cc6565b84845b5060405163a9059cbb60e01b81527384c17675a19be90788cbc7d455b2aeb7ebf650b46004820152602481018290529091507f00000000000000000000000000000000000000000000000000000000000000006001600160a01b03169063a9059cbb906044016020604051808303815f875af1158015610d48573d5f803e3d5ffd5b505050506040513d601f19601f82011682018060405250810190610d6c9190612b1d565b50610d75610496565b5050509091565b610d84611245565b60648160ff161180610d99575060028160ff16105b15610db75760405163b4fa3fb360e01b815260040160405180910390fd5b6009805460ff191660ff92909216919091179055565b610dd5611245565b610dde5f6118bc565b565b60025433906001600160a01b03168114610e1d5760405163118cdaa760e01b81526001600160a01b03821660048201526024015b60405180910390fd5b610e26816118bc565b50565b610190600560ff83161480610e4157508160ff166006145b15610e4f57506105dc919050565b8160ff16600403610e5f57506103e85b919050565b5f807f00000000000000000000000000000000000000000000000000000000000000006001600160a01b031663e80c20e06040518163ffffffff1660e01b8152600401602060405180830381865afa158015610ec2573d5f803e3d5ffd5b505050506040513d601f19601f82011682018060405250810190610ee69190612abe565b90506103845f610ef5836118d5565b90508163ffffffff168163ffffffff161015610f0f578091505b5f610f1a8484611a8d565b5090505f610f2782611cc2565b9050610f7581887f00000000000000000000000000000000000000000000000000000000000000007f0000000000000000000000000000000000000000000000000000000000000000611fdd565b979650505050505050565b5f807f000000000000000000000000000000000000000000000000000000000000000090505f80826001600160a01b0316630902f1ac6040518163ffffffff1660e01b8152600401606060405180830381865afa158015610fe3573d5f803e3d5ffd5b505050506040513d601f19601f820116820180604052508101906110079190612b4c565b5091509150816001600160701b0316816001600160701b03168661102b9190612b90565b61047e9190612ba7565b61103d6120b7565b6110456115cd565b60045460ff1661106857604051631864d7ab60e21b815260040160405180910390fd5b60075463ffffffff165f9081526006602052604090208054600160801b90046001600160801b0316156110ae576040516331bbcb2160e11b815260040160405180910390fd5b80546001600160801b03908116600160801b810280821784555f92612710926110db926096921617612b90565b6110e59190612ba7565b82549091505f906111009083906001600160801b0316612ad9565b90505f61111482878763ffffffff16611272565b90505f611127828763ffffffff166120df565b9050611131610496565b61115c7f000000000000000000000000000000000000000000000000000000000000000033866122e6565b6040513390829085907f1b3ed074dce570943c9d4e66776a060e8ac73af4f6b002482b09e561d90f038c905f90a4505050505061119860015f55565b5050565b5f6007620151806111af61c4e085612879565b6111b991906128a9565b6111c49060046128d0565b6111ce9190612bba565b92915050565b6111dc611245565b600280546001600160a01b0383166001600160a01b0319909116811790915561120d6001546001600160a01b031690565b6001600160a01b03167f38d16b8cac22d99fc7c124b9cd0de2d3fa1faef420bfe791d8c362d765e2270060405160405180910390a350565b6001546001600160a01b03163314610dde5760405163118cdaa760e01b8152336004820152602401610e14565b5f6112b27f0000000000000000000000000000000000000000000000000000000000000000737a250d5630b4cf539739df2c5dacb4c659f2488d866114d9565b6040805160028082526060820183525f926020830190803683370190505090507f0000000000000000000000000000000000000000000000000000000000000000815f8151811061130557611305612bf5565b60200260200101906001600160a01b031690816001600160a01b0316815250507f00000000000000000000000000000000000000000000000000000000000000008160018151811061135957611359612bf5565b6001600160a01b03909216602092830291909101909101526040516338ed173960e01b81525f90737a250d5630b4cf539739df2c5dacb4c659f2488d906338ed1739906113b29089908990879030908b90600401612c09565b5f604051808303815f875af11580156113cd573d5f803e3d5ffd5b505050506040513d5f823e601f3d908101601f191682016040526113f49190810190612ccd565b905080600182516114059190612ad9565b8151811061141557611415612bf5565b6020026020010151925050509392505050565b5f80808080807f00000000000000000000000000000000000000000000000000000000000000007f00000000000000000000000000000000000000000000000000000000000000006001600160a01b038082169083161061148a57808261148d565b81815b90945092506001600160a01b03808516908316146114ac57888a6114af565b89895b90985096506114bd886123da565b6114c6886123da565b989b979a50985092959194509092505050565b604080516001600160a01b038481166024830152604480830185905283518084039091018152606490920183526020820180516001600160e01b031663095ea7b360e01b17905291515f928392908716916115349190612d59565b5f604051808303815f865af19150503d805f811461156d576040519150601f19603f3d011682016040523d82523d5f602084013e611572565b606091505b509150915081801561159c57508051158061159c57508080602001905181019061159c9190612b1d565b6105a25760405162461bcd60e51b8152602060048201526002602482015261534160f01b6044820152606401610e14565b7f000000000000000000000000000000000000000000000000000000000000000063ffffffff1642101561161457604051631864d7ab60e21b815260040160405180910390fd5b6004545f90610100900463ffffffff16156116465760045461164190610100900463ffffffff1642612ad9565b611676565b61167663ffffffff7f00000000000000000000000000000000000000000000000000000000000000001642612ad9565b90505f805f805f600460019054906101000a900463ffffffff1663ffffffff165f036116de576116ab8663ffffffff166123f4565b919650945092507f0000000000000000000000000000000000000000000000000000000000000000915060019050611727565b61070863ffffffff87161115611727576116fd8663ffffffff166123f4565b6004549297509095509350610100900463ffffffff169150600190508261172381612d6f565b9350505b80156117b75761173d61070861ffff85166128ec565b61174790836128d0565b6004805463ffffffff9283166101000264ffffffff00199091161790556040805180820182526001600160801b0380881682525f6020808401828152958b168083526006909152939020915193518116600160801b029316929092179091556007805463ffffffff191690911790555b505050505050565b604080516001600160a01b0385811660248301528481166044830152606480830185905283518084039091018152608490920183526020820180516001600160e01b03166323b872dd60e01b17905291515f928392908816916118229190612d59565b5f604051808303815f865af19150503d805f811461185b576040519150601f19603f3d011682016040523d82523d5f602084013e611860565b606091505b509150915081801561188a57508051158061188a57508080602001905181019061188a9190612b1d565b6117b75760405162461bcd60e51b815260206004820152600360248201526229aa2360e91b6044820152606401610e14565b600280546001600160a01b0319169055610e2681612601565b5f805f836001600160a01b0316633850c7bd6040518163ffffffff1660e01b815260040160e060405180830381865afa158015611914573d5f803e3d5ffd5b505050506040513d601f19601f820116820180604052508101906119389190612da0565b5050509350935050505f8161ffff16116119795760405162461bcd60e51b81526020600482015260026024820152614e4960f01b6044820152606401610e14565b5f806001600160a01b03861663252c09d784611996876001612e2e565b6119a09190612e48565b6040516001600160e01b031960e084901b16815261ffff9091166004820152602401608060405180830381865afa1580156119dd573d5f803e3d5ffd5b505050506040513d601f19601f82011682018060405250810190611a019190612e7c565b93505050915080611a795760405163252c09d760e01b81525f60048201526001600160a01b0387169063252c09d790602401608060405180830381865afa158015611a4e573d5f803e3d5ffd5b505050506040513d601f19601f82011682018060405250810190611a729190612e7c565b5091935050505b611a838242612879565b9695505050505050565b5f808263ffffffff165f03611ac95760405162461bcd60e51b8152602060048201526002602482015261042560f41b6044820152606401610e14565b6040805160028082526060820183525f9260208301908036833701905050905083815f81518110611afc57611afc612bf5565b602002602001019063ffffffff16908163ffffffff16815250505f81600181518110611b2a57611b2a612bf5565b602002602001019063ffffffff16908163ffffffff16815250505f80866001600160a01b031663883bdbfd846040518263ffffffff1660e01b8152600401611b729190612ed1565b5f60405180830381865afa158015611b8c573d5f803e3d5ffd5b505050506040513d5f823e601f3d908101601f19168201604052611bb39190810190612f87565b915091505f825f81518110611bca57611bca612bf5565b602002602001015183600181518110611be557611be5612bf5565b6020026020010151611bf7919061304c565b90505f825f81518110611c0c57611c0c612bf5565b602002602001015183600181518110611c2757611c27612bf5565b6020026020010151611c399190613079565b905063ffffffff8816611c4c8184613098565b97505f8360060b128015611c6b5750611c6581846130cb565b60060b15155b15611c7e5787611c7a816130ec565b9850505b63ffffffff8916640100000000600160c01b03602084901b16611ca86001600160a01b038361310d565b611cb2919061313e565b9750505050505050509250929050565b5f805f8360020b12611cd7578260020b611cde565b8260020b5f035b9050620d89e8811115611d04576040516315e4079d60e11b815260040160405180910390fd5b5f816001165f03611d1957600160801b611d2b565b6ffffcb933bd6fad37aa2d162d1a5940015b70ffffffffffffffffffffffffffffffffff1690506002821615611d5f576ffff97272373d413259a46990580e213a0260801c5b6004821615611d7e576ffff2e50f5f656932ef12357cf3c7fdcc0260801c5b6008821615611d9d576fffe5caca7e10e4e61c3624eaa0941cd00260801c5b6010821615611dbc576fffcb9843d60f6159c9db58835c9266440260801c5b6020821615611ddb576fff973b41fa98c081472e6896dfb254c00260801c5b6040821615611dfa576fff2ea16466c96a3843ec78b326b528610260801c5b6080821615611e19576ffe5dee046a99a2a811c461f1969c30530260801c5b610100821615611e39576ffcbe86c7900a88aedcffc83b479aa3a40260801c5b610200821615611e59576ff987a7253ac413176f2b074cf7815e540260801c5b610400821615611e79576ff3392b0822b70005940c7a398e4b70f30260801c5b610800821615611e99576fe7159475a2c29b7443b29c7fa6e889d90260801c5b611000821615611eb9576fd097f3bdfd2022b8845ad8f792aa58250260801c5b612000821615611ed9576fa9f746462d870fdf8a65dc1f90e061e50260801c5b614000821615611ef9576f70d869a156d2a1b890bb3df62baf32f70260801c5b618000821615611f19576f31be135f97d08fd981231505542fcfa60260801c5b62010000821615611f3a576f09aa508b5b7a84e1c677de54f3e99bc90260801c5b62020000821615611f5a576e5d6af8dedb81196699c329225ee6040260801c5b62040000821615611f79576d2216e584f5fa1ea926041bedfe980260801c5b62080000821615611f96576b048a170391f7dc42444e8fa20260801c5b5f8460020b1315611fb557805f1981611fb157611fb1612895565b0490505b640100000000810615611fc9576001611fcb565b5f5b60ff16602082901c0192505050919050565b5f6001600160801b036001600160a01b0386161161204f575f6120096001600160a01b03871680612b90565b9050826001600160a01b0316846001600160a01b03161061203857612033600160c01b8683612652565b612047565b6120478186600160c01b612652565b9150506120af565b5f61206d6001600160a01b0387168068010000000000000000612652565b9050826001600160a01b0316846001600160a01b03161061209c57612097600160801b8683612652565b6120ab565b6120ab8186600160801b612652565b9150505b949350505050565b60025f54036120d957604051633ee5aeb560e01b815260040160405180910390fd5b60025f55565b60405163095ea7b360e01b815273e592427a0aece92de3edee1f18e0157c058615646004820152602481018390525f907f00000000000000000000000000000000000000000000000000000000000000006001600160a01b03169063095ea7b3906044016020604051808303815f875af115801561215f573d5f803e3d5ffd5b505050506040513d601f19601f820116820180604052508101906121839190612b1d565b506040516bffffffffffffffffffffffff197f0000000000000000000000000000000000000000000000000000000000000000606090811b8216602084015261027160ec1b60348401527f0000000000000000000000000000000000000000000000000000000000000000901b1660378201525f90604b0160405160208183030381529060405290505f61221685610e64565b6009549091505f9060649061222e9060ff168261316c565b61223b9060ff1684612b90565b6122459190612ba7565b6040805160a0810182528581523060208201528082018890526060810189905260808101839052905163c04b8d5960e01b81529192509073e592427a0aece92de3edee1f18e0157c058615649063c04b8d59906122a6908490600401613185565b6020604051808303815f875af11580156122c2573d5f803e3d5ffd5b505050506040513d601f19601f82011682018060405250810190610f759190612912565b604080516001600160a01b038481166024830152604480830185905283518084039091018152606490920183526020820180516001600160e01b031663a9059cbb60e01b17905291515f928392908716916123419190612d59565b5f604051808303815f865af19150503d805f811461237a576040519150601f19603f3d011682016040523d82523d5f602084013e61237f565b606091505b50915091508180156123a95750805115806123a95750808060200190518101906123a99190612b1d565b6105a25760405162461bcd60e51b815260206004820152600260248201526114d560f21b6044820152606401610e14565b5f6127106123ea83612328612b90565b6111ce9190612ba7565b5f805f61240084612711565b60075490915061241b9061ffff83169063ffffffff166128d0565b6124269060016128d0565b92505f612432426109b1565b6004549091505f90610100900463ffffffff16156124665760045461246190610100900463ffffffff166109b1565b612468565b815b90508063ffffffff168263ffffffff16036124de575f61271061248c610324610487565b63ffffffff1660085461249f9190612b90565b6124a99190612ba7565b90505f6124b7603083612ba7565b90505f6124c861ffff8716836131f4565b90506124d48183613216565b96505050506125df565b600454610100900463ffffffff165f6124f682610439565b90505b8263ffffffff168463ffffffff16106125dc575f8163ffffffff16421061253057612525600183612879565b63ffffffff16612532565b425b90505f6107086125428584612879565b61254c91906128a9565b90505f61271061255e6103248561119c565b63ffffffff166008546125719190612b90565b61257b9190612ba7565b90505f612589603083612ba7565b905061259b63ffffffff8416826131f4565b6125a5908b613216565b99506125b361070886612879565b95506125c46101e2876107086128d0565b9450866125d081613235565b975050505050506124f9565b50505b600854846001600160801b031611156125f85760085493505b50509193909250565b600180546001600160a01b038381166001600160a01b0319831681179093556040519116919082907f8be0079c531659141344cd1fd0a4f28419497f9722a3daafe3b4186f6b6457e0905f90a35050565b5f838302815f1985870982811083820303915050805f036126865783828161267c5761267c612895565b04925050506109ce565b8084116126a65760405163227bc15360e01b815260040160405180910390fd5b5f848688095f868103871696879004966002600389028118808a02820302808a02820302808a02820302808a02820302808a02820302808a02909103029181900381900460010186841190950394909402919094039290920491909117919091029150509392505050565b6004545f90610100900463ffffffff168103612749576107088211156127425761273d61070883612ba7565b6111ce565b5f92915050565b61070882111561276b57600161276161070884612ba7565b61273d9190613250565b505f919050565b63ffffffff81168114610e26575f80fd5b5f60208284031215612793575f80fd5b81356109ce81612772565b5f80604083850312156127af575f80fd5b82356127ba81612772565b946020939093013593505050565b5f602082840312156127d8575f80fd5b5035919050565b60ff81168114610e26575f80fd5b5f602082840312156127fd575f80fd5b81356109ce816127df565b5f8060408385031215612819575f80fd5b82359150602083013561282b81612772565b809150509250929050565b6001600160a01b0381168114610e26575f80fd5b5f6020828403121561285a575f80fd5b81356109ce81612836565b634e487b7160e01b5f52601160045260245ffd5b63ffffffff82811682821603908111156111ce576111ce612865565b634e487b7160e01b5f52601260045260245ffd5b5f63ffffffff8316806128be576128be612895565b8063ffffffff84160491505092915050565b63ffffffff81811683821601908111156111ce576111ce612865565b63ffffffff818116838216029081169081811461290b5761290b612865565b5092915050565b5f60208284031215612922575f80fd5b5051919050565b808201808211156111ce576111ce612865565b5f8160020b8360020b8061295257612952612895565b627fffff1982145f198214161561296b5761296b612865565b90059392505050565b5f8260020b8260020b028060020b915080821461290b5761290b612865565b5f8160020b627fffff1981036129ab576129ab612865565b5f0392915050565b81516001600160a01b03168152610160810160208301516129df60208401826001600160a01b03169052565b5060408301516129f6604084018262ffffff169052565b506060830151612a0b606084018260020b9052565b506080830151612a20608084018260020b9052565b5060a083015160a083015260c083015160c083015260e083015160e0830152610100830151610100830152610120830151612a676101208401826001600160a01b03169052565b5061014092830151919092015290565b5f805f8060808587031215612a8a575f80fd5b845160208601519094506001600160801b0381168114612aa8575f80fd5b6040860151606090960151949790965092505050565b5f60208284031215612ace575f80fd5b81516109ce81612836565b818103818111156111ce576111ce612865565b5f8060408385031215612afd575f80fd5b505080516020909101519092909150565b80518015158114610e5f575f80fd5b5f60208284031215612b2d575f80fd5b6109ce82612b0e565b80516001600160701b0381168114610e5f575f80fd5b5f805f60608486031215612b5e575f80fd5b612b6784612b36565b9250612b7560208501612b36565b91506040840151612b8581612772565b809150509250925092565b80820281158282048414176111ce576111ce612865565b5f82612bb557612bb5612895565b500490565b5f63ffffffff831680612bcf57612bcf612895565b8063ffffffff84160691505092915050565b634e487b7160e01b5f52604160045260245ffd5b634e487b7160e01b5f52603260045260245ffd5b5f60a0820187835286602084015260a0604084015280865180835260c0850191506020880192505f5b81811015612c595783516001600160a01b0316835260209384019390920191600101612c32565b50506001600160a01b039590951660608401525050608001529392505050565b604051601f8201601f1916810167ffffffffffffffff81118282101715612ca257612ca2612be1565b604052919050565b5f67ffffffffffffffff821115612cc357612cc3612be1565b5060051b60200190565b5f60208284031215612cdd575f80fd5b815167ffffffffffffffff811115612cf3575f80fd5b8201601f81018413612d03575f80fd5b8051612d16612d1182612caa565b612c79565b8082825260208201915060208360051b850101925086831115612d37575f80fd5b6020840193505b82841015611a83578351825260209384019390910190612d3e565b5f82518060208501845e5f920191825250919050565b5f61ffff821661ffff8103612d8657612d86612865565b60010192915050565b805161ffff81168114610e5f575f80fd5b5f805f805f805f60e0888a031215612db6575f80fd5b8751612dc181612836565b8097505060208801518060020b8114612dd8575f80fd5b9550612de660408901612d8f565b9450612df460608901612d8f565b9350612e0260808901612d8f565b925060a0880151612e12816127df565b9150612e2060c08901612b0e565b905092959891949750929550565b61ffff81811683821601908111156111ce576111ce612865565b5f61ffff831680612e5b57612e5b612895565b8061ffff84160691505092915050565b8051600681900b8114610e5f575f80fd5b5f805f8060808587031215612e8f575f80fd5b8451612e9a81612772565b9350612ea860208601612e6b565b92506040850151612eb881612836565b9150612ec660608601612b0e565b905092959194509250565b602080825282518282018190525f918401906040840190835b81811015612f0e57835163ffffffff16835260209384019390920191600101612eea565b509095945050505050565b5f82601f830112612f28575f80fd5b8151612f36612d1182612caa565b8082825260208201915060208360051b860101925085831115612f57575f80fd5b602085015b83811015612f7d578051612f6f81612836565b835260209283019201612f5c565b5095945050505050565b5f8060408385031215612f98575f80fd5b825167ffffffffffffffff811115612fae575f80fd5b8301601f81018513612fbe575f80fd5b8051612fcc612d1182612caa565b8082825260208201915060208360051b850101925087831115612fed575f80fd5b6020840193505b828410156130165761300584612e6b565b825260209384019390910190612ff4565b80955050505050602083015167ffffffffffffffff811115613036575f80fd5b61304285828601612f19565b9150509250929050565b600682810b9082900b03667fffffffffffff198112667fffffffffffff821317156111ce576111ce612865565b6001600160a01b0382811682821603908111156111ce576111ce612865565b5f8160060b8360060b806130ae576130ae612895565b667fffffffffffff1982145f198214161561296b5761296b612865565b5f8260060b806130dd576130dd612895565b808360060b0791505092915050565b5f8160020b627fffff19810361310457613104612865565b5f190192915050565b6001600160c01b0381811683821681810290921691818304811482151761313657613136612865565b505092915050565b5f6001600160c01b0383168061315657613156612895565b6001600160c01b03929092169190910492915050565b60ff82811682821603908111156111ce576111ce612865565b602081525f825160a0602084015280518060c0850152806020830160e086015e5f60e0828601015260018060a01b0360208601511660408501526040850151606085015260608501516080850152608085015160a085015260e0601f19601f8301168501019250505092915050565b6001600160801b03818116838216029081169081811461290b5761290b612865565b6001600160801b0381811683821601908111156111ce576111ce612865565b5f63ffffffff821663ffffffff8103612d8657612d86612865565b61ffff82811682821603908111156111ce576111ce61286556fea26469706673582212207a5fa5ec7b30dafbab70b6e755c42ab10fe039aed4d9a9ff58230e4d0999c93f64736f6c634300081a0033",
			"opcodes": "PUSH2 0x120 PUSH1 0x40 DUP2 SWAP1 MSTORE PUSH1 0x9 DUP1 SLOAD PUSH1 0xFF NOT AND PUSH1 0x5A OR SWAP1 SSTORE PUSH2 0x3512 CODESIZE DUP2 SWAP1 SUB SWAP1 DUP2 SWAP1 DUP4 CODECOPY DUP2 ADD PUSH1 0x40 DUP2 SWAP1 MSTORE PUSH2 0x30 SWAP2 PUSH2 0x122 JUMP JUMPDEST PUSH1 0x1 PUSH0 SSTORE DUP1 PUSH1 0x1 PUSH1 0x1 PUSH1 0xA0 SHL SUB DUP2 AND PUSH2 0x62 JUMPI PUSH1 0x40 MLOAD PUSH4 0x1E4FBDF7 PUSH1 0xE0 SHL DUP2 MSTORE PUSH0 PUSH1 0x4 DUP3 ADD MSTORE PUSH1 0x24 ADD PUSH1 0x40 MLOAD DUP1 SWAP2 SUB SWAP1 REVERT JUMPDEST PUSH2 0x6B DUP2 PUSH2 0x9A JUMP JUMPDEST POP POP PUSH4 0xFFFFFFFF SWAP1 SWAP4 AND PUSH2 0x100 MSTORE PUSH1 0x1 PUSH1 0x1 PUSH1 0xA0 SHL SUB SWAP1 DUP2 AND PUSH1 0xC0 MSTORE CALLER PUSH1 0xE0 MSTORE SWAP2 DUP3 AND PUSH1 0xA0 MSTORE AND PUSH1 0x80 MSTORE PUSH2 0x18D JUMP JUMPDEST PUSH1 0x2 DUP1 SLOAD PUSH1 0x1 PUSH1 0x1 PUSH1 0xA0 SHL SUB NOT AND SWAP1 SSTORE PUSH2 0xB3 DUP2 PUSH2 0xB6 JUMP JUMPDEST POP JUMP JUMPDEST PUSH1 0x1 DUP1 SLOAD PUSH1 0x1 PUSH1 0x1 PUSH1 0xA0 SHL SUB DUP4 DUP2 AND PUSH1 0x1 PUSH1 0x1 PUSH1 0xA0 SHL SUB NOT DUP4 AND DUP2 OR SWAP1 SWAP4 SSTORE PUSH1 0x40 MLOAD SWAP2 AND SWAP2 SWAP1 DUP3 SWAP1 PUSH32 0x8BE0079C531659141344CD1FD0A4F28419497F9722A3DAAFE3B4186F6B6457E0 SWAP1 PUSH0 SWAP1 LOG3 POP POP JUMP JUMPDEST DUP1 MLOAD PUSH1 0x1 PUSH1 0x1 PUSH1 0xA0 SHL SUB DUP2 AND DUP2 EQ PUSH2 0x11D JUMPI PUSH0 DUP1 REVERT JUMPDEST SWAP2 SWAP1 POP JUMP JUMPDEST PUSH0 DUP1 PUSH0 DUP1 PUSH0 PUSH1 0xA0 DUP7 DUP9 SUB SLT ISZERO PUSH2 0x136 JUMPI PUSH0 DUP1 REVERT JUMPDEST DUP6 MLOAD PUSH4 0xFFFFFFFF DUP2 AND DUP2 EQ PUSH2 0x149 JUMPI PUSH0 DUP1 REVERT JUMPDEST SWAP5 POP PUSH2 0x157 PUSH1 0x20 DUP8 ADD PUSH2 0x107 JUMP JUMPDEST SWAP4 POP PUSH2 0x165 PUSH1 0x40 DUP8 ADD PUSH2 0x107 JUMP JUMPDEST SWAP3 POP PUSH2 0x173 PUSH1 0x60 DUP8 ADD PUSH2 0x107 JUMP JUMPDEST SWAP2 POP PUSH2 0x181 PUSH1 0x80 DUP8 ADD PUSH2 0x107 JUMP JUMPDEST SWAP1 POP SWAP3 SWAP6 POP SWAP3 SWAP6 SWAP1 SWAP4 POP JUMP JUMPDEST PUSH1 0x80 MLOAD PUSH1 0xA0 MLOAD PUSH1 0xC0 MLOAD PUSH1 0xE0 MLOAD PUSH2 0x100 MLOAD PUSH2 0x32A0 PUSH2 0x272 PUSH0 CODECOPY PUSH0 DUP2 DUP2 PUSH2 0x417 ADD MSTORE DUP2 DUP2 PUSH2 0xAA8 ADD MSTORE DUP2 DUP2 PUSH2 0x15CF ADD MSTORE DUP2 DUP2 PUSH2 0x1650 ADD MSTORE PUSH2 0x16B4 ADD MSTORE PUSH0 DUP2 DUP2 PUSH2 0x299 ADD MSTORE DUP2 DUP2 PUSH2 0x4AD ADD MSTORE DUP2 DUP2 PUSH2 0x547 ADD MSTORE DUP2 DUP2 PUSH2 0x6B7 ADD MSTORE DUP2 DUP2 PUSH2 0x9F7 ADD MSTORE DUP2 DUP2 PUSH2 0xE68 ADD MSTORE DUP2 DUP2 PUSH2 0xF51 ADD MSTORE DUP2 DUP2 PUSH2 0x1451 ADD MSTORE PUSH2 0x21CF ADD MSTORE PUSH0 DUP2 DUP2 PUSH2 0x5F8 ADD MSTORE DUP2 DUP2 PUSH2 0x937 ADD MSTORE DUP2 DUP2 PUSH2 0xB06 ADD MSTORE DUP2 DUP2 PUSH2 0xB42 ADD MSTORE DUP2 DUP2 PUSH2 0x1136 ADD MSTORE DUP2 DUP2 PUSH2 0x1278 ADD MSTORE PUSH2 0x12D4 ADD MSTORE PUSH0 DUP2 DUP2 PUSH2 0x8EA ADD MSTORE DUP2 DUP2 PUSH2 0xCFA ADD MSTORE DUP2 DUP2 PUSH2 0xF30 ADD MSTORE DUP2 DUP2 PUSH2 0x1327 ADD MSTORE DUP2 DUP2 PUSH2 0x1430 ADD MSTORE DUP2 DUP2 PUSH2 0x2111 ADD MSTORE PUSH2 0x2197 ADD MSTORE PUSH0 PUSH2 0xF84 ADD MSTORE PUSH2 0x32A0 PUSH0 RETURN INVALID PUSH1 0x80 PUSH1 0x40 MSTORE CALLVALUE DUP1 ISZERO PUSH2 0xF JUMPI PUSH0 DUP1 REVERT JUMPDEST POP PUSH1 0x4 CALLDATASIZE LT PUSH2 0x1A1 JUMPI PUSH0 CALLDATALOAD PUSH1 0xE0 SHR DUP1 PUSH4 0x782EE170 GT PUSH2 0xF3 JUMPI DUP1 PUSH4 0xC2DD37E2 GT PUSH2 0x93 JUMPI DUP1 PUSH4 0xDF49D315 GT PUSH2 0x6E JUMPI DUP1 PUSH4 0xDF49D315 EQ PUSH2 0x3DB JUMPI DUP1 PUSH4 0xE30C3978 EQ PUSH2 0x3EE JUMPI DUP1 PUSH4 0xF2FDE38B EQ PUSH2 0x3FF JUMPI DUP1 PUSH4 0xF38D00F0 EQ PUSH2 0x412 JUMPI PUSH0 DUP1 REVERT JUMPDEST DUP1 PUSH4 0xC2DD37E2 EQ PUSH2 0x3A2 JUMPI DUP1 PUSH4 0xC8A507F0 EQ PUSH2 0x3AB JUMPI DUP1 PUSH4 0xD9443923 EQ PUSH2 0x3BE JUMPI PUSH0 DUP1 REVERT JUMPDEST DUP1 PUSH4 0x9F0E9460 GT PUSH2 0xCE JUMPI DUP1 PUSH4 0x9F0E9460 EQ PUSH2 0x316 JUMPI DUP1 PUSH4 0xABA05870 EQ PUSH2 0x329 JUMPI DUP1 PUSH4 0xAD1B63F4 EQ PUSH2 0x33C JUMPI DUP1 PUSH4 0xC1B309EC EQ PUSH2 0x38F JUMPI PUSH0 DUP1 REVERT JUMPDEST DUP1 PUSH4 0x782EE170 EQ PUSH2 0x2ED JUMPI DUP1 PUSH4 0x79BA5097 EQ PUSH2 0x2FD JUMPI DUP1 PUSH4 0x8DA5CB5B EQ PUSH2 0x305 JUMPI PUSH0 DUP1 REVERT JUMPDEST DUP1 PUSH4 0x2EC9C3B4 GT PUSH2 0x15E JUMPI DUP1 PUSH4 0x48CD5315 GT PUSH2 0x139 JUMPI DUP1 PUSH4 0x48CD5315 EQ PUSH2 0x294 JUMPI DUP1 PUSH4 0x5DEE31A7 EQ PUSH2 0x2BB JUMPI DUP1 PUSH4 0x6AADEDE7 EQ PUSH2 0x2CE JUMPI DUP1 PUSH4 0x715018A6 EQ PUSH2 0x2E5 JUMPI PUSH0 DUP1 REVERT JUMPDEST DUP1 PUSH4 0x2EC9C3B4 EQ PUSH2 0x251 JUMPI DUP1 PUSH4 0x30DC71AC EQ PUSH2 0x264 JUMPI DUP1 PUSH4 0x40F6AC31 EQ PUSH2 0x277 JUMPI PUSH0 DUP1 REVERT JUMPDEST DUP1 PUSH4 0x90F8AD4 EQ PUSH2 0x1A5 JUMPI DUP1 PUSH4 0x158A3B12 EQ PUSH2 0x1D4 JUMPI DUP1 PUSH4 0x1BEA83FE EQ PUSH2 0x1E7 JUMPI DUP1 PUSH4 0x225A4699 EQ PUSH2 0x21A JUMPI DUP1 PUSH4 0x27AB48EB EQ PUSH2 0x234 JUMPI DUP1 PUSH4 0x2D8A19FE EQ PUSH2 0x23E JUMPI JUMPDEST PUSH0 DUP1 REVERT JUMPDEST PUSH1 0x4 SLOAD PUSH2 0x1BA SWAP1 PUSH2 0x100 SWAP1 DIV PUSH4 0xFFFFFFFF AND DUP2 JUMP JUMPDEST PUSH1 0x40 MLOAD PUSH4 0xFFFFFFFF SWAP1 SWAP2 AND DUP2 MSTORE PUSH1 0x20 ADD JUMPDEST PUSH1 0x40 MLOAD DUP1 SWAP2 SUB SWAP1 RETURN JUMPDEST PUSH2 0x1BA PUSH2 0x1E2 CALLDATASIZE PUSH1 0x4 PUSH2 0x2783 JUMP JUMPDEST PUSH2 0x439 JUMP JUMPDEST PUSH2 0x202 PUSH20 0xC36442B4A4522E871399CD717ABDD847AB11FE88 DUP2 JUMP JUMPDEST PUSH1 0x40 MLOAD PUSH1 0x1 PUSH1 0x1 PUSH1 0xA0 SHL SUB SWAP1 SWAP2 AND DUP2 MSTORE PUSH1 0x20 ADD PUSH2 0x1CB JUMP JUMPDEST PUSH2 0x222 PUSH2 0x487 JUMP JUMPDEST PUSH1 0x40 MLOAD PUSH1 0xFF SWAP1 SWAP2 AND DUP2 MSTORE PUSH1 0x20 ADD PUSH2 0x1CB JUMP JUMPDEST PUSH2 0x23C PUSH2 0x496 JUMP JUMPDEST STOP JUMPDEST PUSH2 0x23C PUSH2 0x24C CALLDATASIZE PUSH1 0x4 PUSH2 0x279E JUMP JUMPDEST PUSH2 0x5A9 JUMP JUMPDEST PUSH2 0x1BA PUSH2 0x25F CALLDATASIZE PUSH1 0x4 PUSH2 0x2783 JUMP JUMPDEST PUSH2 0x9B1 JUMP JUMPDEST PUSH2 0x23C PUSH2 0x272 CALLDATASIZE PUSH1 0x4 PUSH2 0x27C8 JUMP JUMPDEST PUSH2 0x9D5 JUMP JUMPDEST PUSH2 0x27F PUSH2 0xBB9 JUMP JUMPDEST PUSH1 0x40 DUP1 MLOAD SWAP3 DUP4 MSTORE PUSH1 0x20 DUP4 ADD SWAP2 SWAP1 SWAP2 MSTORE ADD PUSH2 0x1CB JUMP JUMPDEST PUSH2 0x202 PUSH32 0x0 DUP2 JUMP JUMPDEST PUSH2 0x23C PUSH2 0x2C9 CALLDATASIZE PUSH1 0x4 PUSH2 0x27ED JUMP JUMPDEST PUSH2 0xD7C JUMP JUMPDEST PUSH2 0x2D7 PUSH1 0x8 SLOAD DUP2 JUMP JUMPDEST PUSH1 0x40 MLOAD SWAP1 DUP2 MSTORE PUSH1 0x20 ADD PUSH2 0x1CB JUMP JUMPDEST PUSH2 0x23C PUSH2 0xDCD JUMP JUMPDEST PUSH1 0x7 SLOAD PUSH2 0x1BA SWAP1 PUSH4 0xFFFFFFFF AND DUP2 JUMP JUMPDEST PUSH2 0x23C PUSH2 0xDE0 JUMP JUMPDEST PUSH1 0x1 SLOAD PUSH1 0x1 PUSH1 0x1 PUSH1 0xA0 SHL SUB AND PUSH2 0x202 JUMP JUMPDEST PUSH2 0x1BA PUSH2 0x324 CALLDATASIZE PUSH1 0x4 PUSH2 0x27ED JUMP JUMPDEST PUSH2 0xE29 JUMP JUMPDEST PUSH2 0x2D7 PUSH2 0x337 CALLDATASIZE PUSH1 0x4 PUSH2 0x27C8 JUMP JUMPDEST PUSH2 0xE64 JUMP JUMPDEST PUSH2 0x36F PUSH2 0x34A CALLDATASIZE PUSH1 0x4 PUSH2 0x2783 JUMP JUMPDEST PUSH1 0x6 PUSH1 0x20 MSTORE PUSH0 SWAP1 DUP2 MSTORE PUSH1 0x40 SWAP1 KECCAK256 SLOAD PUSH1 0x1 PUSH1 0x1 PUSH1 0x80 SHL SUB DUP1 DUP3 AND SWAP2 PUSH1 0x1 PUSH1 0x80 SHL SWAP1 DIV AND DUP3 JUMP JUMPDEST PUSH1 0x40 DUP1 MLOAD PUSH1 0x1 PUSH1 0x1 PUSH1 0x80 SHL SUB SWAP4 DUP5 AND DUP2 MSTORE SWAP3 SWAP1 SWAP2 AND PUSH1 0x20 DUP4 ADD MSTORE ADD PUSH2 0x1CB JUMP JUMPDEST PUSH2 0x2D7 PUSH2 0x39D CALLDATASIZE PUSH1 0x4 PUSH2 0x27C8 JUMP JUMPDEST PUSH2 0xF80 JUMP JUMPDEST PUSH2 0x2D7 PUSH1 0x5 SLOAD DUP2 JUMP JUMPDEST PUSH2 0x23C PUSH2 0x3B9 CALLDATASIZE PUSH1 0x4 PUSH2 0x2808 JUMP JUMPDEST PUSH2 0x1035 JUMP JUMPDEST PUSH1 0x4 SLOAD PUSH2 0x3CB SWAP1 PUSH1 0xFF AND DUP2 JUMP JUMPDEST PUSH1 0x40 MLOAD SWAP1 ISZERO ISZERO DUP2 MSTORE PUSH1 0x20 ADD PUSH2 0x1CB JUMP JUMPDEST PUSH2 0x222 PUSH2 0x3E9 CALLDATASIZE PUSH1 0x4 PUSH2 0x2783 JUMP JUMPDEST PUSH2 0x119C JUMP JUMPDEST PUSH1 0x2 SLOAD PUSH1 0x1 PUSH1 0x1 PUSH1 0xA0 SHL SUB AND PUSH2 0x202 JUMP JUMPDEST PUSH2 0x23C PUSH2 0x40D CALLDATASIZE PUSH1 0x4 PUSH2 0x284A JUMP JUMPDEST PUSH2 0x11D4 JUMP JUMPDEST PUSH2 0x1BA PUSH32 0x0 DUP2 JUMP JUMPDEST PUSH0 DUP1 PUSH2 0x447 PUSH2 0xC4E0 DUP5 PUSH2 0x2879 JUMP JUMPDEST SWAP1 POP PUSH0 PUSH2 0x457 PUSH3 0x15180 DUP4 PUSH2 0x28A9 JUMP JUMPDEST SWAP1 POP PUSH0 PUSH2 0x465 DUP3 PUSH1 0x1 PUSH2 0x28D0 JUMP JUMPDEST PUSH2 0x472 SWAP1 PUSH3 0x15180 PUSH2 0x28EC JUMP JUMPDEST PUSH2 0x47E SWAP1 PUSH2 0xC4E0 PUSH2 0x28D0 JUMP JUMPDEST SWAP6 SWAP5 POP POP POP POP POP JUMP JUMPDEST PUSH0 PUSH2 0x491 TIMESTAMP PUSH2 0x119C JUMP JUMPDEST SWAP1 POP SWAP1 JUMP JUMPDEST PUSH1 0x40 MLOAD PUSH4 0x70A08231 PUSH1 0xE0 SHL DUP2 MSTORE ADDRESS PUSH1 0x4 DUP3 ADD MSTORE PUSH0 SWAP1 PUSH32 0x0 PUSH1 0x1 PUSH1 0x1 PUSH1 0xA0 SHL SUB AND SWAP1 PUSH4 0x70A08231 SWAP1 PUSH1 0x24 ADD PUSH1 0x20 PUSH1 0x40 MLOAD DUP1 DUP4 SUB DUP2 DUP7 GAS STATICCALL ISZERO DUP1 ISZERO PUSH2 0x4FA JUMPI RETURNDATASIZE PUSH0 DUP1 RETURNDATACOPY RETURNDATASIZE PUSH0 REVERT JUMPDEST POP POP POP POP PUSH1 0x40 MLOAD RETURNDATASIZE PUSH1 0x1F NOT PUSH1 0x1F DUP3 ADD AND DUP3 ADD DUP1 PUSH1 0x40 MSTORE POP DUP2 ADD SWAP1 PUSH2 0x51E SWAP2 SWAP1 PUSH2 0x2912 JUMP JUMPDEST SWAP1 POP DUP1 PUSH1 0x5 SLOAD PUSH2 0x52E SWAP2 SWAP1 PUSH2 0x2929 JUMP JUMPDEST PUSH1 0x5 SSTORE PUSH1 0x40 MLOAD PUSH4 0x852CD8D PUSH1 0xE3 SHL DUP2 MSTORE PUSH1 0x4 DUP2 ADD DUP3 SWAP1 MSTORE PUSH32 0x0 PUSH1 0x1 PUSH1 0x1 PUSH1 0xA0 SHL SUB AND SWAP1 PUSH4 0x42966C68 SWAP1 PUSH1 0x24 ADD PUSH0 PUSH1 0x40 MLOAD DUP1 DUP4 SUB DUP2 PUSH0 DUP8 DUP1 EXTCODESIZE ISZERO DUP1 ISZERO PUSH2 0x590 JUMPI PUSH0 DUP1 REVERT JUMPDEST POP GAS CALL ISZERO DUP1 ISZERO PUSH2 0x5A2 JUMPI RETURNDATASIZE PUSH0 DUP1 RETURNDATACOPY RETURNDATASIZE PUSH0 REVERT JUMPDEST POP POP POP POP POP JUMP JUMPDEST PUSH2 0x5B1 PUSH2 0x1245 JUMP JUMPDEST PUSH1 0x4 SLOAD PUSH1 0xFF AND ISZERO PUSH2 0x5D5 JUMPI PUSH1 0x40 MLOAD PUSH4 0xFD02B6D PUSH1 0xE4 SHL DUP2 MSTORE PUSH1 0x4 ADD PUSH1 0x40 MLOAD DUP1 SWAP2 SUB SWAP1 REVERT JUMPDEST PUSH1 0x40 MLOAD PUSH4 0x70A08231 PUSH1 0xE0 SHL DUP2 MSTORE ADDRESS PUSH1 0x4 DUP3 ADD MSTORE PUSH12 0xA18F07D736B90BE550000000 SWAP1 PUSH32 0x0 PUSH1 0x1 PUSH1 0x1 PUSH1 0xA0 SHL SUB AND SWAP1 PUSH4 0x70A08231 SWAP1 PUSH1 0x24 ADD PUSH1 0x20 PUSH1 0x40 MLOAD DUP1 DUP4 SUB DUP2 DUP7 GAS STATICCALL ISZERO DUP1 ISZERO PUSH2 0x645 JUMPI RETURNDATASIZE PUSH0 DUP1 RETURNDATACOPY RETURNDATASIZE PUSH0 REVERT JUMPDEST POP POP POP POP PUSH1 0x40 MLOAD RETURNDATASIZE PUSH1 0x1F NOT PUSH1 0x1F DUP3 ADD AND DUP3 ADD DUP1 PUSH1 0x40 MSTORE POP DUP2 ADD SWAP1 PUSH2 0x669 SWAP2 SWAP1 PUSH2 0x2912 JUMP JUMPDEST LT ISZERO PUSH2 0x688 JUMPI PUSH1 0x40 MLOAD PUSH4 0x1BBC2D7D PUSH1 0xE2 SHL DUP2 MSTORE PUSH1 0x4 ADD PUSH1 0x40 MLOAD DUP1 SWAP2 SUB SWAP1 REVERT JUMPDEST PUSH1 0x4 DUP1 SLOAD PUSH1 0xFF NOT AND PUSH1 0x1 OR SWAP1 SSTORE PUSH0 PUSH2 0x6B3 PUSH12 0xA18F07D736B90BE550000000 DUP4 PUSH4 0xFFFFFFFF DUP7 AND PUSH2 0x1272 JUMP JUMPDEST SWAP1 POP PUSH32 0x0 PUSH1 0x1 PUSH1 0x1 PUSH1 0xA0 SHL SUB AND PUSH4 0x9BED7B6C PUSH1 0x40 MLOAD DUP2 PUSH4 0xFFFFFFFF AND PUSH1 0xE0 SHL DUP2 MSTORE PUSH1 0x4 ADD PUSH0 PUSH1 0x40 MLOAD DUP1 DUP4 SUB DUP2 PUSH0 DUP8 DUP1 EXTCODESIZE ISZERO DUP1 ISZERO PUSH2 0x70D JUMPI PUSH0 DUP1 REVERT JUMPDEST POP GAS CALL ISZERO DUP1 ISZERO PUSH2 0x71F JUMPI RETURNDATASIZE PUSH0 DUP1 RETURNDATACOPY RETURNDATASIZE PUSH0 REVERT JUMPDEST POP POP POP POP PUSH0 DUP1 PUSH0 DUP1 PUSH0 DUP1 PUSH2 0x73F DUP8 PUSH12 0xA18F07D736B90BE550000000 PUSH2 0x1428 JUMP JUMPDEST SWAP6 POP SWAP6 POP SWAP6 POP SWAP6 POP SWAP6 POP SWAP6 POP PUSH2 0x76A DUP3 PUSH20 0xC36442B4A4522E871399CD717ABDD847AB11FE88 DUP9 PUSH2 0x14D9 JUMP JUMPDEST PUSH2 0x789 DUP2 PUSH20 0xC36442B4A4522E871399CD717ABDD847AB11FE88 DUP8 PUSH2 0x14D9 JUMP JUMPDEST PUSH0 PUSH1 0x40 MLOAD DUP1 PUSH2 0x160 ADD PUSH1 0x40 MSTORE DUP1 DUP5 PUSH1 0x1 PUSH1 0x1 PUSH1 0xA0 SHL SUB AND DUP2 MSTORE PUSH1 0x20 ADD DUP4 PUSH1 0x1 PUSH1 0x1 PUSH1 0xA0 SHL SUB AND DUP2 MSTORE PUSH1 0x20 ADD PUSH2 0x2710 PUSH3 0xFFFFFF AND DUP2 MSTORE PUSH1 0x20 ADD PUSH1 0xC8 DUP1 PUSH3 0xD89E7 NOT PUSH2 0x7D3 SWAP2 SWAP1 PUSH2 0x293C JUMP JUMPDEST PUSH2 0x7DD SWAP2 SWAP1 PUSH2 0x2974 JUMP JUMPDEST PUSH1 0x2 SIGNEXTEND DUP2 MSTORE PUSH1 0x20 ADD PUSH1 0xC8 DUP1 PUSH2 0x7F5 PUSH3 0xD89E7 NOT PUSH2 0x2993 JUMP JUMPDEST PUSH2 0x7FF SWAP2 SWAP1 PUSH2 0x293C JUMP JUMPDEST PUSH2 0x809 SWAP2 SWAP1 PUSH2 0x2974 JUMP JUMPDEST PUSH1 0x2 SIGNEXTEND DUP2 MSTORE PUSH1 0x20 ADD DUP9 DUP2 MSTORE PUSH1 0x20 ADD DUP8 DUP2 MSTORE PUSH1 0x20 ADD DUP7 DUP2 MSTORE PUSH1 0x20 ADD DUP6 DUP2 MSTORE PUSH1 0x20 ADD ADDRESS PUSH1 0x1 PUSH1 0x1 PUSH1 0xA0 SHL SUB AND DUP2 MSTORE PUSH1 0x20 ADD DUP12 PUSH4 0xFFFFFFFF AND DUP2 MSTORE POP SWAP1 POP PUSH0 PUSH20 0xC36442B4A4522E871399CD717ABDD847AB11FE88 PUSH1 0x1 PUSH1 0x1 PUSH1 0xA0 SHL SUB AND PUSH4 0x88316456 DUP4 PUSH1 0x40 MLOAD DUP3 PUSH4 0xFFFFFFFF AND PUSH1 0xE0 SHL DUP2 MSTORE PUSH1 0x4 ADD PUSH2 0x885 SWAP2 SWAP1 PUSH2 0x29B3 JUMP JUMPDEST PUSH1 0x80 PUSH1 0x40 MLOAD DUP1 DUP4 SUB DUP2 PUSH0 DUP8 GAS CALL ISZERO DUP1 ISZERO PUSH2 0x8A1 JUMPI RETURNDATASIZE PUSH0 DUP1 RETURNDATACOPY RETURNDATASIZE PUSH0 REVERT JUMPDEST POP POP POP POP PUSH1 0x40 MLOAD RETURNDATASIZE PUSH1 0x1F NOT PUSH1 0x1F DUP3 ADD AND DUP3 ADD DUP1 PUSH1 0x40 MSTORE POP DUP2 ADD SWAP1 PUSH2 0x8C5 SWAP2 SWAP1 PUSH2 0x2A77 JUMP JUMPDEST POP POP PUSH1 0x40 DUP1 MLOAD DUP1 DUP3 ADD DUP3 MSTORE PUSH1 0x1 PUSH1 0x1 PUSH1 0xF8 SHL SUB DUP5 AND DUP1 DUP3 MSTORE PUSH1 0x1 PUSH1 0x1 PUSH1 0xA0 SHL SUB DUP10 DUP2 AND PUSH32 0x0 DUP3 AND EQ PUSH1 0x20 SWAP1 SWAP4 ADD DUP4 SWAP1 MSTORE PUSH1 0x1 PUSH1 0xF8 SHL SWAP1 SWAP3 MUL OR PUSH1 0x3 SSTORE SWAP1 MLOAD PUSH4 0x70A08231 PUSH1 0xE0 SHL DUP2 MSTORE ADDRESS PUSH1 0x4 DUP3 ADD MSTORE SWAP3 SWAP4 POP PUSH32 0x0 AND SWAP2 PUSH4 0x70A08231 SWAP2 POP PUSH1 0x24 ADD PUSH1 0x20 PUSH1 0x40 MLOAD DUP1 DUP4 SUB DUP2 DUP7 GAS STATICCALL ISZERO DUP1 ISZERO PUSH2 0x97D JUMPI RETURNDATASIZE PUSH0 DUP1 RETURNDATACOPY RETURNDATASIZE PUSH0 REVERT JUMPDEST POP POP POP POP PUSH1 0x40 MLOAD RETURNDATASIZE PUSH1 0x1F NOT PUSH1 0x1F DUP3 ADD AND DUP3 ADD DUP1 PUSH1 0x40 MSTORE POP DUP2 ADD SWAP1 PUSH2 0x9A1 SWAP2 SWAP1 PUSH2 0x2912 JUMP JUMPDEST PUSH1 0x8 SSTORE POP POP POP POP POP POP POP POP POP POP POP JUMP JUMPDEST PUSH0 DUP1 PUSH2 0x9BF PUSH2 0xC4E0 DUP5 PUSH2 0x2879 JUMP JUMPDEST SWAP1 POP PUSH2 0x9CE PUSH3 0x15180 DUP3 PUSH2 0x28A9 JUMP JUMPDEST SWAP4 SWAP3 POP POP POP JUMP JUMPDEST DUP1 PUSH0 SUB PUSH2 0x9F5 JUMPI PUSH1 0x40 MLOAD PUSH4 0xB4FA3FB3 PUSH1 0xE0 SHL DUP2 MSTORE PUSH1 0x4 ADD PUSH1 0x40 MLOAD DUP1 SWAP2 SUB SWAP1 REVERT JUMPDEST PUSH32 0x0 PUSH1 0x1 PUSH1 0x1 PUSH1 0xA0 SHL SUB AND PUSH4 0x7DC2268C PUSH1 0x40 MLOAD DUP2 PUSH4 0xFFFFFFFF AND PUSH1 0xE0 SHL DUP2 MSTORE PUSH1 0x4 ADD PUSH1 0x20 PUSH1 0x40 MLOAD DUP1 DUP4 SUB DUP2 DUP7 GAS STATICCALL ISZERO DUP1 ISZERO PUSH2 0xA51 JUMPI RETURNDATASIZE PUSH0 DUP1 RETURNDATACOPY RETURNDATASIZE PUSH0 REVERT JUMPDEST POP POP POP POP PUSH1 0x40 MLOAD RETURNDATASIZE PUSH1 0x1F NOT PUSH1 0x1F DUP3 ADD AND DUP3 ADD DUP1 PUSH1 0x40 MSTORE POP DUP2 ADD SWAP1 PUSH2 0xA75 SWAP2 SWAP1 PUSH2 0x2ABE JUMP JUMPDEST PUSH1 0x1 PUSH1 0x1 PUSH1 0xA0 SHL SUB AND CALLER PUSH1 0x1 PUSH1 0x1 PUSH1 0xA0 SHL SUB AND EQ PUSH2 0xAA6 JUMPI PUSH1 0x40 MLOAD PUSH4 0xC004A90B PUSH1 0xE0 SHL DUP2 MSTORE PUSH1 0x4 ADD PUSH1 0x40 MLOAD DUP1 SWAP2 SUB SWAP1 REVERT JUMPDEST PUSH32 0x0 PUSH4 0xFFFFFFFF AND TIMESTAMP GT DUP1 ISZERO PUSH2 0xAF4 JUMPI POP PUSH1 0x4 SLOAD PUSH2 0x708 SWAP1 PUSH2 0xAF2 SWAP1 PUSH2 0x100 SWAP1 DIV PUSH4 0xFFFFFFFF AND TIMESTAMP PUSH2 0x2AD9 JUMP JUMPDEST GT JUMPDEST ISZERO PUSH2 0xB01 JUMPI PUSH2 0xB01 PUSH2 0x15CD JUMP JUMPDEST PUSH2 0xB2D PUSH32 0x0 CALLER ADDRESS DUP5 PUSH2 0x17BF JUMP JUMPDEST PUSH1 0x40 MLOAD PUSH4 0x70A08231 PUSH1 0xE0 SHL DUP2 MSTORE ADDRESS PUSH1 0x4 DUP3 ADD MSTORE PUSH32 0x0 PUSH1 0x1 PUSH1 0x1 PUSH1 0xA0 SHL SUB AND SWAP1 PUSH4 0x70A08231 SWAP1 PUSH1 0x24 ADD PUSH1 0x20 PUSH1 0x40 MLOAD DUP1 DUP4 SUB DUP2 DUP7 GAS STATICCALL ISZERO DUP1 ISZERO PUSH2 0xB8F JUMPI RETURNDATASIZE PUSH0 DUP1 RETURNDATACOPY RETURNDATASIZE PUSH0 REVERT JUMPDEST POP POP POP POP PUSH1 0x40 MLOAD RETURNDATASIZE PUSH1 0x1F NOT PUSH1 0x1F DUP3 ADD AND DUP3 ADD DUP1 PUSH1 0x40 MSTORE POP DUP2 ADD SWAP1 PUSH2 0xBB3 SWAP2 SWAP1 PUSH2 0x2912 JUMP JUMPDEST PUSH1 0x8 SSTORE POP JUMP JUMPDEST PUSH1 0x40 DUP1 MLOAD DUP1 DUP3 ADD DUP3 MSTORE PUSH1 0x3 SLOAD PUSH1 0x1 PUSH1 0x1 PUSH1 0xF8 SHL SUB DUP1 DUP3 AND DUP4 MSTORE PUSH1 0x1 PUSH1 0xF8 SHL SWAP1 SWAP2 DIV PUSH1 0xFF AND ISZERO ISZERO PUSH1 0x20 DUP1 DUP5 ADD SWAP2 SWAP1 SWAP2 MSTORE DUP4 MLOAD PUSH1 0x80 DUP2 ADD DUP6 MSTORE DUP4 MLOAD SWAP1 SWAP3 AND DUP3 MSTORE ADDRESS SWAP1 DUP3 ADD SWAP1 DUP2 MSTORE PUSH1 0x1 PUSH1 0x1 PUSH1 0x80 SHL SUB DUP3 DUP6 ADD DUP2 DUP2 MSTORE PUSH1 0x60 DUP5 ADD DUP3 DUP2 MSTORE SWAP6 MLOAD PUSH4 0xFC6F7865 PUSH1 0xE0 SHL DUP2 MSTORE DUP5 MLOAD PUSH1 0x4 DUP3 ADD MSTORE SWAP3 MLOAD PUSH1 0x1 PUSH1 0x1 PUSH1 0xA0 SHL SUB AND PUSH1 0x24 DUP5 ADD MSTORE MLOAD DUP2 AND PUSH1 0x44 DUP4 ADD MSTORE SWAP4 MLOAD SWAP1 SWAP4 AND PUSH1 0x64 DUP5 ADD MSTORE PUSH0 SWAP3 DUP4 SWAP3 SWAP2 SWAP1 PUSH20 0xC36442B4A4522E871399CD717ABDD847AB11FE88 SWAP1 PUSH4 0xFC6F7865 SWAP1 PUSH1 0x84 ADD PUSH1 0x40 DUP1 MLOAD DUP1 DUP4 SUB DUP2 PUSH0 DUP8 GAS CALL ISZERO DUP1 ISZERO PUSH2 0xC88 JUMPI RETURNDATASIZE PUSH0 DUP1 RETURNDATACOPY RETURNDATASIZE PUSH0 REVERT JUMPDEST POP POP POP POP PUSH1 0x40 MLOAD RETURNDATASIZE PUSH1 0x1F NOT PUSH1 0x1F DUP3 ADD AND DUP3 ADD DUP1 PUSH1 0x40 MSTORE POP DUP2 ADD SWAP1 PUSH2 0xCAC SWAP2 SWAP1 PUSH2 0x2AEC JUMP JUMPDEST PUSH1 0x20 DUP5 ADD MLOAD SWAP2 SWAP6 POP SWAP4 POP PUSH0 SWAP1 PUSH2 0xCC3 JUMPI DUP4 DUP6 PUSH2 0xCC6 JUMP JUMPDEST DUP5 DUP5 JUMPDEST POP PUSH1 0x40 MLOAD PUSH4 0xA9059CBB PUSH1 0xE0 SHL DUP2 MSTORE PUSH20 0x84C17675A19BE90788CBC7D455B2AEB7EBF650B4 PUSH1 0x4 DUP3 ADD MSTORE PUSH1 0x24 DUP2 ADD DUP3 SWAP1 MSTORE SWAP1 SWAP2 POP PUSH32 0x0 PUSH1 0x1 PUSH1 0x1 PUSH1 0xA0 SHL SUB AND SWAP1 PUSH4 0xA9059CBB SWAP1 PUSH1 0x44 ADD PUSH1 0x20 PUSH1 0x40 MLOAD DUP1 DUP4 SUB DUP2 PUSH0 DUP8 GAS CALL ISZERO DUP1 ISZERO PUSH2 0xD48 JUMPI RETURNDATASIZE PUSH0 DUP1 RETURNDATACOPY RETURNDATASIZE PUSH0 REVERT JUMPDEST POP POP POP POP PUSH1 0x40 MLOAD RETURNDATASIZE PUSH1 0x1F NOT PUSH1 0x1F DUP3 ADD AND DUP3 ADD DUP1 PUSH1 0x40 MSTORE POP DUP2 ADD SWAP1 PUSH2 0xD6C SWAP2 SWAP1 PUSH2 0x2B1D JUMP JUMPDEST POP PUSH2 0xD75 PUSH2 0x496 JUMP JUMPDEST POP POP POP SWAP1 SWAP2 JUMP JUMPDEST PUSH2 0xD84 PUSH2 0x1245 JUMP JUMPDEST PUSH1 0x64 DUP2 PUSH1 0xFF AND GT DUP1 PUSH2 0xD99 JUMPI POP PUSH1 0x2 DUP2 PUSH1 0xFF AND LT JUMPDEST ISZERO PUSH2 0xDB7 JUMPI PUSH1 0x40 MLOAD PUSH4 0xB4FA3FB3 PUSH1 0xE0 SHL DUP2 MSTORE PUSH1 0x4 ADD PUSH1 0x40 MLOAD DUP1 SWAP2 SUB SWAP1 REVERT JUMPDEST PUSH1 0x9 DUP1 SLOAD PUSH1 0xFF NOT AND PUSH1 0xFF SWAP3 SWAP1 SWAP3 AND SWAP2 SWAP1 SWAP2 OR SWAP1 SSTORE JUMP JUMPDEST PUSH2 0xDD5 PUSH2 0x1245 JUMP JUMPDEST PUSH2 0xDDE PUSH0 PUSH2 0x18BC JUMP JUMPDEST JUMP JUMPDEST PUSH1 0x2 SLOAD CALLER SWAP1 PUSH1 0x1 PUSH1 0x1 PUSH1 0xA0 SHL SUB AND DUP2 EQ PUSH2 0xE1D JUMPI PUSH1 0x40 MLOAD PUSH4 0x118CDAA7 PUSH1 0xE0 SHL DUP2 MSTORE PUSH1 0x1 PUSH1 0x1 PUSH1 0xA0 SHL SUB DUP3 AND PUSH1 0x4 DUP3 ADD MSTORE PUSH1 0x24 ADD JUMPDEST PUSH1 0x40 MLOAD DUP1 SWAP2 SUB SWAP1 REVERT JUMPDEST PUSH2 0xE26 DUP2 PUSH2 0x18BC JUMP JUMPDEST POP JUMP JUMPDEST PUSH2 0x190 PUSH1 0x5 PUSH1 0xFF DUP4 AND EQ DUP1 PUSH2 0xE41 JUMPI POP DUP2 PUSH1 0xFF AND PUSH1 0x6 EQ JUMPDEST ISZERO PUSH2 0xE4F JUMPI POP PUSH2 0x5DC SWAP2 SWAP1 POP JUMP JUMPDEST DUP2 PUSH1 0xFF AND PUSH1 0x4 SUB PUSH2 0xE5F JUMPI POP PUSH2 0x3E8 JUMPDEST SWAP2 SWAP1 POP JUMP JUMPDEST PUSH0 DUP1 PUSH32 0x0 PUSH1 0x1 PUSH1 0x1 PUSH1 0xA0 SHL SUB AND PUSH4 0xE80C20E0 PUSH1 0x40 MLOAD DUP2 PUSH4 0xFFFFFFFF AND PUSH1 0xE0 SHL DUP2 MSTORE PUSH1 0x4 ADD PUSH1 0x20 PUSH1 0x40 MLOAD DUP1 DUP4 SUB DUP2 DUP7 GAS STATICCALL ISZERO DUP1 ISZERO PUSH2 0xEC2 JUMPI RETURNDATASIZE PUSH0 DUP1 RETURNDATACOPY RETURNDATASIZE PUSH0 REVERT JUMPDEST POP POP POP POP PUSH1 0x40 MLOAD RETURNDATASIZE PUSH1 0x1F NOT PUSH1 0x1F DUP3 ADD AND DUP3 ADD DUP1 PUSH1 0x40 MSTORE POP DUP2 ADD SWAP1 PUSH2 0xEE6 SWAP2 SWAP1 PUSH2 0x2ABE JUMP JUMPDEST SWAP1 POP PUSH2 0x384 PUSH0 PUSH2 0xEF5 DUP4 PUSH2 0x18D5 JUMP JUMPDEST SWAP1 POP DUP2 PUSH4 0xFFFFFFFF AND DUP2 PUSH4 0xFFFFFFFF AND LT ISZERO PUSH2 0xF0F JUMPI DUP1 SWAP2 POP JUMPDEST PUSH0 PUSH2 0xF1A DUP5 DUP5 PUSH2 0x1A8D JUMP JUMPDEST POP SWAP1 POP PUSH0 PUSH2 0xF27 DUP3 PUSH2 0x1CC2 JUMP JUMPDEST SWAP1 POP PUSH2 0xF75 DUP2 DUP9 PUSH32 0x0 PUSH32 0x0 PUSH2 0x1FDD JUMP JUMPDEST SWAP8 SWAP7 POP POP POP POP POP POP POP JUMP JUMPDEST PUSH0 DUP1 PUSH32 0x0 SWAP1 POP PUSH0 DUP1 DUP3 PUSH1 0x1 PUSH1 0x1 PUSH1 0xA0 SHL SUB AND PUSH4 0x902F1AC PUSH1 0x40 MLOAD DUP2 PUSH4 0xFFFFFFFF AND PUSH1 0xE0 SHL DUP2 MSTORE PUSH1 0x4 ADD PUSH1 0x60 PUSH1 0x40 MLOAD DUP1 DUP4 SUB DUP2 DUP7 GAS STATICCALL ISZERO DUP1 ISZERO PUSH2 0xFE3 JUMPI RETURNDATASIZE PUSH0 DUP1 RETURNDATACOPY RETURNDATASIZE PUSH0 REVERT JUMPDEST POP POP POP POP PUSH1 0x40 MLOAD RETURNDATASIZE PUSH1 0x1F NOT PUSH1 0x1F DUP3 ADD AND DUP3 ADD DUP1 PUSH1 0x40 MSTORE POP DUP2 ADD SWAP1 PUSH2 0x1007 SWAP2 SWAP1 PUSH2 0x2B4C JUMP JUMPDEST POP SWAP2 POP SWAP2 POP DUP2 PUSH1 0x1 PUSH1 0x1 PUSH1 0x70 SHL SUB AND DUP2 PUSH1 0x1 PUSH1 0x1 PUSH1 0x70 SHL SUB AND DUP7 PUSH2 0x102B SWAP2 SWAP1 PUSH2 0x2B90 JUMP JUMPDEST PUSH2 0x47E SWAP2 SWAP1 PUSH2 0x2BA7 JUMP JUMPDEST PUSH2 0x103D PUSH2 0x20B7 JUMP JUMPDEST PUSH2 0x1045 PUSH2 0x15CD JUMP JUMPDEST PUSH1 0x4 SLOAD PUSH1 0xFF AND PUSH2 0x1068 JUMPI PUSH1 0x40 MLOAD PUSH4 0x1864D7AB PUSH1 0xE2 SHL DUP2 MSTORE PUSH1 0x4 ADD PUSH1 0x40 MLOAD DUP1 SWAP2 SUB SWAP1 REVERT JUMPDEST PUSH1 0x7 SLOAD PUSH4 0xFFFFFFFF AND PUSH0 SWAP1 DUP2 MSTORE PUSH1 0x6 PUSH1 0x20 MSTORE PUSH1 0x40 SWAP1 KECCAK256 DUP1 SLOAD PUSH1 0x1 PUSH1 0x80 SHL SWAP1 DIV PUSH1 0x1 PUSH1 0x1 PUSH1 0x80 SHL SUB AND ISZERO PUSH2 0x10AE JUMPI PUSH1 0x40 MLOAD PUSH4 0x31BBCB21 PUSH1 0xE1 SHL DUP2 MSTORE PUSH1 0x4 ADD PUSH1 0x40 MLOAD DUP1 SWAP2 SUB SWAP1 REVERT JUMPDEST DUP1 SLOAD PUSH1 0x1 PUSH1 0x1 PUSH1 0x80 SHL SUB SWAP1 DUP2 AND PUSH1 0x1 PUSH1 0x80 SHL DUP2 MUL DUP1 DUP3 OR DUP5 SSTORE PUSH0 SWAP3 PUSH2 0x2710 SWAP3 PUSH2 0x10DB SWAP3 PUSH1 0x96 SWAP3 AND OR PUSH2 0x2B90 JUMP JUMPDEST PUSH2 0x10E5 SWAP2 SWAP1 PUSH2 0x2BA7 JUMP JUMPDEST DUP3 SLOAD SWAP1 SWAP2 POP PUSH0 SWAP1 PUSH2 0x1100 SWAP1 DUP4 SWAP1 PUSH1 0x1 PUSH1 0x1 PUSH1 0x80 SHL SUB AND PUSH2 0x2AD9 JUMP JUMPDEST SWAP1 POP PUSH0 PUSH2 0x1114 DUP3 DUP8 DUP8 PUSH4 0xFFFFFFFF AND PUSH2 0x1272 JUMP JUMPDEST SWAP1 POP PUSH0 PUSH2 0x1127 DUP3 DUP8 PUSH4 0xFFFFFFFF AND PUSH2 0x20DF JUMP JUMPDEST SWAP1 POP PUSH2 0x1131 PUSH2 0x496 JUMP JUMPDEST PUSH2 0x115C PUSH32 0x0 CALLER DUP7 PUSH2 0x22E6 JUMP JUMPDEST PUSH1 0x40 MLOAD CALLER SWAP1 DUP3 SWAP1 DUP6 SWAP1 PUSH32 0x1B3ED074DCE570943C9D4E66776A060E8AC73AF4F6B002482B09E561D90F038C SWAP1 PUSH0 SWAP1 LOG4 POP POP POP POP POP PUSH2 0x1198 PUSH1 0x1 PUSH0 SSTORE JUMP JUMPDEST POP POP JUMP JUMPDEST PUSH0 PUSH1 0x7 PUSH3 0x15180 PUSH2 0x11AF PUSH2 0xC4E0 DUP6 PUSH2 0x2879 JUMP JUMPDEST PUSH2 0x11B9 SWAP2 SWAP1 PUSH2 0x28A9 JUMP JUMPDEST PUSH2 0x11C4 SWAP1 PUSH1 0x4 PUSH2 0x28D0 JUMP JUMPDEST PUSH2 0x11CE SWAP2 SWAP1 PUSH2 0x2BBA JUMP JUMPDEST SWAP3 SWAP2 POP POP JUMP JUMPDEST PUSH2 0x11DC PUSH2 0x1245 JUMP JUMPDEST PUSH1 0x2 DUP1 SLOAD PUSH1 0x1 PUSH1 0x1 PUSH1 0xA0 SHL SUB DUP4 AND PUSH1 0x1 PUSH1 0x1 PUSH1 0xA0 SHL SUB NOT SWAP1 SWAP2 AND DUP2 OR SWAP1 SWAP2 SSTORE PUSH2 0x120D PUSH1 0x1 SLOAD PUSH1 0x1 PUSH1 0x1 PUSH1 0xA0 SHL SUB AND SWAP1 JUMP JUMPDEST PUSH1 0x1 PUSH1 0x1 PUSH1 0xA0 SHL SUB AND PUSH32 0x38D16B8CAC22D99FC7C124B9CD0DE2D3FA1FAEF420BFE791D8C362D765E22700 PUSH1 0x40 MLOAD PUSH1 0x40 MLOAD DUP1 SWAP2 SUB SWAP1 LOG3 POP JUMP JUMPDEST PUSH1 0x1 SLOAD PUSH1 0x1 PUSH1 0x1 PUSH1 0xA0 SHL SUB AND CALLER EQ PUSH2 0xDDE JUMPI PUSH1 0x40 MLOAD PUSH4 0x118CDAA7 PUSH1 0xE0 SHL DUP2 MSTORE CALLER PUSH1 0x4 DUP3 ADD MSTORE PUSH1 0x24 ADD PUSH2 0xE14 JUMP JUMPDEST PUSH0 PUSH2 0x12B2 PUSH32 0x0 PUSH20 0x7A250D5630B4CF539739DF2C5DACB4C659F2488D DUP7 PUSH2 0x14D9 JUMP JUMPDEST PUSH1 0x40 DUP1 MLOAD PUSH1 0x2 DUP1 DUP3 MSTORE PUSH1 0x60 DUP3 ADD DUP4 MSTORE PUSH0 SWAP3 PUSH1 0x20 DUP4 ADD SWAP1 DUP1 CALLDATASIZE DUP4 CALLDATACOPY ADD SWAP1 POP POP SWAP1 POP PUSH32 0x0 DUP2 PUSH0 DUP2 MLOAD DUP2 LT PUSH2 0x1305 JUMPI PUSH2 0x1305 PUSH2 0x2BF5 JUMP JUMPDEST PUSH1 0x20 MUL PUSH1 0x20 ADD ADD SWAP1 PUSH1 0x1 PUSH1 0x1 PUSH1 0xA0 SHL SUB AND SWAP1 DUP2 PUSH1 0x1 PUSH1 0x1 PUSH1 0xA0 SHL SUB AND DUP2 MSTORE POP POP PUSH32 0x0 DUP2 PUSH1 0x1 DUP2 MLOAD DUP2 LT PUSH2 0x1359 JUMPI PUSH2 0x1359 PUSH2 0x2BF5 JUMP JUMPDEST PUSH1 0x1 PUSH1 0x1 PUSH1 0xA0 SHL SUB SWAP1 SWAP3 AND PUSH1 0x20 SWAP3 DUP4 MUL SWAP2 SWAP1 SWAP2 ADD SWAP1 SWAP2 ADD MSTORE PUSH1 0x40 MLOAD PUSH4 0x38ED1739 PUSH1 0xE0 SHL DUP2 MSTORE PUSH0 SWAP1 PUSH20 0x7A250D5630B4CF539739DF2C5DACB4C659F2488D SWAP1 PUSH4 0x38ED1739 SWAP1 PUSH2 0x13B2 SWAP1 DUP10 SWAP1 DUP10 SWAP1 DUP8 SWAP1 ADDRESS SWAP1 DUP12 SWAP1 PUSH1 0x4 ADD PUSH2 0x2C09 JUMP JUMPDEST PUSH0 PUSH1 0x40 MLOAD DUP1 DUP4 SUB DUP2 PUSH0 DUP8 GAS CALL ISZERO DUP1 ISZERO PUSH2 0x13CD JUMPI RETURNDATASIZE PUSH0 DUP1 RETURNDATACOPY RETURNDATASIZE PUSH0 REVERT JUMPDEST POP POP POP POP PUSH1 0x40 MLOAD RETURNDATASIZE PUSH0 DUP3 RETURNDATACOPY PUSH1 0x1F RETURNDATASIZE SWAP1 DUP2 ADD PUSH1 0x1F NOT AND DUP3 ADD PUSH1 0x40 MSTORE PUSH2 0x13F4 SWAP2 SWAP1 DUP2 ADD SWAP1 PUSH2 0x2CCD JUMP JUMPDEST SWAP1 POP DUP1 PUSH1 0x1 DUP3 MLOAD PUSH2 0x1405 SWAP2 SWAP1 PUSH2 0x2AD9 JUMP JUMPDEST DUP2 MLOAD DUP2 LT PUSH2 0x1415 JUMPI PUSH2 0x1415 PUSH2 0x2BF5 JUMP JUMPDEST PUSH1 0x20 MUL PUSH1 0x20 ADD ADD MLOAD SWAP3 POP POP POP SWAP4 SWAP3 POP POP POP JUMP JUMPDEST PUSH0 DUP1 DUP1 DUP1 DUP1 DUP1 PUSH32 0x0 PUSH32 0x0 PUSH1 0x1 PUSH1 0x1 PUSH1 0xA0 SHL SUB DUP1 DUP3 AND SWAP1 DUP4 AND LT PUSH2 0x148A JUMPI DUP1 DUP3 PUSH2 0x148D JUMP JUMPDEST DUP2 DUP2 JUMPDEST SWAP1 SWAP5 POP SWAP3 POP PUSH1 0x1 PUSH1 0x1 PUSH1 0xA0 SHL SUB DUP1 DUP6 AND SWAP1 DUP4 AND EQ PUSH2 0x14AC JUMPI DUP9 DUP11 PUSH2 0x14AF JUMP JUMPDEST DUP10 DUP10 JUMPDEST SWAP1 SWAP9 POP SWAP7 POP PUSH2 0x14BD DUP9 PUSH2 0x23DA JUMP JUMPDEST PUSH2 0x14C6 DUP9 PUSH2 0x23DA JUMP JUMPDEST SWAP9 SWAP12 SWAP8 SWAP11 POP SWAP9 POP SWAP3 SWAP6 SWAP2 SWAP5 POP SWAP1 SWAP3 POP POP POP JUMP JUMPDEST PUSH1 0x40 DUP1 MLOAD PUSH1 0x1 PUSH1 0x1 PUSH1 0xA0 SHL SUB DUP5 DUP2 AND PUSH1 0x24 DUP4 ADD MSTORE PUSH1 0x44 DUP1 DUP4 ADD DUP6 SWAP1 MSTORE DUP4 MLOAD DUP1 DUP5 SUB SWAP1 SWAP2 ADD DUP2 MSTORE PUSH1 0x64 SWAP1 SWAP3 ADD DUP4 MSTORE PUSH1 0x20 DUP3 ADD DUP1 MLOAD PUSH1 0x1 PUSH1 0x1 PUSH1 0xE0 SHL SUB AND PUSH4 0x95EA7B3 PUSH1 0xE0 SHL OR SWAP1 MSTORE SWAP2 MLOAD PUSH0 SWAP3 DUP4 SWAP3 SWAP1 DUP8 AND SWAP2 PUSH2 0x1534 SWAP2 SWAP1 PUSH2 0x2D59 JUMP JUMPDEST PUSH0 PUSH1 0x40 MLOAD DUP1 DUP4 SUB DUP2 PUSH0 DUP7 GAS CALL SWAP2 POP POP RETURNDATASIZE DUP1 PUSH0 DUP2 EQ PUSH2 0x156D JUMPI PUSH1 0x40 MLOAD SWAP2 POP PUSH1 0x1F NOT PUSH1 0x3F RETURNDATASIZE ADD AND DUP3 ADD PUSH1 0x40 MSTORE RETURNDATASIZE DUP3 MSTORE RETURNDATASIZE PUSH0 PUSH1 0x20 DUP5 ADD RETURNDATACOPY PUSH2 0x1572 JUMP JUMPDEST PUSH1 0x60 SWAP2 POP JUMPDEST POP SWAP2 POP SWAP2 POP DUP2 DUP1 ISZERO PUSH2 0x159C JUMPI POP DUP1 MLOAD ISZERO DUP1 PUSH2 0x159C JUMPI POP DUP1 DUP1 PUSH1 0x20 ADD SWAP1 MLOAD DUP2 ADD SWAP1 PUSH2 0x159C SWAP2 SWAP1 PUSH2 0x2B1D JUMP JUMPDEST PUSH2 0x5A2 JUMPI PUSH1 0x40 MLOAD PUSH3 0x461BCD PUSH1 0xE5 SHL DUP2 MSTORE PUSH1 0x20 PUSH1 0x4 DUP3 ADD MSTORE PUSH1 0x2 PUSH1 0x24 DUP3 ADD MSTORE PUSH2 0x5341 PUSH1 0xF0 SHL PUSH1 0x44 DUP3 ADD MSTORE PUSH1 0x64 ADD PUSH2 0xE14 JUMP JUMPDEST PUSH32 0x0 PUSH4 0xFFFFFFFF AND TIMESTAMP LT ISZERO PUSH2 0x1614 JUMPI PUSH1 0x40 MLOAD PUSH4 0x1864D7AB PUSH1 0xE2 SHL DUP2 MSTORE PUSH1 0x4 ADD PUSH1 0x40 MLOAD DUP1 SWAP2 SUB SWAP1 REVERT JUMPDEST PUSH1 0x4 SLOAD PUSH0 SWAP1 PUSH2 0x100 SWAP1 DIV PUSH4 0xFFFFFFFF AND ISZERO PUSH2 0x1646 JUMPI PUSH1 0x4 SLOAD PUSH2 0x1641 SWAP1 PUSH2 0x100 SWAP1 DIV PUSH4 0xFFFFFFFF AND TIMESTAMP PUSH2 0x2AD9 JUMP JUMPDEST PUSH2 0x1676 JUMP JUMPDEST PUSH2 0x1676 PUSH4 0xFFFFFFFF PUSH32 0x0 AND TIMESTAMP PUSH2 0x2AD9 JUMP JUMPDEST SWAP1 POP PUSH0 DUP1 PUSH0 DUP1 PUSH0 PUSH1 0x4 PUSH1 0x1 SWAP1 SLOAD SWAP1 PUSH2 0x100 EXP SWAP1 DIV PUSH4 0xFFFFFFFF AND PUSH4 0xFFFFFFFF AND PUSH0 SUB PUSH2 0x16DE JUMPI PUSH2 0x16AB DUP7 PUSH4 0xFFFFFFFF AND PUSH2 0x23F4 JUMP JUMPDEST SWAP2 SWAP7 POP SWAP5 POP SWAP3 POP PUSH32 0x0 SWAP2 POP PUSH1 0x1 SWAP1 POP PUSH2 0x1727 JUMP JUMPDEST PUSH2 0x708 PUSH4 0xFFFFFFFF DUP8 AND GT ISZERO PUSH2 0x1727 JUMPI PUSH2 0x16FD DUP7 PUSH4 0xFFFFFFFF AND PUSH2 0x23F4 JUMP JUMPDEST PUSH1 0x4 SLOAD SWAP3 SWAP8 POP SWAP1 SWAP6 POP SWAP4 POP PUSH2 0x100 SWAP1 DIV PUSH4 0xFFFFFFFF AND SWAP2 POP PUSH1 0x1 SWAP1 POP DUP3 PUSH2 0x1723 DUP2 PUSH2 0x2D6F JUMP JUMPDEST SWAP4 POP POP JUMPDEST DUP1 ISZERO PUSH2 0x17B7 JUMPI PUSH2 0x173D PUSH2 0x708 PUSH2 0xFFFF DUP6 AND PUSH2 0x28EC JUMP JUMPDEST PUSH2 0x1747 SWAP1 DUP4 PUSH2 0x28D0 JUMP JUMPDEST PUSH1 0x4 DUP1 SLOAD PUSH4 0xFFFFFFFF SWAP3 DUP4 AND PUSH2 0x100 MUL PUSH5 0xFFFFFFFF00 NOT SWAP1 SWAP2 AND OR SWAP1 SSTORE PUSH1 0x40 DUP1 MLOAD DUP1 DUP3 ADD DUP3 MSTORE PUSH1 0x1 PUSH1 0x1 PUSH1 0x80 SHL SUB DUP1 DUP9 AND DUP3 MSTORE PUSH0 PUSH1 0x20 DUP1 DUP5 ADD DUP3 DUP2 MSTORE SWAP6 DUP12 AND DUP1 DUP4 MSTORE PUSH1 0x6 SWAP1 SWAP2 MSTORE SWAP4 SWAP1 KECCAK256 SWAP2 MLOAD SWAP4 MLOAD DUP2 AND PUSH1 0x1 PUSH1 0x80 SHL MUL SWAP4 AND SWAP3 SWAP1 SWAP3 OR SWAP1 SWAP2 SSTORE PUSH1 0x7 DUP1 SLOAD PUSH4 0xFFFFFFFF NOT AND SWAP1 SWAP2 OR SWAP1 SSTORE JUMPDEST POP POP POP POP POP POP JUMP JUMPDEST PUSH1 0x40 DUP1 MLOAD PUSH1 0x1 PUSH1 0x1 PUSH1 0xA0 SHL SUB DUP6 DUP2 AND PUSH1 0x24 DUP4 ADD MSTORE DUP5 DUP2 AND PUSH1 0x44 DUP4 ADD MSTORE PUSH1 0x64 DUP1 DUP4 ADD DUP6 SWAP1 MSTORE DUP4 MLOAD DUP1 DUP5 SUB SWAP1 SWAP2 ADD DUP2 MSTORE PUSH1 0x84 SWAP1 SWAP3 ADD DUP4 MSTORE PUSH1 0x20 DUP3 ADD DUP1 MLOAD PUSH1 0x1 PUSH1 0x1 PUSH1 0xE0 SHL SUB AND PUSH4 0x23B872DD PUSH1 0xE0 SHL OR SWAP1 MSTORE SWAP2 MLOAD PUSH0 SWAP3 DUP4 SWAP3 SWAP1 DUP9 AND SWAP2 PUSH2 0x1822 SWAP2 SWAP1 PUSH2 0x2D59 JUMP JUMPDEST PUSH0 PUSH1 0x40 MLOAD DUP1 DUP4 SUB DUP2 PUSH0 DUP7 GAS CALL SWAP2 POP POP RETURNDATASIZE DUP1 PUSH0 DUP2 EQ PUSH2 0x185B JUMPI PUSH1 0x40 MLOAD SWAP2 POP PUSH1 0x1F NOT PUSH1 0x3F RETURNDATASIZE ADD AND DUP3 ADD PUSH1 0x40 MSTORE RETURNDATASIZE DUP3 MSTORE RETURNDATASIZE PUSH0 PUSH1 0x20 DUP5 ADD RETURNDATACOPY PUSH2 0x1860 JUMP JUMPDEST PUSH1 0x60 SWAP2 POP JUMPDEST POP SWAP2 POP SWAP2 POP DUP2 DUP1 ISZERO PUSH2 0x188A JUMPI POP DUP1 MLOAD ISZERO DUP1 PUSH2 0x188A JUMPI POP DUP1 DUP1 PUSH1 0x20 ADD SWAP1 MLOAD DUP2 ADD SWAP1 PUSH2 0x188A SWAP2 SWAP1 PUSH2 0x2B1D JUMP JUMPDEST PUSH2 0x17B7 JUMPI PUSH1 0x40 MLOAD PUSH3 0x461BCD PUSH1 0xE5 SHL DUP2 MSTORE PUSH1 0x20 PUSH1 0x4 DUP3 ADD MSTORE PUSH1 0x3 PUSH1 0x24 DUP3 ADD MSTORE PUSH3 0x29AA23 PUSH1 0xE9 SHL PUSH1 0x44 DUP3 ADD MSTORE PUSH1 0x64 ADD PUSH2 0xE14 JUMP JUMPDEST PUSH1 0x2 DUP1 SLOAD PUSH1 0x1 PUSH1 0x1 PUSH1 0xA0 SHL SUB NOT AND SWAP1 SSTORE PUSH2 0xE26 DUP2 PUSH2 0x2601 JUMP JUMPDEST PUSH0 DUP1 PUSH0 DUP4 PUSH1 0x1 PUSH1 0x1 PUSH1 0xA0 SHL SUB AND PUSH4 0x3850C7BD PUSH1 0x40 MLOAD DUP2 PUSH4 0xFFFFFFFF AND PUSH1 0xE0 SHL DUP2 MSTORE PUSH1 0x4 ADD PUSH1 0xE0 PUSH1 0x40 MLOAD DUP1 DUP4 SUB DUP2 DUP7 GAS STATICCALL ISZERO DUP1 ISZERO PUSH2 0x1914 JUMPI RETURNDATASIZE PUSH0 DUP1 RETURNDATACOPY RETURNDATASIZE PUSH0 REVERT JUMPDEST POP POP POP POP PUSH1 0x40 MLOAD RETURNDATASIZE PUSH1 0x1F NOT PUSH1 0x1F DUP3 ADD AND DUP3 ADD DUP1 PUSH1 0x40 MSTORE POP DUP2 ADD SWAP1 PUSH2 0x1938 SWAP2 SWAP1 PUSH2 0x2DA0 JUMP JUMPDEST POP POP POP SWAP4 POP SWAP4 POP POP POP PUSH0 DUP2 PUSH2 0xFFFF AND GT PUSH2 0x1979 JUMPI PUSH1 0x40 MLOAD PUSH3 0x461BCD PUSH1 0xE5 SHL DUP2 MSTORE PUSH1 0x20 PUSH1 0x4 DUP3 ADD MSTORE PUSH1 0x2 PUSH1 0x24 DUP3 ADD MSTORE PUSH2 0x4E49 PUSH1 0xF0 SHL PUSH1 0x44 DUP3 ADD MSTORE PUSH1 0x64 ADD PUSH2 0xE14 JUMP JUMPDEST PUSH0 DUP1 PUSH1 0x1 PUSH1 0x1 PUSH1 0xA0 SHL SUB DUP7 AND PUSH4 0x252C09D7 DUP5 PUSH2 0x1996 DUP8 PUSH1 0x1 PUSH2 0x2E2E JUMP JUMPDEST PUSH2 0x19A0 SWAP2 SWAP1 PUSH2 0x2E48 JUMP JUMPDEST PUSH1 0x40 MLOAD PUSH1 0x1 PUSH1 0x1 PUSH1 0xE0 SHL SUB NOT PUSH1 0xE0 DUP5 SWAP1 SHL AND DUP2 MSTORE PUSH2 0xFFFF SWAP1 SWAP2 AND PUSH1 0x4 DUP3 ADD MSTORE PUSH1 0x24 ADD PUSH1 0x80 PUSH1 0x40 MLOAD DUP1 DUP4 SUB DUP2 DUP7 GAS STATICCALL ISZERO DUP1 ISZERO PUSH2 0x19DD JUMPI RETURNDATASIZE PUSH0 DUP1 RETURNDATACOPY RETURNDATASIZE PUSH0 REVERT JUMPDEST POP POP POP POP PUSH1 0x40 MLOAD RETURNDATASIZE PUSH1 0x1F NOT PUSH1 0x1F DUP3 ADD AND DUP3 ADD DUP1 PUSH1 0x40 MSTORE POP DUP2 ADD SWAP1 PUSH2 0x1A01 SWAP2 SWAP1 PUSH2 0x2E7C JUMP JUMPDEST SWAP4 POP POP POP SWAP2 POP DUP1 PUSH2 0x1A79 JUMPI PUSH1 0x40 MLOAD PUSH4 0x252C09D7 PUSH1 0xE0 SHL DUP2 MSTORE PUSH0 PUSH1 0x4 DUP3 ADD MSTORE PUSH1 0x1 PUSH1 0x1 PUSH1 0xA0 SHL SUB DUP8 AND SWAP1 PUSH4 0x252C09D7 SWAP1 PUSH1 0x24 ADD PUSH1 0x80 PUSH1 0x40 MLOAD DUP1 DUP4 SUB DUP2 DUP7 GAS STATICCALL ISZERO DUP1 ISZERO PUSH2 0x1A4E JUMPI RETURNDATASIZE PUSH0 DUP1 RETURNDATACOPY RETURNDATASIZE PUSH0 REVERT JUMPDEST POP POP POP POP PUSH1 0x40 MLOAD RETURNDATASIZE PUSH1 0x1F NOT PUSH1 0x1F DUP3 ADD AND DUP3 ADD DUP1 PUSH1 0x40 MSTORE POP DUP2 ADD SWAP1 PUSH2 0x1A72 SWAP2 SWAP1 PUSH2 0x2E7C JUMP JUMPDEST POP SWAP2 SWAP4 POP POP POP JUMPDEST PUSH2 0x1A83 DUP3 TIMESTAMP PUSH2 0x2879 JUMP JUMPDEST SWAP7 SWAP6 POP POP POP POP POP POP JUMP JUMPDEST PUSH0 DUP1 DUP3 PUSH4 0xFFFFFFFF AND PUSH0 SUB PUSH2 0x1AC9 JUMPI PUSH1 0x40 MLOAD PUSH3 0x461BCD PUSH1 0xE5 SHL DUP2 MSTORE PUSH1 0x20 PUSH1 0x4 DUP3 ADD MSTORE PUSH1 0x2 PUSH1 0x24 DUP3 ADD MSTORE PUSH2 0x425 PUSH1 0xF4 SHL PUSH1 0x44 DUP3 ADD MSTORE PUSH1 0x64 ADD PUSH2 0xE14 JUMP JUMPDEST PUSH1 0x40 DUP1 MLOAD PUSH1 0x2 DUP1 DUP3 MSTORE PUSH1 0x60 DUP3 ADD DUP4 MSTORE PUSH0 SWAP3 PUSH1 0x20 DUP4 ADD SWAP1 DUP1 CALLDATASIZE DUP4 CALLDATACOPY ADD SWAP1 POP POP SWAP1 POP DUP4 DUP2 PUSH0 DUP2 MLOAD DUP2 LT PUSH2 0x1AFC JUMPI PUSH2 0x1AFC PUSH2 0x2BF5 JUMP JUMPDEST PUSH1 0x20 MUL PUSH1 0x20 ADD ADD SWAP1 PUSH4 0xFFFFFFFF AND SWAP1 DUP2 PUSH4 0xFFFFFFFF AND DUP2 MSTORE POP POP PUSH0 DUP2 PUSH1 0x1 DUP2 MLOAD DUP2 LT PUSH2 0x1B2A JUMPI PUSH2 0x1B2A PUSH2 0x2BF5 JUMP JUMPDEST PUSH1 0x20 MUL PUSH1 0x20 ADD ADD SWAP1 PUSH4 0xFFFFFFFF AND SWAP1 DUP2 PUSH4 0xFFFFFFFF AND DUP2 MSTORE POP POP PUSH0 DUP1 DUP7 PUSH1 0x1 PUSH1 0x1 PUSH1 0xA0 SHL SUB AND PUSH4 0x883BDBFD DUP5 PUSH1 0x40 MLOAD DUP3 PUSH4 0xFFFFFFFF AND PUSH1 0xE0 SHL DUP2 MSTORE PUSH1 0x4 ADD PUSH2 0x1B72 SWAP2 SWAP1 PUSH2 0x2ED1 JUMP JUMPDEST PUSH0 PUSH1 0x40 MLOAD DUP1 DUP4 SUB DUP2 DUP7 GAS STATICCALL ISZERO DUP1 ISZERO PUSH2 0x1B8C JUMPI RETURNDATASIZE PUSH0 DUP1 RETURNDATACOPY RETURNDATASIZE PUSH0 REVERT JUMPDEST POP POP POP POP PUSH1 0x40 MLOAD RETURNDATASIZE PUSH0 DUP3 RETURNDATACOPY PUSH1 0x1F RETURNDATASIZE SWAP1 DUP2 ADD PUSH1 0x1F NOT AND DUP3 ADD PUSH1 0x40 MSTORE PUSH2 0x1BB3 SWAP2 SWAP1 DUP2 ADD SWAP1 PUSH2 0x2F87 JUMP JUMPDEST SWAP2 POP SWAP2 POP PUSH0 DUP3 PUSH0 DUP2 MLOAD DUP2 LT PUSH2 0x1BCA JUMPI PUSH2 0x1BCA PUSH2 0x2BF5 JUMP JUMPDEST PUSH1 0x20 MUL PUSH1 0x20 ADD ADD MLOAD DUP4 PUSH1 0x1 DUP2 MLOAD DUP2 LT PUSH2 0x1BE5 JUMPI PUSH2 0x1BE5 PUSH2 0x2BF5 JUMP JUMPDEST PUSH1 0x20 MUL PUSH1 0x20 ADD ADD MLOAD PUSH2 0x1BF7 SWAP2 SWAP1 PUSH2 0x304C JUMP JUMPDEST SWAP1 POP PUSH0 DUP3 PUSH0 DUP2 MLOAD DUP2 LT PUSH2 0x1C0C JUMPI PUSH2 0x1C0C PUSH2 0x2BF5 JUMP JUMPDEST PUSH1 0x20 MUL PUSH1 0x20 ADD ADD MLOAD DUP4 PUSH1 0x1 DUP2 MLOAD DUP2 LT PUSH2 0x1C27 JUMPI PUSH2 0x1C27 PUSH2 0x2BF5 JUMP JUMPDEST PUSH1 0x20 MUL PUSH1 0x20 ADD ADD MLOAD PUSH2 0x1C39 SWAP2 SWAP1 PUSH2 0x3079 JUMP JUMPDEST SWAP1 POP PUSH4 0xFFFFFFFF DUP9 AND PUSH2 0x1C4C DUP2 DUP5 PUSH2 0x3098 JUMP JUMPDEST SWAP8 POP PUSH0 DUP4 PUSH1 0x6 SIGNEXTEND SLT DUP1 ISZERO PUSH2 0x1C6B JUMPI POP PUSH2 0x1C65 DUP2 DUP5 PUSH2 0x30CB JUMP JUMPDEST PUSH1 0x6 SIGNEXTEND ISZERO ISZERO JUMPDEST ISZERO PUSH2 0x1C7E JUMPI DUP8 PUSH2 0x1C7A DUP2 PUSH2 0x30EC JUMP JUMPDEST SWAP9 POP POP JUMPDEST PUSH4 0xFFFFFFFF DUP10 AND PUSH5 0x100000000 PUSH1 0x1 PUSH1 0xC0 SHL SUB PUSH1 0x20 DUP5 SWAP1 SHL AND PUSH2 0x1CA8 PUSH1 0x1 PUSH1 0x1 PUSH1 0xA0 SHL SUB DUP4 PUSH2 0x310D JUMP JUMPDEST PUSH2 0x1CB2 SWAP2 SWAP1 PUSH2 0x313E JUMP JUMPDEST SWAP8 POP POP POP POP POP POP POP POP SWAP3 POP SWAP3 SWAP1 POP JUMP JUMPDEST PUSH0 DUP1 PUSH0 DUP4 PUSH1 0x2 SIGNEXTEND SLT PUSH2 0x1CD7 JUMPI DUP3 PUSH1 0x2 SIGNEXTEND PUSH2 0x1CDE JUMP JUMPDEST DUP3 PUSH1 0x2 SIGNEXTEND PUSH0 SUB JUMPDEST SWAP1 POP PUSH3 0xD89E8 DUP2 GT ISZERO PUSH2 0x1D04 JUMPI PUSH1 0x40 MLOAD PUSH4 0x15E4079D PUSH1 0xE1 SHL DUP2 MSTORE PUSH1 0x4 ADD PUSH1 0x40 MLOAD DUP1 SWAP2 SUB SWAP1 REVERT JUMPDEST PUSH0 DUP2 PUSH1 0x1 AND PUSH0 SUB PUSH2 0x1D19 JUMPI PUSH1 0x1 PUSH1 0x80 SHL PUSH2 0x1D2B JUMP JUMPDEST PUSH16 0xFFFCB933BD6FAD37AA2D162D1A594001 JUMPDEST PUSH17 0xFFFFFFFFFFFFFFFFFFFFFFFFFFFFFFFFFF AND SWAP1 POP PUSH1 0x2 DUP3 AND ISZERO PUSH2 0x1D5F JUMPI PUSH16 0xFFF97272373D413259A46990580E213A MUL PUSH1 0x80 SHR JUMPDEST PUSH1 0x4 DUP3 AND ISZERO PUSH2 0x1D7E JUMPI PUSH16 0xFFF2E50F5F656932EF12357CF3C7FDCC MUL PUSH1 0x80 SHR JUMPDEST PUSH1 0x8 DUP3 AND ISZERO PUSH2 0x1D9D JUMPI PUSH16 0xFFE5CACA7E10E4E61C3624EAA0941CD0 MUL PUSH1 0x80 SHR JUMPDEST PUSH1 0x10 DUP3 AND ISZERO PUSH2 0x1DBC JUMPI PUSH16 0xFFCB9843D60F6159C9DB58835C926644 MUL PUSH1 0x80 SHR JUMPDEST PUSH1 0x20 DUP3 AND ISZERO PUSH2 0x1DDB JUMPI PUSH16 0xFF973B41FA98C081472E6896DFB254C0 MUL PUSH1 0x80 SHR JUMPDEST PUSH1 0x40 DUP3 AND ISZERO PUSH2 0x1DFA JUMPI PUSH16 0xFF2EA16466C96A3843EC78B326B52861 MUL PUSH1 0x80 SHR JUMPDEST PUSH1 0x80 DUP3 AND ISZERO PUSH2 0x1E19 JUMPI PUSH16 0xFE5DEE046A99A2A811C461F1969C3053 MUL PUSH1 0x80 SHR JUMPDEST PUSH2 0x100 DUP3 AND ISZERO PUSH2 0x1E39 JUMPI PUSH16 0xFCBE86C7900A88AEDCFFC83B479AA3A4 MUL PUSH1 0x80 SHR JUMPDEST PUSH2 0x200 DUP3 AND ISZERO PUSH2 0x1E59 JUMPI PUSH16 0xF987A7253AC413176F2B074CF7815E54 MUL PUSH1 0x80 SHR JUMPDEST PUSH2 0x400 DUP3 AND ISZERO PUSH2 0x1E79 JUMPI PUSH16 0xF3392B0822B70005940C7A398E4B70F3 MUL PUSH1 0x80 SHR JUMPDEST PUSH2 0x800 DUP3 AND ISZERO PUSH2 0x1E99 JUMPI PUSH16 0xE7159475A2C29B7443B29C7FA6E889D9 MUL PUSH1 0x80 SHR JUMPDEST PUSH2 0x1000 DUP3 AND ISZERO PUSH2 0x1EB9 JUMPI PUSH16 0xD097F3BDFD2022B8845AD8F792AA5825 MUL PUSH1 0x80 SHR JUMPDEST PUSH2 0x2000 DUP3 AND ISZERO PUSH2 0x1ED9 JUMPI PUSH16 0xA9F746462D870FDF8A65DC1F90E061E5 MUL PUSH1 0x80 SHR JUMPDEST PUSH2 0x4000 DUP3 AND ISZERO PUSH2 0x1EF9 JUMPI PUSH16 0x70D869A156D2A1B890BB3DF62BAF32F7 MUL PUSH1 0x80 SHR JUMPDEST PUSH2 0x8000 DUP3 AND ISZERO PUSH2 0x1F19 JUMPI PUSH16 0x31BE135F97D08FD981231505542FCFA6 MUL PUSH1 0x80 SHR JUMPDEST PUSH3 0x10000 DUP3 AND ISZERO PUSH2 0x1F3A JUMPI PUSH16 0x9AA508B5B7A84E1C677DE54F3E99BC9 MUL PUSH1 0x80 SHR JUMPDEST PUSH3 0x20000 DUP3 AND ISZERO PUSH2 0x1F5A JUMPI PUSH15 0x5D6AF8DEDB81196699C329225EE604 MUL PUSH1 0x80 SHR JUMPDEST PUSH3 0x40000 DUP3 AND ISZERO PUSH2 0x1F79 JUMPI PUSH14 0x2216E584F5FA1EA926041BEDFE98 MUL PUSH1 0x80 SHR JUMPDEST PUSH3 0x80000 DUP3 AND ISZERO PUSH2 0x1F96 JUMPI PUSH12 0x48A170391F7DC42444E8FA2 MUL PUSH1 0x80 SHR JUMPDEST PUSH0 DUP5 PUSH1 0x2 SIGNEXTEND SGT ISZERO PUSH2 0x1FB5 JUMPI DUP1 PUSH0 NOT DUP2 PUSH2 0x1FB1 JUMPI PUSH2 0x1FB1 PUSH2 0x2895 JUMP JUMPDEST DIV SWAP1 POP JUMPDEST PUSH5 0x100000000 DUP2 MOD ISZERO PUSH2 0x1FC9 JUMPI PUSH1 0x1 PUSH2 0x1FCB JUMP JUMPDEST PUSH0 JUMPDEST PUSH1 0xFF AND PUSH1 0x20 DUP3 SWAP1 SHR ADD SWAP3 POP POP POP SWAP2 SWAP1 POP JUMP JUMPDEST PUSH0 PUSH1 0x1 PUSH1 0x1 PUSH1 0x80 SHL SUB PUSH1 0x1 PUSH1 0x1 PUSH1 0xA0 SHL SUB DUP7 AND GT PUSH2 0x204F JUMPI PUSH0 PUSH2 0x2009 PUSH1 0x1 PUSH1 0x1 PUSH1 0xA0 SHL SUB DUP8 AND DUP1 PUSH2 0x2B90 JUMP JUMPDEST SWAP1 POP DUP3 PUSH1 0x1 PUSH1 0x1 PUSH1 0xA0 SHL SUB AND DUP5 PUSH1 0x1 PUSH1 0x1 PUSH1 0xA0 SHL SUB AND LT PUSH2 0x2038 JUMPI PUSH2 0x2033 PUSH1 0x1 PUSH1 0xC0 SHL DUP7 DUP4 PUSH2 0x2652 JUMP JUMPDEST PUSH2 0x2047 JUMP JUMPDEST PUSH2 0x2047 DUP2 DUP7 PUSH1 0x1 PUSH1 0xC0 SHL PUSH2 0x2652 JUMP JUMPDEST SWAP2 POP POP PUSH2 0x20AF JUMP JUMPDEST PUSH0 PUSH2 0x206D PUSH1 0x1 PUSH1 0x1 PUSH1 0xA0 SHL SUB DUP8 AND DUP1 PUSH9 0x10000000000000000 PUSH2 0x2652 JUMP JUMPDEST SWAP1 POP DUP3 PUSH1 0x1 PUSH1 0x1 PUSH1 0xA0 SHL SUB AND DUP5 PUSH1 0x1 PUSH1 0x1 PUSH1 0xA0 SHL SUB AND LT PUSH2 0x209C JUMPI PUSH2 0x2097 PUSH1 0x1 PUSH1 0x80 SHL DUP7 DUP4 PUSH2 0x2652 JUMP JUMPDEST PUSH2 0x20AB JUMP JUMPDEST PUSH2 0x20AB DUP2 DUP7 PUSH1 0x1 PUSH1 0x80 SHL PUSH2 0x2652 JUMP JUMPDEST SWAP2 POP POP JUMPDEST SWAP5 SWAP4 POP POP POP POP JUMP JUMPDEST PUSH1 0x2 PUSH0 SLOAD SUB PUSH2 0x20D9 JUMPI PUSH1 0x40 MLOAD PUSH4 0x3EE5AEB5 PUSH1 0xE0 SHL DUP2 MSTORE PUSH1 0x4 ADD PUSH1 0x40 MLOAD DUP1 SWAP2 SUB SWAP1 REVERT JUMPDEST PUSH1 0x2 PUSH0 SSTORE JUMP JUMPDEST PUSH1 0x40 MLOAD PUSH4 0x95EA7B3 PUSH1 0xE0 SHL DUP2 MSTORE PUSH20 0xE592427A0AECE92DE3EDEE1F18E0157C05861564 PUSH1 0x4 DUP3 ADD MSTORE PUSH1 0x24 DUP2 ADD DUP4 SWAP1 MSTORE PUSH0 SWAP1 PUSH32 0x0 PUSH1 0x1 PUSH1 0x1 PUSH1 0xA0 SHL SUB AND SWAP1 PUSH4 0x95EA7B3 SWAP1 PUSH1 0x44 ADD PUSH1 0x20 PUSH1 0x40 MLOAD DUP1 DUP4 SUB DUP2 PUSH0 DUP8 GAS CALL ISZERO DUP1 ISZERO PUSH2 0x215F JUMPI RETURNDATASIZE PUSH0 DUP1 RETURNDATACOPY RETURNDATASIZE PUSH0 REVERT JUMPDEST POP POP POP POP PUSH1 0x40 MLOAD RETURNDATASIZE PUSH1 0x1F NOT PUSH1 0x1F DUP3 ADD AND DUP3 ADD DUP1 PUSH1 0x40 MSTORE POP DUP2 ADD SWAP1 PUSH2 0x2183 SWAP2 SWAP1 PUSH2 0x2B1D JUMP JUMPDEST POP PUSH1 0x40 MLOAD PUSH12 0xFFFFFFFFFFFFFFFFFFFFFFFF NOT PUSH32 0x0 PUSH1 0x60 SWAP1 DUP2 SHL DUP3 AND PUSH1 0x20 DUP5 ADD MSTORE PUSH2 0x271 PUSH1 0xEC SHL PUSH1 0x34 DUP5 ADD MSTORE PUSH32 0x0 SWAP1 SHL AND PUSH1 0x37 DUP3 ADD MSTORE PUSH0 SWAP1 PUSH1 0x4B ADD PUSH1 0x40 MLOAD PUSH1 0x20 DUP2 DUP4 SUB SUB DUP2 MSTORE SWAP1 PUSH1 0x40 MSTORE SWAP1 POP PUSH0 PUSH2 0x2216 DUP6 PUSH2 0xE64 JUMP JUMPDEST PUSH1 0x9 SLOAD SWAP1 SWAP2 POP PUSH0 SWAP1 PUSH1 0x64 SWAP1 PUSH2 0x222E SWAP1 PUSH1 0xFF AND DUP3 PUSH2 0x316C JUMP JUMPDEST PUSH2 0x223B SWAP1 PUSH1 0xFF AND DUP5 PUSH2 0x2B90 JUMP JUMPDEST PUSH2 0x2245 SWAP2 SWAP1 PUSH2 0x2BA7 JUMP JUMPDEST PUSH1 0x40 DUP1 MLOAD PUSH1 0xA0 DUP2 ADD DUP3 MSTORE DUP6 DUP2 MSTORE ADDRESS PUSH1 0x20 DUP3 ADD MSTORE DUP1 DUP3 ADD DUP9 SWAP1 MSTORE PUSH1 0x60 DUP2 ADD DUP10 SWAP1 MSTORE PUSH1 0x80 DUP2 ADD DUP4 SWAP1 MSTORE SWAP1 MLOAD PUSH4 0xC04B8D59 PUSH1 0xE0 SHL DUP2 MSTORE SWAP2 SWAP3 POP SWAP1 PUSH20 0xE592427A0AECE92DE3EDEE1F18E0157C05861564 SWAP1 PUSH4 0xC04B8D59 SWAP1 PUSH2 0x22A6 SWAP1 DUP5 SWAP1 PUSH1 0x4 ADD PUSH2 0x3185 JUMP JUMPDEST PUSH1 0x20 PUSH1 0x40 MLOAD DUP1 DUP4 SUB DUP2 PUSH0 DUP8 GAS CALL ISZERO DUP1 ISZERO PUSH2 0x22C2 JUMPI RETURNDATASIZE PUSH0 DUP1 RETURNDATACOPY RETURNDATASIZE PUSH0 REVERT JUMPDEST POP POP POP POP PUSH1 0x40 MLOAD RETURNDATASIZE PUSH1 0x1F NOT PUSH1 0x1F DUP3 ADD AND DUP3 ADD DUP1 PUSH1 0x40 MSTORE POP DUP2 ADD SWAP1 PUSH2 0xF75 SWAP2 SWAP1 PUSH2 0x2912 JUMP JUMPDEST PUSH1 0x40 DUP1 MLOAD PUSH1 0x1 PUSH1 0x1 PUSH1 0xA0 SHL SUB DUP5 DUP2 AND PUSH1 0x24 DUP4 ADD MSTORE PUSH1 0x44 DUP1 DUP4 ADD DUP6 SWAP1 MSTORE DUP4 MLOAD DUP1 DUP5 SUB SWAP1 SWAP2 ADD DUP2 MSTORE PUSH1 0x64 SWAP1 SWAP3 ADD DUP4 MSTORE PUSH1 0x20 DUP3 ADD DUP1 MLOAD PUSH1 0x1 PUSH1 0x1 PUSH1 0xE0 SHL SUB AND PUSH4 0xA9059CBB PUSH1 0xE0 SHL OR SWAP1 MSTORE SWAP2 MLOAD PUSH0 SWAP3 DUP4 SWAP3 SWAP1 DUP8 AND SWAP2 PUSH2 0x2341 SWAP2 SWAP1 PUSH2 0x2D59 JUMP JUMPDEST PUSH0 PUSH1 0x40 MLOAD DUP1 DUP4 SUB DUP2 PUSH0 DUP7 GAS CALL SWAP2 POP POP RETURNDATASIZE DUP1 PUSH0 DUP2 EQ PUSH2 0x237A JUMPI PUSH1 0x40 MLOAD SWAP2 POP PUSH1 0x1F NOT PUSH1 0x3F RETURNDATASIZE ADD AND DUP3 ADD PUSH1 0x40 MSTORE RETURNDATASIZE DUP3 MSTORE RETURNDATASIZE PUSH0 PUSH1 0x20 DUP5 ADD RETURNDATACOPY PUSH2 0x237F JUMP JUMPDEST PUSH1 0x60 SWAP2 POP JUMPDEST POP SWAP2 POP SWAP2 POP DUP2 DUP1 ISZERO PUSH2 0x23A9 JUMPI POP DUP1 MLOAD ISZERO DUP1 PUSH2 0x23A9 JUMPI POP DUP1 DUP1 PUSH1 0x20 ADD SWAP1 MLOAD DUP2 ADD SWAP1 PUSH2 0x23A9 SWAP2 SWAP1 PUSH2 0x2B1D JUMP JUMPDEST PUSH2 0x5A2 JUMPI PUSH1 0x40 MLOAD PUSH3 0x461BCD PUSH1 0xE5 SHL DUP2 MSTORE PUSH1 0x20 PUSH1 0x4 DUP3 ADD MSTORE PUSH1 0x2 PUSH1 0x24 DUP3 ADD MSTORE PUSH2 0x14D5 PUSH1 0xF2 SHL PUSH1 0x44 DUP3 ADD MSTORE PUSH1 0x64 ADD PUSH2 0xE14 JUMP JUMPDEST PUSH0 PUSH2 0x2710 PUSH2 0x23EA DUP4 PUSH2 0x2328 PUSH2 0x2B90 JUMP JUMPDEST PUSH2 0x11CE SWAP2 SWAP1 PUSH2 0x2BA7 JUMP JUMPDEST PUSH0 DUP1 PUSH0 PUSH2 0x2400 DUP5 PUSH2 0x2711 JUMP JUMPDEST PUSH1 0x7 SLOAD SWAP1 SWAP2 POP PUSH2 0x241B SWAP1 PUSH2 0xFFFF DUP4 AND SWAP1 PUSH4 0xFFFFFFFF AND PUSH2 0x28D0 JUMP JUMPDEST PUSH2 0x2426 SWAP1 PUSH1 0x1 PUSH2 0x28D0 JUMP JUMPDEST SWAP3 POP PUSH0 PUSH2 0x2432 TIMESTAMP PUSH2 0x9B1 JUMP JUMPDEST PUSH1 0x4 SLOAD SWAP1 SWAP2 POP PUSH0 SWAP1 PUSH2 0x100 SWAP1 DIV PUSH4 0xFFFFFFFF AND ISZERO PUSH2 0x2466 JUMPI PUSH1 0x4 SLOAD PUSH2 0x2461 SWAP1 PUSH2 0x100 SWAP1 DIV PUSH4 0xFFFFFFFF AND PUSH2 0x9B1 JUMP JUMPDEST PUSH2 0x2468 JUMP JUMPDEST DUP2 JUMPDEST SWAP1 POP DUP1 PUSH4 0xFFFFFFFF AND DUP3 PUSH4 0xFFFFFFFF AND SUB PUSH2 0x24DE JUMPI PUSH0 PUSH2 0x2710 PUSH2 0x248C PUSH2 0x324 PUSH2 0x487 JUMP JUMPDEST PUSH4 0xFFFFFFFF AND PUSH1 0x8 SLOAD PUSH2 0x249F SWAP2 SWAP1 PUSH2 0x2B90 JUMP JUMPDEST PUSH2 0x24A9 SWAP2 SWAP1 PUSH2 0x2BA7 JUMP JUMPDEST SWAP1 POP PUSH0 PUSH2 0x24B7 PUSH1 0x30 DUP4 PUSH2 0x2BA7 JUMP JUMPDEST SWAP1 POP PUSH0 PUSH2 0x24C8 PUSH2 0xFFFF DUP8 AND DUP4 PUSH2 0x31F4 JUMP JUMPDEST SWAP1 POP PUSH2 0x24D4 DUP2 DUP4 PUSH2 0x3216 JUMP JUMPDEST SWAP7 POP POP POP POP PUSH2 0x25DF JUMP JUMPDEST PUSH1 0x4 SLOAD PUSH2 0x100 SWAP1 DIV PUSH4 0xFFFFFFFF AND PUSH0 PUSH2 0x24F6 DUP3 PUSH2 0x439 JUMP JUMPDEST SWAP1 POP JUMPDEST DUP3 PUSH4 0xFFFFFFFF AND DUP5 PUSH4 0xFFFFFFFF AND LT PUSH2 0x25DC JUMPI PUSH0 DUP2 PUSH4 0xFFFFFFFF AND TIMESTAMP LT PUSH2 0x2530 JUMPI PUSH2 0x2525 PUSH1 0x1 DUP4 PUSH2 0x2879 JUMP JUMPDEST PUSH4 0xFFFFFFFF AND PUSH2 0x2532 JUMP JUMPDEST TIMESTAMP JUMPDEST SWAP1 POP PUSH0 PUSH2 0x708 PUSH2 0x2542 DUP6 DUP5 PUSH2 0x2879 JUMP JUMPDEST PUSH2 0x254C SWAP2 SWAP1 PUSH2 0x28A9 JUMP JUMPDEST SWAP1 POP PUSH0 PUSH2 0x2710 PUSH2 0x255E PUSH2 0x324 DUP6 PUSH2 0x119C JUMP JUMPDEST PUSH4 0xFFFFFFFF AND PUSH1 0x8 SLOAD PUSH2 0x2571 SWAP2 SWAP1 PUSH2 0x2B90 JUMP JUMPDEST PUSH2 0x257B SWAP2 SWAP1 PUSH2 0x2BA7 JUMP JUMPDEST SWAP1 POP PUSH0 PUSH2 0x2589 PUSH1 0x30 DUP4 PUSH2 0x2BA7 JUMP JUMPDEST SWAP1 POP PUSH2 0x259B PUSH4 0xFFFFFFFF DUP5 AND DUP3 PUSH2 0x31F4 JUMP JUMPDEST PUSH2 0x25A5 SWAP1 DUP12 PUSH2 0x3216 JUMP JUMPDEST SWAP10 POP PUSH2 0x25B3 PUSH2 0x708 DUP7 PUSH2 0x2879 JUMP JUMPDEST SWAP6 POP PUSH2 0x25C4 PUSH2 0x1E2 DUP8 PUSH2 0x708 PUSH2 0x28D0 JUMP JUMPDEST SWAP5 POP DUP7 PUSH2 0x25D0 DUP2 PUSH2 0x3235 JUMP JUMPDEST SWAP8 POP POP POP POP POP POP PUSH2 0x24F9 JUMP JUMPDEST POP POP JUMPDEST PUSH1 0x8 SLOAD DUP5 PUSH1 0x1 PUSH1 0x1 PUSH1 0x80 SHL SUB AND GT ISZERO PUSH2 0x25F8 JUMPI PUSH1 0x8 SLOAD SWAP4 POP JUMPDEST POP POP SWAP2 SWAP4 SWAP1 SWAP3 POP JUMP JUMPDEST PUSH1 0x1 DUP1 SLOAD PUSH1 0x1 PUSH1 0x1 PUSH1 0xA0 SHL SUB DUP4 DUP2 AND PUSH1 0x1 PUSH1 0x1 PUSH1 0xA0 SHL SUB NOT DUP4 AND DUP2 OR SWAP1 SWAP4 SSTORE PUSH1 0x40 MLOAD SWAP2 AND SWAP2 SWAP1 DUP3 SWAP1 PUSH32 0x8BE0079C531659141344CD1FD0A4F28419497F9722A3DAAFE3B4186F6B6457E0 SWAP1 PUSH0 SWAP1 LOG3 POP POP JUMP JUMPDEST PUSH0 DUP4 DUP4 MUL DUP2 PUSH0 NOT DUP6 DUP8 MULMOD DUP3 DUP2 LT DUP4 DUP3 SUB SUB SWAP2 POP POP DUP1 PUSH0 SUB PUSH2 0x2686 JUMPI DUP4 DUP3 DUP2 PUSH2 0x267C JUMPI PUSH2 0x267C PUSH2 0x2895 JUMP JUMPDEST DIV SWAP3 POP POP POP PUSH2 0x9CE JUMP JUMPDEST DUP1 DUP5 GT PUSH2 0x26A6 JUMPI PUSH1 0x40 MLOAD PUSH4 0x227BC153 PUSH1 0xE0 SHL DUP2 MSTORE PUSH1 0x4 ADD PUSH1 0x40 MLOAD DUP1 SWAP2 SUB SWAP1 REVERT JUMPDEST PUSH0 DUP5 DUP7 DUP9 MULMOD PUSH0 DUP7 DUP2 SUB DUP8 AND SWAP7 DUP8 SWAP1 DIV SWAP7 PUSH1 0x2 PUSH1 0x3 DUP10 MUL DUP2 XOR DUP1 DUP11 MUL DUP3 SUB MUL DUP1 DUP11 MUL DUP3 SUB MUL DUP1 DUP11 MUL DUP3 SUB MUL DUP1 DUP11 MUL DUP3 SUB MUL DUP1 DUP11 MUL DUP3 SUB MUL DUP1 DUP11 MUL SWAP1 SWAP2 SUB MUL SWAP2 DUP2 SWAP1 SUB DUP2 SWAP1 DIV PUSH1 0x1 ADD DUP7 DUP5 GT SWAP1 SWAP6 SUB SWAP5 SWAP1 SWAP5 MUL SWAP2 SWAP1 SWAP5 SUB SWAP3 SWAP1 SWAP3 DIV SWAP2 SWAP1 SWAP2 OR SWAP2 SWAP1 SWAP2 MUL SWAP2 POP POP SWAP4 SWAP3 POP POP POP JUMP JUMPDEST PUSH1 0x4 SLOAD PUSH0 SWAP1 PUSH2 0x100 SWAP1 DIV PUSH4 0xFFFFFFFF AND DUP2 SUB PUSH2 0x2749 JUMPI PUSH2 0x708 DUP3 GT ISZERO PUSH2 0x2742 JUMPI PUSH2 0x273D PUSH2 0x708 DUP4 PUSH2 0x2BA7 JUMP JUMPDEST PUSH2 0x11CE JUMP JUMPDEST PUSH0 SWAP3 SWAP2 POP POP JUMP JUMPDEST PUSH2 0x708 DUP3 GT ISZERO PUSH2 0x276B JUMPI PUSH1 0x1 PUSH2 0x2761 PUSH2 0x708 DUP5 PUSH2 0x2BA7 JUMP JUMPDEST PUSH2 0x273D SWAP2 SWAP1 PUSH2 0x3250 JUMP JUMPDEST POP PUSH0 SWAP2 SWAP1 POP JUMP JUMPDEST PUSH4 0xFFFFFFFF DUP2 AND DUP2 EQ PUSH2 0xE26 JUMPI PUSH0 DUP1 REVERT JUMPDEST PUSH0 PUSH1 0x20 DUP3 DUP5 SUB SLT ISZERO PUSH2 0x2793 JUMPI PUSH0 DUP1 REVERT JUMPDEST DUP2 CALLDATALOAD PUSH2 0x9CE DUP2 PUSH2 0x2772 JUMP JUMPDEST PUSH0 DUP1 PUSH1 0x40 DUP4 DUP6 SUB SLT ISZERO PUSH2 0x27AF JUMPI PUSH0 DUP1 REVERT JUMPDEST DUP3 CALLDATALOAD PUSH2 0x27BA DUP2 PUSH2 0x2772 JUMP JUMPDEST SWAP5 PUSH1 0x20 SWAP4 SWAP1 SWAP4 ADD CALLDATALOAD SWAP4 POP POP POP JUMP JUMPDEST PUSH0 PUSH1 0x20 DUP3 DUP5 SUB SLT ISZERO PUSH2 0x27D8 JUMPI PUSH0 DUP1 REVERT JUMPDEST POP CALLDATALOAD SWAP2 SWAP1 POP JUMP JUMPDEST PUSH1 0xFF DUP2 AND DUP2 EQ PUSH2 0xE26 JUMPI PUSH0 DUP1 REVERT JUMPDEST PUSH0 PUSH1 0x20 DUP3 DUP5 SUB SLT ISZERO PUSH2 0x27FD JUMPI PUSH0 DUP1 REVERT JUMPDEST DUP2 CALLDATALOAD PUSH2 0x9CE DUP2 PUSH2 0x27DF JUMP JUMPDEST PUSH0 DUP1 PUSH1 0x40 DUP4 DUP6 SUB SLT ISZERO PUSH2 0x2819 JUMPI PUSH0 DUP1 REVERT JUMPDEST DUP3 CALLDATALOAD SWAP2 POP PUSH1 0x20 DUP4 ADD CALLDATALOAD PUSH2 0x282B DUP2 PUSH2 0x2772 JUMP JUMPDEST DUP1 SWAP2 POP POP SWAP3 POP SWAP3 SWAP1 POP JUMP JUMPDEST PUSH1 0x1 PUSH1 0x1 PUSH1 0xA0 SHL SUB DUP2 AND DUP2 EQ PUSH2 0xE26 JUMPI PUSH0 DUP1 REVERT JUMPDEST PUSH0 PUSH1 0x20 DUP3 DUP5 SUB SLT ISZERO PUSH2 0x285A JUMPI PUSH0 DUP1 REVERT JUMPDEST DUP2 CALLDATALOAD PUSH2 0x9CE DUP2 PUSH2 0x2836 JUMP JUMPDEST PUSH4 0x4E487B71 PUSH1 0xE0 SHL PUSH0 MSTORE PUSH1 0x11 PUSH1 0x4 MSTORE PUSH1 0x24 PUSH0 REVERT JUMPDEST PUSH4 0xFFFFFFFF DUP3 DUP2 AND DUP3 DUP3 AND SUB SWAP1 DUP2 GT ISZERO PUSH2 0x11CE JUMPI PUSH2 0x11CE PUSH2 0x2865 JUMP JUMPDEST PUSH4 0x4E487B71 PUSH1 0xE0 SHL PUSH0 MSTORE PUSH1 0x12 PUSH1 0x4 MSTORE PUSH1 0x24 PUSH0 REVERT JUMPDEST PUSH0 PUSH4 0xFFFFFFFF DUP4 AND DUP1 PUSH2 0x28BE JUMPI PUSH2 0x28BE PUSH2 0x2895 JUMP JUMPDEST DUP1 PUSH4 0xFFFFFFFF DUP5 AND DIV SWAP2 POP POP SWAP3 SWAP2 POP POP JUMP JUMPDEST PUSH4 0xFFFFFFFF DUP2 DUP2 AND DUP4 DUP3 AND ADD SWAP1 DUP2 GT ISZERO PUSH2 0x11CE JUMPI PUSH2 0x11CE PUSH2 0x2865 JUMP JUMPDEST PUSH4 0xFFFFFFFF DUP2 DUP2 AND DUP4 DUP3 AND MUL SWAP1 DUP2 AND SWAP1 DUP2 DUP2 EQ PUSH2 0x290B JUMPI PUSH2 0x290B PUSH2 0x2865 JUMP JUMPDEST POP SWAP3 SWAP2 POP POP JUMP JUMPDEST PUSH0 PUSH1 0x20 DUP3 DUP5 SUB SLT ISZERO PUSH2 0x2922 JUMPI PUSH0 DUP1 REVERT JUMPDEST POP MLOAD SWAP2 SWAP1 POP JUMP JUMPDEST DUP1 DUP3 ADD DUP1 DUP3 GT ISZERO PUSH2 0x11CE JUMPI PUSH2 0x11CE PUSH2 0x2865 JUMP JUMPDEST PUSH0 DUP2 PUSH1 0x2 SIGNEXTEND DUP4 PUSH1 0x2 SIGNEXTEND DUP1 PUSH2 0x2952 JUMPI PUSH2 0x2952 PUSH2 0x2895 JUMP JUMPDEST PUSH3 0x7FFFFF NOT DUP3 EQ PUSH0 NOT DUP3 EQ AND ISZERO PUSH2 0x296B JUMPI PUSH2 0x296B PUSH2 0x2865 JUMP JUMPDEST SWAP1 SDIV SWAP4 SWAP3 POP POP POP JUMP JUMPDEST PUSH0 DUP3 PUSH1 0x2 SIGNEXTEND DUP3 PUSH1 0x2 SIGNEXTEND MUL DUP1 PUSH1 0x2 SIGNEXTEND SWAP2 POP DUP1 DUP3 EQ PUSH2 0x290B JUMPI PUSH2 0x290B PUSH2 0x2865 JUMP JUMPDEST PUSH0 DUP2 PUSH1 0x2 SIGNEXTEND PUSH3 0x7FFFFF NOT DUP2 SUB PUSH2 0x29AB JUMPI PUSH2 0x29AB PUSH2 0x2865 JUMP JUMPDEST PUSH0 SUB SWAP3 SWAP2 POP POP JUMP JUMPDEST DUP2 MLOAD PUSH1 0x1 PUSH1 0x1 PUSH1 0xA0 SHL SUB AND DUP2 MSTORE PUSH2 0x160 DUP2 ADD PUSH1 0x20 DUP4 ADD MLOAD PUSH2 0x29DF PUSH1 0x20 DUP5 ADD DUP3 PUSH1 0x1 PUSH1 0x1 PUSH1 0xA0 SHL SUB AND SWAP1 MSTORE JUMP JUMPDEST POP PUSH1 0x40 DUP4 ADD MLOAD PUSH2 0x29F6 PUSH1 0x40 DUP5 ADD DUP3 PUSH3 0xFFFFFF AND SWAP1 MSTORE JUMP JUMPDEST POP PUSH1 0x60 DUP4 ADD MLOAD PUSH2 0x2A0B PUSH1 0x60 DUP5 ADD DUP3 PUSH1 0x2 SIGNEXTEND SWAP1 MSTORE JUMP JUMPDEST POP PUSH1 0x80 DUP4 ADD MLOAD PUSH2 0x2A20 PUSH1 0x80 DUP5 ADD DUP3 PUSH1 0x2 SIGNEXTEND SWAP1 MSTORE JUMP JUMPDEST POP PUSH1 0xA0 DUP4 ADD MLOAD PUSH1 0xA0 DUP4 ADD MSTORE PUSH1 0xC0 DUP4 ADD MLOAD PUSH1 0xC0 DUP4 ADD MSTORE PUSH1 0xE0 DUP4 ADD MLOAD PUSH1 0xE0 DUP4 ADD MSTORE PUSH2 0x100 DUP4 ADD MLOAD PUSH2 0x100 DUP4 ADD MSTORE PUSH2 0x120 DUP4 ADD MLOAD PUSH2 0x2A67 PUSH2 0x120 DUP5 ADD DUP3 PUSH1 0x1 PUSH1 0x1 PUSH1 0xA0 SHL SUB AND SWAP1 MSTORE JUMP JUMPDEST POP PUSH2 0x140 SWAP3 DUP4 ADD MLOAD SWAP2 SWAP1 SWAP3 ADD MSTORE SWAP1 JUMP JUMPDEST PUSH0 DUP1 PUSH0 DUP1 PUSH1 0x80 DUP6 DUP8 SUB SLT ISZERO PUSH2 0x2A8A JUMPI PUSH0 DUP1 REVERT JUMPDEST DUP5 MLOAD PUSH1 0x20 DUP7 ADD MLOAD SWAP1 SWAP5 POP PUSH1 0x1 PUSH1 0x1 PUSH1 0x80 SHL SUB DUP2 AND DUP2 EQ PUSH2 0x2AA8 JUMPI PUSH0 DUP1 REVERT JUMPDEST PUSH1 0x40 DUP7 ADD MLOAD PUSH1 0x60 SWAP1 SWAP7 ADD MLOAD SWAP5 SWAP8 SWAP1 SWAP7 POP SWAP3 POP POP POP JUMP JUMPDEST PUSH0 PUSH1 0x20 DUP3 DUP5 SUB SLT ISZERO PUSH2 0x2ACE JUMPI PUSH0 DUP1 REVERT JUMPDEST DUP2 MLOAD PUSH2 0x9CE DUP2 PUSH2 0x2836 JUMP JUMPDEST DUP2 DUP2 SUB DUP2 DUP2 GT ISZERO PUSH2 0x11CE JUMPI PUSH2 0x11CE PUSH2 0x2865 JUMP JUMPDEST PUSH0 DUP1 PUSH1 0x40 DUP4 DUP6 SUB SLT ISZERO PUSH2 0x2AFD JUMPI PUSH0 DUP1 REVERT JUMPDEST POP POP DUP1 MLOAD PUSH1 0x20 SWAP1 SWAP2 ADD MLOAD SWAP1 SWAP3 SWAP1 SWAP2 POP JUMP JUMPDEST DUP1 MLOAD DUP1 ISZERO ISZERO DUP2 EQ PUSH2 0xE5F JUMPI PUSH0 DUP1 REVERT JUMPDEST PUSH0 PUSH1 0x20 DUP3 DUP5 SUB SLT ISZERO PUSH2 0x2B2D JUMPI PUSH0 DUP1 REVERT JUMPDEST PUSH2 0x9CE DUP3 PUSH2 0x2B0E JUMP JUMPDEST DUP1 MLOAD PUSH1 0x1 PUSH1 0x1 PUSH1 0x70 SHL SUB DUP2 AND DUP2 EQ PUSH2 0xE5F JUMPI PUSH0 DUP1 REVERT JUMPDEST PUSH0 DUP1 PUSH0 PUSH1 0x60 DUP5 DUP7 SUB SLT ISZERO PUSH2 0x2B5E JUMPI PUSH0 DUP1 REVERT JUMPDEST PUSH2 0x2B67 DUP5 PUSH2 0x2B36 JUMP JUMPDEST SWAP3 POP PUSH2 0x2B75 PUSH1 0x20 DUP6 ADD PUSH2 0x2B36 JUMP JUMPDEST SWAP2 POP PUSH1 0x40 DUP5 ADD MLOAD PUSH2 0x2B85 DUP2 PUSH2 0x2772 JUMP JUMPDEST DUP1 SWAP2 POP POP SWAP3 POP SWAP3 POP SWAP3 JUMP JUMPDEST DUP1 DUP3 MUL DUP2 ISZERO DUP3 DUP3 DIV DUP5 EQ OR PUSH2 0x11CE JUMPI PUSH2 0x11CE PUSH2 0x2865 JUMP JUMPDEST PUSH0 DUP3 PUSH2 0x2BB5 JUMPI PUSH2 0x2BB5 PUSH2 0x2895 JUMP JUMPDEST POP DIV SWAP1 JUMP JUMPDEST PUSH0 PUSH4 0xFFFFFFFF DUP4 AND DUP1 PUSH2 0x2BCF JUMPI PUSH2 0x2BCF PUSH2 0x2895 JUMP JUMPDEST DUP1 PUSH4 0xFFFFFFFF DUP5 AND MOD SWAP2 POP POP SWAP3 SWAP2 POP POP JUMP JUMPDEST PUSH4 0x4E487B71 PUSH1 0xE0 SHL PUSH0 MSTORE PUSH1 0x41 PUSH1 0x4 MSTORE PUSH1 0x24 PUSH0 REVERT JUMPDEST PUSH4 0x4E487B71 PUSH1 0xE0 SHL PUSH0 MSTORE PUSH1 0x32 PUSH1 0x4 MSTORE PUSH1 0x24 PUSH0 REVERT JUMPDEST PUSH0 PUSH1 0xA0 DUP3 ADD DUP8 DUP4 MSTORE DUP7 PUSH1 0x20 DUP5 ADD MSTORE PUSH1 0xA0 PUSH1 0x40 DUP5 ADD MSTORE DUP1 DUP7 MLOAD DUP1 DUP4 MSTORE PUSH1 0xC0 DUP6 ADD SWAP2 POP PUSH1 0x20 DUP9 ADD SWAP3 POP PUSH0 JUMPDEST DUP2 DUP2 LT ISZERO PUSH2 0x2C59 JUMPI DUP4 MLOAD PUSH1 0x1 PUSH1 0x1 PUSH1 0xA0 SHL SUB AND DUP4 MSTORE PUSH1 0x20 SWAP4 DUP5 ADD SWAP4 SWAP1 SWAP3 ADD SWAP2 PUSH1 0x1 ADD PUSH2 0x2C32 JUMP JUMPDEST POP POP PUSH1 0x1 PUSH1 0x1 PUSH1 0xA0 SHL SUB SWAP6 SWAP1 SWAP6 AND PUSH1 0x60 DUP5 ADD MSTORE POP POP PUSH1 0x80 ADD MSTORE SWAP4 SWAP3 POP POP POP JUMP JUMPDEST PUSH1 0x40 MLOAD PUSH1 0x1F DUP3 ADD PUSH1 0x1F NOT AND DUP2 ADD PUSH8 0xFFFFFFFFFFFFFFFF DUP2 GT DUP3 DUP3 LT OR ISZERO PUSH2 0x2CA2 JUMPI PUSH2 0x2CA2 PUSH2 0x2BE1 JUMP JUMPDEST PUSH1 0x40 MSTORE SWAP2 SWAP1 POP JUMP JUMPDEST PUSH0 PUSH8 0xFFFFFFFFFFFFFFFF DUP3 GT ISZERO PUSH2 0x2CC3 JUMPI PUSH2 0x2CC3 PUSH2 0x2BE1 JUMP JUMPDEST POP PUSH1 0x5 SHL PUSH1 0x20 ADD SWAP1 JUMP JUMPDEST PUSH0 PUSH1 0x20 DUP3 DUP5 SUB SLT ISZERO PUSH2 0x2CDD JUMPI PUSH0 DUP1 REVERT JUMPDEST DUP2 MLOAD PUSH8 0xFFFFFFFFFFFFFFFF DUP2 GT ISZERO PUSH2 0x2CF3 JUMPI PUSH0 DUP1 REVERT JUMPDEST DUP3 ADD PUSH1 0x1F DUP2 ADD DUP5 SGT PUSH2 0x2D03 JUMPI PUSH0 DUP1 REVERT JUMPDEST DUP1 MLOAD PUSH2 0x2D16 PUSH2 0x2D11 DUP3 PUSH2 0x2CAA JUMP JUMPDEST PUSH2 0x2C79 JUMP JUMPDEST DUP1 DUP3 DUP3 MSTORE PUSH1 0x20 DUP3 ADD SWAP2 POP PUSH1 0x20 DUP4 PUSH1 0x5 SHL DUP6 ADD ADD SWAP3 POP DUP7 DUP4 GT ISZERO PUSH2 0x2D37 JUMPI PUSH0 DUP1 REVERT JUMPDEST PUSH1 0x20 DUP5 ADD SWAP4 POP JUMPDEST DUP3 DUP5 LT ISZERO PUSH2 0x1A83 JUMPI DUP4 MLOAD DUP3 MSTORE PUSH1 0x20 SWAP4 DUP5 ADD SWAP4 SWAP1 SWAP2 ADD SWAP1 PUSH2 0x2D3E JUMP JUMPDEST PUSH0 DUP3 MLOAD DUP1 PUSH1 0x20 DUP6 ADD DUP5 MCOPY PUSH0 SWAP3 ADD SWAP2 DUP3 MSTORE POP SWAP2 SWAP1 POP JUMP JUMPDEST PUSH0 PUSH2 0xFFFF DUP3 AND PUSH2 0xFFFF DUP2 SUB PUSH2 0x2D86 JUMPI PUSH2 0x2D86 PUSH2 0x2865 JUMP JUMPDEST PUSH1 0x1 ADD SWAP3 SWAP2 POP POP JUMP JUMPDEST DUP1 MLOAD PUSH2 0xFFFF DUP2 AND DUP2 EQ PUSH2 0xE5F JUMPI PUSH0 DUP1 REVERT JUMPDEST PUSH0 DUP1 PUSH0 DUP1 PUSH0 DUP1 PUSH0 PUSH1 0xE0 DUP9 DUP11 SUB SLT ISZERO PUSH2 0x2DB6 JUMPI PUSH0 DUP1 REVERT JUMPDEST DUP8 MLOAD PUSH2 0x2DC1 DUP2 PUSH2 0x2836 JUMP JUMPDEST DUP1 SWAP8 POP POP PUSH1 0x20 DUP9 ADD MLOAD DUP1 PUSH1 0x2 SIGNEXTEND DUP2 EQ PUSH2 0x2DD8 JUMPI PUSH0 DUP1 REVERT JUMPDEST SWAP6 POP PUSH2 0x2DE6 PUSH1 0x40 DUP10 ADD PUSH2 0x2D8F JUMP JUMPDEST SWAP5 POP PUSH2 0x2DF4 PUSH1 0x60 DUP10 ADD PUSH2 0x2D8F JUMP JUMPDEST SWAP4 POP PUSH2 0x2E02 PUSH1 0x80 DUP10 ADD PUSH2 0x2D8F JUMP JUMPDEST SWAP3 POP PUSH1 0xA0 DUP9 ADD MLOAD PUSH2 0x2E12 DUP2 PUSH2 0x27DF JUMP JUMPDEST SWAP2 POP PUSH2 0x2E20 PUSH1 0xC0 DUP10 ADD PUSH2 0x2B0E JUMP JUMPDEST SWAP1 POP SWAP3 SWAP6 SWAP9 SWAP2 SWAP5 SWAP8 POP SWAP3 SWAP6 POP JUMP JUMPDEST PUSH2 0xFFFF DUP2 DUP2 AND DUP4 DUP3 AND ADD SWAP1 DUP2 GT ISZERO PUSH2 0x11CE JUMPI PUSH2 0x11CE PUSH2 0x2865 JUMP JUMPDEST PUSH0 PUSH2 0xFFFF DUP4 AND DUP1 PUSH2 0x2E5B JUMPI PUSH2 0x2E5B PUSH2 0x2895 JUMP JUMPDEST DUP1 PUSH2 0xFFFF DUP5 AND MOD SWAP2 POP POP SWAP3 SWAP2 POP POP JUMP JUMPDEST DUP1 MLOAD PUSH1 0x6 DUP2 SWAP1 SIGNEXTEND DUP2 EQ PUSH2 0xE5F JUMPI PUSH0 DUP1 REVERT JUMPDEST PUSH0 DUP1 PUSH0 DUP1 PUSH1 0x80 DUP6 DUP8 SUB SLT ISZERO PUSH2 0x2E8F JUMPI PUSH0 DUP1 REVERT JUMPDEST DUP5 MLOAD PUSH2 0x2E9A DUP2 PUSH2 0x2772 JUMP JUMPDEST SWAP4 POP PUSH2 0x2EA8 PUSH1 0x20 DUP7 ADD PUSH2 0x2E6B JUMP JUMPDEST SWAP3 POP PUSH1 0x40 DUP6 ADD MLOAD PUSH2 0x2EB8 DUP2 PUSH2 0x2836 JUMP JUMPDEST SWAP2 POP PUSH2 0x2EC6 PUSH1 0x60 DUP7 ADD PUSH2 0x2B0E JUMP JUMPDEST SWAP1 POP SWAP3 SWAP6 SWAP2 SWAP5 POP SWAP3 POP JUMP JUMPDEST PUSH1 0x20 DUP1 DUP3 MSTORE DUP3 MLOAD DUP3 DUP3 ADD DUP2 SWAP1 MSTORE PUSH0 SWAP2 DUP5 ADD SWAP1 PUSH1 0x40 DUP5 ADD SWAP1 DUP4 JUMPDEST DUP2 DUP2 LT ISZERO PUSH2 0x2F0E JUMPI DUP4 MLOAD PUSH4 0xFFFFFFFF AND DUP4 MSTORE PUSH1 0x20 SWAP4 DUP5 ADD SWAP4 SWAP1 SWAP3 ADD SWAP2 PUSH1 0x1 ADD PUSH2 0x2EEA JUMP JUMPDEST POP SWAP1 SWAP6 SWAP5 POP POP POP POP POP JUMP JUMPDEST PUSH0 DUP3 PUSH1 0x1F DUP4 ADD SLT PUSH2 0x2F28 JUMPI PUSH0 DUP1 REVERT JUMPDEST DUP2 MLOAD PUSH2 0x2F36 PUSH2 0x2D11 DUP3 PUSH2 0x2CAA JUMP JUMPDEST DUP1 DUP3 DUP3 MSTORE PUSH1 0x20 DUP3 ADD SWAP2 POP PUSH1 0x20 DUP4 PUSH1 0x5 SHL DUP7 ADD ADD SWAP3 POP DUP6 DUP4 GT ISZERO PUSH2 0x2F57 JUMPI PUSH0 DUP1 REVERT JUMPDEST PUSH1 0x20 DUP6 ADD JUMPDEST DUP4 DUP2 LT ISZERO PUSH2 0x2F7D JUMPI DUP1 MLOAD PUSH2 0x2F6F DUP2 PUSH2 0x2836 JUMP JUMPDEST DUP4 MSTORE PUSH1 0x20 SWAP3 DUP4 ADD SWAP3 ADD PUSH2 0x2F5C JUMP JUMPDEST POP SWAP6 SWAP5 POP POP POP POP POP JUMP JUMPDEST PUSH0 DUP1 PUSH1 0x40 DUP4 DUP6 SUB SLT ISZERO PUSH2 0x2F98 JUMPI PUSH0 DUP1 REVERT JUMPDEST DUP3 MLOAD PUSH8 0xFFFFFFFFFFFFFFFF DUP2 GT ISZERO PUSH2 0x2FAE JUMPI PUSH0 DUP1 REVERT JUMPDEST DUP4 ADD PUSH1 0x1F DUP2 ADD DUP6 SGT PUSH2 0x2FBE JUMPI PUSH0 DUP1 REVERT JUMPDEST DUP1 MLOAD PUSH2 0x2FCC PUSH2 0x2D11 DUP3 PUSH2 0x2CAA JUMP JUMPDEST DUP1 DUP3 DUP3 MSTORE PUSH1 0x20 DUP3 ADD SWAP2 POP PUSH1 0x20 DUP4 PUSH1 0x5 SHL DUP6 ADD ADD SWAP3 POP DUP8 DUP4 GT ISZERO PUSH2 0x2FED JUMPI PUSH0 DUP1 REVERT JUMPDEST PUSH1 0x20 DUP5 ADD SWAP4 POP JUMPDEST DUP3 DUP5 LT ISZERO PUSH2 0x3016 JUMPI PUSH2 0x3005 DUP5 PUSH2 0x2E6B JUMP JUMPDEST DUP3 MSTORE PUSH1 0x20 SWAP4 DUP5 ADD SWAP4 SWAP1 SWAP2 ADD SWAP1 PUSH2 0x2FF4 JUMP JUMPDEST DUP1 SWAP6 POP POP POP POP POP PUSH1 0x20 DUP4 ADD MLOAD PUSH8 0xFFFFFFFFFFFFFFFF DUP2 GT ISZERO PUSH2 0x3036 JUMPI PUSH0 DUP1 REVERT JUMPDEST PUSH2 0x3042 DUP6 DUP3 DUP7 ADD PUSH2 0x2F19 JUMP JUMPDEST SWAP2 POP POP SWAP3 POP SWAP3 SWAP1 POP JUMP JUMPDEST PUSH1 0x6 DUP3 DUP2 SIGNEXTEND SWAP1 DUP3 SWAP1 SIGNEXTEND SUB PUSH7 0x7FFFFFFFFFFFFF NOT DUP2 SLT PUSH7 0x7FFFFFFFFFFFFF DUP3 SGT OR ISZERO PUSH2 0x11CE JUMPI PUSH2 0x11CE PUSH2 0x2865 JUMP JUMPDEST PUSH1 0x1 PUSH1 0x1 PUSH1 0xA0 SHL SUB DUP3 DUP2 AND DUP3 DUP3 AND SUB SWAP1 DUP2 GT ISZERO PUSH2 0x11CE JUMPI PUSH2 0x11CE PUSH2 0x2865 JUMP JUMPDEST PUSH0 DUP2 PUSH1 0x6 SIGNEXTEND DUP4 PUSH1 0x6 SIGNEXTEND DUP1 PUSH2 0x30AE JUMPI PUSH2 0x30AE PUSH2 0x2895 JUMP JUMPDEST PUSH7 0x7FFFFFFFFFFFFF NOT DUP3 EQ PUSH0 NOT DUP3 EQ AND ISZERO PUSH2 0x296B JUMPI PUSH2 0x296B PUSH2 0x2865 JUMP JUMPDEST PUSH0 DUP3 PUSH1 0x6 SIGNEXTEND DUP1 PUSH2 0x30DD JUMPI PUSH2 0x30DD PUSH2 0x2895 JUMP JUMPDEST DUP1 DUP4 PUSH1 0x6 SIGNEXTEND SMOD SWAP2 POP POP SWAP3 SWAP2 POP POP JUMP JUMPDEST PUSH0 DUP2 PUSH1 0x2 SIGNEXTEND PUSH3 0x7FFFFF NOT DUP2 SUB PUSH2 0x3104 JUMPI PUSH2 0x3104 PUSH2 0x2865 JUMP JUMPDEST PUSH0 NOT ADD SWAP3 SWAP2 POP POP JUMP JUMPDEST PUSH1 0x1 PUSH1 0x1 PUSH1 0xC0 SHL SUB DUP2 DUP2 AND DUP4 DUP3 AND DUP2 DUP2 MUL SWAP1 SWAP3 AND SWAP2 DUP2 DUP4 DIV DUP2 EQ DUP3 ISZERO OR PUSH2 0x3136 JUMPI PUSH2 0x3136 PUSH2 0x2865 JUMP JUMPDEST POP POP SWAP3 SWAP2 POP POP JUMP JUMPDEST PUSH0 PUSH1 0x1 PUSH1 0x1 PUSH1 0xC0 SHL SUB DUP4 AND DUP1 PUSH2 0x3156 JUMPI PUSH2 0x3156 PUSH2 0x2895 JUMP JUMPDEST PUSH1 0x1 PUSH1 0x1 PUSH1 0xC0 SHL SUB SWAP3 SWAP1 SWAP3 AND SWAP2 SWAP1 SWAP2 DIV SWAP3 SWAP2 POP POP JUMP JUMPDEST PUSH1 0xFF DUP3 DUP2 AND DUP3 DUP3 AND SUB SWAP1 DUP2 GT ISZERO PUSH2 0x11CE JUMPI PUSH2 0x11CE PUSH2 0x2865 JUMP JUMPDEST PUSH1 0x20 DUP2 MSTORE PUSH0 DUP3 MLOAD PUSH1 0xA0 PUSH1 0x20 DUP5 ADD MSTORE DUP1 MLOAD DUP1 PUSH1 0xC0 DUP6 ADD MSTORE DUP1 PUSH1 0x20 DUP4 ADD PUSH1 0xE0 DUP7 ADD MCOPY PUSH0 PUSH1 0xE0 DUP3 DUP7 ADD ADD MSTORE PUSH1 0x1 DUP1 PUSH1 0xA0 SHL SUB PUSH1 0x20 DUP7 ADD MLOAD AND PUSH1 0x40 DUP6 ADD MSTORE PUSH1 0x40 DUP6 ADD MLOAD PUSH1 0x60 DUP6 ADD MSTORE PUSH1 0x60 DUP6 ADD MLOAD PUSH1 0x80 DUP6 ADD MSTORE PUSH1 0x80 DUP6 ADD MLOAD PUSH1 0xA0 DUP6 ADD MSTORE PUSH1 0xE0 PUSH1 0x1F NOT PUSH1 0x1F DUP4 ADD AND DUP6 ADD ADD SWAP3 POP POP POP SWAP3 SWAP2 POP POP JUMP JUMPDEST PUSH1 0x1 PUSH1 0x1 PUSH1 0x80 SHL SUB DUP2 DUP2 AND DUP4 DUP3 AND MUL SWAP1 DUP2 AND SWAP1 DUP2 DUP2 EQ PUSH2 0x290B JUMPI PUSH2 0x290B PUSH2 0x2865 JUMP JUMPDEST PUSH1 0x1 PUSH1 0x1 PUSH1 0x80 SHL SUB DUP2 DUP2 AND DUP4 DUP3 AND ADD SWAP1 DUP2 GT ISZERO PUSH2 0x11CE JUMPI PUSH2 0x11CE PUSH2 0x2865 JUMP JUMPDEST PUSH0 PUSH4 0xFFFFFFFF DUP3 AND PUSH4 0xFFFFFFFF DUP2 SUB PUSH2 0x2D86 JUMPI PUSH2 0x2D86 PUSH2 0x2865 JUMP JUMPDEST PUSH2 0xFFFF DUP3 DUP2 AND DUP3 DUP3 AND SUB SWAP1 DUP2 GT ISZERO PUSH2 0x11CE JUMPI PUSH2 0x11CE PUSH2 0x2865 JUMP INVALID LOG2 PUSH5 0x6970667358 0x22 SLT KECCAK256 PUSH27 0x5FA5EC7B30DAFBAB70B6E755C42AB10FE039AED4D9A9FF58230E4D MULMOD SWAP10 0xC9 EXTCODEHASH PUSH5 0x736F6C6343 STOP ADDMOD BYTE STOP CALLER "
		},
		"gasEstimates": {
			"creation": {
				"codeDepositCost": "2592000",
				"executionCost": "infinite",
				"totalCost": "infinite"
			},
			"external": {
				"POSITION_MANAGER()": "283",
				"acceptOwnership()": "infinite",
				"addLiquidityToMorpheusDragonxPool(uint32,uint256)": "infinite",
				"burnFees()": "infinite",
				"burnMorpheus()": "infinite",
				"currWeekDay()": "infinite",
				"dayCountByT(uint32)": "infinite",
				"distributeTitanXForBurning(uint256)": "infinite",
				"getDailyTitanXAllocation(uint8)": "493",
				"getDayEnd(uint32)": "infinite",
				"getDragonxQuoteForTitanX(uint256)": "infinite",
				"getMorpheusQuoteForDragonx(uint256)": "infinite",
				"intervals(uint32)": "2682",
				"lastBurnedIntervalStartTimestamp()": "2336",
				"lastIntervalNumber()": "2347",
				"liquidityAdded()": "2398",
				"morpheusToken()": "infinite",
				"owner()": "2420",
				"pendingOwner()": "2396",
				"renounceOwnership()": "infinite",
				"setSlippageForDragonxToMorpheus(uint8)": "26824",
				"startTimeStamp()": "infinite",
				"swapTitanXForMorpheusAndBurn(uint256,uint32)": "infinite",
				"totalMorpheusBurnt()": "2339",
				"totalTitanXDistributed()": "2383",
				"transferOwnership(address)": "30495",
				"weekDayByT(uint32)": "infinite"
			},
			"internal": {
				"_calculateIntervals(uint256)": "infinite",
				"_calculateMissedIntervals(uint256)": "infinite",
				"_intervalUpdate()": "infinite",
				"_minus10Perc(uint256)": "infinite",
				"_sortAmounts(uint256,uint256)": "infinite",
				"_swapDragonxForMorpheus(uint256,uint256)": "infinite",
				"_swapTitanForDragonx(uint256,uint256,uint256)": "infinite"
			}
		},
		"methodIdentifiers": {
			"POSITION_MANAGER()": "1bea83fe",
			"acceptOwnership()": "79ba5097",
			"addLiquidityToMorpheusDragonxPool(uint32,uint256)": "2d8a19fe",
			"burnFees()": "40f6ac31",
			"burnMorpheus()": "27ab48eb",
			"currWeekDay()": "225a4699",
			"dayCountByT(uint32)": "2ec9c3b4",
			"distributeTitanXForBurning(uint256)": "30dc71ac",
			"getDailyTitanXAllocation(uint8)": "9f0e9460",
			"getDayEnd(uint32)": "158a3b12",
			"getDragonxQuoteForTitanX(uint256)": "c1b309ec",
			"getMorpheusQuoteForDragonx(uint256)": "aba05870",
			"intervals(uint32)": "ad1b63f4",
			"lastBurnedIntervalStartTimestamp()": "090f8ad4",
			"lastIntervalNumber()": "782ee170",
			"liquidityAdded()": "d9443923",
			"morpheusToken()": "48cd5315",
			"owner()": "8da5cb5b",
			"pendingOwner()": "e30c3978",
			"renounceOwnership()": "715018a6",
			"setSlippageForDragonxToMorpheus(uint8)": "5dee31a7",
			"startTimeStamp()": "f38d00f0",
			"swapTitanXForMorpheusAndBurn(uint256,uint32)": "c8a507f0",
			"totalMorpheusBurnt()": "c2dd37e2",
			"totalTitanXDistributed()": "6aadede7",
			"transferOwnership(address)": "f2fde38b",
			"weekDayByT(uint32)": "df49d315"
		}
	},
	"abi": [
		{
			"inputs": [
				{
					"internalType": "uint32",
					"name": "startTimestamp",
					"type": "uint32"
				},
				{
					"internalType": "address",
					"name": "_dragonxTitanXPool",
					"type": "address"
				},
				{
					"internalType": "address",
					"name": "_titanX",
					"type": "address"
				},
				{
					"internalType": "address",
					"name": "_dragonx",
					"type": "address"
				},
				{
					"internalType": "address",
					"name": "_owner",
					"type": "address"
				}
			],
			"stateMutability": "payable",
			"type": "constructor"
		},
		{
			"inputs": [],
			"name": "IntervalAlreadyBurned",
			"type": "error"
		},
		{
			"inputs": [],
			"name": "InvalidInput",
			"type": "error"
		},
		{
			"inputs": [],
			"name": "LiquidityAlreadyAdded",
			"type": "error"
		},
		{
			"inputs": [],
			"name": "MathOverflowedMulDiv",
			"type": "error"
		},
		{
			"inputs": [],
			"name": "NotEnoughTitanXForLiquidity",
			"type": "error"
		},
		{
			"inputs": [],
			"name": "NotStartedYet",
			"type": "error"
		},
		{
			"inputs": [],
			"name": "OnlyMinting",
			"type": "error"
		},
		{
			"inputs": [],
			"name": "OnlySlippageAdmin",
			"type": "error"
		},
		{
			"inputs": [
				{
					"internalType": "address",
					"name": "owner",
					"type": "address"
				}
			],
			"name": "OwnableInvalidOwner",
			"type": "error"
		},
		{
			"inputs": [
				{
					"internalType": "address",
					"name": "account",
					"type": "address"
				}
			],
			"name": "OwnableUnauthorizedAccount",
			"type": "error"
		},
		{
			"inputs": [],
			"name": "ReentrancyGuardReentrantCall",
			"type": "error"
		},
		{
			"inputs": [],
			"name": "T",
			"type": "error"
		},
		{
			"anonymous": false,
			"inputs": [
				{
					"indexed": true,
					"internalType": "uint256",
					"name": "titanXAmount",
					"type": "uint256"
				},
				{
					"indexed": true,
					"internalType": "uint256",
					"name": "morpheusBurnt",
					"type": "uint256"
				},
				{
					"indexed": true,
					"internalType": "address",
					"name": "caller",
					"type": "address"
				}
			],
			"name": "BuyAndBurn",
			"type": "event"
		},
		{
			"anonymous": false,
			"inputs": [
				{
					"indexed": true,
					"internalType": "address",
					"name": "previousOwner",
					"type": "address"
				},
				{
					"indexed": true,
					"internalType": "address",
					"name": "newOwner",
					"type": "address"
				}
			],
			"name": "OwnershipTransferStarted",
			"type": "event"
		},
		{
			"anonymous": false,
			"inputs": [
				{
					"indexed": true,
					"internalType": "address",
					"name": "previousOwner",
					"type": "address"
				},
				{
					"indexed": true,
					"internalType": "address",
					"name": "newOwner",
					"type": "address"
				}
			],
			"name": "OwnershipTransferred",
			"type": "event"
		},
		{
			"inputs": [],
			"name": "POSITION_MANAGER",
			"outputs": [
				{
					"internalType": "contract INonfungiblePositionManager",
					"name": "",
					"type": "address"
				}
			],
			"stateMutability": "view",
			"type": "function"
		},
		{
			"inputs": [],
			"name": "acceptOwnership",
			"outputs": [],
			"stateMutability": "nonpayable",
			"type": "function"
		},
		{
			"inputs": [
				{
					"internalType": "uint32",
					"name": "_deadline",
					"type": "uint32"
				},
				{
					"internalType": "uint256",
					"name": "_amountDragonxMin",
					"type": "uint256"
				}
			],
			"name": "addLiquidityToMorpheusDragonxPool",
			"outputs": [],
			"stateMutability": "nonpayable",
			"type": "function"
		},
		{
			"inputs": [],
			"name": "burnFees",
			"outputs": [
				{
					"internalType": "uint256",
					"name": "amount0",
					"type": "uint256"
				},
				{
					"internalType": "uint256",
					"name": "amount1",
					"type": "uint256"
				}
			],
			"stateMutability": "nonpayable",
			"type": "function"
		},
		{
			"inputs": [],
			"name": "burnMorpheus",
			"outputs": [],
			"stateMutability": "nonpayable",
			"type": "function"
		},
		{
			"inputs": [],
			"name": "currWeekDay",
			"outputs": [
				{
					"internalType": "uint8",
					"name": "weekDay",
					"type": "uint8"
				}
			],
			"stateMutability": "view",
			"type": "function"
		},
		{
			"inputs": [
				{
					"internalType": "uint32",
					"name": "t",
					"type": "uint32"
				}
			],
			"name": "dayCountByT",
			"outputs": [
				{
					"internalType": "uint32",
					"name": "",
					"type": "uint32"
				}
			],
			"stateMutability": "pure",
			"type": "function"
		},
		{
			"inputs": [
				{
					"internalType": "uint256",
					"name": "_amount",
					"type": "uint256"
				}
			],
			"name": "distributeTitanXForBurning",
			"outputs": [],
			"stateMutability": "nonpayable",
			"type": "function"
		},
		{
			"inputs": [
				{
					"internalType": "uint8",
					"name": "weekDay",
					"type": "uint8"
				}
			],
			"name": "getDailyTitanXAllocation",
			"outputs": [
				{
					"internalType": "uint32",
					"name": "dailyBPSAllocation",
					"type": "uint32"
				}
			],
			"stateMutability": "pure",
			"type": "function"
		},
		{
			"inputs": [
				{
					"internalType": "uint32",
					"name": "t",
					"type": "uint32"
				}
			],
			"name": "getDayEnd",
			"outputs": [
				{
					"internalType": "uint32",
					"name": "",
					"type": "uint32"
				}
			],
			"stateMutability": "pure",
			"type": "function"
		},
		{
			"inputs": [
				{
					"internalType": "uint256",
					"name": "titanXAmount",
					"type": "uint256"
				}
			],
			"name": "getDragonxQuoteForTitanX",
			"outputs": [
				{
					"internalType": "uint256",
					"name": "quote",
					"type": "uint256"
				}
			],
			"stateMutability": "view",
			"type": "function"
		},
		{
			"inputs": [
				{
					"internalType": "uint256",
					"name": "baseAmount",
					"type": "uint256"
				}
			],
			"name": "getMorpheusQuoteForDragonx",
			"outputs": [
				{
					"internalType": "uint256",
					"name": "quote",
					"type": "uint256"
				}
			],
			"stateMutability": "view",
			"type": "function"
		},
		{
			"inputs": [
				{
					"internalType": "uint32",
					"name": "interval",
					"type": "uint32"
				}
			],
			"name": "intervals",
			"outputs": [
				{
					"internalType": "uint128",
					"name": "amountAllocated",
					"type": "uint128"
				},
				{
					"internalType": "uint128",
					"name": "amountBurned",
					"type": "uint128"
				}
			],
			"stateMutability": "view",
			"type": "function"
		},
		{
			"inputs": [],
			"name": "lastBurnedIntervalStartTimestamp",
			"outputs": [
				{
					"internalType": "uint32",
					"name": "",
					"type": "uint32"
				}
			],
			"stateMutability": "view",
			"type": "function"
		},
		{
			"inputs": [],
			"name": "lastIntervalNumber",
			"outputs": [
				{
					"internalType": "uint32",
					"name": "",
					"type": "uint32"
				}
			],
			"stateMutability": "view",
			"type": "function"
		},
		{
			"inputs": [],
			"name": "liquidityAdded",
			"outputs": [
				{
					"internalType": "bool",
					"name": "",
					"type": "bool"
				}
			],
			"stateMutability": "view",
			"type": "function"
		},
		{
			"inputs": [],
			"name": "morpheusToken",
			"outputs": [
				{
					"internalType": "contract Morpheus",
					"name": "",
					"type": "address"
				}
			],
			"stateMutability": "view",
			"type": "function"
		},
		{
			"inputs": [],
			"name": "owner",
			"outputs": [
				{
					"internalType": "address",
					"name": "",
					"type": "address"
				}
			],
			"stateMutability": "view",
			"type": "function"
		},
		{
			"inputs": [],
			"name": "pendingOwner",
			"outputs": [
				{
					"internalType": "address",
					"name": "",
					"type": "address"
				}
			],
			"stateMutability": "view",
			"type": "function"
		},
		{
			"inputs": [],
			"name": "renounceOwnership",
			"outputs": [],
			"stateMutability": "nonpayable",
			"type": "function"
		},
		{
			"inputs": [
				{
					"internalType": "uint8",
					"name": "_newSlippage",
					"type": "uint8"
				}
			],
			"name": "setSlippageForDragonxToMorpheus",
			"outputs": [],
			"stateMutability": "nonpayable",
			"type": "function"
		},
		{
			"inputs": [],
			"name": "startTimeStamp",
			"outputs": [
				{
					"internalType": "uint32",
					"name": "",
					"type": "uint32"
				}
			],
			"stateMutability": "view",
			"type": "function"
		},
		{
			"inputs": [
				{
					"internalType": "uint256",
					"name": "_amountDragonxMin",
					"type": "uint256"
				},
				{
					"internalType": "uint32",
					"name": "_deadline",
					"type": "uint32"
				}
			],
			"name": "swapTitanXForMorpheusAndBurn",
			"outputs": [],
			"stateMutability": "nonpayable",
			"type": "function"
		},
		{
			"inputs": [],
			"name": "totalMorpheusBurnt",
			"outputs": [
				{
					"internalType": "uint256",
					"name": "",
					"type": "uint256"
				}
			],
			"stateMutability": "view",
			"type": "function"
		},
		{
			"inputs": [],
			"name": "totalTitanXDistributed",
			"outputs": [
				{
					"internalType": "uint256",
					"name": "",
					"type": "uint256"
				}
			],
			"stateMutability": "view",
			"type": "function"
		},
		{
			"inputs": [
				{
					"internalType": "address",
					"name": "newOwner",
					"type": "address"
				}
			],
			"name": "transferOwnership",
			"outputs": [],
			"stateMutability": "nonpayable",
			"type": "function"
		},
		{
			"inputs": [
				{
					"internalType": "uint32",
					"name": "t",
					"type": "uint32"
				}
			],
			"name": "weekDayByT",
			"outputs": [
				{
					"internalType": "uint8",
					"name": "",
					"type": "uint8"
				}
			],
			"stateMutability": "pure",
			"type": "function"
		}
	]
}